{
  "address": "0x3f960f5704138dfB68D7D8e95204b38681aFEA9d",
  "abi": [
    {
      "inputs": [
        {
          "internalType": "contract IRenderer",
          "name": "render_",
          "type": "address"
        }
      ],
      "stateMutability": "nonpayable",
      "type": "constructor"
    },
    {
      "inputs": [],
      "name": "OnlySimulatedBackend",
      "type": "error"
    },
    {
      "anonymous": false,
      "inputs": [
        {
          "indexed": true,
          "internalType": "address",
          "name": "owner",
          "type": "address"
        },
        {
          "indexed": true,
          "internalType": "address",
          "name": "approved",
          "type": "address"
        },
        {
          "indexed": true,
          "internalType": "uint256",
          "name": "tokenId",
          "type": "uint256"
        }
      ],
      "name": "Approval",
      "type": "event"
    },
    {
      "anonymous": false,
      "inputs": [
        {
          "indexed": true,
          "internalType": "address",
          "name": "owner",
          "type": "address"
        },
        {
          "indexed": true,
          "internalType": "address",
          "name": "operator",
          "type": "address"
        },
        {
          "indexed": false,
          "internalType": "bool",
          "name": "approved",
          "type": "bool"
        }
      ],
      "name": "ApprovalForAll",
      "type": "event"
    },
    {
      "anonymous": false,
      "inputs": [
        {
          "indexed": false,
          "internalType": "uint256",
          "name": "currentEpoch",
          "type": "uint256"
        }
      ],
      "name": "EpochUpdated",
      "type": "event"
    },
    {
      "anonymous": false,
      "inputs": [
        {
          "indexed": false,
          "internalType": "string",
          "name": "newUri",
          "type": "string"
        }
      ],
      "name": "EvCampaignUriSet",
      "type": "event"
    },
    {
      "anonymous": false,
      "inputs": [
        {
          "indexed": false,
          "internalType": "uint256",
          "name": "challengerId",
          "type": "uint256"
        },
        {
          "indexed": false,
          "internalType": "uint256",
          "name": "cheaterId",
          "type": "uint256"
        },
        {
          "indexed": false,
          "internalType": "uint256",
          "name": "challengeRecordId",
          "type": "uint256"
        }
      ],
      "name": "EvChallenge",
      "type": "event"
    },
    {
      "anonymous": false,
      "inputs": [
        {
          "indexed": false,
          "internalType": "uint256",
          "name": "cheaterId",
          "type": "uint256"
        }
      ],
      "name": "EvCheat",
      "type": "event"
    },
    {
      "anonymous": false,
      "inputs": [
        {
          "indexed": false,
          "internalType": "uint256",
          "name": "epoch",
          "type": "uint256"
        },
        {
          "indexed": false,
          "internalType": "uint256",
          "name": "tokenId",
          "type": "uint256"
        },
        {
          "indexed": false,
          "internalType": "string",
          "name": "contentUri",
          "type": "string"
        }
      ],
      "name": "EvCheckIn",
      "type": "event"
    },
    {
      "anonymous": false,
      "inputs": [
        {
          "indexed": false,
          "internalType": "uint256",
          "name": "tokenId",
          "type": "uint256"
        },
        {
          "indexed": false,
          "internalType": "uint256",
          "name": "amount",
          "type": "uint256"
        }
      ],
      "name": "EvClaimReward",
      "type": "event"
    },
    {
      "anonymous": false,
      "inputs": [
        {
          "indexed": false,
          "internalType": "uint256",
          "name": "tokenId",
          "type": "uint256"
        }
      ],
      "name": "EvFailure",
      "type": "event"
    },
    {
      "anonymous": false,
      "inputs": [
        {
          "indexed": false,
          "internalType": "uint256",
          "name": "challengeRecordId",
          "type": "uint256"
        }
      ],
      "name": "EvJudgement",
      "type": "event"
    },
    {
      "anonymous": false,
      "inputs": [
        {
          "indexed": false,
          "internalType": "uint256[]",
          "name": "tokenList",
          "type": "uint256[]"
        },
        {
          "indexed": false,
          "internalType": "bool[]",
          "name": "status",
          "type": "bool[]"
        }
      ],
      "name": "EvModifyRegistry",
      "type": "event"
    },
    {
      "anonymous": false,
      "inputs": [
        {
          "indexed": false,
          "internalType": "uint256",
          "name": "tokenId",
          "type": "uint256"
        }
      ],
      "name": "EvRegisterSuccessfully",
      "type": "event"
    },
    {
      "anonymous": false,
      "inputs": [
        {
          "indexed": false,
          "internalType": "address",
          "name": "user",
          "type": "address"
        }
      ],
      "name": "EvSettle",
      "type": "event"
    },
    {
      "anonymous": false,
      "inputs": [
        {
          "indexed": false,
          "internalType": "uint256",
          "name": "tokenId",
          "type": "uint256"
        }
      ],
      "name": "EvSignUp",
      "type": "event"
    },
    {
      "anonymous": false,
      "inputs": [
        {
          "indexed": false,
          "internalType": "uint256",
          "name": "tokenId",
          "type": "uint256"
        }
      ],
      "name": "EvSuccess",
      "type": "event"
    },
    {
      "anonymous": false,
      "inputs": [
        {
          "indexed": false,
          "internalType": "uint256",
          "name": "tokenId",
          "type": "uint256"
        },
        {
          "indexed": false,
          "internalType": "uint256",
          "name": "challengeRecordId",
          "type": "uint256"
        }
      ],
      "name": "EvVote",
      "type": "event"
    },
    {
      "anonymous": false,
      "inputs": [
        {
          "indexed": false,
          "internalType": "address",
          "name": "host",
          "type": "address"
        },
        {
          "indexed": false,
          "internalType": "uint256",
          "name": "hostReward",
          "type": "uint256"
        },
        {
          "indexed": false,
          "internalType": "uint256",
          "name": "protocolFee",
          "type": "uint256"
        }
      ],
      "name": "EvWithDraw",
      "type": "event"
    },
    {
      "anonymous": false,
      "inputs": [
        {
          "indexed": false,
          "internalType": "uint8",
          "name": "version",
          "type": "uint8"
        }
      ],
      "name": "Initialized",
      "type": "event"
    },
    {
      "anonymous": false,
      "inputs": [
        {
          "indexed": true,
          "internalType": "address",
          "name": "previousOwner",
          "type": "address"
        },
        {
          "indexed": true,
          "internalType": "address",
          "name": "newOwner",
          "type": "address"
        }
      ],
      "name": "OwnershipTransferred",
      "type": "event"
    },
    {
      "anonymous": false,
      "inputs": [
        {
          "indexed": true,
          "internalType": "address",
          "name": "from",
          "type": "address"
        },
        {
          "indexed": true,
          "internalType": "address",
          "name": "to",
          "type": "address"
        },
        {
          "indexed": true,
          "internalType": "uint256",
          "name": "tokenId",
          "type": "uint256"
        }
      ],
      "name": "Transfer",
      "type": "event"
    },
    {
      "inputs": [],
      "name": "_challengeIdx",
      "outputs": [
        {
          "internalType": "uint256",
          "name": "",
          "type": "uint256"
        }
      ],
      "stateMutability": "view",
      "type": "function"
    },
    {
      "inputs": [],
      "name": "_idx",
      "outputs": [
        {
          "internalType": "uint256",
          "name": "",
          "type": "uint256"
        }
      ],
      "stateMutability": "view",
      "type": "function"
    },
    {
      "inputs": [
        {
          "internalType": "uint256[]",
          "name": "allowlists",
          "type": "uint256[]"
        }
      ],
      "name": "admit",
      "outputs": [],
      "stateMutability": "nonpayable",
      "type": "function"
    },
    {
      "inputs": [
        {
          "internalType": "address",
          "name": "to",
          "type": "address"
        },
        {
          "internalType": "uint256",
          "name": "tokenId",
          "type": "uint256"
        }
      ],
      "name": "approve",
      "outputs": [],
      "stateMutability": "nonpayable",
      "type": "function"
    },
    {
      "inputs": [
        {
          "internalType": "address",
          "name": "owner",
          "type": "address"
        }
      ],
      "name": "balanceOf",
      "outputs": [
        {
          "internalType": "uint256",
          "name": "",
          "type": "uint256"
        }
      ],
      "stateMutability": "view",
      "type": "function"
    },
    {
      "inputs": [],
      "name": "campaignUri",
      "outputs": [
        {
          "internalType": "string",
          "name": "",
          "type": "string"
        }
      ],
      "stateMutability": "view",
      "type": "function"
    },
    {
      "inputs": [
        {
          "internalType": "uint256",
          "name": "challengerId",
          "type": "uint256"
        },
        {
          "internalType": "uint256",
          "name": "cheaterId",
          "type": "uint256"
        },
        {
          "internalType": "uint256",
          "name": "epoch",
          "type": "uint256"
        }
      ],
      "name": "challenge",
      "outputs": [],
      "stateMutability": "nonpayable",
      "type": "function"
    },
    {
      "inputs": [],
      "name": "challengeJudgedCount",
      "outputs": [
        {
          "internalType": "uint256",
          "name": "",
          "type": "uint256"
        }
      ],
      "stateMutability": "view",
      "type": "function"
    },
    {
      "inputs": [],
      "name": "challengeLength",
      "outputs": [
        {
          "internalType": "uint256",
          "name": "",
          "type": "uint256"
        }
      ],
      "stateMutability": "view",
      "type": "function"
    },
    {
      "inputs": [
        {
          "internalType": "uint256",
          "name": "",
          "type": "uint256"
        }
      ],
      "name": "challengeList",
      "outputs": [
        {
          "internalType": "uint256",
          "name": "",
          "type": "uint256"
        }
      ],
      "stateMutability": "view",
      "type": "function"
    },
    {
      "inputs": [
        {
          "internalType": "uint256",
          "name": "",
          "type": "uint256"
        }
      ],
      "name": "challengeRecords",
      "outputs": [
        {
          "internalType": "uint256",
          "name": "challengerId",
          "type": "uint256"
        },
        {
          "internalType": "uint256",
          "name": "cheaterId",
          "type": "uint256"
        },
        {
          "internalType": "uint256",
          "name": "epoch",
          "type": "uint256"
        },
        {
          "internalType": "uint256",
          "name": "agreeCount",
          "type": "uint256"
        },
        {
          "internalType": "uint256",
          "name": "disagreeCount",
          "type": "uint256"
        },
        {
          "internalType": "uint256",
          "name": "challengeRiseTime",
          "type": "uint256"
        },
        {
          "internalType": "enum ICampaign.ChallengeResult",
          "name": "result",
          "type": "uint8"
        },
        {
          "internalType": "bool",
          "name": "judged",
          "type": "bool"
        }
      ],
      "stateMutability": "view",
      "type": "function"
    },
    {
      "inputs": [
        {
          "internalType": "bytes32",
          "name": "",
          "type": "bytes32"
        }
      ],
      "name": "challengedRecords",
      "outputs": [
        {
          "internalType": "bool",
          "name": "",
          "type": "bool"
        }
      ],
      "stateMutability": "view",
      "type": "function"
    },
    {
      "inputs": [],
      "name": "cheatCount",
      "outputs": [
        {
          "internalType": "uint256",
          "name": "",
          "type": "uint256"
        }
      ],
      "stateMutability": "view",
      "type": "function"
    },
    {
      "inputs": [
        {
          "internalType": "string",
          "name": "contentUri",
          "type": "string"
        },
        {
          "internalType": "uint256",
          "name": "tokenId",
          "type": "uint256"
        }
      ],
      "name": "checkIn",
      "outputs": [],
      "stateMutability": "nonpayable",
      "type": "function"
    },
    {
      "inputs": [
        {
          "internalType": "bytes",
          "name": "",
          "type": "bytes"
        }
      ],
      "name": "checkUpkeep",
      "outputs": [
        {
          "internalType": "bool",
          "name": "upkeepNeeded",
          "type": "bool"
        },
        {
          "internalType": "bytes",
          "name": "performData",
          "type": "bytes"
        }
      ],
      "stateMutability": "view",
      "type": "function"
    },
    {
      "inputs": [
        {
          "internalType": "uint256",
          "name": "tokenId",
          "type": "uint256"
        }
      ],
      "name": "claim",
      "outputs": [],
      "stateMutability": "nonpayable",
      "type": "function"
    },
    {
      "inputs": [
        {
          "internalType": "uint256",
          "name": "tokenId",
          "type": "uint256"
        }
      ],
      "name": "claimAndWithdraw",
      "outputs": [],
      "stateMutability": "nonpayable",
      "type": "function"
    },
    {
      "inputs": [],
      "name": "currentEpoch",
      "outputs": [
        {
          "internalType": "uint256",
          "name": "",
          "type": "uint256"
        }
      ],
      "stateMutability": "view",
      "type": "function"
    },
    {
      "inputs": [],
      "name": "forceEnd",
      "outputs": [],
      "stateMutability": "nonpayable",
      "type": "function"
    },
    {
      "inputs": [
        {
          "internalType": "uint256",
          "name": "tokenId",
          "type": "uint256"
        }
      ],
      "name": "getApproved",
      "outputs": [
        {
          "internalType": "address",
          "name": "",
          "type": "address"
        }
      ],
      "stateMutability": "view",
      "type": "function"
    },
    {
      "inputs": [
        {
          "internalType": "uint256",
          "name": "tokenId",
          "type": "uint256"
        }
      ],
      "name": "getTokenProperties",
      "outputs": [
        {
          "components": [
            {
              "internalType": "enum ICampaign.TokenStatus",
              "name": "tokenStatus",
              "type": "uint8"
            },
            {
              "internalType": "uint256",
              "name": "pendingReward",
              "type": "uint256"
            }
          ],
          "internalType": "struct ICampaign.TokenProperty",
          "name": "",
          "type": "tuple"
        }
      ],
      "stateMutability": "view",
      "type": "function"
    },
    {
      "inputs": [],
      "name": "hostReward",
      "outputs": [
        {
          "internalType": "uint256",
          "name": "",
          "type": "uint256"
        }
      ],
      "stateMutability": "view",
      "type": "function"
    },
    {
      "inputs": [
        {
          "internalType": "address",
          "name": "owner",
          "type": "address"
        },
        {
          "internalType": "contract IERC20Upgradeable",
          "name": "token_",
          "type": "address"
        },
        {
          "internalType": "uint256",
          "name": "amount_",
          "type": "uint256"
        },
        {
          "internalType": "string",
          "name": "name_",
          "type": "string"
        },
        {
          "internalType": "string",
          "name": "symbol_",
          "type": "string"
        },
        {
          "internalType": "uint256",
          "name": "startTime_",
          "type": "uint256"
        },
        {
          "internalType": "uint256",
          "name": "totalPeriod_",
          "type": "uint256"
        },
        {
          "internalType": "uint256",
          "name": "periodLength_",
          "type": "uint256"
        },
        {
          "internalType": "uint256",
          "name": "challengeLength_",
          "type": "uint256"
        },
        {
          "internalType": "string",
          "name": "campaignUri_",
          "type": "string"
        }
      ],
      "name": "initialize",
      "outputs": [],
      "stateMutability": "nonpayable",
      "type": "function"
    },
    {
      "inputs": [
        {
          "internalType": "address",
          "name": "owner",
          "type": "address"
        },
        {
          "internalType": "address",
          "name": "operator",
          "type": "address"
        }
      ],
      "name": "isApprovedForAll",
      "outputs": [
        {
          "internalType": "bool",
          "name": "",
          "type": "bool"
        }
      ],
      "stateMutability": "view",
      "type": "function"
    },
    {
      "inputs": [
        {
          "internalType": "uint256",
          "name": "challengeRecordId",
          "type": "uint256"
        }
      ],
      "name": "judge",
      "outputs": [],
      "stateMutability": "nonpayable",
      "type": "function"
    },
    {
      "inputs": [],
      "name": "lastEpochEndTime",
      "outputs": [
        {
          "internalType": "uint256",
          "name": "",
          "type": "uint256"
        }
      ],
      "stateMutability": "view",
      "type": "function"
    },
    {
      "inputs": [
        {
          "internalType": "uint256[]",
          "name": "lists",
          "type": "uint256[]"
        },
        {
          "internalType": "bool[]",
          "name": "targetStatuses",
          "type": "bool[]"
        }
      ],
      "name": "modifyRegistry",
      "outputs": [],
      "stateMutability": "nonpayable",
      "type": "function"
    },
    {
      "inputs": [],
      "name": "name",
      "outputs": [
        {
          "internalType": "string",
          "name": "",
          "type": "string"
        }
      ],
      "stateMutability": "view",
      "type": "function"
    },
    {
      "inputs": [],
      "name": "owner",
      "outputs": [
        {
          "internalType": "address",
          "name": "",
          "type": "address"
        }
      ],
      "stateMutability": "view",
      "type": "function"
    },
    {
      "inputs": [
        {
          "internalType": "uint256",
          "name": "tokenId",
          "type": "uint256"
        }
      ],
      "name": "ownerOf",
      "outputs": [
        {
          "internalType": "address",
          "name": "",
          "type": "address"
        }
      ],
      "stateMutability": "view",
      "type": "function"
    },
    {
      "inputs": [
        {
          "internalType": "bytes",
          "name": "performData",
          "type": "bytes"
        }
      ],
      "name": "performUpkeep",
      "outputs": [],
      "stateMutability": "nonpayable",
      "type": "function"
    },
    {
      "inputs": [],
      "name": "period",
      "outputs": [
        {
          "internalType": "uint256",
          "name": "",
          "type": "uint256"
        }
      ],
      "stateMutability": "view",
      "type": "function"
    },
    {
      "inputs": [],
      "name": "protocolFee",
      "outputs": [
        {
          "internalType": "uint256",
          "name": "",
          "type": "uint256"
        }
      ],
      "stateMutability": "view",
      "type": "function"
    },
    {
      "inputs": [
        {
          "internalType": "uint256",
          "name": "",
          "type": "uint256"
        },
        {
          "internalType": "uint256",
          "name": "",
          "type": "uint256"
        }
      ],
      "name": "records",
      "outputs": [
        {
          "internalType": "string",
          "name": "contentUri",
          "type": "string"
        }
      ],
      "stateMutability": "view",
      "type": "function"
    },
    {
      "inputs": [],
      "name": "render",
      "outputs": [
        {
          "internalType": "contract IRenderer",
          "name": "",
          "type": "address"
        }
      ],
      "stateMutability": "view",
      "type": "function"
    },
    {
      "inputs": [],
      "name": "renounceOwnership",
      "outputs": [],
      "stateMutability": "nonpayable",
      "type": "function"
    },
    {
      "inputs": [],
      "name": "requiredAmount",
      "outputs": [
        {
          "internalType": "uint256",
          "name": "",
          "type": "uint256"
        }
      ],
      "stateMutability": "view",
      "type": "function"
    },
    {
      "inputs": [
        {
          "internalType": "address",
          "name": "from",
          "type": "address"
        },
        {
          "internalType": "address",
          "name": "to",
          "type": "address"
        },
        {
          "internalType": "uint256",
          "name": "tokenId",
          "type": "uint256"
        }
      ],
      "name": "safeTransferFrom",
      "outputs": [],
      "stateMutability": "nonpayable",
      "type": "function"
    },
    {
      "inputs": [
        {
          "internalType": "address",
          "name": "from",
          "type": "address"
        },
        {
          "internalType": "address",
          "name": "to",
          "type": "address"
        },
        {
          "internalType": "uint256",
          "name": "tokenId",
          "type": "uint256"
        },
        {
          "internalType": "bytes",
          "name": "data",
          "type": "bytes"
        }
      ],
      "name": "safeTransferFrom",
      "outputs": [],
      "stateMutability": "nonpayable",
      "type": "function"
    },
    {
      "inputs": [
        {
          "internalType": "address",
          "name": "operator",
          "type": "address"
        },
        {
          "internalType": "bool",
          "name": "approved",
          "type": "bool"
        }
      ],
      "name": "setApprovalForAll",
      "outputs": [],
      "stateMutability": "nonpayable",
      "type": "function"
    },
    {
      "inputs": [
        {
          "internalType": "string",
          "name": "newUri",
          "type": "string"
        }
      ],
      "name": "setCampaignUri",
      "outputs": [],
      "stateMutability": "nonpayable",
      "type": "function"
    },
    {
      "inputs": [],
      "name": "settle",
      "outputs": [],
      "stateMutability": "nonpayable",
      "type": "function"
    },
    {
      "inputs": [],
      "name": "sharedReward",
      "outputs": [
        {
          "internalType": "uint256",
          "name": "",
          "type": "uint256"
        }
      ],
      "stateMutability": "view",
      "type": "function"
    },
    {
      "inputs": [],
      "name": "signUp",
      "outputs": [],
      "stateMutability": "nonpayable",
      "type": "function"
    },
    {
      "inputs": [],
      "name": "startTime",
      "outputs": [
        {
          "internalType": "uint256",
          "name": "",
          "type": "uint256"
        }
      ],
      "stateMutability": "view",
      "type": "function"
    },
    {
      "inputs": [],
      "name": "status",
      "outputs": [
        {
          "internalType": "enum Consts.CampaignStatus",
          "name": "",
          "type": "uint8"
        }
      ],
      "stateMutability": "view",
      "type": "function"
    },
    {
      "inputs": [],
      "name": "successTokensCount",
      "outputs": [
        {
          "internalType": "uint256",
          "name": "",
          "type": "uint256"
        }
      ],
      "stateMutability": "view",
      "type": "function"
    },
    {
      "inputs": [
        {
          "internalType": "bytes4",
          "name": "interfaceId",
          "type": "bytes4"
        }
      ],
      "name": "supportsInterface",
      "outputs": [
        {
          "internalType": "bool",
          "name": "",
          "type": "bool"
        }
      ],
      "stateMutability": "view",
      "type": "function"
    },
    {
      "inputs": [],
      "name": "symbol",
      "outputs": [
        {
          "internalType": "string",
          "name": "",
          "type": "string"
        }
      ],
      "stateMutability": "view",
      "type": "function"
    },
    {
      "inputs": [],
      "name": "targetToken",
      "outputs": [
        {
          "internalType": "contract IERC20Upgradeable",
          "name": "",
          "type": "address"
        }
      ],
      "stateMutability": "view",
      "type": "function"
    },
    {
      "inputs": [
        {
          "internalType": "uint256",
          "name": "tokenId",
          "type": "uint256"
        }
      ],
      "name": "tokenURI",
      "outputs": [
        {
          "internalType": "string",
          "name": "",
          "type": "string"
        }
      ],
      "stateMutability": "view",
      "type": "function"
    },
    {
      "inputs": [],
      "name": "totalEpochsCount",
      "outputs": [
        {
          "internalType": "uint256",
          "name": "",
          "type": "uint256"
        }
      ],
      "stateMutability": "view",
      "type": "function"
    },
    {
      "inputs": [
        {
          "internalType": "address",
          "name": "from",
          "type": "address"
        },
        {
          "internalType": "address",
          "name": "to",
          "type": "address"
        },
        {
          "internalType": "uint256",
          "name": "tokenId",
          "type": "uint256"
        }
      ],
      "name": "transferFrom",
      "outputs": [],
      "stateMutability": "nonpayable",
      "type": "function"
    },
    {
      "inputs": [
        {
          "internalType": "address",
          "name": "newOwner",
          "type": "address"
        }
      ],
      "name": "transferOwnership",
      "outputs": [],
      "stateMutability": "nonpayable",
      "type": "function"
    },
    {
      "inputs": [
        {
          "internalType": "uint256",
          "name": "tokenId",
          "type": "uint256"
        },
        {
          "internalType": "uint256",
          "name": "challengeRecordId",
          "type": "uint256"
        },
        {
          "internalType": "bool",
          "name": "choice",
          "type": "bool"
        }
      ],
      "name": "vote",
      "outputs": [],
      "stateMutability": "nonpayable",
      "type": "function"
    },
    {
      "inputs": [
        {
          "internalType": "uint256",
          "name": "",
          "type": "uint256"
        },
        {
          "internalType": "uint256",
          "name": "",
          "type": "uint256"
        }
      ],
      "name": "voters",
      "outputs": [
        {
          "internalType": "bool",
          "name": "voted",
          "type": "bool"
        },
        {
          "internalType": "bool",
          "name": "choice",
          "type": "bool"
        }
      ],
      "stateMutability": "view",
      "type": "function"
    },
    {
      "inputs": [],
      "name": "withdraw",
      "outputs": [],
      "stateMutability": "nonpayable",
      "type": "function"
    }
  ],
  "transactionHash": "0xdcec52b6ad45c445abba0c73fab03e23864a9544805d321183b4d87e1702a1cc",
  "args": [
    "0x1B5BAC3639e4242D69EbF9474C586cbdF2b1a2D5"
  ],
  "numDeployments": 13,
  "solcInputHash": "400c1be6eb9a2b6ced246a3a6e7b87a7",
  "bytecode": "0x60a0346200018557601f62004f3338819003918201601f19168301916001600160401b038311848410176200018a578084926020946040528339810103126200018557516001600160a01b0381168103620001855760805260005460ff8160081c16159081809262000177575b80156200015e575b15620001025760ff19811660011760005581620000ef575b50620000b3575b604051614d929081620001a18239608051818181610dfb0152610f940152f35b61ff0019600054166000557f7f26b83ff96e1f2b6a682f133852f6798a09c465da95921460cefb3847402498602060405160018152a162000093565b61ffff191661010117600055386200008c565b60405162461bcd60e51b815260206004820152602e60248201527f496e697469616c697a61626c653a20636f6e747261637420697320616c72656160448201526d191e481a5b9a5d1a585b1a5e995960921b6064820152608490fd5b50303b158015620000745750600160ff82161462000074565b50600160ff8216106200006c565b600080fd5b634e487b7160e01b600052604160045260246000fdfe608080604052600436101561001357600080fd5b60003560e01c90816301ffc9a71461306c575080630382fd1b1461304e57806306fdde031461302a578063081812fc1461300c578063095ea7b314612e665780630c0b2bdd14612cdb57806311da60b414612aed5780631a5975481461296e5780631fc6e296146126ad578063200d2ed21461268357806323b872dd1461265f5780632520b93c1461262e578063280058ee14612610578063327107f7146125e9578063379607f5146125c95780633ccfd60b1461254e57806340e8a5c2146124fd57806342842e0e146124ca5780634585e33b1461214757806348b9ef40146121295780634edea111146120ba5780634ee0ab0d14611ed25780636352211e14611ea35780636a18ff7a14611c705780636e04ff0d14611c165780636efcaab514611b7057806370a0823114611b4557806370f42df814611b27578063715018a614611aba5780637667180814611a9c57806378e9792514611a7e57806384e3350114611a605780638da5cb5b14611a395780639397f8e21461181257806395d89b411461174457806396bc7434146117265780639cc8525d146116d5578063a22cb46514611604578063b0e21e8a146115e6578063b6f625e6146115c8578063b88d4fde14611547578063bf96ae6314611294578063bfa6f912146111f4578063c771766d146111d6578063c87b56dd14610f2c578063cddb8df214610e3d578063d5d2216514610e1f578063d607497a14610ddb578063db49881214610bb2578063dfa447ce14610b94578063e86a530914610b76578063e985e9c514610b1f578063ef78d4fd14610b01578063f2fde38b14610a5e578063f537dc1714610319578063f62b46c9146102da5763fba00cbd1461029257600080fd5b346102d5576102a0366134ab565b9060005260dd6020526040600020906000526020526040806000205460ff8251918181161515835260081c1615156020820152f35b600080fd5b346102d55760206003193601126102d55761030f6004356102f9613532565b61030281614afb565b61030a614caf565b61462d565b610317614971565b005b346102d5576101406003193601126102d557610333613195565b602435906001600160a01b03821682036102d55760643567ffffffffffffffff81116102d557610367903690600401613514565b9060843567ffffffffffffffff81116102d557610388903690600401613514565b926101243567ffffffffffffffff81116102d5576103aa903690600401613514565b926000549260ff8460081c161593848095610a51575b8015610a3a575b156109d05784600160ff198316176000556109a1575b506001600160a01b0383161561095d5760443515610919576103fe9061358a565b60ff60005460081c16156108af5780519067ffffffffffffffff821161061e57819061042b6097546132a2565b601f8111610803575b50602090601f831160011461077c57600092610771575b50506000198260011b9260031b1c1916176097555b835167ffffffffffffffff811161061e5761047c6098546132a2565b601f81116106ce575b506020601f821160011461063f5781906001600160a01b03949596600092610634575b50506000198260011b9260031b1c1916176098555b1673ffffffffffffffffffffffffffffffffffffffff1960c954161760c95560443560ca5560a4358060cd5560d15560c43560ce5560e43560cf556101043560d055815167ffffffffffffffff811161061e576105248161051f60cc546132a2565b613cf4565b602092601f821160011461059c5792819293600092610591575b50506000198260011b9260031b1c19161760cc555b61055957005b61ff0019600054166000557f7f26b83ff96e1f2b6a682f133852f6798a09c465da95921460cefb3847402498602060405160018152a1005b01519050838061053e565b601f1982169360cc6000527f47197230e1e4b29fc0bd84d7d78966c0925452aff72a2a121538b102457e9ebe9160005b86811061060657508360019596106105ed575b505050811b0160cc55610553565b015160001960f88460031b161c191690558380806105df565b919260206001819286850151815501940192016105cc565b634e487b7160e01b600052604160045260246000fd5b0151905086806104a8565b601f1982169560986000527f2237a976fa961f5921fd19f2b03c925c725d77b20ce8f790c19709c03de4d8149660005b8181106106b65750916001600160a01b039596979184600195941061069d575b505050811b016098556104bd565b015160001960f88460031b161c1916905586808061068f565b8383015189556001909801976020938401930161066f565b6098600052601f820160051c7f2237a976fa961f5921fd19f2b03c925c725d77b20ce8f790c19709c03de4d814019060208310610749575b601f0160051c7f2237a976fa961f5921fd19f2b03c925c725d77b20ce8f790c19709c03de4d81401905b81811061073d5750610485565b60008155600101610730565b7f2237a976fa961f5921fd19f2b03c925c725d77b20ce8f790c19709c03de4d8149150610706565b01519050868061044b565b915060976000527f354a83ed9988f79f6038d4c7a7dadbad8af32f4ad6df893e0e5807a1b1944ff9916000601f198516905b8181106107eb57509084600195949392106107d2575b505050811b01609755610460565b015160001960f88460031b161c191690558680806107c4565b929360206001819287860151815501950193016107ae565b9091506097600052601f830160051c7f354a83ed9988f79f6038d4c7a7dadbad8af32f4ad6df893e0e5807a1b1944ff90160208410610888575b90601f849392910160051c7f354a83ed9988f79f6038d4c7a7dadbad8af32f4ad6df893e0e5807a1b1944ff901905b8181106108795750610434565b6000815584935060010161086c565b507f354a83ed9988f79f6038d4c7a7dadbad8af32f4ad6df893e0e5807a1b1944ff961083d565b608460405162461bcd60e51b815260206004820152602b60248201527f496e697469616c697a61626c653a20636f6e7472616374206973206e6f74206960448201527f6e697469616c697a696e670000000000000000000000000000000000000000006064820152fd5b606460405162461bcd60e51b815260206004820152601860248201527f43616d706169676e3a20696e76616c696420616d6f756e7400000000000000006044820152fd5b606460405162461bcd60e51b815260206004820152601760248201527f43616d706169676e3a20696e76616c696420746f6b656e0000000000000000006044820152fd5b7fffffffffffffffffffffffffffffffffffffffffffffffffffffffffffff00001661010117600055866103dd565b608460405162461bcd60e51b815260206004820152602e60248201527f496e697469616c697a61626c653a20636f6e747261637420697320616c72656160448201527f647920696e697469616c697a65640000000000000000000000000000000000006064820152fd5b50303b1580156103c75750600160ff8216146103c7565b50600160ff8216106103c0565b346102d55760206003193601126102d557610a77613195565b610a7f613532565b6001600160a01b03811615610a97576103179061358a565b608460405162461bcd60e51b815260206004820152602660248201527f4f776e61626c653a206e6577206f776e657220697320746865207a65726f206160448201527f64647265737300000000000000000000000000000000000000000000000000006064820152fd5b346102d55760006003193601126102d557602060cf54604051908152f35b346102d55760406003193601126102d557610b38613195565b610b406131ab565b906001600160a01b03809116600052609c60205260406000209116600052602052602060ff604060002054166040519015158152f35b346102d55760006003193601126102d557602060d354604051908152f35b346102d55760006003193601126102d557602060d854604051908152f35b346102d5576020806003193601126102d55767ffffffffffffffff906004358281116102d557610be6903690600401613274565b919092610bf1613532565b821161061e5760cc91610c088161051f85546132a2565b6000601f8211600114610d5a5781929394600092610d4f575b50506000198260011b9260031b1c19161782555b604051918183526000918154610c4a816132a2565b9283838701526001918281169081600014610d065750600114610c90575b7f9554c0ad8824b12a4301321d81a1a6d3be9e533b040fe09a8d7dfeaccb27618186860387a1005b600090815293507f47197230e1e4b29fc0bd84d7d78966c0925452aff72a2a121538b102457e9ebe5b838510610cf257505050508101604001817f9554c0ad8824b12a4301321d81a1a6d3be9e533b040fe09a8d7dfeaccb2761818480610c68565b805486860160400152938201938101610cb9565b9050869550604093507f9554c0ad8824b12a4301321d81a1a6d3be9e533b040fe09a8d7dfeaccb2761819694925060ff1991501682840152151560051b82010191928480610c68565b013590508480610c21565b601f19821694846000527f47197230e1e4b29fc0bd84d7d78966c0925452aff72a2a121538b102457e9ebe9160005b878110610dc4575083600195969710610daa575b505050811b018255610c35565b60001960f88560031b161c19910135169055848080610d9d565b909285600181928686013581550194019101610d89565b346102d55760006003193601126102d55760206040516001600160a01b037f0000000000000000000000000000000000000000000000000000000000000000168152f35b346102d55760006003193601126102d557602060d554604051908152f35b346102d55760206003193601126102d5576004358060005260de602052610e6f60056040600020015460d0549061387a565b421115610ee857610e7f81614bc1565b8060005260de60205260ff60066040600020015460081c16610ea45761031790613f9f565b606460405162461bcd60e51b815260206004820152601960248201527f4368616c6c656e67653a20616c7265616479206a7564676564000000000000006044820152fd5b606460405162461bcd60e51b815260206004820152601460248201527f4368616c6c656e67653a206e6f7420656e6465640000000000000000000000006044820152fd5b346102d5576020806003193601126102d557604051610f5581610f4e816132dc565b0382613488565b604051907fa2d6c6da00000000000000000000000000000000000000000000000000000000825260043560048301526000826024816001600160a01b037f0000000000000000000000000000000000000000000000000000000000000000165afa9182156111ca57600092611141575b506110d26062610fd76110d794614489565b926040519384917f7b226e616d65223a20220000000000000000000000000000000000000000000088840152611016815180928a602a8701910161313b565b82017f222c226465736372697074696f6e223a22000000000000000000000000000000602a8201527f222c22696d616765223a22000000000000000000000000000000000000000000603b8201527f646174613a696d6167652f7376672b786d6c3b6261736536342c000000000000604682015261109d825180938a60608501910161313b565b017f227d0000000000000000000000000000000000000000000000000000000000006060820152036042810184520182613488565b614489565b90611129603d60405180947f646174613a6170706c69636174696f6e2f6a736f6e3b6261736536342c000000858301526111198151809287868601910161313b565b810103601d810185520183613488565b61113d604051928284938452830190613170565b0390f35b91503d806000843e6111538184613488565b82019183818403126102d55780519067ffffffffffffffff82116102d557019180601f840112156102d55782519261118a846134c1565b916111986040519384613488565b8483528585830101116102d557610fd7826111c16110d79660629489806110d29801910161313b565b94505050610fc5565b6040513d6000823e3d90fd5b346102d55760006003193601126102d557602060d154604051908152f35b346102d55760206003193601126102d55760043560005260de6020526040600020805460018201546002830154926003810154600482015490600660058401549301549560ff871694604051968752602087015260408601526060850152608084015260a0830152600481101561127e576101009260ff9160c084015260081c16151560e0820152f35b634e487b7160e01b600052602160045260246000fd5b346102d55760006003193601126102d5576112ad614c10565b6112b6336135e1565b611503576001600160a01b0360c9541660ca5490604051906020917f23b872dd0000000000000000000000000000000000000000000000000000000083820152602493338583015230604483015260648201526064815260a081019181831067ffffffffffffffff8411176114ee5761133192604052613d65565b60d35460011992838211611455576001820160d3556040519361135385613450565b6000855233156114ac5761137d8360005260996020526001600160a01b0360406000205416151590565b6114695733600052609a8452604060002091825491821161145557507fcd169e01d559b6d336962db715a67dc5fd03521032de891b679200894ec219f39461142892600161142393019055836000526099855260406000203373ffffffffffffffffffffffffffffffffffffffff19825416179055833360007fddf252ad1be2c89b69c2b068fc378daa952ba7f163c4a11628f55a4df523b3ef81604051a48333613ae4565b61378b565b8060005260dc82526040600020600260ff1982541617905560ca54600160406000200155604051908152a1005b634e487b7160e01b60005260116004526000fd5b606484601c846040519262461bcd60e51b845260048401528201527f4552433732313a20746f6b656e20616c7265616479206d696e746564000000006044820152fd5b606482856040519162461bcd60e51b83528160048401528201527f4552433732313a206d696e7420746f20746865207a65726f20616464726573736044820152fd5b84634e487b7160e01b60005260416004526000fd5b606460405162461bcd60e51b815260206004820152601860248201527f43616d706169676e3a20616c7265616479207369676e656400000000000000006044820152fd5b346102d55760806003193601126102d557611560613195565b6115686131ab565b906064359060443567ffffffffffffffff83116102d557366023840112156102d557610317936115a56114239436906024816004013591016134dd565b926115b86115b38433613801565b61371a565b6115c3838383613886565b613c7a565b346102d55760006003193601126102d557602060ce54604051908152f35b346102d55760006003193601126102d557602060d954604051908152f35b346102d55760406003193601126102d55761161d613195565b602435908115158092036102d5576001600160a01b0316908133146116915733600052609c602052604060002082600052602052604060002060ff1981541660ff83161790556040519081527f17307eab39ab6107e8899845ad3d59bd9653f200f220920489ca2b5937696c3160203392a3005b606460405162461bcd60e51b815260206004820152601960248201527f4552433732313a20617070726f766520746f2063616c6c6572000000000000006044820152fd5b346102d5576116e3366134ab565b9060005260db60205260406000209060005260205261113d610f4e611712604060002060405192838092613381565b604051918291602083526020830190613170565b346102d55760006003193601126102d557602060d754604051908152f35b346102d55760006003193601126102d5576040516000609854611766816132a2565b808452906001908181169081156117eb5750600114611790575b61113d8461171281860382613488565b6098600090815292507f2237a976fa961f5921fd19f2b03c925c725d77b20ce8f790c19709c03de4d8145b8284106117d357505050810160200161171282611780565b805460208587018101919091529093019281016117bb565b60ff191660208087019190915292151560051b850190920192506117129150839050611780565b346102d55760406003193601126102d55767ffffffffffffffff6004358181116102d557611844903690600401613274565b6024359161185183614afb565b611859614c60565b61186283614b5a565b61186a614a2c565b6040516020948582018281108282111761061e5760405261188c3685856134dd565b825260d25460005260db8652604060002085600052865260406000209151805191821161061e576118bd83546132a2565b601f81116119f3575b508690601f831160011461195f57947f0de15cde05bed13731732bfe8f1ff5a69a8be94505d2e381f23997b07af8dd85979694601f199484601f95849560809a600092611954575b50506000198260011b9260031b1c19161790555b60d2549560405198899788528701526060604087015281606087015286860137600085828601015201168101030190a1005b015190508c8061190e565b90601f1983169184600052886000209260005b8181106119dc575094600185899560809a957f0de15cde05bed13731732bfe8f1ff5a69a8be94505d2e381f23997b07af8dd859d9c9a95601f99601f199b106119c3575b505050811b019055611922565b015160001960f88460031b161c191690558c80806119b6565b92938a600181928786015181550195019301611972565b8360005287600020601f840160051c810191898510611a2f575b601f0160051c01905b818110611a2357506118c6565b60008155600101611a16565b9091508190611a0d565b346102d55760006003193601126102d55760206001600160a01b0360335416604051908152f35b346102d55760006003193601126102d557602060d654604051908152f35b346102d55760006003193601126102d557602060cd54604051908152f35b346102d55760006003193601126102d557602060d254604051908152f35b346102d55760006003193601126102d557611ad3613532565b600060335473ffffffffffffffffffffffffffffffffffffffff198116603355816001600160a01b0360405192167f8be0079c531659141344cd1fd0a4f28419497f9722a3daafe3b4186f6b6457e08284a3f35b346102d55760006003193601126102d557602060da54604051908152f35b346102d55760206003193601126102d5576020611b68611b63613195565b6135e1565b604051908152f35b346102d55760006003193601126102d557604051600060cc54611b92816132a2565b808452906001908181169081156117eb5750600114611bbb5761113d8461171281860382613488565b60cc600090815292507f47197230e1e4b29fc0bd84d7d78966c0925452aff72a2a121538b102457e9ebe5b828410611bfe57505050810160200161171282611780565b80546020858701810191909152909301928101611be6565b346102d55760206003193601126102d55760043567ffffffffffffffff81116102d557611c47903690600401613274565b5050611c5161435a565b9061113d60405192839215158352604060208401526040830190613170565b346102d55760606003193601126102d55760043560243590604435908115158092036102d557611c9f81614afb565b611ca7614c60565b611cb081614b5a565b611cb983614bc1565b8260005260209160de8352611cd960056040600020015460d0549061387a565b421015611e5f578360005260de835260406000205482141580611e4d575b15611e09576001908460005260dd8452604060002083600052845260406000208260ff198254161790558460005260dd845260406000208360005284526040600020805461ff001961ff008460081b16911617905514600014611dbd578260005260de82526003604060002001928354926001198411611da7577fe412d87c65a2ecd9a42cbdcd9b35239448cd2ec046dbe0d6af0eee194ec6173e9460016040950190555b8351928352820152a1005b634e487b7160e01b600052601160045260246000fd5b8260005260de82526004604060002001928354926001198411611da7577fe412d87c65a2ecd9a42cbdcd9b35239448cd2ec046dbe0d6af0eee194ec6173e946001604095019055611d9c565b6064836040519062461bcd60e51b82526004820152601f60248201527f4368616c6c656e67653a20696e766f6c7665642063616e6e6f7420766f7465006044820152fd5b50600160406000200154821415611cf7565b6064836040519062461bcd60e51b82526004820152601060248201527f4368616c6c656e67653a20656e646564000000000000000000000000000000006044820152fd5b346102d55760206003193601126102d5576020611ec16004356136b6565b6001600160a01b0360405191168152f35b346102d55760006003193601126102d557611eeb614d00565b611ef3614caf565b611efb614d00565b60d380549060da9182556000905b805482101561205e5760005b60ce548110156120535780600052602060db81526040600020846000528152610f4e611f4b604060002060405192838092613381565b5115611f605750611f5b90613ef1565b611f15565b919280915060005260dc808352600190611fc38260406000200154611fbe620f424080611f8c84613f10565b0490611f9b60d892835461387a565b809255611fa784613f28565b0492611fb660d994855461387a565b80945561386f565b61386f565b611fd060d791825461387a565b90558260005283526000816040822001558454908110611da75761204d926000197f939e6ef49701507f032296ab644b4aebf199222450de6622bb5f9550c7a7820992018655604051838152a15b7f8990a2cca2ad5b32ae72395c0db570652316a7903178764820232d8fe5d2b3556020604051838152a1613ef1565b90611f09565b509061204d9061201e565b82541561209f575b600460ff1960cb54161760cb557f7069a5d4cbf1f64db906d1dd29276702df7e9c795ef1746d7a1ca5449c4893f16020604051338152a1005b6120ad60d75460d95461387a565b60d955600060d755612066565b346102d55760206003193601126102d557600060206040516120db81613418565b828152015260043560005260dc60205260406000206040516120fc81613418565b60ff82541690600782101561127e5760206001604094848452015491019081528251918252516020820152f35b346102d55760006003193601126102d557602060ca54604051908152f35b346102d5576020806003193601126102d5576004359067ffffffffffffffff82116102d55761217c6040923690600401613274565b90809391810103126102d557818101359135806123925750905060cd546121b360ce916121ad835460cf5490613f6c565b9061387a565b42111561234e5760d380549260da9384556000915b80548310156122f05760005b84548110156122e5578060005260db83526040600020846000528352610f4e612207604060002060405192838092613381565b511561221b5761221690613ef1565b6121d4565b50918060005260dc908183526001916122468360406000200154611fbe620f424080611f8c84613f10565b61225360d791825461387a565b90558160005283526000826040822001556040600020600560ff198254161790558554918210611da7576000196122df920186557f939e6ef49701507f032296ab644b4aebf199222450de6622bb5f9550c7a7820983604051838152a15b7f8990a2cca2ad5b32ae72395c0db570652316a7903178764820232d8fe5d2b35583604051838152a1613ef1565b916121c8565b50916122df906122b1565b509150507f7069a5d4cbf1f64db906d1dd29276702df7e9c795ef1746d7a1ca5449c4893f1915415612333575b600460ff1960cb54161760cb55604051338152a1005b61234160d75460d95461387a565b60d955600060d75561231d565b6064826040519062461bcd60e51b82526004820152601360248201527f43616d706169676e3a206e6f7420656e646564000000000000000000000000006044820152fd5b600181036123a557505050610317614a2c565b600203612486578160005260de81526123c960056040600020015460d0549061387a565b421115612442576123d982614bc1565b8160005260de815260ff60066040600020015460081c166123fe575061031790613f9f565b6064906040519062461bcd60e51b82526004820152601960248201527f4368616c6c656e67653a20616c7265616479206a7564676564000000000000006044820152fd5b6064906040519062461bcd60e51b82526004820152601460248201527f4368616c6c656e67653a206e6f7420656e6465640000000000000000000000006044820152fd5b6064906040519062461bcd60e51b82526004820152600d60248201527f4e6f7468696e6720546f20444f000000000000000000000000000000000000006044820152fd5b346102d5576103176114236124de366131f2565b90604051926124ec84613450565b600084526115b86115b38433613801565b346102d55760206003193601126102d55760043560df548110156102d55760209060df6000527f65e3d48fa860a761b461ce1274f0d562f3db9a6a57cf04d8c90d68f5670b6aea0154604051908152f35b346102d55760006003193601126102d557612567613532565b60ff60cb5416600581101561127e5760040361258557610317614971565b606460405162461bcd60e51b815260206004820152601560248201527f43616d706169676e3a206e6f7420736574746c656400000000000000000000006044820152fd5b346102d55760206003193601126102d55761031760043561030281614afb565b346102d55760006003193601126102d55760206001600160a01b0360c95416604051908152f35b346102d55760006003193601126102d557602060d454604051908152f35b346102d55760206003193601126102d55760043560005260e0602052602060ff604060002054166040519015158152f35b346102d557610317612670366131f2565b9161267e6115b38433613801565b613886565b346102d55760006003193601126102d55760ff60cb5416604051600582101561127e576020918152f35b346102d55760606003193601126102d55760043560248035604435916126d284614afb565b6126da614c60565b6126e384614b5a565b6126ec82614b5a565b61270160cd546121ad60ce5460cf5490613f6c565b7ffffffffffffffffffffffffffffffffffffffffffffffffffffffffffffeae7f81116128685762015180014211612904578184146128c05760405190602091828101908482528560408201526040815261275b81613434565b51902060005260e0825260ff6040600020541661287d57604051828101908482528560408201526040815261278f81613434565b51902060005260e082526040600020600160ff1982541617905560d45493600119851161286857600185810160d455600086815260de8552604090208781559081018590554260058201556002015560df549068010000000000000000821015612854577f41b86b8e6a50d1879c8fe4ff449470156b8c2b6c02117dafd10625d300e4aacd6060878787878261282b896001810160df55613227565b819291549060031b600019811b9283911b169119161790556040519384528301526040820152a1005b634e487b7160e01b60005260416004526000fd5b50634e487b7160e01b60005260116004526000fd5b90601c6064926040519262461bcd60e51b845260048401528201527f43616d706169676e3a20616c7265616479206368616c6c656e676564000000006044820152fd5b606490601f6040519162461bcd60e51b8352602060048401528201527f43616d706169676e3a2063616e6e6f74206368616c6c656e67652073656c66006044820152fd5b60849060236040519162461bcd60e51b8352602060048401528201527f4368616c6c656e67653a207374617274206368616c6c656e676520746f6f206c60448201527f61746500000000000000000000000000000000000000000000000000000000006064820152fd5b346102d5576020806003193601126102d55760043567ffffffffffffffff81116102d5576129a09036906004016131c1565b6129a8614c10565b6129b0613532565b60005b8181106129bc57005b6129c7818385613f00565b358060005260dc80865260406000206040516129e281613418565b60ff8254166007928382101561127e5760019183520154808983015260ca5403612aa957519081101561127e57600203612a655785827f0898a2d0f11ee389113f47ac39e4c57338d20de87eab1ff9bcce61256c868c8592612a60959460005282526040600020600360ff19825416179055604051908152a1613ef1565b6129b3565b6064866040519062461bcd60e51b82526004820152601760248201527f43616d706169676e3a206e6f74207369676e65642075700000000000000000006044820152fd5b6064886040519062461bcd60e51b82526004820152601960248201527f43616d706169676e3a207374616b65206e6f74206d61746368000000000000006044820152fd5b346102d55760006003193601126102d55760cd54612b1560ce916121ad835460cf5490613f6c565b421115612c975760d39081549160da9283556000905b8054821015612c575760005b8354811015612c4c5780600052602060db81526040600020846000528152610f4e612b6c604060002060405192838092613381565b5115612b815750612b7c90613ef1565b612b37565b919280915060005260dc808352600190612bad8260406000200154611fbe620f424080611f8c84613f10565b612bba60d791825461387a565b90558260005283526000816040822001556040600020600560ff198254161790558554908110611da757612c46926000197f939e6ef49701507f032296ab644b4aebf199222450de6622bb5f9550c7a7820992018755604051838152a17f8990a2cca2ad5b32ae72395c0db570652316a7903178764820232d8fe5d2b3556020604051838152a1613ef1565b90612b2b565b5090612c469061201e565b83541561209f57600460ff1960cb54161760cb557f7069a5d4cbf1f64db906d1dd29276702df7e9c795ef1746d7a1ca5449c4893f16020604051338152a1005b606460405162461bcd60e51b815260206004820152601360248201527f43616d706169676e3a206e6f7420656e646564000000000000000000000000006044820152fd5b346102d55760406003193601126102d55767ffffffffffffffff6004358181116102d557612d0d9036906004016131c1565b90916024359081116102d557612d279036906004016131c1565b612d32939193614c10565b612d3a613532565b600191825b848110612dfb575060405193604085528060408601527f07ffffffffffffffffffffffffffffffffffffffffffffffffffffffffffffff81116102d55760059392931b809160608601378301916080606084019382602095606088840301878901525201949260005b828110612dd6577e896c158ae8c63b50648f3ace621592a536dc686bb71ea91e8c1a75207e26fd86880387a1005b90919293958635908115158092036102d5579081528201958201939291908301612da8565b612e06818684613f00565b3590612e13818589613f00565b359182151583036102d557612e449215612e495760005260dc6020526040600020600360ff19825416179055613ef1565b612d3f565b60005260dc6020526040600020600260ff19825416179055613ef1565b346102d55760406003193601126102d557612e7f613195565b6001600160a01b03906024358280612e96836136b6565b16921691808314612fa257803314908115612f7d575b5015612f1357600092818452609b602052604084208373ffffffffffffffffffffffffffffffffffffffff19825416179055612ee7826136b6565b1691604051927f8c5be1e5ebec7d5bd14f71427d1e84f3dd0314c0f7b2291e5b200ac8c7c3b9258585a4f35b608460405162461bcd60e51b815260206004820152603e60248201527f4552433732313a20617070726f76652063616c6c6572206973206e6f7420746f60448201527f6b656e206f776e6572206e6f7220617070726f76656420666f7220616c6c00006064820152fd5b9050600052609c60205260406000203360005260205260ff6040600020541684612eac565b608460405162461bcd60e51b815260206004820152602160248201527f4552433732313a20617070726f76616c20746f2063757272656e74206f776e6560448201527f72000000000000000000000000000000000000000000000000000000000000006064820152fd5b346102d55760206003193601126102d5576020611ec16004356136d8565b346102d55760006003193601126102d55761113d60405161171281610f4e816132dc565b346102d55760006003193601126102d557602060d054604051908152f35b346102d55760206003193601126102d557600435907fffffffff0000000000000000000000000000000000000000000000000000000082168092036102d557817f80ac58cd0000000000000000000000000000000000000000000000000000000060209314908115613111575b81156130e7575b5015158152f35b7f01ffc9a700000000000000000000000000000000000000000000000000000000915014836130e0565b7f5b5e139f00000000000000000000000000000000000000000000000000000000811491506130d9565b918091926000905b82821061315b575011613154575050565b6000910152565b91508060209183015181860152018291613143565b90601f19601f60209361318e8151809281875287808801910161313b565b0116010190565b600435906001600160a01b03821682036102d557565b602435906001600160a01b03821682036102d557565b9181601f840112156102d55782359167ffffffffffffffff83116102d5576020808501948460051b0101116102d557565b60031960609101126102d5576001600160a01b039060043582811681036102d5579160243590811681036102d5579060443590565b60df5481101561325e5760df6000527f65e3d48fa860a761b461ce1274f0d562f3db9a6a57cf04d8c90d68f5670b6aea0190600090565b634e487b7160e01b600052603260045260246000fd5b9181601f840112156102d55782359167ffffffffffffffff83116102d557602083818601950101116102d557565b90600182811c921680156132d2575b60208310146132bc57565b634e487b7160e01b600052602260045260246000fd5b91607f16916132b1565b609754600092916132ec826132a2565b80825291600190818116908115613363575060011461330a57505050565b9192935060976000527f354a83ed9988f79f6038d4c7a7dadbad8af32f4ad6df893e0e5807a1b1944ff9916000925b84841061334b57505060209250010190565b80546020858501810191909152909301928101613339565b9050602094955060ff1991509291921683830152151560051b010190565b9060009291805491613392836132a2565b9182825260019384811690816000146133f457506001146133b4575b50505050565b90919394506000526020928360002092846000945b8386106133e05750505050010190388080806133ae565b8054858701830152940193859082016133c9565b915050602094955060ff199193501683830152151560051b010190388080806133ae565b6040810190811067ffffffffffffffff82111761061e57604052565b6060810190811067ffffffffffffffff82111761061e57604052565b6020810190811067ffffffffffffffff82111761061e57604052565b6080810190811067ffffffffffffffff82111761061e57604052565b90601f601f19910116810190811067ffffffffffffffff82111761061e57604052565b60031960409101126102d5576004359060243590565b67ffffffffffffffff811161061e57601f01601f191660200190565b9291926134e9826134c1565b916134f76040519384613488565b8294818452818301116102d5578281602093846000960137010152565b9080601f830112156102d55781602061352f933591016134dd565b90565b6001600160a01b0360335416330361354657565b606460405162461bcd60e51b815260206004820152602060248201527f4f776e61626c653a2063616c6c6572206973206e6f7420746865206f776e65726044820152fd5b603354906001600160a01b03809116918273ffffffffffffffffffffffffffffffffffffffff19821617603355167f8be0079c531659141344cd1fd0a4f28419497f9722a3daafe3b4186f6b6457e06000604051a3565b6001600160a01b0316801561360157600052609a60205260406000205490565b608460405162461bcd60e51b815260206004820152602960248201527f4552433732313a2061646472657373207a65726f206973206e6f74206120766160448201527f6c6964206f776e657200000000000000000000000000000000000000000000006064820152fd5b1561367257565b606460405162461bcd60e51b815260206004820152601860248201527f4552433732313a20696e76616c696420746f6b656e20494400000000000000006044820152fd5b60005260996020526001600160a01b036040600020541661352f81151561366b565b6137006136fb8260005260996020526001600160a01b0360406000205416151590565b61366b565b600052609b6020526001600160a01b036040600020541690565b1561372157565b608460405162461bcd60e51b815260206004820152602e60248201527f4552433732313a2063616c6c6572206973206e6f7420746f6b656e206f776e6560448201527f72206e6f7220617070726f7665640000000000000000000000000000000000006064820152fd5b1561379257565b60405162461bcd60e51b815260206004820152603260248201527f4552433732313a207472616e7366657220746f206e6f6e20455243373231526560448201527f63656976657220696d706c656d656e74657200000000000000000000000000006064820152608490fd5b0390fd5b906001600160a01b038080613815846136b6565b16931691838314938415613848575b508315613832575b50505090565b61383e919293506136d8565b161438808061382c565b909350600052609c60205260406000208260005260205260ff604060002054169238613824565b818110611da7570390565b81198111611da7570190565b61388f836136b6565b916001600160a01b0392838093169283911603613a4a5782169182156139e1578161399d57600090848252609b602052604082209073ffffffffffffffffffffffffffffffffffffffff19918281541690556138ea866136b6565b16908583604051937f8c5be1e5ebec7d5bd14f71427d1e84f3dd0314c0f7b2291e5b200ac8c7c3b9258286a4838352609a6020526040832080546001811061398957600019019055848352609a60205260408320805460011981116139895760010190558583526099602052604083208054909116851790557fddf252ad1be2c89b69c2b068fc378daa952ba7f163c4a11628f55a4df523b3ef9190a4565b602485634e487b7160e01b81526011600452fd5b606460405162461bcd60e51b815260206004820152601c60248201527f43616d706169676e3a20436f756c64206e6f74207472616e73666572000000006044820152fd5b608460405162461bcd60e51b8152602060048201526024808201527f4552433732313a207472616e7366657220746f20746865207a65726f2061646460448201527f72657373000000000000000000000000000000000000000000000000000000006064820152fd5b608460405162461bcd60e51b815260206004820152602560248201527f4552433732313a207472616e736665722066726f6d20696e636f72726563742060448201527f6f776e65720000000000000000000000000000000000000000000000000000006064820152fd5b3d15613adf573d90613ac5826134c1565b91613ad36040519384613488565b82523d6000602084013e565b606090565b9091600091803b15613c7157613b506020916001600160a01b0393856040519586809581947f150b7a02000000000000000000000000000000000000000000000000000000009b8c84523360048501528560248501526044840152608060648401526084830190613170565b0393165af190829082613c0a575b5050613be457613b6c613ab4565b80519081613bdf5760405162461bcd60e51b815260206004820152603260248201527f4552433732313a207472616e7366657220746f206e6f6e20455243373231526560448201527f63656976657220696d706c656d656e74657200000000000000000000000000006064820152608490fd5b602001fd5b7fffffffff00000000000000000000000000000000000000000000000000000000161490565b909192506020813d8211613c69575b81613c2660209383613488565b81010312613c655751907fffffffff0000000000000000000000000000000000000000000000000000000082168203613c625750903880613b5e565b80fd5b5080fd5b3d9150613c19565b50505050600190565b91926000929190813b15613cea57602091613b5091856040519586809581947f150b7a02000000000000000000000000000000000000000000000000000000009b8c84523360048501526001600160a01b0380951660248501526044840152608060648401526084830190613170565b5050505050600190565b601f8111613d00575050565b60009060cc82527f47197230e1e4b29fc0bd84d7d78966c0925452aff72a2a121538b102457e9ebe906020601f850160051c83019410613d5b575b601f0160051c01915b828110613d5057505050565b818155600101613d44565b9092508290613d3b565b6001600160a01b031690604051613d7b81613418565b6020928382527f5361666545524332303a206c6f772d6c6576656c2063616c6c206661696c656484830152803b15613e6d5790613dd09160008481959282888195519301915af1613dca613ab4565b90613eb1565b805180613ddd5750505050565b81849181010312613c655782015190811591821503613c625750613e03578080806133ae565b6084906040519062461bcd60e51b82526004820152602a60248201527f5361666545524332303a204552433230206f7065726174696f6e20646964206e60448201527f6f742073756363656564000000000000000000000000000000000000000000006064820152fd5b6064846040519062461bcd60e51b82526004820152601d60248201527f416464726573733a2063616c6c20746f206e6f6e2d636f6e74726163740000006044820152fd5b90919015613ebd575090565b815115613ecd5750805190602001fd5b6137fd9060405191829162461bcd60e51b8352602060048401526024830190613170565b6000198114611da75760010190565b919081101561325e5760051b0190565b62030d40908060001904821181151516611da7570290565b620186a0908060001904821181151516611da7570290565b8060001904603c1181151516611da757603c0290565b8060001904601e1181151516611da757601e0290565b8060001904821181151516611da7570290565b8115613f89570490565b634e487b7160e01b600052601260045260246000fd5b90600082815260de9260209184835260409081812054600190818484200154926003858220015498613fd960049a8b88852001549061387a565b9060d35493600285106143475760011980950192600019938085046042118115151661433357918d9160429594936064968791020410156142ca578a8652828c528986206003810154908301541080156142c2576002925b60068c892001908410156142ae5760ff199360ff8583541691161790558b8752838d5260068b88200161010061ff00198254161790556000146141ab575087855260dc8b528885208054909116600517905587842086018054908590559182918461409b84613f40565b04908b87528c5289862054865260dc8c526140bc888b88200191825461387a565b90556140d4846140cb84613f56565b0460d75461387a565b60d75504600a11811515166141985790600a6140f492020460d95461387a565b60d95560d65491821161418557507f3caa68ace909b33d20e5ff96e9c98e4f6b20d3490307a1c09b28bea2e71893d69697509185917f7bd432623a7ded907d0b1d373f5979fadde9c0f579f29ae990736e560c2a1aaa930160d6557f939e6ef49701507f032296ab644b4aebf199222450de6622bb5f9550c7a78209828551838152a18351908152a15b51908152a1565b8060118a634e487b7160e01b6024945252fd5b60248360118d634e487b7160e01b835252fd5b929397505094928094505260dc88528186842001548082046028118115151661429b57602886910204938492888552818a5287852054855260dc8a52866141f6828a88200154613f40565b04918986528a5287852054855260dc8a528785200155048215159080604b1182166142885761422c85604b86020460d75461387a565b60d7556019111661427557507f3caa68ace909b33d20e5ff96e9c98e4f6b20d3490307a1c09b28bea2e71893d695965090601961426d92020460d95461387a565b60d95561417e565b80601189634e487b7160e01b6024945252fd5b60248360118c634e487b7160e01b835252fd5b60248460118d634e487b7160e01b835252fd5b8f886021602492634e487b7160e01b835252fd5b600392614031565b5050888452895250508481206006908101805460ff19168517905585822001805461ff00191661010017905560d55492935090821161427557507f3caa68ace909b33d20e5ff96e9c98e4f6b20d3490307a1c09b28bea2e71893d69596500160d55551908152a1565b5060248560118f634e487b7160e01b835252fd5b60248460118e634e487b7160e01b835252fd5b600090600091606060cd5461437960ce54916121ad60cf548094613f6c565b4211156143a5575050506040519180602084015260408301526040825261439f82613434565b60019190565b6143b69060d195929493955461387a565b42116144685760df5460d45491805b8281106143d25750505050565b6143db81613227565b90549060031b1c8481108061444b575b80614427575b61440457506143ff90613ef1565b6143c5565b965050505050905060408051926002602085015281840152825261439f82613434565b5080835260de602052614444600560408520015460d0549061387a565b42116143f1565b5080835260de60205260ff600660408520015460081c16156143eb565b92509050604051916001602084015260408301526040825261439f82613434565b805115614619576040519061449d82613434565b604082527f4142434445464748494a4b4c4d4e4f505152535455565758595a61626364656660208301527f6768696a6b6c6d6e6f707172737475767778797a303132333435363738392b2f60408301528051907ffffffffffffffffffffffffffffffffffffffffffffffffffffffffffffffffd8211611da757600390816002809401046001907f3fffffffffffffffffffffffffffffffffffffffffffffffffffffffffffffff81118216611da757841b94939061457461455e876134c1565b9661456c6040519889613488565b8088526134c1565b601f1960208801910136823794839284518501935b8481106145c85750505050505106806001146145b5576002146145aa575090565b600019603d91015390565b5060011981603d60001981940153015390565b866004919892939495980191858351603f9082828260121c16890101518453828282600c1c16890101518385015382828260061c168901015187850153168601015188820153019693929190614589565b5060405161462681613450565b6000815290565b60ff60cb54166005908181101561127e5760048091036146db575b505060407f7cb904b3cfc4c896696085c26766cebf2de422ae3864a0112b5e2fd9ec1efaf891600081815260dc60205260018382200154156000146146bc57805b6146a0826001600160a01b0360c95416339061491c565b82815260dc6020526001848220015582519182526020820152a1565b6146d5600184832001546121ad60d75460da5490613f7f565b90614689565b60cd93919354926146f660ce946121ad865460cf5490613f6c565b4211156148d85760d39081549160da9283556000945b81548610156148505760005b87548110156148435780600052602060db8152604080600020896000528252610f4e61474c82600020835192838092613381565b511561476257505061475d90613ef1565b614718565b90915087600098939594985260dc80835260019061479182846000200154611fbe620f424080611f8c84613f10565b61479e60d791825461387a565b90558460005283526000818382200155816000208b60ff19825416179055865490811061482e576000190186555182815261482692917f939e6ef49701507f032296ab644b4aebf199222450de6622bb5f9550c7a7820991a17f8990a2cca2ad5b32ae72395c0db570652316a7903178764820232d8fe5d2b3556020604051838152a1613ef1565b94909161470c565b601188634e487b7160e01b6000525260246000fd5b509190946148269061201e565b96505091907f7cb904b3cfc4c896696085c26766cebf2de422ae3864a0112b5e2fd9ec1efaf894506040935054156148bd575b60ff1960cb54161760cb557f7069a5d4cbf1f64db906d1dd29276702df7e9c795ef1746d7a1ca5449c4893f160208351338152a191614648565b6148cb60d75460d95461387a565b60d955600060d755614883565b60648260206040519162461bcd60e51b8352820152601360248201527f43616d706169676e3a206e6f7420656e646564000000000000000000000000006044820152fd5b61496f926001600160a01b03604051937fa9059cbb00000000000000000000000000000000000000000000000000000000602086015216602484015260448301526044825261496a8261346c565b613d65565b565b7f7a1c31090abe490bfd8379cbbaeef735a3e3c87ee34925f16d0fa3ff4e061155606060d854600060d855614a156001600160a01b036149b7838260c95416339061491c565b60c9541660d95490604051917fa9059cbb00000000000000000000000000000000000000000000000000000000602084015273d8da6bf26964af9d7eed9e03e53415d37aa96045602484015260448301526044825261496a8261346c565b60d9546040519133835260208301526040820152a1565b60d15460cf5490614a3d828261387a565b4211614ac2575b505060d2547fb33a1f54dde4e0082c45281b338d78b2c4b5be163b6ffffa5d0d6d1050ba5a586020604051838152a160ce541115614a7e57565b606460405162461bcd60e51b815260206004820152601d60248201527f43616d706169676e3a20636865636b45706f636820746f6f206c6174650000006044820152fd5b6121ad82614adc614af194614ad7854261386f565b613f7f565b90614ae98260d25461387a565b60d255613f6c565b60d1553880614a44565b614b04906136b6565b6001600160a01b0333911603614b1657565b606460405162461bcd60e51b815260206004820152601a60248201527f43616d706169676e3a206e6f7420746f6b656e20686f6c6465720000000000006044820152fd5b60005260dc60205260ff60406000205416600781101561127e57600303614b7d57565b606460405162461bcd60e51b815260206004820152601660248201527f43616d706169676e3a206e6f742061646d6974746564000000000000000000006044820152fd5b60d4541115614bcc57565b606460405162461bcd60e51b815260206004820152601a60248201527f4368616c6c656e67655265636f72643a206e6f742065786973740000000000006044820152fd5b60cd54421015614c1c57565b606460405162461bcd60e51b815260206004820152601960248201527f43616d706169676e3a20616c72656164792073746172746564000000000000006044820152fd5b60cd544210614c6b57565b606460405162461bcd60e51b815260206004820152601360248201527f43616d706169676e3a206e6f74207374617274000000000000000000000000006044820152fd5b60d45460d55403614cbc57565b606460405162461bcd60e51b815260206004820152601960248201527f4368616c6c656e67653a206e6f7420616c6c206a7564676564000000000000006044820152fd5b60d6546064614d1060d354613f56565b0411614d1857565b606460405162461bcd60e51b815260206004820152601c60248201527f43616d706169676e3a206e6f7420656e6f7567682063686561746572000000006044820152fdfea26469706673582212209b67a8b294dd348d7225ed6ec1d96cc233772520e78437825e206e66a5e2706b64736f6c634300080f0033",
  "devdoc": {
    "details": "for implementation of erc1167 implementation",
    "kind": "dev",
    "methods": {
      "admit(uint256[])": {
        "details": "campaign owner admit several address to participate this campaign",
        "params": {
          "allowlists": "allowed tokenId array"
        }
      },
      "approve(address,uint256)": {
        "details": "See {IERC721-approve}."
      },
      "balanceOf(address)": {
        "details": "See {IERC721-balanceOf}."
      },
      "checkIn(string,uint256)": {
        "details": "user check in",
        "params": {
          "contentUri": "string of ipfs uri or other decentralize storage"
        }
      },
      "claim(uint256)": {
        "details": "user claim reward after campaign settled"
      },
      "claimAndWithdraw(uint256)": {
        "details": "host who participate the campaign claim reward and withdraw host reward"
      },
      "getApproved(uint256)": {
        "details": "See {IERC721-getApproved}."
      },
      "getTokenProperties(uint256)": {
        "details": "read Token properties"
      },
      "isApprovedForAll(address,address)": {
        "details": "See {IERC721-isApprovedForAll}."
      },
      "modifyRegistry(uint256[],bool[])": {
        "details": "once campaign owner admit some address by mistakecan modify via this function but more gas-expensive",
        "params": {
          "lists": "modified tokenId list array",
          "targetStatuses": "corresponding status array"
        }
      },
      "name()": {
        "details": "See {IERC721Metadata-name}."
      },
      "owner()": {
        "details": "Returns the address of the current owner."
      },
      "ownerOf(uint256)": {
        "details": "See {IERC721-ownerOf}."
      },
      "performUpkeep(bytes)": {
        "details": "types task to do 0: settle the campaign 1: checkEpoch 2: judge challenge"
      },
      "renounceOwnership()": {
        "details": "Leaves the contract without owner. It will not be possible to call `onlyOwner` functions anymore. Can only be called by the current owner. NOTE: Renouncing ownership will leave the contract without an owner, thereby removing any functionality that is only available to the owner."
      },
      "safeTransferFrom(address,address,uint256)": {
        "details": "See {IERC721-safeTransferFrom}."
      },
      "safeTransferFrom(address,address,uint256,bytes)": {
        "details": "See {IERC721-safeTransferFrom}."
      },
      "setApprovalForAll(address,bool)": {
        "details": "See {IERC721-setApprovalForAll}."
      },
      "settle()": {
        "details": "everyone can call the function to settle reward"
      },
      "signUp()": {
        "details": "user stake token and want to participate this campaign"
      },
      "supportsInterface(bytes4)": {
        "details": "See {IERC165-supportsInterface}."
      },
      "symbol()": {
        "details": "See {IERC721Metadata-symbol}."
      },
      "tokenURI(uint256)": {
        "details": "See {IERC721Metadata-tokenURI}."
      },
      "transferFrom(address,address,uint256)": {
        "details": "See {IERC721-transferFrom}."
      },
      "transferOwnership(address)": {
        "details": "Transfers ownership of the contract to a new account (`newOwner`). Can only be called by the current owner."
      },
      "withdraw()": {
        "details": "host withdraw host reward"
      }
    },
    "version": 1
  },
  "userdoc": {
    "kind": "user",
    "methods": {},
    "version": 1
  },
  "storageLayout": {
    "storage": [
      {
        "astId": 464,
        "contract": "contracts/Campaign.sol:Campaign",
        "label": "_initialized",
        "offset": 0,
        "slot": "0",
        "type": "t_uint8"
      },
      {
        "astId": 467,
        "contract": "contracts/Campaign.sol:Campaign",
        "label": "_initializing",
        "offset": 1,
        "slot": "0",
        "type": "t_bool"
      },
      {
        "astId": 2340,
        "contract": "contracts/Campaign.sol:Campaign",
        "label": "__gap",
        "offset": 0,
        "slot": "1",
        "type": "t_array(t_uint256)50_storage"
      },
      {
        "astId": 336,
        "contract": "contracts/Campaign.sol:Campaign",
        "label": "_owner",
        "offset": 0,
        "slot": "51",
        "type": "t_address"
      },
      {
        "astId": 456,
        "contract": "contracts/Campaign.sol:Campaign",
        "label": "__gap",
        "offset": 0,
        "slot": "52",
        "type": "t_array(t_uint256)49_storage"
      },
      {
        "astId": 2610,
        "contract": "contracts/Campaign.sol:Campaign",
        "label": "__gap",
        "offset": 0,
        "slot": "101",
        "type": "t_array(t_uint256)50_storage"
      },
      {
        "astId": 1032,
        "contract": "contracts/Campaign.sol:Campaign",
        "label": "_name",
        "offset": 0,
        "slot": "151",
        "type": "t_string_storage"
      },
      {
        "astId": 1034,
        "contract": "contracts/Campaign.sol:Campaign",
        "label": "_symbol",
        "offset": 0,
        "slot": "152",
        "type": "t_string_storage"
      },
      {
        "astId": 1038,
        "contract": "contracts/Campaign.sol:Campaign",
        "label": "_owners",
        "offset": 0,
        "slot": "153",
        "type": "t_mapping(t_uint256,t_address)"
      },
      {
        "astId": 1042,
        "contract": "contracts/Campaign.sol:Campaign",
        "label": "_balances",
        "offset": 0,
        "slot": "154",
        "type": "t_mapping(t_address,t_uint256)"
      },
      {
        "astId": 1046,
        "contract": "contracts/Campaign.sol:Campaign",
        "label": "_tokenApprovals",
        "offset": 0,
        "slot": "155",
        "type": "t_mapping(t_uint256,t_address)"
      },
      {
        "astId": 1052,
        "contract": "contracts/Campaign.sol:Campaign",
        "label": "_operatorApprovals",
        "offset": 0,
        "slot": "156",
        "type": "t_mapping(t_address,t_mapping(t_address,t_bool))"
      },
      {
        "astId": 1894,
        "contract": "contracts/Campaign.sol:Campaign",
        "label": "__gap",
        "offset": 0,
        "slot": "157",
        "type": "t_array(t_uint256)44_storage"
      },
      {
        "astId": 4002,
        "contract": "contracts/Campaign.sol:Campaign",
        "label": "targetToken",
        "offset": 0,
        "slot": "201",
        "type": "t_contract(IERC20Upgradeable)686"
      },
      {
        "astId": 4004,
        "contract": "contracts/Campaign.sol:Campaign",
        "label": "requiredAmount",
        "offset": 0,
        "slot": "202",
        "type": "t_uint256"
      },
      {
        "astId": 4008,
        "contract": "contracts/Campaign.sol:Campaign",
        "label": "status",
        "offset": 0,
        "slot": "203",
        "type": "t_enum(CampaignStatus)6769"
      },
      {
        "astId": 4010,
        "contract": "contracts/Campaign.sol:Campaign",
        "label": "campaignUri",
        "offset": 0,
        "slot": "204",
        "type": "t_string_storage"
      },
      {
        "astId": 4012,
        "contract": "contracts/Campaign.sol:Campaign",
        "label": "startTime",
        "offset": 0,
        "slot": "205",
        "type": "t_uint256"
      },
      {
        "astId": 4015,
        "contract": "contracts/Campaign.sol:Campaign",
        "label": "totalEpochsCount",
        "offset": 0,
        "slot": "206",
        "type": "t_uint256"
      },
      {
        "astId": 4018,
        "contract": "contracts/Campaign.sol:Campaign",
        "label": "period",
        "offset": 0,
        "slot": "207",
        "type": "t_uint256"
      },
      {
        "astId": 4021,
        "contract": "contracts/Campaign.sol:Campaign",
        "label": "challengeLength",
        "offset": 0,
        "slot": "208",
        "type": "t_uint256"
      },
      {
        "astId": 4023,
        "contract": "contracts/Campaign.sol:Campaign",
        "label": "lastEpochEndTime",
        "offset": 0,
        "slot": "209",
        "type": "t_uint256"
      },
      {
        "astId": 4026,
        "contract": "contracts/Campaign.sol:Campaign",
        "label": "currentEpoch",
        "offset": 0,
        "slot": "210",
        "type": "t_uint256"
      },
      {
        "astId": 4028,
        "contract": "contracts/Campaign.sol:Campaign",
        "label": "_idx",
        "offset": 0,
        "slot": "211",
        "type": "t_uint256"
      },
      {
        "astId": 4030,
        "contract": "contracts/Campaign.sol:Campaign",
        "label": "_challengeIdx",
        "offset": 0,
        "slot": "212",
        "type": "t_uint256"
      },
      {
        "astId": 4032,
        "contract": "contracts/Campaign.sol:Campaign",
        "label": "challengeJudgedCount",
        "offset": 0,
        "slot": "213",
        "type": "t_uint256"
      },
      {
        "astId": 4034,
        "contract": "contracts/Campaign.sol:Campaign",
        "label": "cheatCount",
        "offset": 0,
        "slot": "214",
        "type": "t_uint256"
      },
      {
        "astId": 4036,
        "contract": "contracts/Campaign.sol:Campaign",
        "label": "sharedReward",
        "offset": 0,
        "slot": "215",
        "type": "t_uint256"
      },
      {
        "astId": 4038,
        "contract": "contracts/Campaign.sol:Campaign",
        "label": "hostReward",
        "offset": 0,
        "slot": "216",
        "type": "t_uint256"
      },
      {
        "astId": 4040,
        "contract": "contracts/Campaign.sol:Campaign",
        "label": "protocolFee",
        "offset": 0,
        "slot": "217",
        "type": "t_uint256"
      },
      {
        "astId": 4042,
        "contract": "contracts/Campaign.sol:Campaign",
        "label": "successTokensCount",
        "offset": 0,
        "slot": "218",
        "type": "t_uint256"
      },
      {
        "astId": 4049,
        "contract": "contracts/Campaign.sol:Campaign",
        "label": "records",
        "offset": 0,
        "slot": "219",
        "type": "t_mapping(t_uint256,t_mapping(t_uint256,t_struct(Record)7110_storage))"
      },
      {
        "astId": 4054,
        "contract": "contracts/Campaign.sol:Campaign",
        "label": "s_properties",
        "offset": 0,
        "slot": "220",
        "type": "t_mapping(t_uint256,t_struct(TokenProperty)7099_storage)"
      },
      {
        "astId": 4061,
        "contract": "contracts/Campaign.sol:Campaign",
        "label": "voters",
        "offset": 0,
        "slot": "221",
        "type": "t_mapping(t_uint256,t_mapping(t_uint256,t_struct(Voter)7070_storage))"
      },
      {
        "astId": 4066,
        "contract": "contracts/Campaign.sol:Campaign",
        "label": "challengeRecords",
        "offset": 0,
        "slot": "222",
        "type": "t_mapping(t_uint256,t_struct(ChallengeRecord)7088_storage)"
      },
      {
        "astId": 4069,
        "contract": "contracts/Campaign.sol:Campaign",
        "label": "challengeList",
        "offset": 0,
        "slot": "223",
        "type": "t_array(t_uint256)dyn_storage"
      },
      {
        "astId": 4073,
        "contract": "contracts/Campaign.sol:Campaign",
        "label": "challengedRecords",
        "offset": 0,
        "slot": "224",
        "type": "t_mapping(t_bytes32,t_bool)"
      }
    ],
    "types": {
      "t_address": {
        "encoding": "inplace",
        "label": "address",
        "numberOfBytes": "20"
      },
      "t_array(t_uint256)44_storage": {
        "base": "t_uint256",
        "encoding": "inplace",
        "label": "uint256[44]",
        "numberOfBytes": "1408"
      },
      "t_array(t_uint256)49_storage": {
        "base": "t_uint256",
        "encoding": "inplace",
        "label": "uint256[49]",
        "numberOfBytes": "1568"
      },
      "t_array(t_uint256)50_storage": {
        "base": "t_uint256",
        "encoding": "inplace",
        "label": "uint256[50]",
        "numberOfBytes": "1600"
      },
      "t_array(t_uint256)dyn_storage": {
        "base": "t_uint256",
        "encoding": "dynamic_array",
        "label": "uint256[]",
        "numberOfBytes": "32"
      },
      "t_bool": {
        "encoding": "inplace",
        "label": "bool",
        "numberOfBytes": "1"
      },
      "t_bytes32": {
        "encoding": "inplace",
        "label": "bytes32",
        "numberOfBytes": "32"
      },
      "t_contract(IERC20Upgradeable)686": {
        "encoding": "inplace",
        "label": "contract IERC20Upgradeable",
        "numberOfBytes": "20"
      },
      "t_enum(CampaignStatus)6769": {
        "encoding": "inplace",
        "label": "enum Consts.CampaignStatus",
        "numberOfBytes": "1"
      },
      "t_enum(ChallengeResult)7093": {
        "encoding": "inplace",
        "label": "enum ICampaign.ChallengeResult",
        "numberOfBytes": "1"
      },
      "t_enum(TokenStatus)7107": {
        "encoding": "inplace",
        "label": "enum ICampaign.TokenStatus",
        "numberOfBytes": "1"
      },
      "t_mapping(t_address,t_bool)": {
        "encoding": "mapping",
        "key": "t_address",
        "label": "mapping(address => bool)",
        "numberOfBytes": "32",
        "value": "t_bool"
      },
      "t_mapping(t_address,t_mapping(t_address,t_bool))": {
        "encoding": "mapping",
        "key": "t_address",
        "label": "mapping(address => mapping(address => bool))",
        "numberOfBytes": "32",
        "value": "t_mapping(t_address,t_bool)"
      },
      "t_mapping(t_address,t_uint256)": {
        "encoding": "mapping",
        "key": "t_address",
        "label": "mapping(address => uint256)",
        "numberOfBytes": "32",
        "value": "t_uint256"
      },
      "t_mapping(t_bytes32,t_bool)": {
        "encoding": "mapping",
        "key": "t_bytes32",
        "label": "mapping(bytes32 => bool)",
        "numberOfBytes": "32",
        "value": "t_bool"
      },
      "t_mapping(t_uint256,t_address)": {
        "encoding": "mapping",
        "key": "t_uint256",
        "label": "mapping(uint256 => address)",
        "numberOfBytes": "32",
        "value": "t_address"
      },
      "t_mapping(t_uint256,t_mapping(t_uint256,t_struct(Record)7110_storage))": {
        "encoding": "mapping",
        "key": "t_uint256",
        "label": "mapping(uint256 => mapping(uint256 => struct ICampaign.Record))",
        "numberOfBytes": "32",
        "value": "t_mapping(t_uint256,t_struct(Record)7110_storage)"
      },
      "t_mapping(t_uint256,t_mapping(t_uint256,t_struct(Voter)7070_storage))": {
        "encoding": "mapping",
        "key": "t_uint256",
        "label": "mapping(uint256 => mapping(uint256 => struct ICampaign.Voter))",
        "numberOfBytes": "32",
        "value": "t_mapping(t_uint256,t_struct(Voter)7070_storage)"
      },
      "t_mapping(t_uint256,t_struct(ChallengeRecord)7088_storage)": {
        "encoding": "mapping",
        "key": "t_uint256",
        "label": "mapping(uint256 => struct ICampaign.ChallengeRecord)",
        "numberOfBytes": "32",
        "value": "t_struct(ChallengeRecord)7088_storage"
      },
      "t_mapping(t_uint256,t_struct(Record)7110_storage)": {
        "encoding": "mapping",
        "key": "t_uint256",
        "label": "mapping(uint256 => struct ICampaign.Record)",
        "numberOfBytes": "32",
        "value": "t_struct(Record)7110_storage"
      },
      "t_mapping(t_uint256,t_struct(TokenProperty)7099_storage)": {
        "encoding": "mapping",
        "key": "t_uint256",
        "label": "mapping(uint256 => struct ICampaign.TokenProperty)",
        "numberOfBytes": "32",
        "value": "t_struct(TokenProperty)7099_storage"
      },
      "t_mapping(t_uint256,t_struct(Voter)7070_storage)": {
        "encoding": "mapping",
        "key": "t_uint256",
        "label": "mapping(uint256 => struct ICampaign.Voter)",
        "numberOfBytes": "32",
        "value": "t_struct(Voter)7070_storage"
      },
      "t_string_storage": {
        "encoding": "bytes",
        "label": "string",
        "numberOfBytes": "32"
      },
      "t_struct(ChallengeRecord)7088_storage": {
        "encoding": "inplace",
        "label": "struct ICampaign.ChallengeRecord",
        "members": [
          {
            "astId": 7072,
            "contract": "contracts/Campaign.sol:Campaign",
            "label": "challengerId",
            "offset": 0,
            "slot": "0",
            "type": "t_uint256"
          },
          {
            "astId": 7074,
            "contract": "contracts/Campaign.sol:Campaign",
            "label": "cheaterId",
            "offset": 0,
            "slot": "1",
            "type": "t_uint256"
          },
          {
            "astId": 7076,
            "contract": "contracts/Campaign.sol:Campaign",
            "label": "epoch",
            "offset": 0,
            "slot": "2",
            "type": "t_uint256"
          },
          {
            "astId": 7078,
            "contract": "contracts/Campaign.sol:Campaign",
            "label": "agreeCount",
            "offset": 0,
            "slot": "3",
            "type": "t_uint256"
          },
          {
            "astId": 7080,
            "contract": "contracts/Campaign.sol:Campaign",
            "label": "disagreeCount",
            "offset": 0,
            "slot": "4",
            "type": "t_uint256"
          },
          {
            "astId": 7082,
            "contract": "contracts/Campaign.sol:Campaign",
            "label": "challengeRiseTime",
            "offset": 0,
            "slot": "5",
            "type": "t_uint256"
          },
          {
            "astId": 7085,
            "contract": "contracts/Campaign.sol:Campaign",
            "label": "result",
            "offset": 0,
            "slot": "6",
            "type": "t_enum(ChallengeResult)7093"
          },
          {
            "astId": 7087,
            "contract": "contracts/Campaign.sol:Campaign",
            "label": "judged",
            "offset": 1,
            "slot": "6",
            "type": "t_bool"
          }
        ],
        "numberOfBytes": "224"
      },
      "t_struct(Record)7110_storage": {
        "encoding": "inplace",
        "label": "struct ICampaign.Record",
        "members": [
          {
            "astId": 7109,
            "contract": "contracts/Campaign.sol:Campaign",
            "label": "contentUri",
            "offset": 0,
            "slot": "0",
            "type": "t_string_storage"
          }
        ],
        "numberOfBytes": "32"
      },
      "t_struct(TokenProperty)7099_storage": {
        "encoding": "inplace",
        "label": "struct ICampaign.TokenProperty",
        "members": [
          {
            "astId": 7096,
            "contract": "contracts/Campaign.sol:Campaign",
            "label": "tokenStatus",
            "offset": 0,
            "slot": "0",
            "type": "t_enum(TokenStatus)7107"
          },
          {
            "astId": 7098,
            "contract": "contracts/Campaign.sol:Campaign",
            "label": "pendingReward",
            "offset": 0,
            "slot": "1",
            "type": "t_uint256"
          }
        ],
        "numberOfBytes": "64"
      },
      "t_struct(Voter)7070_storage": {
        "encoding": "inplace",
        "label": "struct ICampaign.Voter",
        "members": [
          {
            "astId": 7067,
            "contract": "contracts/Campaign.sol:Campaign",
            "label": "voted",
            "offset": 0,
            "slot": "0",
            "type": "t_bool"
          },
          {
            "astId": 7069,
            "contract": "contracts/Campaign.sol:Campaign",
            "label": "choice",
            "offset": 1,
            "slot": "0",
            "type": "t_bool"
          }
        ],
        "numberOfBytes": "32"
      },
      "t_uint256": {
        "encoding": "inplace",
        "label": "uint256",
        "numberOfBytes": "32"
      },
      "t_uint8": {
        "encoding": "inplace",
        "label": "uint8",
        "numberOfBytes": "1"
      }
    }
  }
}