{
  "address": "0x8aae2946aD4476306a165aAdFF6f5335E2fA64c0",
  "abi": [
    {
      "inputs": [],
      "name": "OnlySimulatedBackend",
      "type": "error"
    },
    {
      "anonymous": false,
      "inputs": [
        {
          "indexed": false,
          "internalType": "address",
          "name": "previousAdmin",
          "type": "address"
        },
        {
          "indexed": false,
          "internalType": "address",
          "name": "newAdmin",
          "type": "address"
        }
      ],
      "name": "AdminChanged",
      "type": "event"
    },
    {
      "anonymous": false,
      "inputs": [
        {
          "indexed": true,
          "internalType": "address",
          "name": "beacon",
          "type": "address"
        }
      ],
      "name": "BeaconUpgraded",
      "type": "event"
    },
    {
      "anonymous": false,
      "inputs": [
        {
          "indexed": false,
          "internalType": "address",
          "name": "campaign",
          "type": "address"
        }
      ],
      "name": "CampaignUpKeepCancelled",
      "type": "event"
    },
    {
      "anonymous": false,
      "inputs": [
        {
          "indexed": false,
          "internalType": "address",
          "name": "campaign",
          "type": "address"
        },
        {
          "indexed": false,
          "internalType": "uint256",
          "name": "upkeepID",
          "type": "uint256"
        }
      ],
      "name": "CampaignUpKeepRegistered",
      "type": "event"
    },
    {
      "anonymous": false,
      "inputs": [
        {
          "indexed": false,
          "internalType": "address",
          "name": "campaign",
          "type": "address"
        }
      ],
      "name": "CampaignUpKeepWithdrawal",
      "type": "event"
    },
    {
      "anonymous": false,
      "inputs": [
        {
          "indexed": true,
          "internalType": "address",
          "name": "host",
          "type": "address"
        },
        {
          "indexed": true,
          "internalType": "address",
          "name": "campaignAddress",
          "type": "address"
        }
      ],
      "name": "EvCampaignCreated",
      "type": "event"
    },
    {
      "anonymous": false,
      "inputs": [
        {
          "indexed": false,
          "internalType": "contract ICampaign",
          "name": "newImplementation",
          "type": "address"
        }
      ],
      "name": "EvCampaignUpdated",
      "type": "event"
    },
    {
      "anonymous": false,
      "inputs": [
        {
          "indexed": true,
          "internalType": "contract IERC20Upgradeable",
          "name": "token",
          "type": "address"
        },
        {
          "indexed": false,
          "internalType": "uint256",
          "name": "maxAmount",
          "type": "uint256"
        }
      ],
      "name": "EvWhiteTokenSet",
      "type": "event"
    },
    {
      "anonymous": false,
      "inputs": [
        {
          "indexed": true,
          "internalType": "address",
          "name": "user",
          "type": "address"
        },
        {
          "indexed": false,
          "internalType": "bool",
          "name": "status",
          "type": "bool"
        }
      ],
      "name": "EvWhiteUserSet",
      "type": "event"
    },
    {
      "anonymous": false,
      "inputs": [
        {
          "indexed": false,
          "internalType": "uint8",
          "name": "version",
          "type": "uint8"
        }
      ],
      "name": "Initialized",
      "type": "event"
    },
    {
      "anonymous": false,
      "inputs": [
        {
          "indexed": true,
          "internalType": "address",
          "name": "previousOwner",
          "type": "address"
        },
        {
          "indexed": true,
          "internalType": "address",
          "name": "newOwner",
          "type": "address"
        }
      ],
      "name": "OwnershipTransferred",
      "type": "event"
    },
    {
      "anonymous": false,
      "inputs": [
        {
          "indexed": true,
          "internalType": "address",
          "name": "implementation",
          "type": "address"
        }
      ],
      "name": "Upgraded",
      "type": "event"
    },
    {
      "inputs": [
        {
          "internalType": "uint256",
          "name": "",
          "type": "uint256"
        }
      ],
      "name": "OnGoingCampaigns",
      "outputs": [
        {
          "internalType": "address",
          "name": "",
          "type": "address"
        }
      ],
      "stateMutability": "view",
      "type": "function"
    },
    {
      "inputs": [
        {
          "internalType": "address",
          "name": "campaign",
          "type": "address"
        }
      ],
      "name": "cancelUpKeep",
      "outputs": [],
      "stateMutability": "nonpayable",
      "type": "function"
    },
    {
      "inputs": [
        {
          "internalType": "bytes",
          "name": "",
          "type": "bytes"
        }
      ],
      "name": "checkUpkeep",
      "outputs": [
        {
          "internalType": "bool",
          "name": "upkeepNeeded",
          "type": "bool"
        },
        {
          "internalType": "bytes",
          "name": "performData",
          "type": "bytes"
        }
      ],
      "stateMutability": "view",
      "type": "function"
    },
    {
      "inputs": [
        {
          "internalType": "contract IERC20Upgradeable",
          "name": "token",
          "type": "address"
        },
        {
          "internalType": "uint256",
          "name": "amount",
          "type": "uint256"
        },
        {
          "internalType": "string",
          "name": "name",
          "type": "string"
        },
        {
          "internalType": "string",
          "name": "symbol",
          "type": "string"
        },
        {
          "internalType": "uint256",
          "name": "startTime",
          "type": "uint256"
        },
        {
          "internalType": "uint256",
          "name": "totalPeriod",
          "type": "uint256"
        },
        {
          "internalType": "uint256",
          "name": "periodLength",
          "type": "uint256"
        },
        {
          "internalType": "string",
          "name": "campaignUri",
          "type": "string"
        },
        {
          "internalType": "bytes",
          "name": "zero",
          "type": "bytes"
        }
      ],
      "name": "createCampaign",
      "outputs": [
        {
          "internalType": "address",
          "name": "campaign",
          "type": "address"
        }
      ],
      "stateMutability": "nonpayable",
      "type": "function"
    },
    {
      "inputs": [],
      "name": "i_campaign",
      "outputs": [
        {
          "internalType": "contract ICampaign",
          "name": "",
          "type": "address"
        }
      ],
      "stateMutability": "view",
      "type": "function"
    },
    {
      "inputs": [],
      "name": "i_link",
      "outputs": [
        {
          "internalType": "contract LinkTokenInterface",
          "name": "",
          "type": "address"
        }
      ],
      "stateMutability": "view",
      "type": "function"
    },
    {
      "inputs": [],
      "name": "i_registry",
      "outputs": [
        {
          "internalType": "contract AutomationRegistryInterface",
          "name": "",
          "type": "address"
        }
      ],
      "stateMutability": "view",
      "type": "function"
    },
    {
      "inputs": [
        {
          "internalType": "contract ICampaign",
          "name": "campaign_",
          "type": "address"
        },
        {
          "internalType": "contract LinkTokenInterface",
          "name": "link_",
          "type": "address"
        },
        {
          "internalType": "address",
          "name": "registrar_",
          "type": "address"
        },
        {
          "internalType": "contract AutomationRegistryInterface",
          "name": "registry_",
          "type": "address"
        }
      ],
      "name": "initialize",
      "outputs": [],
      "stateMutability": "nonpayable",
      "type": "function"
    },
    {
      "inputs": [
        {
          "internalType": "address",
          "name": "",
          "type": "address"
        }
      ],
      "name": "keepUpRecords",
      "outputs": [
        {
          "internalType": "uint256",
          "name": "upKeepId",
          "type": "uint256"
        }
      ],
      "stateMutability": "view",
      "type": "function"
    },
    {
      "inputs": [
        {
          "internalType": "contract IERC20Upgradeable",
          "name": "token",
          "type": "address"
        },
        {
          "internalType": "uint256",
          "name": "amount",
          "type": "uint256"
        }
      ],
      "name": "modifyWhiteToken",
      "outputs": [],
      "stateMutability": "nonpayable",
      "type": "function"
    },
    {
      "inputs": [],
      "name": "owner",
      "outputs": [
        {
          "internalType": "address",
          "name": "",
          "type": "address"
        }
      ],
      "stateMutability": "view",
      "type": "function"
    },
    {
      "inputs": [
        {
          "internalType": "bytes",
          "name": "performData",
          "type": "bytes"
        }
      ],
      "name": "performUpkeep",
      "outputs": [],
      "stateMutability": "nonpayable",
      "type": "function"
    },
    {
      "inputs": [],
      "name": "proxiableUUID",
      "outputs": [
        {
          "internalType": "bytes32",
          "name": "",
          "type": "bytes32"
        }
      ],
      "stateMutability": "view",
      "type": "function"
    },
    {
      "inputs": [],
      "name": "registrar",
      "outputs": [
        {
          "internalType": "address",
          "name": "",
          "type": "address"
        }
      ],
      "stateMutability": "view",
      "type": "function"
    },
    {
      "inputs": [],
      "name": "renounceOwnership",
      "outputs": [],
      "stateMutability": "nonpayable",
      "type": "function"
    },
    {
      "inputs": [],
      "name": "saveOwnerInAdmin",
      "outputs": [],
      "stateMutability": "nonpayable",
      "type": "function"
    },
    {
      "inputs": [
        {
          "internalType": "address",
          "name": "campaign",
          "type": "address"
        },
        {
          "components": [
            {
              "internalType": "uint256",
              "name": "upKeepId",
              "type": "uint256"
            }
          ],
          "internalType": "struct CampaignFactoryStorage.UpKeepInfo",
          "name": "upKeepInfo",
          "type": "tuple"
        }
      ],
      "name": "setKeepUpRecords",
      "outputs": [],
      "stateMutability": "nonpayable",
      "type": "function"
    },
    {
      "inputs": [
        {
          "internalType": "address",
          "name": "newOwner",
          "type": "address"
        }
      ],
      "name": "transferOwnership",
      "outputs": [],
      "stateMutability": "nonpayable",
      "type": "function"
    },
    {
      "inputs": [
        {
          "internalType": "contract ICampaign",
          "name": "newImplementation",
          "type": "address"
        }
      ],
      "name": "updateCampaignImplementation",
      "outputs": [],
      "stateMutability": "nonpayable",
      "type": "function"
    },
    {
      "inputs": [
        {
          "internalType": "address",
          "name": "newImplementation",
          "type": "address"
        }
      ],
      "name": "upgradeTo",
      "outputs": [],
      "stateMutability": "nonpayable",
      "type": "function"
    },
    {
      "inputs": [
        {
          "internalType": "address",
          "name": "newImplementation",
          "type": "address"
        },
        {
          "internalType": "bytes",
          "name": "data",
          "type": "bytes"
        }
      ],
      "name": "upgradeToAndCall",
      "outputs": [],
      "stateMutability": "payable",
      "type": "function"
    },
    {
      "inputs": [
        {
          "internalType": "contract IERC20Upgradeable",
          "name": "",
          "type": "address"
        }
      ],
      "name": "whiteTokens",
      "outputs": [
        {
          "internalType": "uint256",
          "name": "",
          "type": "uint256"
        }
      ],
      "stateMutability": "view",
      "type": "function"
    },
    {
      "inputs": [
        {
          "internalType": "address",
          "name": "",
          "type": "address"
        }
      ],
      "name": "whiteUsers",
      "outputs": [
        {
          "internalType": "bool",
          "name": "",
          "type": "bool"
        }
      ],
      "stateMutability": "view",
      "type": "function"
    },
    {
      "inputs": [
        {
          "internalType": "address",
          "name": "campaign",
          "type": "address"
        }
      ],
      "name": "withdrawUpKeep",
      "outputs": [],
      "stateMutability": "nonpayable",
      "type": "function"
    }
  ],
  "transactionHash": "0x5834900128a2a4aaffae5f81c3ce5aadba30eec8cc128504bee530e063acb673",
  "args": [],
  "numDeployments": 12,
  "solcInputHash": "beb0771dfb1e68d98da530c49d8d12e1",
  "bytecode": "0x60a06040523060805234801561001457600080fd5b50608051612d2c61004c6000396000818161057b01528181610616015281816108e0015281816109760152610a710152612d2c6000f3fe60806040526004361061018b5760003560e01c806377321c58116100d6578063af221bec1161007f578063e32e8b3911610059578063e32e8b3914610475578063f2fde38b14610495578063f8c8765e146104b557600080fd5b8063af221bec14610408578063aff4e79a14610428578063b33f9d381461045557600080fd5b80638a80d397116100b05780638a80d397146103b55780638d3cb7e6146103ca5780638da5cb5b146103ea57600080fd5b806377321c58146103555780637d253aff14610375578063801494491461039557600080fd5b80634585e33b116101385780636e04ff0d116101125780636e04ff0d146102f25780636f93d62014610320578063715018a61461034057600080fd5b80634585e33b146102aa5780634f1ef286146102ca57806352d1902d146102dd57600080fd5b80632a663606116101695780632a663606146102325780632b20e3971461026a5780633659cfe61461028a57600080fd5b80631307502c14610190578063144442e7146101d55780631f70aa1c14610210575b600080fd5b34801561019c57600080fd5b506101c06101ab3660046120d2565b60006020819052908152604090205460ff1681565b60405190151581526020015b60405180910390f35b3480156101e157600080fd5b506102026101f03660046120d2565b60016020526000908152604090205481565b6040519081526020016101cc565b34801561021c57600080fd5b5061023061022b3660046120d2565b6104d5565b005b34801561023e57600080fd5b50600554610252906001600160a01b031681565b6040516001600160a01b0390911681526020016101cc565b34801561027657600080fd5b50600454610252906001600160a01b031681565b34801561029657600080fd5b506102306102a53660046120d2565b610571565b3480156102b657600080fd5b506102306102c5366004612141565b610713565b6102306102d836600461227d565b6108d6565b3480156102e957600080fd5b50610202610a64565b3480156102fe57600080fd5b5061031261030d366004612141565b610b29565b6040516101cc929190612339565b34801561032c57600080fd5b5061025261033b36600461235c565b610d7a565b34801561034c57600080fd5b50610230610da4565b34801561036157600080fd5b506102306103703660046120d2565b610db8565b34801561038157600080fd5b50600354610252906001600160a01b031681565b3480156103a157600080fd5b506102306103b03660046120d2565b610e21565b3480156103c157600080fd5b50610230610e86565b3480156103d657600080fd5b506102526103e5366004612395565b610ebf565b3480156103f657600080fd5b506068546001600160a01b0316610252565b34801561041457600080fd5b50600254610252906001600160a01b031681565b34801561043457600080fd5b506102026104433660046120d2565b60066020526000908152604090205481565b34801561046157600080fd5b5061023061047036600461248f565b6111ff565b34801561048157600080fd5b506102306104903660046124d0565b61122a565b3480156104a157600080fd5b506102306104b03660046120d2565b61128b565b3480156104c157600080fd5b506102306104d03660046124fc565b611318565b6104dd6114b0565b6005546001600160a01b03828116600090815260066020526040908190205490517f744bfe61000000000000000000000000000000000000000000000000000000008152600481019190915233602482015291169063744bfe61906044015b600060405180830381600087803b15801561055657600080fd5b505af115801561056a573d6000803e3d6000fd5b5050505050565b6001600160a01b037f00000000000000000000000000000000000000000000000000000000000000001630036106145760405162461bcd60e51b815260206004820152602c60248201527f46756e6374696f6e206d7573742062652063616c6c6564207468726f7567682060448201527f64656c656761746563616c6c000000000000000000000000000000000000000060648201526084015b60405180910390fd5b7f00000000000000000000000000000000000000000000000000000000000000006001600160a01b031661066f7f360894a13ba1a3210667c828492db98dca3e2076cc3735a920a3ca505d382bbc546001600160a01b031690565b6001600160a01b0316146106eb5760405162461bcd60e51b815260206004820152602c60248201527f46756e6374696f6e206d7573742062652063616c6c6564207468726f7567682060448201527f6163746976652070726f78790000000000000000000000000000000000000000606482015260840161060b565b6106f48161150a565b6040805160008082526020820190925261071091839190611512565b50565b600080610722838501856124d0565b91509150806000036107fa576005546001600160a01b03838116600090815260066020526040908190205490517fc8048022000000000000000000000000000000000000000000000000000000008152600481019190915291169063c804802290602401600060405180830381600087803b1580156107a057600080fd5b505af11580156107b4573d6000803e3d6000fd5b50506040516001600160a01b03851681527faff860f486d079cb5c9e409ce38392d1b2bfbaf3feb98c17006cd1ec4e8a96919250602001905060405180910390a16108d0565b806001036108d0576005546001600160a01b03838116600090815260066020526040908190205490517f744bfe61000000000000000000000000000000000000000000000000000000008152600481019190915230602482015291169063744bfe6190604401600060405180830381600087803b15801561087a57600080fd5b505af115801561088e573d6000803e3d6000fd5b50506040516001600160a01b03851681527f13115268ab8762c4f3ac567bf3b406763697b029819599563e47d083b3d3399e9250602001905060405180910390a15b50505050565b6001600160a01b037f00000000000000000000000000000000000000000000000000000000000000001630036109745760405162461bcd60e51b815260206004820152602c60248201527f46756e6374696f6e206d7573742062652063616c6c6564207468726f7567682060448201527f64656c656761746563616c6c0000000000000000000000000000000000000000606482015260840161060b565b7f00000000000000000000000000000000000000000000000000000000000000006001600160a01b03166109cf7f360894a13ba1a3210667c828492db98dca3e2076cc3735a920a3ca505d382bbc546001600160a01b031690565b6001600160a01b031614610a4b5760405162461bcd60e51b815260206004820152602c60248201527f46756e6374696f6e206d7573742062652063616c6c6564207468726f7567682060448201527f6163746976652070726f78790000000000000000000000000000000000000000606482015260840161060b565b610a548261150a565b610a6082826001611512565b5050565b6000306001600160a01b037f00000000000000000000000000000000000000000000000000000000000000001614610b045760405162461bcd60e51b815260206004820152603860248201527f555550535570677261646561626c653a206d757374206e6f742062652063616c60448201527f6c6564207468726f7567682064656c656761746563616c6c0000000000000000606482015260840161060b565b507f360894a13ba1a3210667c828492db98dca3e2076cc3735a920a3ca505d382bbc90565b6000606060005b600754811015610d7157600060078281548110610b4f57610b4f612558565b60009182526020808320909101546005546001600160a01b03918216808552600690935260408085205490517fc7c3a19a0000000000000000000000000000000000000000000000000000000081529395508493849384938493849384938493169163c7c3a19a91610bc8919060040190815260200190565b600060405180830381865afa158015610be5573d6000803e3d6000fd5b505050506040513d6000823e601f3d908101601f19168201604052610c0d91908101906125c1565b969e50949c50929a50909850965094509250905067ffffffffffffffff808316141560048a6001600160a01b031663200d2ed26040518163ffffffff1660e01b8152600401602060405180830381865afa158015610c6f573d6000803e3d6000fd5b505050506040513d601f19601f82011682018060405250810190610c9391906126c6565b6004811115610ca457610ca46126b0565b148015610caf575080155b15610cf957604080516001600160a01b038c16602082015260009181019190915260019d506060015b6040516020818303038152906040529b505050505050505050505050610d73565b610d0e603267ffffffffffffffff85166126fd565b43118015610d2957506bffffffffffffffffffffffff861615155b15610d5457604080516001600160a01b038c1660208201526001918101829052909d50606001610cd8565b505050505050505050508080610d6990612715565b915050610b30565b505b9250929050565b60078181548110610d8a57600080fd5b6000918252602090912001546001600160a01b0316905081565b610dac6114b0565b610db660006116b7565b565b610dc06114b0565b6002805473ffffffffffffffffffffffffffffffffffffffff19166001600160a01b0383169081179091556040519081527f34cfd2cac352320b9ae72ade3c0ccf4835c60b5aeccc74380b9c78f0fd99ec4c9060200160405180910390a150565b610e296114b0565b6005546001600160a01b03828116600090815260066020526040908190205490517fc8048022000000000000000000000000000000000000000000000000000000008152600481019190915291169063c80480229060240161053c565b6000610e9a6068546001600160a01b031690565b7fb53127684a568b3173ae13b9f8a6016e243e63b6e8ee1178d6a717850b5d61035550565b6001600160a01b038b166000908152600160205260408120548b1115610f275760405162461bcd60e51b815260206004820152601c60248201527f43616d706169676e463a20616d6f756e74206578636565642063617000000000604482015260640161060b565b874210610f765760405162461bcd60e51b815260206004820152601960248201527f43616d706169676e463a20737461727420746f6f20736f6f6e00000000000000604482015260640161060b565b6003546040517f70a08231000000000000000000000000000000000000000000000000000000008152306004820152674563918244f40000916001600160a01b0316906370a0823190602401602060405180830381865afa158015610fdf573d6000803e3d6000fd5b505050506040513d601f19601f82011682018060405250810190611003919061272f565b10156110515760405162461bcd60e51b815260206004820152601b60248201527f43616d706169676e463a206e6f7420656e6f75676820244c696e6b0000000000604482015260640161060b565b6002546040516110f8916001600160a01b0316906110a39060200160208082526011908201527f53697379706875732050726f746f636f6c000000000000000000000000000000604082015260600190565b60405160208183030381529060405280519060200120338f8f8f8f8f8f8f8f8f6040516020016110dd9b9a99989796959493929190612748565b60405160208183030381529060405280519060200120611716565b9050806001600160a01b031663703064d1338e8e8e8e8e8e8e8e8e6040518b63ffffffff1660e01b81526004016111389a99989796959493929190612807565b600060405180830381600087803b15801561115257600080fd5b505af1158015611166573d6000803e3d6000fd5b505050506111ba611181826001600160a01b031660146117d3565b6040516020016111919190612887565b604051602081830303815290604052848484624c4b40308989674563918244f400006000611a03565b6040516001600160a01b0382169033907facd63640134021f2a0e3727cb386f37eff4877f03025952b4d5dd67f1d4c9ac390600090a39b9a5050505050505050505050565b6112076114b0565b6001600160a01b03821660009081526006602052604090208135815581906108d0565b6112326114b0565b6001600160a01b03821660008181526001602052604090819020839055517f5f4c38db7b341414be18a675a08cd2c914f57fa3ac798db73bd0e0b5edc72c769061127f9084815260200190565b60405180910390a25050565b6112936114b0565b6001600160a01b03811661130f5760405162461bcd60e51b815260206004820152602660248201527f4f776e61626c653a206e6577206f776e657220697320746865207a65726f206160448201527f6464726573730000000000000000000000000000000000000000000000000000606482015260840161060b565b610710816116b7565b603554610100900460ff16158080156113385750603554600160ff909116105b806113525750303b158015611352575060355460ff166001145b6113c45760405162461bcd60e51b815260206004820152602e60248201527f496e697469616c697a61626c653a20636f6e747261637420697320616c72656160448201527f647920696e697469616c697a6564000000000000000000000000000000000000606482015260840161060b565b603580547fffffffffffffffffffffffffffffffffffffffffffffffffffffffffffffff001660011790558015611405576035805461ff0019166101001790555b600280546001600160a01b0380881673ffffffffffffffffffffffffffffffffffffffff199283161790925560038054878416908316179055600480548684169083161790556005805492851692909116919091179055611464611d16565b801561056a576035805461ff0019169055604051600181527f7f26b83ff96e1f2b6a682f133852f6798a09c465da95921460cefb38474024989060200160405180910390a15050505050565b6068546001600160a01b03163314610db65760405162461bcd60e51b815260206004820181905260248201527f4f776e61626c653a2063616c6c6572206973206e6f7420746865206f776e6572604482015260640161060b565b6107106114b0565b7f4910fdfa16fed3260ed0e7147f7cc6da11a60208b5b9406d12a635614ffd91435460ff161561154a5761154583611d9c565b505050565b826001600160a01b03166352d1902d6040518163ffffffff1660e01b8152600401602060405180830381865afa9250505080156115a4575060408051601f3d908101601f191682019092526115a19181019061272f565b60015b6116165760405162461bcd60e51b815260206004820152602e60248201527f45524331393637557067726164653a206e657720696d706c656d656e7461746960448201527f6f6e206973206e6f742055555053000000000000000000000000000000000000606482015260840161060b565b7f360894a13ba1a3210667c828492db98dca3e2076cc3735a920a3ca505d382bbc81146116ab5760405162461bcd60e51b815260206004820152602960248201527f45524331393637557067726164653a20756e737570706f727465642070726f7860448201527f6961626c65555549440000000000000000000000000000000000000000000000606482015260840161060b565b50611545838383611e67565b606880546001600160a01b0383811673ffffffffffffffffffffffffffffffffffffffff19831681179093556040519116919082907f8be0079c531659141344cd1fd0a4f28419497f9722a3daafe3b4186f6b6457e090600090a35050565b60006040517f3d602d80600a3d3981f3363d3d373d3d3d363d7300000000000000000000000081528360601b60148201527f5af43d82803e903d91602b57fd5bf300000000000000000000000000000000006028820152826037826000f59150506001600160a01b0381166117cd5760405162461bcd60e51b815260206004820152601760248201527f455243313136373a2063726561746532206661696c6564000000000000000000604482015260640161060b565b92915050565b606060006117e28360026128cc565b6117ed9060026126fd565b67ffffffffffffffff81111561180557611805612183565b6040519080825280601f01601f19166020018201604052801561182f576020820181803683370190505b5090507f30000000000000000000000000000000000000000000000000000000000000008160008151811061186657611866612558565b60200101907effffffffffffffffffffffffffffffffffffffffffffffffffffffffffffff1916908160001a9053507f7800000000000000000000000000000000000000000000000000000000000000816001815181106118c9576118c9612558565b60200101907effffffffffffffffffffffffffffffffffffffffffffffffffffffffffffff1916908160001a90535060006119058460026128cc565b6119109060016126fd565b90505b60018111156119ad577f303132333435363738396162636465660000000000000000000000000000000085600f166010811061195157611951612558565b1a60f81b82828151811061196757611967612558565b60200101907effffffffffffffffffffffffffffffffffffffffffffffffffffffffffffff1916908160001a90535060049490941c936119a6816128eb565b9050611913565b5083156119fc5760405162461bcd60e51b815260206004820181905260248201527f537472696e67733a20686578206c656e67746820696e73756666696369656e74604482015260640161060b565b9392505050565b6000806000600560009054906101000a90046001600160a01b03166001600160a01b0316631865c57d6040518163ffffffff1660e01b8152600401600060405180830381865afa158015611a5b573d6000803e3d6000fd5b505050506040513d6000823e601f3d908101601f19168201604052611a8391908101906129b0565b9250925092506000836000015163ffffffff16905060008e8e8e8e8e8e8e8e8e8e30604051602001611abf9b9a99989796959493929190612b46565b60408051601f19818403018152908290526003546004549193506001600160a01b0390811692634000aea092909116908a90611b21907f3659d66600000000000000000000000000000000000000000000000000000000908790602001612be0565b6040516020818303038152906040526040518463ffffffff1660e01b8152600401611b4e93929190612c28565b6020604051808303816000875af1158015611b6d573d6000803e3d6000fd5b505050506040513d601f19601f82011682018060405250810190611b919190612c67565b50600560009054906101000a90046001600160a01b03166001600160a01b0316631865c57d6040518163ffffffff1660e01b8152600401600060405180830381865afa158015611be5573d6000803e3d6000fd5b505050506040513d6000823e601f3d908101601f19168201604052611c0d91908101906129b0565b8251929750909550935063ffffffff16611c288360016126fd565b8103611cbc576000611c3b600143612c89565b600554604080519240602084015260609190911b6bffffffffffffffffffffffff19169082015260e085901b7fffffffff000000000000000000000000000000000000000000000000000000001660548201526058016040516020818303038152906040528051906020012060001c9050611cb68e82611e8c565b50611d04565b60405162461bcd60e51b815260206004820152601560248201527f6175746f2d617070726f76652064697361626c65640000000000000000000000604482015260640161060b565b50505050505050505050505050505050565b603554610100900460ff16611d935760405162461bcd60e51b815260206004820152602b60248201527f496e697469616c697a61626c653a20636f6e7472616374206973206e6f74206960448201527f6e697469616c697a696e67000000000000000000000000000000000000000000606482015260840161060b565b610db6336116b7565b6001600160a01b0381163b611e195760405162461bcd60e51b815260206004820152602d60248201527f455243313936373a206e657720696d706c656d656e746174696f6e206973206e60448201527f6f74206120636f6e747261637400000000000000000000000000000000000000606482015260840161060b565b7f360894a13ba1a3210667c828492db98dca3e2076cc3735a920a3ca505d382bbc805473ffffffffffffffffffffffffffffffffffffffff19166001600160a01b0392909216919091179055565b611e7083611f30565b600082511180611e7d5750805b15611545576108d08383611f70565b6001600160a01b03821660008181526006602090815260408083208590556007805460018101825593527fa66cc928b5edb82af9bd49922954155ab7b0942694bea4ce44661d9a8736c688909201805473ffffffffffffffffffffffffffffffffffffffff191684179055815192835282018390527ffd178b9cd7ae1f7ffcc324ed72b5af3040500c49285c4806240607e04a17dc41910160405180910390a15050565b611f3981611d9c565b6040516001600160a01b038216907fbc7cd75a20ee27fd9adebab32041f755214dbc6bffa90cc0225b39da2e5c2d3b90600090a250565b60606119fc8383604051806060016040528060278152602001612cd06027913960606001600160a01b0384163b61200f5760405162461bcd60e51b815260206004820152602660248201527f416464726573733a2064656c65676174652063616c6c20746f206e6f6e2d636f60448201527f6e74726163740000000000000000000000000000000000000000000000000000606482015260840161060b565b600080856001600160a01b03168560405161202a9190612ca0565b600060405180830381855af49150503d8060008114612065576040519150601f19603f3d011682016040523d82523d6000602084013e61206a565b606091505b509150915061207a828286612084565b9695505050505050565b606083156120935750816119fc565b8251156120a35782518084602001fd5b8160405162461bcd60e51b815260040161060b9190612cbc565b6001600160a01b038116811461071057600080fd5b6000602082840312156120e457600080fd5b81356119fc816120bd565b80356120fa816120bd565b919050565b60008083601f84011261211157600080fd5b50813567ffffffffffffffff81111561212957600080fd5b602083019150836020828501011115610d7357600080fd5b6000806020838503121561215457600080fd5b823567ffffffffffffffff81111561216b57600080fd5b612177858286016120ff565b90969095509350505050565b634e487b7160e01b600052604160045260246000fd5b6040516080810167ffffffffffffffff811182821017156121bc576121bc612183565b60405290565b604051610180810167ffffffffffffffff811182821017156121bc576121bc612183565b604051601f8201601f1916810167ffffffffffffffff8111828210171561220f5761220f612183565b604052919050565b600067ffffffffffffffff82111561223157612231612183565b50601f01601f191660200190565b600061225261224d84612217565b6121e6565b905082815283838301111561226657600080fd5b828260208301376000602084830101529392505050565b6000806040838503121561229057600080fd5b823561229b816120bd565b9150602083013567ffffffffffffffff8111156122b757600080fd5b8301601f810185136122c857600080fd5b6122d78582356020840161223f565b9150509250929050565b60005b838110156122fc5781810151838201526020016122e4565b838111156108d05750506000910152565b600081518084526123258160208601602086016122e1565b601f01601f19169290920160200192915050565b8215158152604060208201526000612354604083018461230d565b949350505050565b60006020828403121561236e57600080fd5b5035919050565b600082601f83011261238657600080fd5b6119fc8383356020850161223f565b60008060008060008060008060008060006101208c8e0312156123b757600080fd5b6123c08c6120ef565b9a5060208c0135995067ffffffffffffffff8060408e013511156123e357600080fd5b6123f38e60408f01358f01612375565b99508060608e0135111561240657600080fd5b6124168e60608f01358f01612375565b985060808d0135975060a08d0135965060c08d013595508060e08e0135111561243e57600080fd5b61244e8e60e08f01358f016120ff565b90955093506101008d013581101561246557600080fd5b506124778d6101008e01358e016120ff565b81935080925050509295989b509295989b9093969950565b60008082840360408112156124a357600080fd5b83356124ae816120bd565b92506020601f19820112156124c257600080fd5b506020830190509250929050565b600080604083850312156124e357600080fd5b82356124ee816120bd565b946020939093013593505050565b6000806000806080858703121561251257600080fd5b843561251d816120bd565b9350602085013561252d816120bd565b9250604085013561253d816120bd565b9150606085013561254d816120bd565b939692955090935050565b634e487b7160e01b600052603260045260246000fd5b80516120fa816120bd565b805163ffffffff811681146120fa57600080fd5b80516bffffffffffffffffffffffff811681146120fa57600080fd5b805167ffffffffffffffff811681146120fa57600080fd5b600080600080600080600080610100898b0312156125de57600080fd5b88516125e9816120bd565b97506125f760208a01612579565b9650604089015167ffffffffffffffff81111561261357600080fd5b8901601f81018b1361262457600080fd5b805161263261224d82612217565b8181528c602083850101111561264757600080fd5b6126588260208301602086016122e1565b975061266991505060608a0161258d565b945061267760808a0161256e565b935061268560a08a0161256e565b925061269360c08a016125a9565b91506126a160e08a0161258d565b90509295985092959890939650565b634e487b7160e01b600052602160045260246000fd5b6000602082840312156126d857600080fd5b8151600581106119fc57600080fd5b634e487b7160e01b600052601160045260246000fd5b60008219821115612710576127106126e7565b500190565b60006000198203612728576127286126e7565b5060010190565b60006020828403121561274157600080fd5b5051919050565b8b815260006bffffffffffffffffffffffff19808d60601b166020840152808c60601b16603484015250896048830152885161278b816068850160208d016122e1565b8851908301906127a2816068840160208d016122e1565b8082019150508760688201528660888201528560a8820152838560c88301376000930160c80192835250909b9a5050505050505050505050565b818352818160208501375060006020828401015260006020601f19601f840116840101905092915050565b60006101206001600160a01b03808e168452808d166020850152508a604084015280606084015261283a8184018b61230d565b9050828103608084015261284e818a61230d565b90508760a08401528660c08401528560e08401528281036101008401526128768185876127dc565b9d9c50505050505050505050505050565b7f53697379706875732000000000000000000000000000000000000000000000008152600082516128bf8160098501602087016122e1565b9190910160090192915050565b60008160001904831182151516156128e6576128e66126e7565b500290565b6000816128fa576128fa6126e7565b506000190190565b805162ffffff811681146120fa57600080fd5b805161ffff811681146120fa57600080fd5b600082601f83011261293857600080fd5b8151602067ffffffffffffffff82111561295457612954612183565b8160051b6129638282016121e6565b928352848101820192828101908785111561297d57600080fd5b83870192505b848310156129a5578251612996816120bd565b82529183019190830190612983565b979650505050505050565b60008060008385036102208112156129c757600080fd5b60808112156129d557600080fd5b6129dd612199565b6129e686612579565b81526129f46020870161258d565b6020820152604086015160408201526060860151606082015280945050610180807fffffffffffffffffffffffffffffffffffffffffffffffffffffffffffffff8083011215612a4357600080fd5b612a4b6121c2565b9150612a5960808701612579565b8252612a6760a08701612579565b6020830152612a7860c08701612902565b6040830152612a8960e08701612579565b6060830152610100612a9c818801612902565b6080840152610120612aaf818901612915565b60a0850152610140612ac2818a0161258d565b60c0860152610160612ad5818b01612579565b60e0870152848a0151848701526101a08a015183870152612af96101c08b0161256e565b82870152612b0a6101e08b0161256e565b908601525050505061020085015190925067ffffffffffffffff811115612b3057600080fd5b612b3c86828701612927565b9150509250925092565b6000610120808352612b5a8184018f61230d565b90508281036020840152612b6f818d8f6127dc565b90506001600160a01b03808c16604085015263ffffffff8b166060850152808a16608085015283820360a0850152612ba882898b6127dc565b6bffffffffffffffffffffffff9790971660c085015260ff9590951660e0840152505091166101009091015298975050505050505050565b7fffffffff000000000000000000000000000000000000000000000000000000008316815260008251612c1a8160048501602087016122e1565b919091016004019392505050565b6001600160a01b03841681526bffffffffffffffffffffffff83166020820152606060408201526000612c5e606083018461230d565b95945050505050565b600060208284031215612c7957600080fd5b815180151581146119fc57600080fd5b600082821015612c9b57612c9b6126e7565b500390565b60008251612cb28184602087016122e1565b9190910192915050565b6020815260006119fc602083018461230d56fe416464726573733a206c6f772d6c6576656c2064656c65676174652063616c6c206661696c6564a26469706673582212206b36d9e059c4a8fd555284038df24ed56dd606573081d3c0c613de354159cf4364736f6c634300080f0033",
  "devdoc": {
    "kind": "dev",
    "methods": {
      "cancelUpKeep(address)": {
        "details": "use in development"
      },
      "checkUpkeep(bytes)": {
        "details": "check Upkeep"
      },
      "owner()": {
        "details": "Returns the address of the current owner."
      },
      "performUpkeep(bytes)": {
        "details": "two kind of perform 0: cancel upKeep of campaign 1: withdraw upKeep $link"
      },
      "proxiableUUID()": {
        "details": "Implementation of the ERC1822 {proxiableUUID} function. This returns the storage slot used by the implementation. It is used to validate that the this implementation remains valid after an upgrade. IMPORTANT: A proxy pointing at a proxiable contract should not be considered proxiable itself, because this risks bricking a proxy that upgrades to it, by delegating to itself until out of gas. Thus it is critical that this function revert if invoked through a proxy. This is guaranteed by the `notDelegated` modifier."
      },
      "renounceOwnership()": {
        "details": "Leaves the contract without owner. It will not be possible to call `onlyOwner` functions anymore. Can only be called by the current owner. NOTE: Renouncing ownership will leave the contract without an owner, thereby removing any functionality that is only available to the owner."
      },
      "saveOwnerInAdmin()": {
        "details": "compatible with hardhat deploy, maybe removed later"
      },
      "setKeepUpRecords(address,(uint256))": {
        "details": "use in development, manually edit data"
      },
      "transferOwnership(address)": {
        "details": "Transfers ownership of the contract to a new account (`newOwner`). Can only be called by the current owner."
      },
      "upgradeTo(address)": {
        "details": "Upgrade the implementation of the proxy to `newImplementation`. Calls {_authorizeUpgrade}. Emits an {Upgraded} event."
      },
      "upgradeToAndCall(address,bytes)": {
        "details": "Upgrade the implementation of the proxy to `newImplementation`, and subsequently execute the function call encoded in `data`. Calls {_authorizeUpgrade}. Emits an {Upgraded} event."
      },
      "withdrawUpKeep(address)": {
        "details": "use in development"
      }
    },
    "version": 1
  },
  "userdoc": {
    "kind": "user",
    "methods": {},
    "version": 1
  },
  "storageLayout": {
    "storage": [
      {
        "astId": 5459,
        "contract": "contracts/CampaignFactoryUpgradable.sol:CampaignFactoryUpgradable",
        "label": "whiteUsers",
        "offset": 0,
        "slot": "0",
        "type": "t_mapping(t_address,t_bool)"
      },
      {
        "astId": 5464,
        "contract": "contracts/CampaignFactoryUpgradable.sol:CampaignFactoryUpgradable",
        "label": "whiteTokens",
        "offset": 0,
        "slot": "1",
        "type": "t_mapping(t_contract(IERC20Upgradeable)686,t_uint256)"
      },
      {
        "astId": 5467,
        "contract": "contracts/CampaignFactoryUpgradable.sol:CampaignFactoryUpgradable",
        "label": "i_campaign",
        "offset": 0,
        "slot": "2",
        "type": "t_contract(ICampaign)6474"
      },
      {
        "astId": 5470,
        "contract": "contracts/CampaignFactoryUpgradable.sol:CampaignFactoryUpgradable",
        "label": "i_link",
        "offset": 0,
        "slot": "3",
        "type": "t_contract(LinkTokenInterface)325"
      },
      {
        "astId": 5472,
        "contract": "contracts/CampaignFactoryUpgradable.sol:CampaignFactoryUpgradable",
        "label": "registrar",
        "offset": 0,
        "slot": "4",
        "type": "t_address"
      },
      {
        "astId": 5475,
        "contract": "contracts/CampaignFactoryUpgradable.sol:CampaignFactoryUpgradable",
        "label": "i_registry",
        "offset": 0,
        "slot": "5",
        "type": "t_contract(AutomationRegistryInterface)210"
      },
      {
        "astId": 5483,
        "contract": "contracts/CampaignFactoryUpgradable.sol:CampaignFactoryUpgradable",
        "label": "keepUpRecords",
        "offset": 0,
        "slot": "6",
        "type": "t_mapping(t_address,t_struct(UpKeepInfo)5478_storage)"
      },
      {
        "astId": 5486,
        "contract": "contracts/CampaignFactoryUpgradable.sol:CampaignFactoryUpgradable",
        "label": "OnGoingCampaigns",
        "offset": 0,
        "slot": "7",
        "type": "t_array(t_address)dyn_storage"
      },
      {
        "astId": 5490,
        "contract": "contracts/CampaignFactoryUpgradable.sol:CampaignFactoryUpgradable",
        "label": "__gap",
        "offset": 0,
        "slot": "8",
        "type": "t_array(t_uint256)45_storage"
      },
      {
        "astId": 464,
        "contract": "contracts/CampaignFactoryUpgradable.sol:CampaignFactoryUpgradable",
        "label": "_initialized",
        "offset": 0,
        "slot": "53",
        "type": "t_uint8"
      },
      {
        "astId": 467,
        "contract": "contracts/CampaignFactoryUpgradable.sol:CampaignFactoryUpgradable",
        "label": "_initializing",
        "offset": 1,
        "slot": "53",
        "type": "t_bool"
      },
      {
        "astId": 2340,
        "contract": "contracts/CampaignFactoryUpgradable.sol:CampaignFactoryUpgradable",
        "label": "__gap",
        "offset": 0,
        "slot": "54",
        "type": "t_array(t_uint256)50_storage"
      },
      {
        "astId": 336,
        "contract": "contracts/CampaignFactoryUpgradable.sol:CampaignFactoryUpgradable",
        "label": "_owner",
        "offset": 0,
        "slot": "104",
        "type": "t_address"
      },
      {
        "astId": 456,
        "contract": "contracts/CampaignFactoryUpgradable.sol:CampaignFactoryUpgradable",
        "label": "__gap",
        "offset": 0,
        "slot": "105",
        "type": "t_array(t_uint256)49_storage"
      }
    ],
    "types": {
      "t_address": {
        "encoding": "inplace",
        "label": "address",
        "numberOfBytes": "20"
      },
      "t_array(t_address)dyn_storage": {
        "base": "t_address",
        "encoding": "dynamic_array",
        "label": "address[]",
        "numberOfBytes": "32"
      },
      "t_array(t_uint256)45_storage": {
        "base": "t_uint256",
        "encoding": "inplace",
        "label": "uint256[45]",
        "numberOfBytes": "1440"
      },
      "t_array(t_uint256)49_storage": {
        "base": "t_uint256",
        "encoding": "inplace",
        "label": "uint256[49]",
        "numberOfBytes": "1568"
      },
      "t_array(t_uint256)50_storage": {
        "base": "t_uint256",
        "encoding": "inplace",
        "label": "uint256[50]",
        "numberOfBytes": "1600"
      },
      "t_bool": {
        "encoding": "inplace",
        "label": "bool",
        "numberOfBytes": "1"
      },
      "t_contract(AutomationRegistryInterface)210": {
        "encoding": "inplace",
        "label": "contract AutomationRegistryInterface",
        "numberOfBytes": "20"
      },
      "t_contract(ICampaign)6474": {
        "encoding": "inplace",
        "label": "contract ICampaign",
        "numberOfBytes": "20"
      },
      "t_contract(IERC20Upgradeable)686": {
        "encoding": "inplace",
        "label": "contract IERC20Upgradeable",
        "numberOfBytes": "20"
      },
      "t_contract(LinkTokenInterface)325": {
        "encoding": "inplace",
        "label": "contract LinkTokenInterface",
        "numberOfBytes": "20"
      },
      "t_mapping(t_address,t_bool)": {
        "encoding": "mapping",
        "key": "t_address",
        "label": "mapping(address => bool)",
        "numberOfBytes": "32",
        "value": "t_bool"
      },
      "t_mapping(t_address,t_struct(UpKeepInfo)5478_storage)": {
        "encoding": "mapping",
        "key": "t_address",
        "label": "mapping(address => struct CampaignFactoryStorage.UpKeepInfo)",
        "numberOfBytes": "32",
        "value": "t_struct(UpKeepInfo)5478_storage"
      },
      "t_mapping(t_contract(IERC20Upgradeable)686,t_uint256)": {
        "encoding": "mapping",
        "key": "t_contract(IERC20Upgradeable)686",
        "label": "mapping(contract IERC20Upgradeable => uint256)",
        "numberOfBytes": "32",
        "value": "t_uint256"
      },
      "t_struct(UpKeepInfo)5478_storage": {
        "encoding": "inplace",
        "label": "struct CampaignFactoryStorage.UpKeepInfo",
        "members": [
          {
            "astId": 5477,
            "contract": "contracts/CampaignFactoryUpgradable.sol:CampaignFactoryUpgradable",
            "label": "upKeepId",
            "offset": 0,
            "slot": "0",
            "type": "t_uint256"
          }
        ],
        "numberOfBytes": "32"
      },
      "t_uint256": {
        "encoding": "inplace",
        "label": "uint256",
        "numberOfBytes": "32"
      },
      "t_uint8": {
        "encoding": "inplace",
        "label": "uint8",
        "numberOfBytes": "1"
      }
    }
  }
}