{
  "address": "0xaf60E6aE831DD3C5b72afBA1254e55332657Fa14",
  "abi": [
    {
      "anonymous": false,
      "inputs": [
        {
          "indexed": false,
          "internalType": "address",
          "name": "previousAdmin",
          "type": "address"
        },
        {
          "indexed": false,
          "internalType": "address",
          "name": "newAdmin",
          "type": "address"
        }
      ],
      "name": "AdminChanged",
      "type": "event"
    },
    {
      "anonymous": false,
      "inputs": [
        {
          "indexed": true,
          "internalType": "address",
          "name": "beacon",
          "type": "address"
        }
      ],
      "name": "BeaconUpgraded",
      "type": "event"
    },
    {
      "anonymous": false,
      "inputs": [
        {
          "indexed": true,
          "internalType": "address",
          "name": "host",
          "type": "address"
        },
        {
          "indexed": true,
          "internalType": "address",
          "name": "campaignAddress",
          "type": "address"
        }
      ],
      "name": "EvCampaignCreated",
      "type": "event"
    },
    {
      "anonymous": false,
      "inputs": [
        {
          "indexed": true,
          "internalType": "contract IERC20",
          "name": "token",
          "type": "address"
        },
        {
          "indexed": false,
          "internalType": "uint256",
          "name": "maxAmount",
          "type": "uint256"
        }
      ],
      "name": "EvWhiteTokenSet",
      "type": "event"
    },
    {
      "anonymous": false,
      "inputs": [
        {
          "indexed": true,
          "internalType": "address",
          "name": "user",
          "type": "address"
        },
        {
          "indexed": false,
          "internalType": "bool",
          "name": "status",
          "type": "bool"
        }
      ],
      "name": "EvWhiteUserSet",
      "type": "event"
    },
    {
      "anonymous": false,
      "inputs": [
        {
          "indexed": false,
          "internalType": "uint8",
          "name": "version",
          "type": "uint8"
        }
      ],
      "name": "Initialized",
      "type": "event"
    },
    {
      "anonymous": false,
      "inputs": [
        {
          "indexed": true,
          "internalType": "address",
          "name": "previousOwner",
          "type": "address"
        },
        {
          "indexed": true,
          "internalType": "address",
          "name": "newOwner",
          "type": "address"
        }
      ],
      "name": "OwnershipTransferred",
      "type": "event"
    },
    {
      "anonymous": false,
      "inputs": [
        {
          "indexed": true,
          "internalType": "address",
          "name": "implementation",
          "type": "address"
        }
      ],
      "name": "Upgraded",
      "type": "event"
    },
    {
      "inputs": [
        {
          "internalType": "contract IERC20",
          "name": "token",
          "type": "address"
        },
        {
          "internalType": "uint256",
          "name": "amount",
          "type": "uint256"
        },
        {
          "internalType": "string",
          "name": "name",
          "type": "string"
        },
        {
          "internalType": "string",
          "name": "symbol",
          "type": "string"
        },
        {
          "internalType": "uint256",
          "name": "startTime",
          "type": "uint256"
        },
        {
          "internalType": "uint256",
          "name": "totalPeriod",
          "type": "uint256"
        },
        {
          "internalType": "uint256",
          "name": "periodLength",
          "type": "uint256"
        },
        {
          "internalType": "bytes32",
          "name": "campaignUri",
          "type": "bytes32"
        }
      ],
      "name": "createCampaign",
      "outputs": [],
      "stateMutability": "nonpayable",
      "type": "function"
    },
    {
      "inputs": [],
      "name": "initialize",
      "outputs": [],
      "stateMutability": "nonpayable",
      "type": "function"
    },
    {
      "inputs": [
        {
          "internalType": "contract IERC20",
          "name": "token",
          "type": "address"
        },
        {
          "internalType": "uint256",
          "name": "amount",
          "type": "uint256"
        }
      ],
      "name": "modifyWhiteToken",
      "outputs": [],
      "stateMutability": "nonpayable",
      "type": "function"
    },
    {
      "inputs": [
        {
          "internalType": "address",
          "name": "user",
          "type": "address"
        },
        {
          "internalType": "bool",
          "name": "status",
          "type": "bool"
        }
      ],
      "name": "modifyWhiteUser",
      "outputs": [],
      "stateMutability": "nonpayable",
      "type": "function"
    },
    {
      "inputs": [],
      "name": "owner",
      "outputs": [
        {
          "internalType": "address",
          "name": "",
          "type": "address"
        }
      ],
      "stateMutability": "view",
      "type": "function"
    },
    {
      "inputs": [],
      "name": "proxiableUUID",
      "outputs": [
        {
          "internalType": "bytes32",
          "name": "",
          "type": "bytes32"
        }
      ],
      "stateMutability": "view",
      "type": "function"
    },
    {
      "inputs": [],
      "name": "renounceOwnership",
      "outputs": [],
      "stateMutability": "nonpayable",
      "type": "function"
    },
    {
      "inputs": [
        {
          "internalType": "address",
          "name": "newOwner",
          "type": "address"
        }
      ],
      "name": "transferOwnership",
      "outputs": [],
      "stateMutability": "nonpayable",
      "type": "function"
    },
    {
      "inputs": [
        {
          "internalType": "address",
          "name": "newImplementation",
          "type": "address"
        }
      ],
      "name": "upgradeTo",
      "outputs": [],
      "stateMutability": "nonpayable",
      "type": "function"
    },
    {
      "inputs": [
        {
          "internalType": "address",
          "name": "newImplementation",
          "type": "address"
        },
        {
          "internalType": "bytes",
          "name": "data",
          "type": "bytes"
        }
      ],
      "name": "upgradeToAndCall",
      "outputs": [],
      "stateMutability": "payable",
      "type": "function"
    },
    {
      "inputs": [
        {
          "internalType": "contract IERC20",
          "name": "",
          "type": "address"
        }
      ],
      "name": "whiteTokens",
      "outputs": [
        {
          "internalType": "uint256",
          "name": "",
          "type": "uint256"
        }
      ],
      "stateMutability": "view",
      "type": "function"
    },
    {
      "inputs": [
        {
          "internalType": "address",
          "name": "",
          "type": "address"
        }
      ],
      "name": "whiteUsers",
      "outputs": [
        {
          "internalType": "bool",
          "name": "",
          "type": "bool"
        }
      ],
      "stateMutability": "view",
      "type": "function"
    }
  ],
  "transactionHash": "0x14293e9ef7dbc51da8f45531ee1f46396350c7369ec392c0fe1e36d7bd55e2dc",
  "args": [],
  "numDeployments": 3,
  "solcInputHash": "53c041d1af1b9ec4f2cf34853f9b8c65",
  "bytecode": "0x60a06040523060805234801561001457600080fd5b506080516149e261004c600039600081816102b30152818161034f0152818161045d015281816104f501526105f701526149e26000f3fe608060405260043610620000d75760003560e01c80638129fc1c116200007d578063e32e8b391162000054578063e32e8b39146200023a578063f2fde38b146200025f578063fa3c8a12146200028457600080fd5b80638129fc1c14620001d35780638da5cb5b14620001eb578063d73b71a4146200021557600080fd5b80634f1ef28611620000b25780634f1ef286146200018c57806352d1902d14620001a3578063715018a614620001bb57600080fd5b80631307502c14620000dc578063144442e714620001255780633659cfe61462000165575b600080fd5b348015620000e957600080fd5b5062000110620000fb36600462001164565b60656020526000908152604090205460ff1681565b60405190151581526020015b60405180910390f35b3480156200013257600080fd5b50620001566200014436600462001164565b60666020526000908152604090205481565b6040519081526020016200011c565b3480156200017257600080fd5b506200018a6200018436600462001164565b620002a9565b005b6200018a6200019d36600462001230565b62000453565b348015620001b057600080fd5b5062000156620005ea565b348015620001c857600080fd5b506200018a620006b1565b348015620001e057600080fd5b506200018a620006c9565b348015620001f857600080fd5b506033546040516001600160a01b0390911681526020016200011c565b3480156200022257600080fd5b506200018a62000234366004620012be565b620007f1565b3480156200024757600080fd5b506200018a620002593660046200136b565b62000a27565b3480156200026c57600080fd5b506200018a6200027e36600462001164565b62000a8b565b3480156200029157600080fd5b506200018a620002a33660046200139a565b62000b1e565b6001600160a01b037f00000000000000000000000000000000000000000000000000000000000000001630036200034d5760405162461bcd60e51b815260206004820152602c60248201527f46756e6374696f6e206d7573742062652063616c6c6564207468726f7567682060448201527f64656c656761746563616c6c000000000000000000000000000000000000000060648201526084015b60405180910390fd5b7f00000000000000000000000000000000000000000000000000000000000000006001600160a01b0316620003a97f360894a13ba1a3210667c828492db98dca3e2076cc3735a920a3ca505d382bbc546001600160a01b031690565b6001600160a01b031614620004275760405162461bcd60e51b815260206004820152602c60248201527f46756e6374696f6e206d7573742062652063616c6c6564207468726f7567682060448201527f6163746976652070726f78790000000000000000000000000000000000000000606482015260840162000344565b620004328162000b81565b60408051600080825260208201909252620004509183919062000b8b565b50565b6001600160a01b037f0000000000000000000000000000000000000000000000000000000000000000163003620004f35760405162461bcd60e51b815260206004820152602c60248201527f46756e6374696f6e206d7573742062652063616c6c6564207468726f7567682060448201527f64656c656761746563616c6c0000000000000000000000000000000000000000606482015260840162000344565b7f00000000000000000000000000000000000000000000000000000000000000006001600160a01b03166200054f7f360894a13ba1a3210667c828492db98dca3e2076cc3735a920a3ca505d382bbc546001600160a01b031690565b6001600160a01b031614620005cd5760405162461bcd60e51b815260206004820152602c60248201527f46756e6374696f6e206d7573742062652063616c6c6564207468726f7567682060448201527f6163746976652070726f78790000000000000000000000000000000000000000606482015260840162000344565b620005d88262000b81565b620005e68282600162000b8b565b5050565b6000306001600160a01b037f000000000000000000000000000000000000000000000000000000000000000016146200068c5760405162461bcd60e51b815260206004820152603860248201527f555550535570677261646561626c653a206d757374206e6f742062652063616c60448201527f6c6564207468726f7567682064656c656761746563616c6c0000000000000000606482015260840162000344565b507f360894a13ba1a3210667c828492db98dca3e2076cc3735a920a3ca505d382bbc90565b620006bb62000d3c565b620006c7600062000d98565b565b600054610100900460ff1615808015620006ea5750600054600160ff909116105b80620007065750303b15801562000706575060005460ff166001145b6200077a5760405162461bcd60e51b815260206004820152602e60248201527f496e697469616c697a61626c653a20636f6e747261637420697320616c72656160448201527f647920696e697469616c697a6564000000000000000000000000000000000000606482015260840162000344565b6000805460ff1916600117905580156200079e576000805461ff0019166101001790555b620007a862000e02565b801562000450576000805461ff0019169055604051600181527f7f26b83ff96e1f2b6a682f133852f6798a09c465da95921460cefb38474024989060200160405180910390a150565b3360009081526065602052604090205460ff16620008525760405162461bcd60e51b815260206004820152601e60248201527f43616d706169676e466163746f72793a206e6f742077686974656c6973740000604482015260640162000344565b6001600160a01b0388166000908152606660205260409020548890620008bb5760405162461bcd60e51b815260206004820152601e60248201527f43616d706169676e466163746f72793a206e6f742077686974656c6973740000604482015260640162000344565b6001600160a01b038916600090815260666020526040902054881115620009255760405162461bcd60e51b815260206004820152601c60248201527f43616d706169676e463a20616d6f756e74206578636565642063617000000000604482015260640162000344565b600089898989898989896040516200093d9062001140565b6200095098979695949392919062001439565b604051809103906000f0801580156200096d573d6000803e3d6000fd5b506040517ff2fde38b0000000000000000000000000000000000000000000000000000000081523360048201529091506001600160a01b0382169063f2fde38b90602401600060405180830381600087803b158015620009cc57600080fd5b505af1158015620009e1573d6000803e3d6000fd5b50506040516001600160a01b03841692503391507facd63640134021f2a0e3727cb386f37eff4877f03025952b4d5dd67f1d4c9ac390600090a350505050505050505050565b62000a3162000d3c565b6001600160a01b03821660008181526066602052604090819020839055517f5f4c38db7b341414be18a675a08cd2c914f57fa3ac798db73bd0e0b5edc72c769062000a7f9084815260200190565b60405180910390a25050565b62000a9562000d3c565b6001600160a01b03811662000b135760405162461bcd60e51b815260206004820152602660248201527f4f776e61626c653a206e6577206f776e657220697320746865207a65726f206160448201527f6464726573730000000000000000000000000000000000000000000000000000606482015260840162000344565b620004508162000d98565b62000b2862000d3c565b6001600160a01b038216600081815260656020908152604091829020805460ff191685151590811790915591519182527f117985bdf7b9932fa2ed0b5ff0e03eda789f177b0454a9625be02fac7234eddc910162000a7f565b6200045062000d3c565b7f4910fdfa16fed3260ed0e7147f7cc6da11a60208b5b9406d12a635614ffd91435460ff161562000bc65762000bc18362000e8c565b505050565b826001600160a01b03166352d1902d6040518163ffffffff1660e01b8152600401602060405180830381865afa92505050801562000c23575060408051601f3d908101601f1916820190925262000c2091810190620014a2565b60015b62000c975760405162461bcd60e51b815260206004820152602e60248201527f45524331393637557067726164653a206e657720696d706c656d656e7461746960448201527f6f6e206973206e6f742055555053000000000000000000000000000000000000606482015260840162000344565b7f360894a13ba1a3210667c828492db98dca3e2076cc3735a920a3ca505d382bbc811462000d2e5760405162461bcd60e51b815260206004820152602960248201527f45524331393637557067726164653a20756e737570706f727465642070726f7860448201527f6961626c65555549440000000000000000000000000000000000000000000000606482015260840162000344565b5062000bc183838362000f64565b6033546001600160a01b03163314620006c75760405162461bcd60e51b815260206004820181905260248201527f4f776e61626c653a2063616c6c6572206973206e6f7420746865206f776e6572604482015260640162000344565b603380546001600160a01b038381167fffffffffffffffffffffffff0000000000000000000000000000000000000000831681179093556040519116919082907f8be0079c531659141344cd1fd0a4f28419497f9722a3daafe3b4186f6b6457e090600090a35050565b600054610100900460ff1662000e815760405162461bcd60e51b815260206004820152602b60248201527f496e697469616c697a61626c653a20636f6e7472616374206973206e6f74206960448201527f6e697469616c697a696e67000000000000000000000000000000000000000000606482015260840162000344565b620006c73362000d98565b6001600160a01b0381163b62000f0b5760405162461bcd60e51b815260206004820152602d60248201527f455243313936373a206e657720696d706c656d656e746174696f6e206973206e60448201527f6f74206120636f6e747261637400000000000000000000000000000000000000606482015260840162000344565b7f360894a13ba1a3210667c828492db98dca3e2076cc3735a920a3ca505d382bbc80547fffffffffffffffffffffffff0000000000000000000000000000000000000000166001600160a01b0392909216919091179055565b62000f6f8362000f95565b60008251118062000f7d5750805b1562000bc15762000f8f838362000fd7565b50505050565b62000fa08162000e8c565b6040516001600160a01b038216907fbc7cd75a20ee27fd9adebab32041f755214dbc6bffa90cc0225b39da2e5c2d3b90600090a250565b606062000fff8383604051806060016040528060278152602001620049866027913962001006565b9392505050565b60606001600160a01b0384163b620010875760405162461bcd60e51b815260206004820152602660248201527f416464726573733a2064656c65676174652063616c6c20746f206e6f6e2d636f60448201527f6e74726163740000000000000000000000000000000000000000000000000000606482015260840162000344565b600080856001600160a01b031685604051620010a49190620014bc565b600060405180830381855af49150503d8060008114620010e1576040519150601f19603f3d011682016040523d82523d6000602084013e620010e6565b606091505b5091509150620010f882828662001102565b9695505050505050565b606083156200111357508162000fff565b825115620011245782518084602001fd5b8160405162461bcd60e51b8152600401620003449190620014da565b61349680620014f083390190565b6001600160a01b03811681146200045057600080fd5b6000602082840312156200117757600080fd5b813562000fff816200114e565b7f4e487b7100000000000000000000000000000000000000000000000000000000600052604160045260246000fd5b600067ffffffffffffffff80841115620011d157620011d162001184565b604051601f8501601f19908116603f01168101908282118183101715620011fc57620011fc62001184565b816040528093508581528686860111156200121657600080fd5b858560208301376000602087830101525050509392505050565b600080604083850312156200124457600080fd5b823562001251816200114e565b9150602083013567ffffffffffffffff8111156200126e57600080fd5b8301601f810185136200128057600080fd5b6200129185823560208401620011b3565b9150509250929050565b600082601f830112620012ad57600080fd5b62000fff83833560208501620011b3565b600080600080600080600080610100898b031215620012dc57600080fd5b8835620012e9816200114e565b975060208901359650604089013567ffffffffffffffff808211156200130e57600080fd5b6200131c8c838d016200129b565b975060608b01359150808211156200133357600080fd5b50620013428b828c016200129b565b989b979a50959860808101359760a0820135975060c0820135965060e090910135945092505050565b600080604083850312156200137f57600080fd5b82356200138c816200114e565b946020939093013593505050565b60008060408385031215620013ae57600080fd5b8235620013bb816200114e565b915060208301358015158114620013d157600080fd5b809150509250929050565b60005b83811015620013f9578181015183820152602001620013df565b8381111562000f8f5750506000910152565b6000815180845262001425816020860160208601620013dc565b601f01601f19169290920160200192915050565b60006101006001600160a01b038b168352896020840152806040840152620014648184018a6200140b565b905082810360608401526200147a81896200140b565b9150508560808301528460a08301528360c08301528260e08301529998505050505050505050565b600060208284031215620014b557600080fd5b5051919050565b60008251620014d0818460208701620013dc565b9190910192915050565b60208152600062000fff60208301846200140b56fe6101406040523480156200001257600080fd5b50604051620034963803806200349683398101604081905262000035916200025f565b8585620000423362000142565b6001620000508382620003a9565b5060026200005f8282620003a9565b5050506001600160a01b038816620000be5760405162461bcd60e51b815260206004820152601760248201527f43616d706169676e3a20696e76616c696420746f6b656e00000000000000000060448201526064015b60405180910390fd5b86600003620001105760405162461bcd60e51b815260206004820152601860248201527f43616d706169676e3a20696e76616c696420616d6f756e7400000000000000006044820152606401620000b5565b6001600160a01b0390971660805260a09590955260e08290526008919091556101005250506101205260c05262000475565b600080546001600160a01b038381166001600160a01b0319831681178455604051919092169283917f8be0079c531659141344cd1fd0a4f28419497f9722a3daafe3b4186f6b6457e09190a35050565b634e487b7160e01b600052604160045260246000fd5b600082601f830112620001ba57600080fd5b81516001600160401b0380821115620001d757620001d762000192565b604051601f8301601f19908116603f0116810190828211818310171562000202576200020262000192565b816040528381526020925086838588010111156200021f57600080fd5b600091505b8382101562000243578582018301518183018401529082019062000224565b83821115620002555760008385830101525b9695505050505050565b600080600080600080600080610100898b0312156200027d57600080fd5b88516001600160a01b03811681146200029557600080fd5b60208a015160408b015191995097506001600160401b0380821115620002ba57600080fd5b620002c88c838d01620001a8565b975060608b0151915080821115620002df57600080fd5b50620002ee8b828c01620001a8565b9550506080890151935060a0890151925060c0890151915060e089015190509295985092959890939650565b600181811c908216806200032f57607f821691505b6020821081036200035057634e487b7160e01b600052602260045260246000fd5b50919050565b601f821115620003a457600081815260208120601f850160051c810160208610156200037f5750805b601f850160051c820191505b81811015620003a0578281556001016200038b565b5050505b505050565b81516001600160401b03811115620003c557620003c562000192565b620003dd81620003d684546200031a565b8462000356565b602080601f831160018114620004155760008415620003fc5750858301515b600019600386901b1c1916600185901b178555620003a0565b600085815260208120601f198616915b82811015620004465788860151825594840194600190910190840162000425565b5085821015620004655787850151600019600388901b60f8161c191681555b5050505050600190811b01905550565b60805160a05160c05160e0516101005161012051612f4c6200054a600039600081816105cf0152818161187e015281816121270152818161215e01526121b50152600081816105100152818161189f0152818161195301526121f30152600081816104800152818161091501528181610b630152818161128c0152818161155f01526118c90152600061042c0152600081816103e401528181610c5a015281816113cf015261143601526000818161038f01528181610ef701528181610ff50152818161102d01526113ab0152612f4c6000f3fe608060405234801561001057600080fd5b50600436106102ad5760003560e01c8063766718081161017b578063bf96ae63116100d8578063e86a53091161008c578063ef78d4fd11610071578063ef78d4fd146105ca578063f2fde38b146105f1578063f7b108081461060457600080fd5b8063e86a530914610585578063e985e9c51461058e57600080fd5b8063c87b56dd116100bd578063c87b56dd14610556578063d45a245614610569578063dfa447ce1461057c57600080fd5b8063bf96ae6314610545578063c771766d1461054d57600080fd5b80639cc8525d1161012f578063b0e21e8a11610114578063b0e21e8a14610502578063b6f625e61461050b578063b88d4fde1461053257600080fd5b80639cc8525d146104c4578063a22cb465146104ef57600080fd5b80638da5cb5b116101605780638da5cb5b146104a257806395d89b41146104b357806396bc7434146104bb57600080fd5b8063766718081461047257806378e979251461047b57600080fd5b8063327107f7116102295780636352211e116101dd57806370a08231116101c257806370a082311461044e57806370f42df814610461578063715018a61461046a57600080fd5b80636352211e146104145780636efcaab51461042757600080fd5b80633ccfd60b1161020e5780633ccfd60b146103c457806342842e0e146103cc57806348b9ef40146103df57600080fd5b8063327107f71461038a578063379607f5146103b157600080fd5b80630c0b2bdd116102805780631a597548116102655780631a5975481461034a578063200d2ed21461035d57806323b872dd1461037757600080fd5b80630c0b2bdd1461032f57806311da60b41461034257600080fd5b806301ffc9a7146102b257806306fdde03146102da578063081812fc146102ef578063095ea7b31461031a575b600080fd5b6102c56102c036600461287e565b61063f565b60405190151581526020015b60405180910390f35b6102e2610724565b6040516102d191906128f3565b6103026102fd366004612906565b6107b6565b6040516001600160a01b0390911681526020016102d1565b61032d61032836600461293b565b6107dd565b005b61032d61033d3660046129b1565b610913565b61032d610b57565b61032d610358366004612a1d565b610b61565b60075461036a9060ff1681565b6040516102d19190612a75565b61032d610385366004612a8f565b610d8f565b6103027f000000000000000000000000000000000000000000000000000000000000000081565b61032d6103bf366004612906565b610e16565b61032d610f71565b61032d6103da366004612a8f565b6110b2565b6104067f000000000000000000000000000000000000000000000000000000000000000081565b6040519081526020016102d1565b610302610422366004612906565b6110cd565b6104067f000000000000000000000000000000000000000000000000000000000000000081565b61040661045c366004612acb565b611132565b610406600e5481565b61032d6111cc565b61040660095481565b6104067f000000000000000000000000000000000000000000000000000000000000000081565b6000546001600160a01b0316610302565b6102e26111de565b610406600b5481565b6104066104d2366004612ae6565b600f60209081526000928352604080842090915290825290205481565b61032d6104fd366004612b16565b6111ed565b610406600d5481565b6104067f000000000000000000000000000000000000000000000000000000000000000081565b61032d610540366004612b63565b6111fc565b61032d61128a565b61040660085481565b6102e2610564366004612906565b611488565b61032d610577366004612ae6565b6114fc565b610406600c5481565b610406600a5481565b6102c561059c366004612c3f565b6001600160a01b03918216600090815260066020908152604080832093909416825291909152205460ff1690565b6104067f000000000000000000000000000000000000000000000000000000000000000081565b61032d6105ff366004612acb565b6116b0565b610631610612366004612906565b6010602052600090815260409020805460019091015460ff9091169082565b6040516102d1929190612c72565b60007fffffffff0000000000000000000000000000000000000000000000000000000082167f80ac58cd0000000000000000000000000000000000000000000000000000000014806106d257507fffffffff0000000000000000000000000000000000000000000000000000000082167f5b5e139f00000000000000000000000000000000000000000000000000000000145b8061071e57507f01ffc9a7000000000000000000000000000000000000000000000000000000007fffffffff000000000000000000000000000000000000000000000000000000008316145b92915050565b60606001805461073390612c90565b80601f016020809104026020016040519081016040528092919081815260200182805461075f90612c90565b80156107ac5780601f10610781576101008083540402835291602001916107ac565b820191906000526020600020905b81548152906001019060200180831161078f57829003601f168201915b5050505050905090565b60006107c182611740565b506000908152600560205260409020546001600160a01b031690565b60006107e8826110cd565b9050806001600160a01b0316836001600160a01b0316036108765760405162461bcd60e51b815260206004820152602160248201527f4552433732313a20617070726f76616c20746f2063757272656e74206f776e6560448201527f720000000000000000000000000000000000000000000000000000000000000060648201526084015b60405180910390fd5b336001600160a01b03821614806108925750610892813361059c565b6109045760405162461bcd60e51b815260206004820152603e60248201527f4552433732313a20617070726f76652063616c6c6572206973206e6f7420746f60448201527f6b656e206f776e6572206e6f7220617070726f76656420666f7220616c6c0000606482015260840161086d565b61090e83836117a4565b505050565b7f000000000000000000000000000000000000000000000000000000000000000042106109825760405162461bcd60e51b815260206004820152601960248201527f43616d706169676e3a20616c7265616479207374617274656400000000000000604482015260640161086d565b61098a61181f565b60015b83811015610b145760008585838181106109a9576109a9612cca565b90506020020135905060008484848181106109c6576109c6612cca565b90506020020160208101906109db9190612ce0565b90508015610a7357600260008381526010602052604090205460ff166006811115610a0857610a08612a5f565b14610a555760405162461bcd60e51b815260206004820152601460248201527f43616d706169676e3a206e6f74207369676e6564000000000000000000000000604482015260640161086d565b6000828152601060205260409020805460ff19166003179055610aff565b600360008381526010602052604090205460ff166006811115610a9857610a98612a5f565b14610ae55760405162461bcd60e51b815260206004820152601660248201527f43616d706169676e3a206e6f742061646d697474656400000000000000000000604482015260640161086d565b6000828152601060205260409020805460ff191660021790555b50508080610b0c90612d13565b91505061098d565b507e896c158ae8c63b50648f3ace621592a536dc686bb71ea91e8c1a75207e26fd84848484604051610b499493929190612d2d565b60405180910390a150505050565b610b5f611879565b565b7f00000000000000000000000000000000000000000000000000000000000000004210610bd05760405162461bcd60e51b815260206004820152601960248201527f43616d706169676e3a20616c7265616479207374617274656400000000000000604482015260640161086d565b610bd861181f565b60005b8181101561090e576000838383818110610bf757610bf7612cca565b602090810292909201356000818152601090935260408084208151808301909252805492955090925090829060ff166006811115610c3757610c37612a5f565b6006811115610c4857610c48612a5f565b815260200160018201548152505090507f0000000000000000000000000000000000000000000000000000000000000000816020015114610ccb5760405162461bcd60e51b815260206004820152601960248201527f43616d706169676e3a207374616b65206e6f74206d6174636800000000000000604482015260640161086d565b600281516006811115610ce057610ce0612a5f565b14610d2d5760405162461bcd60e51b815260206004820152601760248201527f43616d706169676e3a206e6f74207369676e6564207570000000000000000000604482015260640161086d565b600082815260106020908152604091829020805460ff1916600317905590518381527f0898a2d0f11ee389113f47ac39e4c57338d20de87eab1ff9bcce61256c868c85910160405180910390a150508080610d8790612d13565b915050610bdb565b610d993382611acf565b610e0b5760405162461bcd60e51b815260206004820152602e60248201527f4552433732313a2063616c6c6572206973206e6f7420746f6b656e206f776e6560448201527f72206e6f7220617070726f766564000000000000000000000000000000000000606482015260840161086d565b61090e838383611b4e565b8033610e21826110cd565b6001600160a01b031614610e775760405162461bcd60e51b815260206004820152601a60248201527f43616d706169676e3a206e6f7420746f6b656e20686f6c646572000000000000604482015260640161086d565b600460075460ff166004811115610e9057610e90612a5f565b14610e9d57610e9d611879565b60008281526010602052604081206001015415610ee557600e54600b54610ec49190612ddf565b600084815260106020526040902060010154610ee09190612df3565b610ee8565b60005b9050610f1e6001600160a01b037f0000000000000000000000000000000000000000000000000000000000000000163383611d28565b60008381526010602090815260408083206001019290925581513381529081018390527f6f3f02af352220d02d2949906b9f492dd7b6411b0dd5c52a28b3b7a7f156bdb5910160405180910390a1505050565b610f7961181f565b600460075460ff166004811115610f9257610f92612a5f565b14610fdf5760405162461bcd60e51b815260206004820152601560248201527f43616d706169676e3a206e6f7420736574746c65640000000000000000000000604482015260640161086d565b600c8054600090915561101c6001600160a01b037f0000000000000000000000000000000000000000000000000000000000000000163383611d28565b600d54611069906001600160a01b037f0000000000000000000000000000000000000000000000000000000000000000169073d8da6bf26964af9d7eed9e03e53415d37aa9604590611d28565b600d546040805133815260208101849052908101919091527f7a1c31090abe490bfd8379cbbaeef735a3e3c87ee34925f16d0fa3ff4e061155906060015b60405180910390a150565b61090e838383604051806020016040528060008152506111fc565b6000818152600360205260408120546001600160a01b03168061071e5760405162461bcd60e51b815260206004820152601860248201527f4552433732313a20696e76616c696420746f6b656e2049440000000000000000604482015260640161086d565b60006001600160a01b0382166111b05760405162461bcd60e51b815260206004820152602960248201527f4552433732313a2061646472657373207a65726f206973206e6f74206120766160448201527f6c6964206f776e65720000000000000000000000000000000000000000000000606482015260840161086d565b506001600160a01b031660009081526004602052604090205490565b6111d461181f565b610b5f6000611dd1565b60606002805461073390612c90565b6111f8338383611e2e565b5050565b6112063383611acf565b6112785760405162461bcd60e51b815260206004820152602e60248201527f4552433732313a2063616c6c6572206973206e6f7420746f6b656e206f776e6560448201527f72206e6f7220617070726f766564000000000000000000000000000000000000606482015260840161086d565b61128484848484611efc565b50505050565b7f000000000000000000000000000000000000000000000000000000000000000042106112f95760405162461bcd60e51b815260206004820152601960248201527f43616d706169676e3a20616c7265616479207374617274656400000000000000604482015260640161086d565b333b156113485760405162461bcd60e51b815260206004820152601a60248201527f43616d706169676e3a206f6e6c7920454f4120616c6c6f776564000000000000604482015260640161086d565b61135133611132565b1561139e5760405162461bcd60e51b815260206004820152601860248201527f43616d706169676e3a20616c7265616479207369676e65640000000000000000604482015260640161086d565b6113f36001600160a01b037f00000000000000000000000000000000000000000000000000000000000000001633307f0000000000000000000000000000000000000000000000000000000000000000611f85565b600a80549060019060006114078385612df3565b9091555061141790503382611fd6565b600081815260106020908152604091829020805460ff191660021781557f000000000000000000000000000000000000000000000000000000000000000060019091015590518281527fcd169e01d559b6d336962db715a67dc5fd03521032de891b679200894ec219f391016110a7565b606061149382611740565b60006114aa60408051602081019091526000815290565b905060008151116114ca57604051806020016040528060008152506114f5565b806114d484611ff0565b6040516020016114e5929190612e0b565b6040516020818303038152906040525b9392505050565b8033611507826110cd565b6001600160a01b03161461155d5760405162461bcd60e51b815260206004820152601a60248201527f43616d706169676e3a206e6f7420746f6b656e20686f6c646572000000000000604482015260640161086d565b7f00000000000000000000000000000000000000000000000000000000000000004210156115cd5760405162461bcd60e51b815260206004820152601960248201527f43616d706169676e3a20616c7265616479207374617274656400000000000000604482015260640161086d565b81600360008281526010602052604090205460ff1660068111156115f3576115f3612a5f565b146116405760405162461bcd60e51b815260206004820152601660248201527f43616d706169676e3a206e6f742061646d697474656400000000000000000000604482015260640161086d565b611648612125565b6040805160208082018352868252600980546000908152600f835284812088825283528490209251909255905482519081529081018590529081018590527fe81edeec001e882448fc6f928c362307ea2c9877feb98c8f86c6bc422e10ebb390606001610b49565b6116b861181f565b6001600160a01b0381166117345760405162461bcd60e51b815260206004820152602660248201527f4f776e61626c653a206e6577206f776e657220697320746865207a65726f206160448201527f6464726573730000000000000000000000000000000000000000000000000000606482015260840161086d565b61173d81611dd1565b50565b6000818152600360205260409020546001600160a01b031661173d5760405162461bcd60e51b815260206004820152601860248201527f4552433732313a20696e76616c696420746f6b656e2049440000000000000000604482015260640161086d565b6000818152600560205260409020805473ffffffffffffffffffffffffffffffffffffffff19166001600160a01b03841690811790915581906117e6826110cd565b6001600160a01b03167f8c5be1e5ebec7d5bd14f71427d1e84f3dd0314c0f7b2291e5b200ac8c7c3b92560405160405180910390a45050565b6000546001600160a01b03163314610b5f5760405162461bcd60e51b815260206004820181905260248201527f4f776e61626c653a2063616c6c6572206973206e6f7420746865206f776e6572604482015260640161086d565b6118c37f00000000000000000000000000000000000000000000000000000000000000007f0000000000000000000000000000000000000000000000000000000000000000612e3a565b6118ed907f0000000000000000000000000000000000000000000000000000000000000000612df3565b421161193b5760405162461bcd60e51b815260206004820152601360248201527f43616d706169676e3a206e6f7420656e64656400000000000000000000000000604482015260640161086d565b600a54600e5560005b600a54811015611abf5760005b7f0000000000000000000000000000000000000000000000000000000000000000811015611aac576000818152600f6020908152604080832085845290915290205480611a9957600083815260106020526040902060010154620f42406119bb62030d4083612e3a565b6119c59190612ddf565b600c60008282546119d69190612df3565b90915550620f424090506119ed620186a083612e3a565b6119f79190612ddf565b600d6000828254611a089190612df3565b9091555050600d54600c54611a1d9083612e59565b611a279190612e59565b600b6000828254611a389190612df3565b90915550506000848152601060205260408120600190810191909155600e54611a619190612e59565b600e556040518481527f939e6ef49701507f032296ab644b4aebf199222450de6622bb5f9550c7a782099060200160405180910390a1505b5080611aa481612d13565b915050611951565b5080611ab781612d13565b915050611944565b506007805460ff19166004179055565b600080611adb836110cd565b9050806001600160a01b0316846001600160a01b03161480611b2257506001600160a01b0380821660009081526006602090815260408083209388168352929052205460ff165b80611b465750836001600160a01b0316611b3b846107b6565b6001600160a01b0316145b949350505050565b826001600160a01b0316611b61826110cd565b6001600160a01b031614611bdd5760405162461bcd60e51b815260206004820152602560248201527f4552433732313a207472616e736665722066726f6d20696e636f72726563742060448201527f6f776e6572000000000000000000000000000000000000000000000000000000606482015260840161086d565b6001600160a01b038216611c585760405162461bcd60e51b8152602060048201526024808201527f4552433732313a207472616e7366657220746f20746865207a65726f2061646460448201527f7265737300000000000000000000000000000000000000000000000000000000606482015260840161086d565b611c636000826117a4565b6001600160a01b0383166000908152600460205260408120805460019290611c8c908490612e59565b90915550506001600160a01b0382166000908152600460205260408120805460019290611cba908490612df3565b9091555050600081815260036020526040808220805473ffffffffffffffffffffffffffffffffffffffff19166001600160a01b0386811691821790925591518493918716917fddf252ad1be2c89b69c2b068fc378daa952ba7f163c4a11628f55a4df523b3ef91a4505050565b6040516001600160a01b03831660248201526044810182905261090e9084907fa9059cbb00000000000000000000000000000000000000000000000000000000906064015b60408051601f198184030181529190526020810180517bffffffffffffffffffffffffffffffffffffffffffffffffffffffff167fffffffff0000000000000000000000000000000000000000000000000000000090931692909217909152612262565b600080546001600160a01b0383811673ffffffffffffffffffffffffffffffffffffffff19831681178455604051919092169283917f8be0079c531659141344cd1fd0a4f28419497f9722a3daafe3b4186f6b6457e09190a35050565b816001600160a01b0316836001600160a01b031603611e8f5760405162461bcd60e51b815260206004820152601960248201527f4552433732313a20617070726f766520746f2063616c6c657200000000000000604482015260640161086d565b6001600160a01b03838116600081815260066020908152604080832094871680845294825291829020805460ff191686151590811790915591519182527f17307eab39ab6107e8899845ad3d59bd9653f200f220920489ca2b5937696c31910160405180910390a3505050565b611f07848484611b4e565b611f1384848484612347565b6112845760405162461bcd60e51b815260206004820152603260248201527f4552433732313a207472616e7366657220746f206e6f6e20455243373231526560448201527f63656976657220696d706c656d656e7465720000000000000000000000000000606482015260840161086d565b6040516001600160a01b03808516602483015283166044820152606481018290526112849085907f23b872dd0000000000000000000000000000000000000000000000000000000090608401611d6d565b6111f88282604051806020016040528060008152506124e8565b60608160000361203357505060408051808201909152600181527f3000000000000000000000000000000000000000000000000000000000000000602082015290565b8160005b811561205d578061204781612d13565b91506120569050600a83612ddf565b9150612037565b60008167ffffffffffffffff81111561207857612078612b4d565b6040519080825280601f01601f1916602001820160405280156120a2576020820181803683370190505b5090505b8415611b46576120b7600183612e59565b91506120c4600a86612e70565b6120cf906030612df3565b60f81b8183815181106120e4576120e4612cca565b60200101907effffffffffffffffffffffffffffffffffffffffffffffffffffffffffffff1916908160001a90535061211e600a86612ddf565b94506120a6565b7f0000000000000000000000000000000000000000000000000000000000000000600854426121549190612e59565b11156121f15760007f00000000000000000000000000000000000000000000000000000000000000006008544261218b9190612e59565b6121959190612ddf565b905080600960008282546121a99190612df3565b909155506121d99050817f0000000000000000000000000000000000000000000000000000000000000000612e3a565b600860008282546121ea9190612df3565b9091555050505b7f000000000000000000000000000000000000000000000000000000000000000060095410610b5f5760405162461bcd60e51b815260206004820152601d60248201527f43616d706169676e3a20636865636b45706f636820746f6f206c617465000000604482015260640161086d565b60006122b7826040518060400160405280602081526020017f5361666545524332303a206c6f772d6c6576656c2063616c6c206661696c6564815250856001600160a01b03166125719092919063ffffffff16565b80519091501561090e57808060200190518101906122d59190612e84565b61090e5760405162461bcd60e51b815260206004820152602a60248201527f5361666545524332303a204552433230206f7065726174696f6e20646964206e60448201527f6f74207375636365656400000000000000000000000000000000000000000000606482015260840161086d565b60006001600160a01b0384163b156124dd576040517f150b7a020000000000000000000000000000000000000000000000000000000081526001600160a01b0385169063150b7a02906123a4903390899088908890600401612ea1565b6020604051808303816000875af19250505080156123df575060408051601f3d908101601f191682019092526123dc91810190612edd565b60015b612492573d80801561240d576040519150601f19603f3d011682016040523d82523d6000602084013e612412565b606091505b50805160000361248a5760405162461bcd60e51b815260206004820152603260248201527f4552433732313a207472616e7366657220746f206e6f6e20455243373231526560448201527f63656976657220696d706c656d656e7465720000000000000000000000000000606482015260840161086d565b805181602001fd5b7fffffffff00000000000000000000000000000000000000000000000000000000167f150b7a0200000000000000000000000000000000000000000000000000000000149050611b46565b506001949350505050565b6124f28383612580565b6124ff6000848484612347565b61090e5760405162461bcd60e51b815260206004820152603260248201527f4552433732313a207472616e7366657220746f206e6f6e20455243373231526560448201527f63656976657220696d706c656d656e7465720000000000000000000000000000606482015260840161086d565b6060611b4684846000856126cf565b6001600160a01b0382166125d65760405162461bcd60e51b815260206004820181905260248201527f4552433732313a206d696e7420746f20746865207a65726f2061646472657373604482015260640161086d565b6000818152600360205260409020546001600160a01b03161561263b5760405162461bcd60e51b815260206004820152601c60248201527f4552433732313a20746f6b656e20616c7265616479206d696e74656400000000604482015260640161086d565b6001600160a01b0382166000908152600460205260408120805460019290612664908490612df3565b9091555050600081815260036020526040808220805473ffffffffffffffffffffffffffffffffffffffff19166001600160a01b03861690811790915590518392907fddf252ad1be2c89b69c2b068fc378daa952ba7f163c4a11628f55a4df523b3ef908290a45050565b6060824710156127475760405162461bcd60e51b815260206004820152602660248201527f416464726573733a20696e73756666696369656e742062616c616e636520666f60448201527f722063616c6c0000000000000000000000000000000000000000000000000000606482015260840161086d565b6001600160a01b0385163b61279e5760405162461bcd60e51b815260206004820152601d60248201527f416464726573733a2063616c6c20746f206e6f6e2d636f6e7472616374000000604482015260640161086d565b600080866001600160a01b031685876040516127ba9190612efa565b60006040518083038185875af1925050503d80600081146127f7576040519150601f19603f3d011682016040523d82523d6000602084013e6127fc565b606091505b509150915061280c828286612817565b979650505050505050565b606083156128265750816114f5565b8251156128365782518084602001fd5b8160405162461bcd60e51b815260040161086d91906128f3565b7fffffffff000000000000000000000000000000000000000000000000000000008116811461173d57600080fd5b60006020828403121561289057600080fd5b81356114f581612850565b60005b838110156128b657818101518382015260200161289e565b838111156112845750506000910152565b600081518084526128df81602086016020860161289b565b601f01601f19169290920160200192915050565b6020815260006114f560208301846128c7565b60006020828403121561291857600080fd5b5035919050565b80356001600160a01b038116811461293657600080fd5b919050565b6000806040838503121561294e57600080fd5b6129578361291f565b946020939093013593505050565b60008083601f84011261297757600080fd5b50813567ffffffffffffffff81111561298f57600080fd5b6020830191508360208260051b85010111156129aa57600080fd5b9250929050565b600080600080604085870312156129c757600080fd5b843567ffffffffffffffff808211156129df57600080fd5b6129eb88838901612965565b90965094506020870135915080821115612a0457600080fd5b50612a1187828801612965565b95989497509550505050565b60008060208385031215612a3057600080fd5b823567ffffffffffffffff811115612a4757600080fd5b612a5385828601612965565b90969095509350505050565b634e487b7160e01b600052602160045260246000fd5b6020810160058310612a8957612a89612a5f565b91905290565b600080600060608486031215612aa457600080fd5b612aad8461291f565b9250612abb6020850161291f565b9150604084013590509250925092565b600060208284031215612add57600080fd5b6114f58261291f565b60008060408385031215612af957600080fd5b50508035926020909101359150565b801515811461173d57600080fd5b60008060408385031215612b2957600080fd5b612b328361291f565b91506020830135612b4281612b08565b809150509250929050565b634e487b7160e01b600052604160045260246000fd5b60008060008060808587031215612b7957600080fd5b612b828561291f565b9350612b906020860161291f565b925060408501359150606085013567ffffffffffffffff80821115612bb457600080fd5b818701915087601f830112612bc857600080fd5b813581811115612bda57612bda612b4d565b604051601f8201601f19908116603f01168101908382118183101715612c0257612c02612b4d565b816040528281528a6020848701011115612c1b57600080fd5b82602086016020830137600060208483010152809550505050505092959194509250565b60008060408385031215612c5257600080fd5b612c5b8361291f565b9150612c696020840161291f565b90509250929050565b6040810160078410612c8657612c86612a5f565b9281526020015290565b600181811c90821680612ca457607f821691505b602082108103612cc457634e487b7160e01b600052602260045260246000fd5b50919050565b634e487b7160e01b600052603260045260246000fd5b600060208284031215612cf257600080fd5b81356114f581612b08565b634e487b7160e01b600052601160045260246000fd5b60006000198203612d2657612d26612cfd565b5060010190565b6040815283604082015260007f07ffffffffffffffffffffffffffffffffffffffffffffffffffffffffffffff851115612d6657600080fd5b8460051b808760608501376060908301838103820160208086019190915291810185905285916000916080015b86831015612dbc578335612da681612b08565b1515815292810192600192909201918101612d93565b9998505050505050505050565b634e487b7160e01b600052601260045260246000fd5b600082612dee57612dee612dc9565b500490565b60008219821115612e0657612e06612cfd565b500190565b60008351612e1d81846020880161289b565b835190830190612e3181836020880161289b565b01949350505050565b6000816000190483118215151615612e5457612e54612cfd565b500290565b600082821015612e6b57612e6b612cfd565b500390565b600082612e7f57612e7f612dc9565b500690565b600060208284031215612e9657600080fd5b81516114f581612b08565b60006001600160a01b03808716835280861660208401525083604083015260806060830152612ed360808301846128c7565b9695505050505050565b600060208284031215612eef57600080fd5b81516114f581612850565b60008251612f0c81846020870161289b565b919091019291505056fea2646970667358221220a479646a4a062980f5e5cc613fb75dd2ef1911a457c44cb10236bf5093b11c4564736f6c634300080f0033416464726573733a206c6f772d6c6576656c2064656c65676174652063616c6c206661696c6564a26469706673582212206162686c519ffa25a4f1ae3ed96fbbf4fd7d10818d18b636108074ab45b3703864736f6c634300080f0033",
  "devdoc": {
    "kind": "dev",
    "methods": {
      "owner()": {
        "details": "Returns the address of the current owner."
      },
      "proxiableUUID()": {
        "details": "Implementation of the ERC1822 {proxiableUUID} function. This returns the storage slot used by the implementation. It is used to validate that the this implementation remains valid after an upgrade. IMPORTANT: A proxy pointing at a proxiable contract should not be considered proxiable itself, because this risks bricking a proxy that upgrades to it, by delegating to itself until out of gas. Thus it is critical that this function revert if invoked through a proxy. This is guaranteed by the `notDelegated` modifier."
      },
      "renounceOwnership()": {
        "details": "Leaves the contract without owner. It will not be possible to call `onlyOwner` functions anymore. Can only be called by the current owner. NOTE: Renouncing ownership will leave the contract without an owner, thereby removing any functionality that is only available to the owner."
      },
      "transferOwnership(address)": {
        "details": "Transfers ownership of the contract to a new account (`newOwner`). Can only be called by the current owner."
      },
      "upgradeTo(address)": {
        "details": "Upgrade the implementation of the proxy to `newImplementation`. Calls {_authorizeUpgrade}. Emits an {Upgraded} event."
      },
      "upgradeToAndCall(address,bytes)": {
        "details": "Upgrade the implementation of the proxy to `newImplementation`, and subsequently execute the function call encoded in `data`. Calls {_authorizeUpgrade}. Emits an {Upgraded} event."
      }
    },
    "version": 1
  },
  "userdoc": {
    "kind": "user",
    "methods": {},
    "version": 1
  },
  "storageLayout": {
    "storage": [
      {
        "astId": 138,
        "contract": "contracts/CampaignFactoryUpgradable.sol:CampaignFactoryUpgradable",
        "label": "_initialized",
        "offset": 0,
        "slot": "0",
        "type": "t_uint8"
      },
      {
        "astId": 141,
        "contract": "contracts/CampaignFactoryUpgradable.sol:CampaignFactoryUpgradable",
        "label": "_initializing",
        "offset": 1,
        "slot": "0",
        "type": "t_bool"
      },
      {
        "astId": 566,
        "contract": "contracts/CampaignFactoryUpgradable.sol:CampaignFactoryUpgradable",
        "label": "__gap",
        "offset": 0,
        "slot": "1",
        "type": "t_array(t_uint256)50_storage"
      },
      {
        "astId": 10,
        "contract": "contracts/CampaignFactoryUpgradable.sol:CampaignFactoryUpgradable",
        "label": "_owner",
        "offset": 0,
        "slot": "51",
        "type": "t_address"
      },
      {
        "astId": 130,
        "contract": "contracts/CampaignFactoryUpgradable.sol:CampaignFactoryUpgradable",
        "label": "__gap",
        "offset": 0,
        "slot": "52",
        "type": "t_array(t_uint256)49_storage"
      },
      {
        "astId": 4602,
        "contract": "contracts/CampaignFactoryUpgradable.sol:CampaignFactoryUpgradable",
        "label": "whiteUsers",
        "offset": 0,
        "slot": "101",
        "type": "t_mapping(t_address,t_bool)"
      },
      {
        "astId": 4607,
        "contract": "contracts/CampaignFactoryUpgradable.sol:CampaignFactoryUpgradable",
        "label": "whiteTokens",
        "offset": 0,
        "slot": "102",
        "type": "t_mapping(t_contract(IERC20)1798,t_uint256)"
      },
      {
        "astId": 4611,
        "contract": "contracts/CampaignFactoryUpgradable.sol:CampaignFactoryUpgradable",
        "label": "__gap",
        "offset": 0,
        "slot": "103",
        "type": "t_array(t_uint256)50_storage"
      }
    ],
    "types": {
      "t_address": {
        "encoding": "inplace",
        "label": "address",
        "numberOfBytes": "20"
      },
      "t_array(t_uint256)49_storage": {
        "base": "t_uint256",
        "encoding": "inplace",
        "label": "uint256[49]",
        "numberOfBytes": "1568"
      },
      "t_array(t_uint256)50_storage": {
        "base": "t_uint256",
        "encoding": "inplace",
        "label": "uint256[50]",
        "numberOfBytes": "1600"
      },
      "t_bool": {
        "encoding": "inplace",
        "label": "bool",
        "numberOfBytes": "1"
      },
      "t_contract(IERC20)1798": {
        "encoding": "inplace",
        "label": "contract IERC20",
        "numberOfBytes": "20"
      },
      "t_mapping(t_address,t_bool)": {
        "encoding": "mapping",
        "key": "t_address",
        "label": "mapping(address => bool)",
        "numberOfBytes": "32",
        "value": "t_bool"
      },
      "t_mapping(t_contract(IERC20)1798,t_uint256)": {
        "encoding": "mapping",
        "key": "t_contract(IERC20)1798",
        "label": "mapping(contract IERC20 => uint256)",
        "numberOfBytes": "32",
        "value": "t_uint256"
      },
      "t_uint256": {
        "encoding": "inplace",
        "label": "uint256",
        "numberOfBytes": "32"
      },
      "t_uint8": {
        "encoding": "inplace",
        "label": "uint8",
        "numberOfBytes": "1"
      }
    }
  }
}