{
  "address": "0x2fC624f9da53107760f5d49D6DfC62384c0E894E",
  "abi": [
    {
      "inputs": [
        {
          "internalType": "contract IRenderer",
          "name": "render_",
          "type": "address"
        }
      ],
      "stateMutability": "nonpayable",
      "type": "constructor"
    },
    {
      "inputs": [],
      "name": "OnlySimulatedBackend",
      "type": "error"
    },
    {
      "anonymous": false,
      "inputs": [
        {
          "indexed": true,
          "internalType": "address",
          "name": "owner",
          "type": "address"
        },
        {
          "indexed": true,
          "internalType": "address",
          "name": "approved",
          "type": "address"
        },
        {
          "indexed": true,
          "internalType": "uint256",
          "name": "tokenId",
          "type": "uint256"
        }
      ],
      "name": "Approval",
      "type": "event"
    },
    {
      "anonymous": false,
      "inputs": [
        {
          "indexed": true,
          "internalType": "address",
          "name": "owner",
          "type": "address"
        },
        {
          "indexed": true,
          "internalType": "address",
          "name": "operator",
          "type": "address"
        },
        {
          "indexed": false,
          "internalType": "bool",
          "name": "approved",
          "type": "bool"
        }
      ],
      "name": "ApprovalForAll",
      "type": "event"
    },
    {
      "anonymous": false,
      "inputs": [
        {
          "indexed": false,
          "internalType": "uint256",
          "name": "currentEpoch",
          "type": "uint256"
        }
      ],
      "name": "EpochUpdated",
      "type": "event"
    },
    {
      "anonymous": false,
      "inputs": [
        {
          "indexed": false,
          "internalType": "string",
          "name": "newUri",
          "type": "string"
        }
      ],
      "name": "EvCampaignUriSet",
      "type": "event"
    },
    {
      "anonymous": false,
      "inputs": [
        {
          "indexed": false,
          "internalType": "uint256",
          "name": "challengerId",
          "type": "uint256"
        },
        {
          "indexed": false,
          "internalType": "uint256",
          "name": "cheaterId",
          "type": "uint256"
        },
        {
          "indexed": false,
          "internalType": "uint256",
          "name": "challengeRecordId",
          "type": "uint256"
        }
      ],
      "name": "EvChallenge",
      "type": "event"
    },
    {
      "anonymous": false,
      "inputs": [
        {
          "indexed": false,
          "internalType": "uint256",
          "name": "cheaterId",
          "type": "uint256"
        }
      ],
      "name": "EvCheat",
      "type": "event"
    },
    {
      "anonymous": false,
      "inputs": [
        {
          "indexed": false,
          "internalType": "uint256",
          "name": "epoch",
          "type": "uint256"
        },
        {
          "indexed": false,
          "internalType": "uint256",
          "name": "tokenId",
          "type": "uint256"
        },
        {
          "indexed": false,
          "internalType": "string",
          "name": "contentUri",
          "type": "string"
        }
      ],
      "name": "EvCheckIn",
      "type": "event"
    },
    {
      "anonymous": false,
      "inputs": [
        {
          "indexed": false,
          "internalType": "uint256",
          "name": "tokenId",
          "type": "uint256"
        },
        {
          "indexed": false,
          "internalType": "uint256",
          "name": "amount",
          "type": "uint256"
        }
      ],
      "name": "EvClaimReward",
      "type": "event"
    },
    {
      "anonymous": false,
      "inputs": [
        {
          "indexed": false,
          "internalType": "uint256",
          "name": "tokenId",
          "type": "uint256"
        }
      ],
      "name": "EvFailure",
      "type": "event"
    },
    {
      "anonymous": false,
      "inputs": [
        {
          "indexed": false,
          "internalType": "uint256",
          "name": "challengeRecordId",
          "type": "uint256"
        }
      ],
      "name": "EvJudgement",
      "type": "event"
    },
    {
      "anonymous": false,
      "inputs": [
        {
          "indexed": false,
          "internalType": "uint256[]",
          "name": "tokenList",
          "type": "uint256[]"
        },
        {
          "indexed": false,
          "internalType": "bool[]",
          "name": "status",
          "type": "bool[]"
        }
      ],
      "name": "EvModifyRegistry",
      "type": "event"
    },
    {
      "anonymous": false,
      "inputs": [
        {
          "indexed": false,
          "internalType": "uint256",
          "name": "tokenId",
          "type": "uint256"
        }
      ],
      "name": "EvRegisterSuccessfully",
      "type": "event"
    },
    {
      "anonymous": false,
      "inputs": [
        {
          "indexed": false,
          "internalType": "address",
          "name": "user",
          "type": "address"
        }
      ],
      "name": "EvSettle",
      "type": "event"
    },
    {
      "anonymous": false,
      "inputs": [
        {
          "indexed": false,
          "internalType": "uint256",
          "name": "tokenId",
          "type": "uint256"
        }
      ],
      "name": "EvSignUp",
      "type": "event"
    },
    {
      "anonymous": false,
      "inputs": [
        {
          "indexed": false,
          "internalType": "uint256",
          "name": "tokenId",
          "type": "uint256"
        }
      ],
      "name": "EvSuccess",
      "type": "event"
    },
    {
      "anonymous": false,
      "inputs": [
        {
          "indexed": false,
          "internalType": "uint256",
          "name": "tokenId",
          "type": "uint256"
        },
        {
          "indexed": false,
          "internalType": "uint256",
          "name": "challengeRecordId",
          "type": "uint256"
        }
      ],
      "name": "EvVote",
      "type": "event"
    },
    {
      "anonymous": false,
      "inputs": [
        {
          "indexed": false,
          "internalType": "address",
          "name": "host",
          "type": "address"
        },
        {
          "indexed": false,
          "internalType": "uint256",
          "name": "hostReward",
          "type": "uint256"
        },
        {
          "indexed": false,
          "internalType": "uint256",
          "name": "protocolFee",
          "type": "uint256"
        }
      ],
      "name": "EvWithDraw",
      "type": "event"
    },
    {
      "anonymous": false,
      "inputs": [
        {
          "indexed": false,
          "internalType": "uint8",
          "name": "version",
          "type": "uint8"
        }
      ],
      "name": "Initialized",
      "type": "event"
    },
    {
      "anonymous": false,
      "inputs": [
        {
          "indexed": true,
          "internalType": "address",
          "name": "previousOwner",
          "type": "address"
        },
        {
          "indexed": true,
          "internalType": "address",
          "name": "newOwner",
          "type": "address"
        }
      ],
      "name": "OwnershipTransferred",
      "type": "event"
    },
    {
      "anonymous": false,
      "inputs": [
        {
          "indexed": true,
          "internalType": "address",
          "name": "from",
          "type": "address"
        },
        {
          "indexed": true,
          "internalType": "address",
          "name": "to",
          "type": "address"
        },
        {
          "indexed": true,
          "internalType": "uint256",
          "name": "tokenId",
          "type": "uint256"
        }
      ],
      "name": "Transfer",
      "type": "event"
    },
    {
      "inputs": [],
      "name": "_challengeIdx",
      "outputs": [
        {
          "internalType": "uint256",
          "name": "",
          "type": "uint256"
        }
      ],
      "stateMutability": "view",
      "type": "function"
    },
    {
      "inputs": [],
      "name": "_idx",
      "outputs": [
        {
          "internalType": "uint256",
          "name": "",
          "type": "uint256"
        }
      ],
      "stateMutability": "view",
      "type": "function"
    },
    {
      "inputs": [
        {
          "internalType": "uint256[]",
          "name": "allowlists",
          "type": "uint256[]"
        }
      ],
      "name": "admit",
      "outputs": [],
      "stateMutability": "nonpayable",
      "type": "function"
    },
    {
      "inputs": [
        {
          "internalType": "address",
          "name": "to",
          "type": "address"
        },
        {
          "internalType": "uint256",
          "name": "tokenId",
          "type": "uint256"
        }
      ],
      "name": "approve",
      "outputs": [],
      "stateMutability": "nonpayable",
      "type": "function"
    },
    {
      "inputs": [
        {
          "internalType": "address",
          "name": "owner",
          "type": "address"
        }
      ],
      "name": "balanceOf",
      "outputs": [
        {
          "internalType": "uint256",
          "name": "",
          "type": "uint256"
        }
      ],
      "stateMutability": "view",
      "type": "function"
    },
    {
      "inputs": [],
      "name": "campaignUri",
      "outputs": [
        {
          "internalType": "string",
          "name": "",
          "type": "string"
        }
      ],
      "stateMutability": "view",
      "type": "function"
    },
    {
      "inputs": [
        {
          "internalType": "uint256",
          "name": "challengerId",
          "type": "uint256"
        },
        {
          "internalType": "uint256",
          "name": "cheaterId",
          "type": "uint256"
        },
        {
          "internalType": "uint256",
          "name": "epoch",
          "type": "uint256"
        }
      ],
      "name": "challenge",
      "outputs": [],
      "stateMutability": "nonpayable",
      "type": "function"
    },
    {
      "inputs": [],
      "name": "challengeJudgedCount",
      "outputs": [
        {
          "internalType": "uint256",
          "name": "",
          "type": "uint256"
        }
      ],
      "stateMutability": "view",
      "type": "function"
    },
    {
      "inputs": [
        {
          "internalType": "uint256",
          "name": "",
          "type": "uint256"
        }
      ],
      "name": "challengeRecords",
      "outputs": [
        {
          "internalType": "uint256",
          "name": "challengerId",
          "type": "uint256"
        },
        {
          "internalType": "uint256",
          "name": "cheaterId",
          "type": "uint256"
        },
        {
          "internalType": "uint256",
          "name": "epoch",
          "type": "uint256"
        },
        {
          "internalType": "uint256",
          "name": "agreeCount",
          "type": "uint256"
        },
        {
          "internalType": "uint256",
          "name": "disagreeCount",
          "type": "uint256"
        },
        {
          "internalType": "uint256",
          "name": "challengeRiseTime",
          "type": "uint256"
        },
        {
          "internalType": "bool",
          "name": "result",
          "type": "bool"
        },
        {
          "internalType": "bool",
          "name": "state",
          "type": "bool"
        },
        {
          "internalType": "bool",
          "name": "legal",
          "type": "bool"
        }
      ],
      "stateMutability": "view",
      "type": "function"
    },
    {
      "inputs": [
        {
          "internalType": "bytes32",
          "name": "",
          "type": "bytes32"
        }
      ],
      "name": "challengedRecords",
      "outputs": [
        {
          "internalType": "bool",
          "name": "",
          "type": "bool"
        }
      ],
      "stateMutability": "view",
      "type": "function"
    },
    {
      "inputs": [],
      "name": "cheatCount",
      "outputs": [
        {
          "internalType": "uint256",
          "name": "",
          "type": "uint256"
        }
      ],
      "stateMutability": "view",
      "type": "function"
    },
    {
      "inputs": [
        {
          "internalType": "string",
          "name": "contentUri",
          "type": "string"
        },
        {
          "internalType": "uint256",
          "name": "tokenId",
          "type": "uint256"
        }
      ],
      "name": "checkIn",
      "outputs": [],
      "stateMutability": "nonpayable",
      "type": "function"
    },
    {
      "inputs": [
        {
          "internalType": "bytes",
          "name": "",
          "type": "bytes"
        }
      ],
      "name": "checkUpkeep",
      "outputs": [
        {
          "internalType": "bool",
          "name": "upkeepNeeded",
          "type": "bool"
        },
        {
          "internalType": "bytes",
          "name": "performData",
          "type": "bytes"
        }
      ],
      "stateMutability": "view",
      "type": "function"
    },
    {
      "inputs": [
        {
          "internalType": "uint256",
          "name": "tokenId",
          "type": "uint256"
        }
      ],
      "name": "claim",
      "outputs": [],
      "stateMutability": "nonpayable",
      "type": "function"
    },
    {
      "inputs": [
        {
          "internalType": "uint256",
          "name": "tokenId",
          "type": "uint256"
        }
      ],
      "name": "claimAndWithdraw",
      "outputs": [],
      "stateMutability": "nonpayable",
      "type": "function"
    },
    {
      "inputs": [],
      "name": "currentEpoch",
      "outputs": [
        {
          "internalType": "uint256",
          "name": "",
          "type": "uint256"
        }
      ],
      "stateMutability": "view",
      "type": "function"
    },
    {
      "inputs": [],
      "name": "forceEnd",
      "outputs": [],
      "stateMutability": "nonpayable",
      "type": "function"
    },
    {
      "inputs": [
        {
          "internalType": "uint256",
          "name": "tokenId",
          "type": "uint256"
        }
      ],
      "name": "getApproved",
      "outputs": [
        {
          "internalType": "address",
          "name": "",
          "type": "address"
        }
      ],
      "stateMutability": "view",
      "type": "function"
    },
    {
      "inputs": [
        {
          "internalType": "uint256",
          "name": "tokenId",
          "type": "uint256"
        }
      ],
      "name": "getTokenProperties",
      "outputs": [
        {
          "components": [
            {
              "internalType": "enum ICampaign.TokenStatus",
              "name": "tokenStatus",
              "type": "uint8"
            },
            {
              "internalType": "uint256",
              "name": "pendingReward",
              "type": "uint256"
            }
          ],
          "internalType": "struct ICampaign.TokenProperty",
          "name": "",
          "type": "tuple"
        }
      ],
      "stateMutability": "view",
      "type": "function"
    },
    {
      "inputs": [],
      "name": "hostReward",
      "outputs": [
        {
          "internalType": "uint256",
          "name": "",
          "type": "uint256"
        }
      ],
      "stateMutability": "view",
      "type": "function"
    },
    {
      "inputs": [
        {
          "internalType": "address",
          "name": "owner",
          "type": "address"
        },
        {
          "internalType": "contract IERC20Upgradeable",
          "name": "token_",
          "type": "address"
        },
        {
          "internalType": "uint256",
          "name": "amount_",
          "type": "uint256"
        },
        {
          "internalType": "string",
          "name": "name_",
          "type": "string"
        },
        {
          "internalType": "string",
          "name": "symbol_",
          "type": "string"
        },
        {
          "internalType": "uint256",
          "name": "startTime_",
          "type": "uint256"
        },
        {
          "internalType": "uint256",
          "name": "totalPeriod_",
          "type": "uint256"
        },
        {
          "internalType": "uint256",
          "name": "periodLength_",
          "type": "uint256"
        },
        {
          "internalType": "string",
          "name": "campaignUri_",
          "type": "string"
        }
      ],
      "name": "initialize",
      "outputs": [],
      "stateMutability": "nonpayable",
      "type": "function"
    },
    {
      "inputs": [
        {
          "internalType": "address",
          "name": "owner",
          "type": "address"
        },
        {
          "internalType": "address",
          "name": "operator",
          "type": "address"
        }
      ],
      "name": "isApprovedForAll",
      "outputs": [
        {
          "internalType": "bool",
          "name": "",
          "type": "bool"
        }
      ],
      "stateMutability": "view",
      "type": "function"
    },
    {
      "inputs": [
        {
          "internalType": "uint256",
          "name": "challengeRecordId",
          "type": "uint256"
        }
      ],
      "name": "judgement",
      "outputs": [],
      "stateMutability": "nonpayable",
      "type": "function"
    },
    {
      "inputs": [],
      "name": "lastEpochEndTime",
      "outputs": [
        {
          "internalType": "uint256",
          "name": "",
          "type": "uint256"
        }
      ],
      "stateMutability": "view",
      "type": "function"
    },
    {
      "inputs": [
        {
          "internalType": "uint256[]",
          "name": "lists",
          "type": "uint256[]"
        },
        {
          "internalType": "bool[]",
          "name": "targetStatuses",
          "type": "bool[]"
        }
      ],
      "name": "modifyRegistry",
      "outputs": [],
      "stateMutability": "nonpayable",
      "type": "function"
    },
    {
      "inputs": [],
      "name": "name",
      "outputs": [
        {
          "internalType": "string",
          "name": "",
          "type": "string"
        }
      ],
      "stateMutability": "view",
      "type": "function"
    },
    {
      "inputs": [],
      "name": "owner",
      "outputs": [
        {
          "internalType": "address",
          "name": "",
          "type": "address"
        }
      ],
      "stateMutability": "view",
      "type": "function"
    },
    {
      "inputs": [
        {
          "internalType": "uint256",
          "name": "tokenId",
          "type": "uint256"
        }
      ],
      "name": "ownerOf",
      "outputs": [
        {
          "internalType": "address",
          "name": "",
          "type": "address"
        }
      ],
      "stateMutability": "view",
      "type": "function"
    },
    {
      "inputs": [
        {
          "internalType": "bytes",
          "name": "performData",
          "type": "bytes"
        }
      ],
      "name": "performUpkeep",
      "outputs": [],
      "stateMutability": "nonpayable",
      "type": "function"
    },
    {
      "inputs": [],
      "name": "period",
      "outputs": [
        {
          "internalType": "uint256",
          "name": "",
          "type": "uint256"
        }
      ],
      "stateMutability": "view",
      "type": "function"
    },
    {
      "inputs": [],
      "name": "protocolFee",
      "outputs": [
        {
          "internalType": "uint256",
          "name": "",
          "type": "uint256"
        }
      ],
      "stateMutability": "view",
      "type": "function"
    },
    {
      "inputs": [
        {
          "internalType": "uint256",
          "name": "",
          "type": "uint256"
        },
        {
          "internalType": "uint256",
          "name": "",
          "type": "uint256"
        }
      ],
      "name": "records",
      "outputs": [
        {
          "internalType": "string",
          "name": "contentUri",
          "type": "string"
        }
      ],
      "stateMutability": "view",
      "type": "function"
    },
    {
      "inputs": [],
      "name": "render",
      "outputs": [
        {
          "internalType": "contract IRenderer",
          "name": "",
          "type": "address"
        }
      ],
      "stateMutability": "view",
      "type": "function"
    },
    {
      "inputs": [],
      "name": "renounceOwnership",
      "outputs": [],
      "stateMutability": "nonpayable",
      "type": "function"
    },
    {
      "inputs": [],
      "name": "requiredAmount",
      "outputs": [
        {
          "internalType": "uint256",
          "name": "",
          "type": "uint256"
        }
      ],
      "stateMutability": "view",
      "type": "function"
    },
    {
      "inputs": [
        {
          "internalType": "address",
          "name": "from",
          "type": "address"
        },
        {
          "internalType": "address",
          "name": "to",
          "type": "address"
        },
        {
          "internalType": "uint256",
          "name": "tokenId",
          "type": "uint256"
        }
      ],
      "name": "safeTransferFrom",
      "outputs": [],
      "stateMutability": "nonpayable",
      "type": "function"
    },
    {
      "inputs": [
        {
          "internalType": "address",
          "name": "from",
          "type": "address"
        },
        {
          "internalType": "address",
          "name": "to",
          "type": "address"
        },
        {
          "internalType": "uint256",
          "name": "tokenId",
          "type": "uint256"
        },
        {
          "internalType": "bytes",
          "name": "data",
          "type": "bytes"
        }
      ],
      "name": "safeTransferFrom",
      "outputs": [],
      "stateMutability": "nonpayable",
      "type": "function"
    },
    {
      "inputs": [
        {
          "internalType": "address",
          "name": "operator",
          "type": "address"
        },
        {
          "internalType": "bool",
          "name": "approved",
          "type": "bool"
        }
      ],
      "name": "setApprovalForAll",
      "outputs": [],
      "stateMutability": "nonpayable",
      "type": "function"
    },
    {
      "inputs": [
        {
          "internalType": "string",
          "name": "newUri",
          "type": "string"
        }
      ],
      "name": "setCampaignUri",
      "outputs": [],
      "stateMutability": "nonpayable",
      "type": "function"
    },
    {
      "inputs": [],
      "name": "settle",
      "outputs": [],
      "stateMutability": "nonpayable",
      "type": "function"
    },
    {
      "inputs": [],
      "name": "sharedReward",
      "outputs": [
        {
          "internalType": "uint256",
          "name": "",
          "type": "uint256"
        }
      ],
      "stateMutability": "view",
      "type": "function"
    },
    {
      "inputs": [],
      "name": "signUp",
      "outputs": [],
      "stateMutability": "nonpayable",
      "type": "function"
    },
    {
      "inputs": [],
      "name": "startTime",
      "outputs": [
        {
          "internalType": "uint256",
          "name": "",
          "type": "uint256"
        }
      ],
      "stateMutability": "view",
      "type": "function"
    },
    {
      "inputs": [],
      "name": "status",
      "outputs": [
        {
          "internalType": "enum Consts.CampaignStatus",
          "name": "",
          "type": "uint8"
        }
      ],
      "stateMutability": "view",
      "type": "function"
    },
    {
      "inputs": [],
      "name": "successTokensCount",
      "outputs": [
        {
          "internalType": "uint256",
          "name": "",
          "type": "uint256"
        }
      ],
      "stateMutability": "view",
      "type": "function"
    },
    {
      "inputs": [
        {
          "internalType": "bytes4",
          "name": "interfaceId",
          "type": "bytes4"
        }
      ],
      "name": "supportsInterface",
      "outputs": [
        {
          "internalType": "bool",
          "name": "",
          "type": "bool"
        }
      ],
      "stateMutability": "view",
      "type": "function"
    },
    {
      "inputs": [],
      "name": "symbol",
      "outputs": [
        {
          "internalType": "string",
          "name": "",
          "type": "string"
        }
      ],
      "stateMutability": "view",
      "type": "function"
    },
    {
      "inputs": [],
      "name": "targetToken",
      "outputs": [
        {
          "internalType": "contract IERC20Upgradeable",
          "name": "",
          "type": "address"
        }
      ],
      "stateMutability": "view",
      "type": "function"
    },
    {
      "inputs": [
        {
          "internalType": "uint256",
          "name": "tokenId",
          "type": "uint256"
        }
      ],
      "name": "tokenURI",
      "outputs": [
        {
          "internalType": "string",
          "name": "",
          "type": "string"
        }
      ],
      "stateMutability": "view",
      "type": "function"
    },
    {
      "inputs": [],
      "name": "totalEpochsCount",
      "outputs": [
        {
          "internalType": "uint256",
          "name": "",
          "type": "uint256"
        }
      ],
      "stateMutability": "view",
      "type": "function"
    },
    {
      "inputs": [
        {
          "internalType": "address",
          "name": "from",
          "type": "address"
        },
        {
          "internalType": "address",
          "name": "to",
          "type": "address"
        },
        {
          "internalType": "uint256",
          "name": "tokenId",
          "type": "uint256"
        }
      ],
      "name": "transferFrom",
      "outputs": [],
      "stateMutability": "nonpayable",
      "type": "function"
    },
    {
      "inputs": [
        {
          "internalType": "address",
          "name": "newOwner",
          "type": "address"
        }
      ],
      "name": "transferOwnership",
      "outputs": [],
      "stateMutability": "nonpayable",
      "type": "function"
    },
    {
      "inputs": [
        {
          "internalType": "uint256",
          "name": "tokenId",
          "type": "uint256"
        },
        {
          "internalType": "uint256",
          "name": "challengeRecordId",
          "type": "uint256"
        },
        {
          "internalType": "bool",
          "name": "choice",
          "type": "bool"
        }
      ],
      "name": "vote",
      "outputs": [],
      "stateMutability": "nonpayable",
      "type": "function"
    },
    {
      "inputs": [
        {
          "internalType": "uint256",
          "name": "",
          "type": "uint256"
        },
        {
          "internalType": "uint256",
          "name": "",
          "type": "uint256"
        }
      ],
      "name": "voters",
      "outputs": [
        {
          "internalType": "bool",
          "name": "voted",
          "type": "bool"
        },
        {
          "internalType": "bool",
          "name": "choice",
          "type": "bool"
        }
      ],
      "stateMutability": "view",
      "type": "function"
    },
    {
      "inputs": [],
      "name": "withdraw",
      "outputs": [],
      "stateMutability": "nonpayable",
      "type": "function"
    }
  ],
  "transactionHash": "0x5030265c654ad26812f54a5f73de0bc9b3c32eccc7004d029023b8745abcf44f",
  "args": [
    "0x389A9a9097766E58DaAc092d0A358f8Ac3F820cB"
  ],
  "numDeployments": 10,
  "solcInputHash": "6c9c2c7653043e0b12d920a37c257997",
  "bytecode": "0x60a0346200018557601f62004beb38819003918201601f19168301916001600160401b038311848410176200018a578084926020946040528339810103126200018557516001600160a01b0381168103620001855760805260005460ff8160081c16159081809262000177575b80156200015e575b15620001025760ff19811660011760005581620000ef575b50620000b3575b604051614a4a9081620001a182396080518181816106bb01526107650152f35b61ff0019600054166000557f7f26b83ff96e1f2b6a682f133852f6798a09c465da95921460cefb3847402498602060405160018152a162000093565b61ffff191661010117600055386200008c565b60405162461bcd60e51b815260206004820152602e60248201527f496e697469616c697a61626c653a20636f6e747261637420697320616c72656160448201526d191e481a5b9a5d1a585b1a5e995960921b6064820152608490fd5b50303b158015620000745750600160ff82161462000074565b50600160ff8216106200006c565b600080fd5b634e487b7160e01b600052604160045260246000fdfe608080604052600436101561001357600080fd5b60003560e01c90816301ffc9a7146131cf5750806306fdde03146131ab578063081812fc1461318d578063095ea7b314612fe75780630c0b2bdd14612e5c57806311da60b414612c6e5780631a59754814612aef5780631fc6e29614612875578063200d2ed21461284b57806323b872dd146128275780632520b93c146127f657806327e61c2514612410578063280058ee146123f2578063327107f7146123cb578063379607f5146123ab5780633ccfd60b1461233057806342842e0e146122fd5780634585e33b1461206757806348b9ef40146120495780634edea11114611fc45780634ee0ab0d14611dc65780636352211e14611d975780636a18ff7a14611b5c5780636e04ff0d14611b025780636efcaab514611a5c578063703064d11461133957806370a082311461130e57806370f42df8146112f0578063715018a614611283578063766718081461126557806378e979251461124757806384e33501146112295780638da5cb5b146112025780639397f8e214610fdb57806395d89b4114610f0d57806396bc743414610eef5780639cc8525d14610e9e578063a22cb46514610dc3578063b0e21e8a14610da5578063b6f625e614610d87578063b88d4fde14610d06578063bf96ae6314610a53578063bfa6f912146109c5578063c771766d146109a7578063c87b56dd146106fd578063d5d22165146106df578063d607497a1461069b578063db49881214610457578063dfa447ce14610439578063e86a53091461041b578063e985e9c5146103c4578063ef78d4fd146103a6578063f2fde38b14610303578063f62b46c9146102c45763fba00cbd1461027c57600080fd5b346102bf5761028a36613632565b9060005260dc6020526040600020906000526020526040806000205460ff8251918181161515835260081c1615156020820152f35b600080fd5b346102bf5760206003193601126102bf576102f96004356102e3613648565b6102ec816147b3565b6102f4614967565b6142e5565b610301614629565b005b346102bf5760206003193601126102bf5761031c6132f8565b610324613648565b6001600160a01b0381161561033c57610301906136a0565b608460405162461bcd60e51b815260206004820152602660248201527f4f776e61626c653a206e6577206f776e657220697320746865207a65726f206160448201527f64647265737300000000000000000000000000000000000000000000000000006064820152fd5b346102bf5760006003193601126102bf57602060cf54604051908152f35b346102bf5760406003193601126102bf576103dd6132f8565b6103e561330e565b906001600160a01b03809116600052609c60205260406000209116600052602052602060ff604060002054166040519015158152f35b346102bf5760006003193601126102bf57602060d254604051908152f35b346102bf5760006003193601126102bf57602060d754604051908152f35b346102bf576020806003193601126102bf5767ffffffffffffffff906004358281116102bf5761048b90369060040161338a565b919092610496613648565b82116106855760cc916104b2816104ad85546133b8565b613e0a565b6000601f821160011461060457819293946000926105f9575b50506000198260011b9260031b1c19161782555b6040519181835260009181546104f4816133b8565b92838387015260019182811690816000146105b0575060011461053a575b7f9554c0ad8824b12a4301321d81a1a6d3be9e533b040fe09a8d7dfeaccb27618186860387a1005b600090815293507f47197230e1e4b29fc0bd84d7d78966c0925452aff72a2a121538b102457e9ebe5b83851061059c57505050508101604001817f9554c0ad8824b12a4301321d81a1a6d3be9e533b040fe09a8d7dfeaccb2761818480610512565b805486860160400152938201938101610563565b9050869550604093507f9554c0ad8824b12a4301321d81a1a6d3be9e533b040fe09a8d7dfeaccb2761819694925060ff1991501682840152151560051b82010191928480610512565b0135905084806104cb565b601f19821694846000527f47197230e1e4b29fc0bd84d7d78966c0925452aff72a2a121538b102457e9ebe9160005b87811061066e575083600195969710610654575b505050811b0182556104df565b60001960f88560031b161c19910135169055848080610647565b909285600181928686013581550194019101610633565b634e487b7160e01b600052604160045260246000fd5b346102bf5760006003193601126102bf5760206040516001600160a01b037f0000000000000000000000000000000000000000000000000000000000000000168152f35b346102bf5760006003193601126102bf57602060d454604051908152f35b346102bf576020806003193601126102bf576040516107268161071f816133f2565b038261359e565b604051907fa2d6c6da00000000000000000000000000000000000000000000000000000000825260043560048301526000826024816001600160a01b037f0000000000000000000000000000000000000000000000000000000000000000165afa91821561099b57600092610912575b506108a360626107a86108a894614141565b926040519384917f7b226e616d65223a202200000000000000000000000000000000000000000000888401526107e7815180928a602a8701910161329e565b82017f222c226465736372697074696f6e223a22000000000000000000000000000000602a8201527f222c22696d616765223a22000000000000000000000000000000000000000000603b8201527f646174613a696d6167652f7376672b786d6c3b6261736536342c000000000000604682015261086e825180938a60608501910161329e565b017f227d000000000000000000000000000000000000000000000000000000000000606082015203604281018452018261359e565b614141565b906108fa603d60405180947f646174613a6170706c69636174696f6e2f6a736f6e3b6261736536342c000000858301526108ea8151809287868601910161329e565b810103601d81018552018361359e565b61090e6040519282849384528301906132d3565b0390f35b91503d806000843e610924818461359e565b82019183818403126102bf5780519067ffffffffffffffff82116102bf57019180601f840112156102bf5782519261095b846135c1565b91610969604051938461359e565b8483528585830101116102bf576107a8826109926108a89660629489806108a39801910161329e565b94505050610796565b6040513d6000823e3d90fd5b346102bf5760006003193601126102bf57602060d054604051908152f35b346102bf5760206003193601126102bf5760043560005260dd602052610120604060002060ff815491600181015490600281015460038201546004830154916006600585015494015494604051978852602088015260408701526060860152608085015260a0840152818116151560c0840152818160081c16151560e084015260101c161515610100820152f35b346102bf5760006003193601126102bf57610a6c6148c8565b610a75336136f7565b610cc2576001600160a01b0360c9541660ca5490604051906020917f23b872dd0000000000000000000000000000000000000000000000000000000083820152602493338583015230604483015260648201526064815260a081019181831067ffffffffffffffff841117610cad57610af092604052613e7b565b60d25460011992838211610c14576001820160d25560405193610b1285613566565b600085523315610c6b57610b3c8360005260996020526001600160a01b0360406000205416151590565b610c285733600052609a84526040600020918254918211610c1457507fcd169e01d559b6d336962db715a67dc5fd03521032de891b679200894ec219f394610be7926001610be293019055836000526099855260406000203373ffffffffffffffffffffffffffffffffffffffff19825416179055833360007fddf252ad1be2c89b69c2b068fc378daa952ba7f163c4a11628f55a4df523b3ef81604051a48333613bfa565b6138a1565b8060005260db82526040600020600260ff1982541617905560ca54600160406000200155604051908152a1005b634e487b7160e01b60005260116004526000fd5b606484601c846040519262461bcd60e51b845260048401528201527f4552433732313a20746f6b656e20616c7265616479206d696e746564000000006044820152fd5b606482856040519162461bcd60e51b83528160048401528201527f4552433732313a206d696e7420746f20746865207a65726f20616464726573736044820152fd5b84634e487b7160e01b60005260416004526000fd5b606460405162461bcd60e51b815260206004820152601860248201527f43616d706169676e3a20616c7265616479207369676e656400000000000000006044820152fd5b346102bf5760806003193601126102bf57610d1f6132f8565b610d2761330e565b906064359060443567ffffffffffffffff83116102bf57366023840112156102bf5761030193610d64610be29436906024816004013591016135dd565b92610d77610d728433613917565b613830565b610d8283838361399c565b613d90565b346102bf5760006003193601126102bf57602060ce54604051908152f35b346102bf5760006003193601126102bf57602060d854604051908152f35b346102bf5760406003193601126102bf57610ddc6132f8565b60243590811515908183036102bf576001600160a01b031691823314610e5a57610e2c9033600052609c60205260406000208460005260205260406000209060ff60ff1983541691151516179055565b6040519081527f17307eab39ab6107e8899845ad3d59bd9653f200f220920489ca2b5937696c3160203392a3005b606460405162461bcd60e51b815260206004820152601960248201527f4552433732313a20617070726f766520746f2063616c6c6572000000000000006044820152fd5b346102bf57610eac36613632565b9060005260da60205260406000209060005260205261090e61071f610edb604060002060405192838092613497565b6040519182916020835260208301906132d3565b346102bf5760006003193601126102bf57602060d654604051908152f35b346102bf5760006003193601126102bf576040516000609854610f2f816133b8565b80845290600190818116908115610fb45750600114610f59575b61090e84610edb8186038261359e565b6098600090815292507f2237a976fa961f5921fd19f2b03c925c725d77b20ce8f790c19709c03de4d8145b828410610f9c575050508101602001610edb82610f49565b80546020858701810191909152909301928101610f84565b60ff191660208087019190915292151560051b85019092019250610edb9150839050610f49565b346102bf5760406003193601126102bf5767ffffffffffffffff6004358181116102bf5761100d90369060040161338a565b6024359161101a836147b3565b611022614918565b61102b83614812565b6110336146e4565b60405160209485820182811082821117610685576040526110553685856135dd565b825260d15460005260da865260406000208560005286526040600020915180519182116106855761108683546133b8565b601f81116111bc575b508690601f831160011461112857947f0de15cde05bed13731732bfe8f1ff5a69a8be94505d2e381f23997b07af8dd85979694601f199484601f95849560809a60009261111d575b50506000198260011b9260031b1c19161790555b60d1549560405198899788528701526060604087015281606087015286860137600085828601015201168101030190a1005b015190508c806110d7565b90601f1983169184600052886000209260005b8181106111a5575094600185899560809a957f0de15cde05bed13731732bfe8f1ff5a69a8be94505d2e381f23997b07af8dd859d9c9a95601f99601f199b1061118c575b505050811b0190556110eb565b015160001960f88460031b161c191690558c808061117f565b92938a60018192878601518155019501930161113b565b8360005287600020601f840160051c8101918985106111f8575b601f0160051c01905b8181106111ec575061108f565b600081556001016111df565b90915081906111d6565b346102bf5760006003193601126102bf5760206001600160a01b0360335416604051908152f35b346102bf5760006003193601126102bf57602060d554604051908152f35b346102bf5760006003193601126102bf57602060cd54604051908152f35b346102bf5760006003193601126102bf57602060d154604051908152f35b346102bf5760006003193601126102bf5761129c613648565b600060335473ffffffffffffffffffffffffffffffffffffffff198116603355816001600160a01b0360405192167f8be0079c531659141344cd1fd0a4f28419497f9722a3daafe3b4186f6b6457e08284a3f35b346102bf5760006003193601126102bf57602060d954604051908152f35b346102bf5760206003193601126102bf57602061133161132c6132f8565b6136f7565b604051908152f35b346102bf576101206003193601126102bf576113536132f8565b602435906001600160a01b03821682036102bf5760643567ffffffffffffffff81116102bf57611387903690600401613614565b9060843567ffffffffffffffff81116102bf576113a8903690600401613614565b926101043567ffffffffffffffff81116102bf576113ca903690600401613614565b926000549260ff8460081c161593848095611a4f575b8015611a38575b156119ce5784600160ff1983161760005561199f575b506001600160a01b0383161561195b57604435156119175761141e906136a0565b60ff60005460081c16156118ad5780519067ffffffffffffffff821161068557819061144b6097546133b8565b601f8111611801575b50602090601f831160011461177a5760009261176f575b50506000198260011b9260031b1c1916176097555b835167ffffffffffffffff81116106855761149c6098546133b8565b601f81116116cc575b506020601f821160011461163d5781906001600160a01b03949596600092611632575b50506000198260011b9260031b1c1916176098555b1673ffffffffffffffffffffffffffffffffffffffff1960c954161760c95560443560ca5560a4358060cd5560d05560c43560ce5560e43560cf55815167ffffffffffffffff811161068557611538816104ad60cc546133b8565b602092601f82116001146115b057928192936000926115a5575b50506000198260011b9260031b1c19161760cc555b61156d57005b61ff0019600054166000557f7f26b83ff96e1f2b6a682f133852f6798a09c465da95921460cefb3847402498602060405160018152a1005b015190508380611552565b601f1982169360cc6000527f47197230e1e4b29fc0bd84d7d78966c0925452aff72a2a121538b102457e9ebe9160005b86811061161a5750836001959610611601575b505050811b0160cc55611567565b015160001960f88460031b161c191690558380806115f3565b919260206001819286850151815501940192016115e0565b0151905086806114c8565b601f1982169560986000527f2237a976fa961f5921fd19f2b03c925c725d77b20ce8f790c19709c03de4d8149660005b8181106116b45750916001600160a01b039596979184600195941061169b575b505050811b016098556114dd565b015160001960f88460031b161c1916905586808061168d565b8383015189556001909801976020938401930161166d565b6098600052601f820160051c7f2237a976fa961f5921fd19f2b03c925c725d77b20ce8f790c19709c03de4d814019060208310611747575b601f0160051c7f2237a976fa961f5921fd19f2b03c925c725d77b20ce8f790c19709c03de4d81401905b81811061173b57506114a5565b6000815560010161172e565b7f2237a976fa961f5921fd19f2b03c925c725d77b20ce8f790c19709c03de4d8149150611704565b01519050868061146b565b915060976000527f354a83ed9988f79f6038d4c7a7dadbad8af32f4ad6df893e0e5807a1b1944ff9916000601f198516905b8181106117e957509084600195949392106117d0575b505050811b01609755611480565b015160001960f88460031b161c191690558680806117c2565b929360206001819287860151815501950193016117ac565b9091506097600052601f830160051c7f354a83ed9988f79f6038d4c7a7dadbad8af32f4ad6df893e0e5807a1b1944ff90160208410611886575b90601f849392910160051c7f354a83ed9988f79f6038d4c7a7dadbad8af32f4ad6df893e0e5807a1b1944ff901905b8181106118775750611454565b6000815584935060010161186a565b507f354a83ed9988f79f6038d4c7a7dadbad8af32f4ad6df893e0e5807a1b1944ff961183b565b608460405162461bcd60e51b815260206004820152602b60248201527f496e697469616c697a61626c653a20636f6e7472616374206973206e6f74206960448201527f6e697469616c697a696e670000000000000000000000000000000000000000006064820152fd5b606460405162461bcd60e51b815260206004820152601860248201527f43616d706169676e3a20696e76616c696420616d6f756e7400000000000000006044820152fd5b606460405162461bcd60e51b815260206004820152601760248201527f43616d706169676e3a20696e76616c696420746f6b656e0000000000000000006044820152fd5b7fffffffffffffffffffffffffffffffffffffffffffffffffffffffffffff00001661010117600055866113fd565b608460405162461bcd60e51b815260206004820152602e60248201527f496e697469616c697a61626c653a20636f6e747261637420697320616c72656160448201527f647920696e697469616c697a65640000000000000000000000000000000000006064820152fd5b50303b1580156113e75750600160ff8216146113e7565b50600160ff8216106113e0565b346102bf5760006003193601126102bf57604051600060cc54611a7e816133b8565b80845290600190818116908115610fb45750600114611aa75761090e84610edb8186038261359e565b60cc600090815292507f47197230e1e4b29fc0bd84d7d78966c0925452aff72a2a121538b102457e9ebe5b828410611aea575050508101602001610edb82610f49565b80546020858701810191909152909301928101611ad2565b346102bf5760206003193601126102bf5760043567ffffffffffffffff81116102bf57611b3390369060040161338a565b5050611b3d6140cb565b9061090e604051928392151583526040602084015260408301906132d3565b346102bf5760606003193601126102bf576004356024803590604435908115158092036102bf57611b8c846147b3565b611b94614918565b611b9d84614812565b611ba683614879565b8260005260209160dd835260056040600020015462093a80198111611d825762093a8001421015611d3f578360005260dd835260406000205485141580611d2d575b15611cea576001908460005260dc8452604060002086600052845260406000208260ff198254161790558460005260dc845260406000208660005284526040600020805461ff001961ff008460081b16911617905514600014611c9b578260005260dd82526003604060002001908154906001198211610c14575060010190557fe412d87c65a2ecd9a42cbdcd9b35239448cd2ec046dbe0d6af0eee194ec6173e9260409290915b8351928352820152a1005b8260005260dd82526004604060002001908154906001198211610c14575060010190557fe412d87c65a2ecd9a42cbdcd9b35239448cd2ec046dbe0d6af0eee194ec6173e926040929091611c90565b606483601f846040519262461bcd60e51b845260048401528201527f4368616c6c656e67653a20696e766f6c7665642063616e6e6f7420766f7465006044820152fd5b50600160406000200154851415611be8565b6064836010846040519262461bcd60e51b845260048401528201527f4368616c6c656e67653a20656e646564000000000000000000000000000000006044820152fd5b82634e487b7160e01b60005260116004526000fd5b346102bf5760206003193601126102bf576020611db56004356137cc565b6001600160a01b0360405191168152f35b346102bf5760006003193601126102bf57611ddf6149b8565b611de7614967565b611def6149b8565b60d280549060d99182556000905b8054821015611f685760005b60ce54811015611f5d5780600052602060da8152604060002084600052815261071f611e3f604060002060405192838092613497565b5115611e545750611e4f90614007565b611e09565b919280915060005260db808352600190611eb78260406000200154611eb2620f424080611e808461403c565b0490611e8f60d7928354613990565b809255611e9b84614054565b0492611eaa60d8948554613990565b809455613985565b613985565b611ec460d6918254613990565b90558260005283526000816040822001558454908110611f4757611f41926000197f939e6ef49701507f032296ab644b4aebf199222450de6622bb5f9550c7a7820992018655604051838152a15b7f8990a2cca2ad5b32ae72395c0db570652316a7903178764820232d8fe5d2b3556020604051838152a1614007565b90611dfd565b634e487b7160e01b600052601160045260246000fd5b5090611f4190611f12565b825415611fa9575b600460ff1960cb54161760cb557f7069a5d4cbf1f64db906d1dd29276702df7e9c795ef1746d7a1ca5449c4893f16020604051338152a1005b611fb760d65460d854613990565b60d855600060d655611f70565b346102bf5760206003193601126102bf5760006020604051611fe58161352e565b828152015260043560005260db60205260406000206040516120068161352e565b60ff8254169060078210156120335760206001604094848452015491019081528251918252516020820152f35b634e487b7160e01b600052602160045260246000fd5b346102bf5760006003193601126102bf57602060ca54604051908152f35b346102bf576020806003193601126102bf5760043567ffffffffffffffff81116102bf5761209a8291369060040161338a565b90809291810103126102bf5735806122a9575060cd546120ca60ce916120c4835460cf5490614098565b90613990565b4211156122655760d280549260d99384556000915b80548310156122075760005b84548110156121fc578060005260da8352604060002084600052835261071f61211e604060002060405192838092613497565b51156121325761212d90614007565b6120eb565b50918060005260db9081835260019161215d8360406000200154611eb2620f424080611e808461403c565b61216a60d6918254613990565b90558160005283526000826040822001556040600020600560ff198254161790558554918210611f47576000196121f6920186557f939e6ef49701507f032296ab644b4aebf199222450de6622bb5f9550c7a7820983604051838152a15b7f8990a2cca2ad5b32ae72395c0db570652316a7903178764820232d8fe5d2b35583604051838152a1614007565b916120df565b50916121f6906121c8565b509150507f7069a5d4cbf1f64db906d1dd29276702df7e9c795ef1746d7a1ca5449c4893f191541561224a575b600460ff1960cb54161760cb55604051338152a1005b61225860d65460d854613990565b60d855600060d655612234565b6064826040519062461bcd60e51b82526004820152601360248201527f43616d706169676e3a206e6f7420656e646564000000000000000000000000006044820152fd5b6001036122b957506103016146e4565b6064906040519062461bcd60e51b82526004820152600d60248201527f4e6f7468696e6720546f20444f000000000000000000000000000000000000006044820152fd5b346102bf57610301610be261231136613355565b906040519261231f84613566565b60008452610d77610d728433613917565b346102bf5760006003193601126102bf57612349613648565b60ff60cb541660058110156120335760040361236757610301614629565b606460405162461bcd60e51b815260206004820152601560248201527f43616d706169676e3a206e6f7420736574746c656400000000000000000000006044820152fd5b346102bf5760206003193601126102bf576103016004356102ec816147b3565b346102bf5760006003193601126102bf5760206001600160a01b0360c95416604051908152f35b346102bf5760006003193601126102bf57602060d354604051908152f35b346102bf576020806003193601126102bf57600435908160005260dd9182825260056040600020015462093a80198111611f475762093a800142106127b25761245881614879565b8060005282825260ff60066040600020015460081c1661276e5780600052828252604060002054926001908160406000200154946124a760036040600020015460046040600020015490613990565b9060d2549260028410611f4757600119809401916000199383850460421184151516611f4757606493604202849004101561272b5760d454858111611f4757860160d45586600052818852600360406000200154600460406000200154106125238160066040600020019060ff60ff1983541691151516179055565b6040600020600601805461ff001916610100179055156126595750600088815260db885260408120805460ff19166005178155860180549190559283918361256a8461406c565b049088600052895260406000205460005260db895261259187604060002001918254613990565b90556125a9836125a084614082565b0460d654613990565b60d65504600a1182151516611f4757600a6125c892020460d854613990565b60d85560d554908111611f47577f3caa68ace909b33d20e5ff96e9c98e4f6b20d3490307a1c09b28bea2e71893d6947f7bd432623a7ded907d0b1d373f5979fadde9c0f579f29ae990736e560c2a1aaa9285920160d5557f939e6ef49701507f032296ab644b4aebf199222450de6622bb5f9550c7a7820982604051838152a1604051908152a15b604051908152a1005b91975093925060005260db8552816040600020015480820460281181151516611f47576028879102049283928560005281875260406000205460005260db8752876126aa826040600020015461406c565b049186600052875260406000205460005260db875260406000200155048115159080604b118216611f47576126e686604b85020460d654613990565b60d65560191116611f47577f3caa68ace909b33d20e5ff96e9c98e4f6b20d3490307a1c09b28bea2e71893d693601961272392020460d854613990565b60d855612650565b82886040519062461bcd60e51b82526004820152601b60248201527f4368616c6c656e67653a206e6f7420656e6f75676820766f74657200000000006044820152fd5b6064826040519062461bcd60e51b82526004820152601960248201527f4368616c6c656e67653a20616c7265616479206a7564676564000000000000006044820152fd5b6064826040519062461bcd60e51b82526004820152601460248201527f4368616c6c656e67653a206e6f7420656e6465640000000000000000000000006044820152fd5b346102bf5760206003193601126102bf5760043560005260de602052602060ff604060002054166040519015158152f35b346102bf5761030161283836613355565b91612846610d728433613917565b61399c565b346102bf5760006003193601126102bf5760ff60cb54166040516005821015612033576020918152f35b346102bf5760606003193601126102bf5760043560248035604435612899846147b3565b6128a1614918565b6128aa84614812565b6128b382614812565b6128c860cd546120c460ce5460cf5490614098565b7ffffffffffffffffffffffffffffffffffffffffffffffffffffffffffffeae7f8111612ada5762015180014211612a7057818414612a2c576040519060209182810190848252826040820152604081526129228161354a565b51902060005260de825260ff604060002054166129e95760405182810190848252826040820152604081526129568161354a565b51902060005260de82526040600020600160ff1982541617905560d354936001198511610c14577f41b86b8e6a50d1879c8fe4ff449470156b8c2b6c02117dafd10625d300e4aacd606087878787876001840160d3558360005260dd82528460406000205582600160406000200155426005604060002001556002604060002001556040519384528301526040820152a1005b606482601c866040519262461bcd60e51b845260048401528201527f43616d706169676e3a20616c7265616479206368616c6c656e676564000000006044820152fd5b606483601f6040519162461bcd60e51b8352602060048401528201527f43616d706169676e3a2063616e6e6f74206368616c6c656e67652073656c66006044820152fd5b60848360236040519162461bcd60e51b8352602060048401528201527f4368616c6c656e67653a207374617274206368616c6c656e676520746f6f206c60448201527f61746500000000000000000000000000000000000000000000000000000000006064820152fd5b83634e487b7160e01b60005260116004526000fd5b346102bf576020806003193601126102bf5760043567ffffffffffffffff81116102bf57612b21903690600401613324565b612b296148c8565b612b31613648565b60005b818110612b3d57005b612b48818385614016565b358060005260db8086526040600020604051612b638161352e565b60ff825416600792838210156120335760019183520154808983015260ca5403612c2a57519081101561203357600203612be65785827f0898a2d0f11ee389113f47ac39e4c57338d20de87eab1ff9bcce61256c868c8592612be1959460005282526040600020600360ff19825416179055604051908152a1614007565b612b34565b6064866040519062461bcd60e51b82526004820152601760248201527f43616d706169676e3a206e6f74207369676e65642075700000000000000000006044820152fd5b6064886040519062461bcd60e51b82526004820152601960248201527f43616d706169676e3a207374616b65206e6f74206d61746368000000000000006044820152fd5b346102bf5760006003193601126102bf5760cd54612c9660ce916120c4835460cf5490614098565b421115612e185760d29081549160d99283556000905b8054821015612dd85760005b8354811015612dcd5780600052602060da8152604060002084600052815261071f612ced604060002060405192838092613497565b5115612d025750612cfd90614007565b612cb8565b919280915060005260db808352600190612d2e8260406000200154611eb2620f424080611e808461403c565b612d3b60d6918254613990565b90558260005283526000816040822001556040600020600560ff198254161790558554908110611f4757612dc7926000197f939e6ef49701507f032296ab644b4aebf199222450de6622bb5f9550c7a7820992018755604051838152a17f8990a2cca2ad5b32ae72395c0db570652316a7903178764820232d8fe5d2b3556020604051838152a1614007565b90612cac565b5090612dc790611f12565b835415611fa957600460ff1960cb54161760cb557f7069a5d4cbf1f64db906d1dd29276702df7e9c795ef1746d7a1ca5449c4893f16020604051338152a1005b606460405162461bcd60e51b815260206004820152601360248201527f43616d706169676e3a206e6f7420656e646564000000000000000000000000006044820152fd5b346102bf5760406003193601126102bf5767ffffffffffffffff6004358181116102bf57612e8e903690600401613324565b90916024359081116102bf57612ea8903690600401613324565b612eb39391936148c8565b612ebb613648565b600191825b848110612f7c575060405193604085528060408601527f07ffffffffffffffffffffffffffffffffffffffffffffffffffffffffffffff81116102bf5760059392931b809160608601378301916080606084019382602095606088840301878901525201949260005b828110612f57577e896c158ae8c63b50648f3ace621592a536dc686bb71ea91e8c1a75207e26fd86880387a1005b90919293958635908115158092036102bf579081528201958201939291908301612f29565b612f87818684614016565b3590612f94818589614016565b359182151583036102bf57612fc59215612fca5760005260db6020526040600020600360ff19825416179055614007565b612ec0565b60005260db6020526040600020600260ff19825416179055614007565b346102bf5760406003193601126102bf576130006132f8565b6001600160a01b03906024358280613017836137cc565b16921691808314613123578033149081156130fe575b501561309457600092818452609b602052604084208373ffffffffffffffffffffffffffffffffffffffff19825416179055613068826137cc565b1691604051927f8c5be1e5ebec7d5bd14f71427d1e84f3dd0314c0f7b2291e5b200ac8c7c3b9258585a4f35b608460405162461bcd60e51b815260206004820152603e60248201527f4552433732313a20617070726f76652063616c6c6572206973206e6f7420746f60448201527f6b656e206f776e6572206e6f7220617070726f76656420666f7220616c6c00006064820152fd5b9050600052609c60205260406000203360005260205260ff604060002054168461302d565b608460405162461bcd60e51b815260206004820152602160248201527f4552433732313a20617070726f76616c20746f2063757272656e74206f776e6560448201527f72000000000000000000000000000000000000000000000000000000000000006064820152fd5b346102bf5760206003193601126102bf576020611db56004356137ee565b346102bf5760006003193601126102bf5761090e604051610edb8161071f816133f2565b346102bf5760206003193601126102bf57600435907fffffffff0000000000000000000000000000000000000000000000000000000082168092036102bf57817f80ac58cd0000000000000000000000000000000000000000000000000000000060209314908115613274575b811561324a575b5015158152f35b7f01ffc9a70000000000000000000000000000000000000000000000000000000091501483613243565b7f5b5e139f000000000000000000000000000000000000000000000000000000008114915061323c565b918091926000905b8282106132be5750116132b7575050565b6000910152565b915080602091830151818601520182916132a6565b90601f19601f6020936132f18151809281875287808801910161329e565b0116010190565b600435906001600160a01b03821682036102bf57565b602435906001600160a01b03821682036102bf57565b9181601f840112156102bf5782359167ffffffffffffffff83116102bf576020808501948460051b0101116102bf57565b60031960609101126102bf576001600160a01b039060043582811681036102bf579160243590811681036102bf579060443590565b9181601f840112156102bf5782359167ffffffffffffffff83116102bf57602083818601950101116102bf57565b90600182811c921680156133e8575b60208310146133d257565b634e487b7160e01b600052602260045260246000fd5b91607f16916133c7565b60975460009291613402826133b8565b80825291600190818116908115613479575060011461342057505050565b9192935060976000527f354a83ed9988f79f6038d4c7a7dadbad8af32f4ad6df893e0e5807a1b1944ff9916000925b84841061346157505060209250010190565b8054602085850181019190915290930192810161344f565b9050602094955060ff1991509291921683830152151560051b010190565b90600092918054916134a8836133b8565b91828252600193848116908160001461350a57506001146134ca575b50505050565b90919394506000526020928360002092846000945b8386106134f65750505050010190388080806134c4565b8054858701830152940193859082016134df565b915050602094955060ff199193501683830152151560051b010190388080806134c4565b6040810190811067ffffffffffffffff82111761068557604052565b6060810190811067ffffffffffffffff82111761068557604052565b6020810190811067ffffffffffffffff82111761068557604052565b6080810190811067ffffffffffffffff82111761068557604052565b90601f601f19910116810190811067ffffffffffffffff82111761068557604052565b67ffffffffffffffff811161068557601f01601f191660200190565b9291926135e9826135c1565b916135f7604051938461359e565b8294818452818301116102bf578281602093846000960137010152565b9080601f830112156102bf5781602061362f933591016135dd565b90565b60031960409101126102bf576004359060243590565b6001600160a01b0360335416330361365c57565b606460405162461bcd60e51b815260206004820152602060248201527f4f776e61626c653a2063616c6c6572206973206e6f7420746865206f776e65726044820152fd5b603354906001600160a01b03809116918273ffffffffffffffffffffffffffffffffffffffff19821617603355167f8be0079c531659141344cd1fd0a4f28419497f9722a3daafe3b4186f6b6457e06000604051a3565b6001600160a01b0316801561371757600052609a60205260406000205490565b608460405162461bcd60e51b815260206004820152602960248201527f4552433732313a2061646472657373207a65726f206973206e6f74206120766160448201527f6c6964206f776e657200000000000000000000000000000000000000000000006064820152fd5b1561378857565b606460405162461bcd60e51b815260206004820152601860248201527f4552433732313a20696e76616c696420746f6b656e20494400000000000000006044820152fd5b60005260996020526001600160a01b036040600020541661362f811515613781565b6138166138118260005260996020526001600160a01b0360406000205416151590565b613781565b600052609b6020526001600160a01b036040600020541690565b1561383757565b608460405162461bcd60e51b815260206004820152602e60248201527f4552433732313a2063616c6c6572206973206e6f7420746f6b656e206f776e6560448201527f72206e6f7220617070726f7665640000000000000000000000000000000000006064820152fd5b156138a857565b60405162461bcd60e51b815260206004820152603260248201527f4552433732313a207472616e7366657220746f206e6f6e20455243373231526560448201527f63656976657220696d706c656d656e74657200000000000000000000000000006064820152608490fd5b0390fd5b906001600160a01b03808061392b846137cc565b1693169183831493841561395e575b508315613948575b50505090565b613954919293506137ee565b1614388080613942565b909350600052609c60205260406000208260005260205260ff60406000205416923861393a565b818110611f47570390565b81198111611f47570190565b6139a5836137cc565b916001600160a01b0392838093169283911603613b60578216918215613af75781613ab357600090848252609b602052604082209073ffffffffffffffffffffffffffffffffffffffff1991828154169055613a00866137cc565b16908583604051937f8c5be1e5ebec7d5bd14f71427d1e84f3dd0314c0f7b2291e5b200ac8c7c3b9258286a4838352609a60205260408320805460018110613a9f57600019019055848352609a6020526040832080546001198111613a9f5760010190558583526099602052604083208054909116851790557fddf252ad1be2c89b69c2b068fc378daa952ba7f163c4a11628f55a4df523b3ef9190a4565b602485634e487b7160e01b81526011600452fd5b606460405162461bcd60e51b815260206004820152601c60248201527f43616d706169676e3a20436f756c64206e6f74207472616e73666572000000006044820152fd5b608460405162461bcd60e51b8152602060048201526024808201527f4552433732313a207472616e7366657220746f20746865207a65726f2061646460448201527f72657373000000000000000000000000000000000000000000000000000000006064820152fd5b608460405162461bcd60e51b815260206004820152602560248201527f4552433732313a207472616e736665722066726f6d20696e636f72726563742060448201527f6f776e65720000000000000000000000000000000000000000000000000000006064820152fd5b3d15613bf5573d90613bdb826135c1565b91613be9604051938461359e565b82523d6000602084013e565b606090565b9091600091803b15613d8757613c666020916001600160a01b0393856040519586809581947f150b7a02000000000000000000000000000000000000000000000000000000009b8c845233600485015285602485015260448401526080606484015260848301906132d3565b0393165af190829082613d20575b5050613cfa57613c82613bca565b80519081613cf55760405162461bcd60e51b815260206004820152603260248201527f4552433732313a207472616e7366657220746f206e6f6e20455243373231526560448201527f63656976657220696d706c656d656e74657200000000000000000000000000006064820152608490fd5b602001fd5b7fffffffff00000000000000000000000000000000000000000000000000000000161490565b909192506020813d8211613d7f575b81613d3c6020938361359e565b81010312613d7b5751907fffffffff0000000000000000000000000000000000000000000000000000000082168203613d785750903880613c74565b80fd5b5080fd5b3d9150613d2f565b50505050600190565b91926000929190813b15613e0057602091613c6691856040519586809581947f150b7a02000000000000000000000000000000000000000000000000000000009b8c84523360048501526001600160a01b03809516602485015260448401526080606484015260848301906132d3565b5050505050600190565b601f8111613e16575050565b60009060cc82527f47197230e1e4b29fc0bd84d7d78966c0925452aff72a2a121538b102457e9ebe906020601f850160051c83019410613e71575b601f0160051c01915b828110613e6657505050565b818155600101613e5a565b9092508290613e51565b6001600160a01b031690604051613e918161352e565b6020928382527f5361666545524332303a206c6f772d6c6576656c2063616c6c206661696c656484830152803b15613f835790613ee69160008481959282888195519301915af1613ee0613bca565b90613fc7565b805180613ef35750505050565b81849181010312613d7b5782015190811591821503613d785750613f19578080806134c4565b6084906040519062461bcd60e51b82526004820152602a60248201527f5361666545524332303a204552433230206f7065726174696f6e20646964206e60448201527f6f742073756363656564000000000000000000000000000000000000000000006064820152fd5b6064846040519062461bcd60e51b82526004820152601d60248201527f416464726573733a2063616c6c20746f206e6f6e2d636f6e74726163740000006044820152fd5b90919015613fd3575090565b815115613fe35750805190602001fd5b6139139060405191829162461bcd60e51b83526020600484015260248301906132d3565b6000198114611f475760010190565b91908110156140265760051b0190565b634e487b7160e01b600052603260045260246000fd5b62030d40908060001904821181151516611f47570290565b620186a0908060001904821181151516611f47570290565b8060001904603c1181151516611f4757603c0290565b8060001904601e1181151516611f4757601e0290565b8060001904821181151516611f47570290565b81156140b5570490565b634e487b7160e01b600052601260045260246000fd5b6000606060cd546140e660ce54916120c460cf548094614098565b42111561410e575050506040519060006020830152602082526141088261352e565b60019190565b61411e9060d09492939454613990565b421161412657565b9150506040519060016020830152602082526141088261352e565b8051156142d157604051906141558261354a565b604082527f4142434445464748494a4b4c4d4e4f505152535455565758595a61626364656660208301527f6768696a6b6c6d6e6f707172737475767778797a303132333435363738392b2f60408301528051907ffffffffffffffffffffffffffffffffffffffffffffffffffffffffffffffffd8211611f4757600390816002809401046001907f3fffffffffffffffffffffffffffffffffffffffffffffffffffffffffffffff81118216611f4757841b94939061422c614216876135c1565b96614224604051988961359e565b8088526135c1565b601f1960208801910136823794839284518501935b84811061428057505050505051068060011461426d57600214614262575090565b600019603d91015390565b5060011981603d60001981940153015390565b866004919892939495980191858351603f9082828260121c16890101518453828282600c1c16890101518385015382828260061c168901015187850153168601015188820153019693929190614241565b506040516142de81613566565b6000815290565b60ff60cb541660059081811015612033576004809103614393575b505060407f7cb904b3cfc4c896696085c26766cebf2de422ae3864a0112b5e2fd9ec1efaf891600081815260db602052600183822001541560001461437457805b614358826001600160a01b0360c9541633906145d4565b82815260db6020526001848220015582519182526020820152a1565b61438d600184832001546120c460d65460d954906140ab565b90614341565b60cd93919354926143ae60ce946120c4865460cf5490614098565b4211156145905760d29081549160d99283556000945b81548610156145085760005b87548110156144fb5780600052602060da815260408060002089600052825261071f61440482600020835192838092613497565b511561441a57505061441590614007565b6143d0565b90915087600098939594985260db80835260019061444982846000200154611eb2620f424080611e808461403c565b61445660d6918254613990565b90558460005283526000818382200155816000208b60ff1982541617905586549081106144e657600019018655518281526144de92917f939e6ef49701507f032296ab644b4aebf199222450de6622bb5f9550c7a7820991a17f8990a2cca2ad5b32ae72395c0db570652316a7903178764820232d8fe5d2b3556020604051838152a1614007565b9490916143c4565b601188634e487b7160e01b6000525260246000fd5b509190946144de90611f12565b96505091907f7cb904b3cfc4c896696085c26766cebf2de422ae3864a0112b5e2fd9ec1efaf89450604093505415614575575b60ff1960cb54161760cb557f7069a5d4cbf1f64db906d1dd29276702df7e9c795ef1746d7a1ca5449c4893f160208351338152a191614300565b61458360d65460d854613990565b60d855600060d65561453b565b60648260206040519162461bcd60e51b8352820152601360248201527f43616d706169676e3a206e6f7420656e646564000000000000000000000000006044820152fd5b614627926001600160a01b03604051937fa9059cbb00000000000000000000000000000000000000000000000000000000602086015216602484015260448301526044825261462282613582565b613e7b565b565b7f7a1c31090abe490bfd8379cbbaeef735a3e3c87ee34925f16d0fa3ff4e061155606060d754600060d7556146cd6001600160a01b0361466f838260c9541633906145d4565b60c9541660d85490604051917fa9059cbb00000000000000000000000000000000000000000000000000000000602084015273d8da6bf26964af9d7eed9e03e53415d37aa96045602484015260448301526044825261462282613582565b60d8546040519133835260208301526040820152a1565b60d05460cf54906146f58282613990565b421161477a575b505060d1547fb33a1f54dde4e0082c45281b338d78b2c4b5be163b6ffffa5d0d6d1050ba5a586020604051838152a160ce54111561473657565b606460405162461bcd60e51b815260206004820152601d60248201527f43616d706169676e3a20636865636b45706f636820746f6f206c6174650000006044820152fd5b6120c4826147946147a99461478f8542613985565b6140ab565b906147a18260d154613990565b60d155614098565b60d05538806146fc565b6147bc906137cc565b6001600160a01b03339116036147ce57565b606460405162461bcd60e51b815260206004820152601a60248201527f43616d706169676e3a206e6f7420746f6b656e20686f6c6465720000000000006044820152fd5b60005260db60205260ff6040600020541660078110156120335760030361483557565b606460405162461bcd60e51b815260206004820152601660248201527f43616d706169676e3a206e6f742061646d6974746564000000000000000000006044820152fd5b60d354111561488457565b606460405162461bcd60e51b815260206004820152601a60248201527f4368616c6c656e67655265636f72643a206e6f742065786973740000000000006044820152fd5b60cd544210156148d457565b606460405162461bcd60e51b815260206004820152601960248201527f43616d706169676e3a20616c72656164792073746172746564000000000000006044820152fd5b60cd54421061492357565b606460405162461bcd60e51b815260206004820152601360248201527f43616d706169676e3a206e6f74207374617274000000000000000000000000006044820152fd5b60d35460d4540361497457565b606460405162461bcd60e51b815260206004820152601960248201527f4368616c6c656e67653a206e6f7420616c6c206a7564676564000000000000006044820152fd5b60d55460646149c860d254614082565b04116149d057565b606460405162461bcd60e51b815260206004820152601c60248201527f43616d706169676e3a206e6f7420656e6f7567682063686561746572000000006044820152fdfea2646970667358221220934077a3c40ee2b377e4e0762a401dd550cc6c2562bbaf723ee85628664a4fa164736f6c634300080f0033",
  "devdoc": {
    "details": "for implementation of erc1167 implementation",
    "kind": "dev",
    "methods": {
      "admit(uint256[])": {
        "details": "campaign owner admit several address to participate this campaign",
        "params": {
          "allowlists": "allowed tokenId array"
        }
      },
      "approve(address,uint256)": {
        "details": "See {IERC721-approve}."
      },
      "balanceOf(address)": {
        "details": "See {IERC721-balanceOf}."
      },
      "checkIn(string,uint256)": {
        "details": "user check in",
        "params": {
          "contentUri": "string of ipfs uri or other decentralize storage"
        }
      },
      "claim(uint256)": {
        "details": "user claim reward after campaign settled"
      },
      "claimAndWithdraw(uint256)": {
        "details": "host who participate the campaign claim reward and withdraw host reward"
      },
      "getApproved(uint256)": {
        "details": "See {IERC721-getApproved}."
      },
      "getTokenProperties(uint256)": {
        "details": "read Token properties"
      },
      "isApprovedForAll(address,address)": {
        "details": "See {IERC721-isApprovedForAll}."
      },
      "modifyRegistry(uint256[],bool[])": {
        "details": "once campaign owner admit some address by mistakecan modify via this function but more gas-expensive",
        "params": {
          "lists": "modified tokenId list array",
          "targetStatuses": "corresponding status array"
        }
      },
      "name()": {
        "details": "See {IERC721Metadata-name}."
      },
      "owner()": {
        "details": "Returns the address of the current owner."
      },
      "ownerOf(uint256)": {
        "details": "See {IERC721-ownerOf}."
      },
      "performUpkeep(bytes)": {
        "details": "The input to this method should not be trusted, and the caller of the method should not even be restricted to any single registry. Anyone should be able call it, and the input should be validated, there is no guarantee that the data passed in is the performData returned from checkUpkeep. This could happen due to malicious keepers, racing keepers, or simply a state change while the performUpkeep transaction is waiting for confirmation. Always validate the data passed in.",
        "params": {
          "performData": "is the data which was passed back from the checkData simulation. If it is encoded, it can easily be decoded into other types by calling `abi.decode`. This data should not be trusted, and should be validated against the contract's current state."
        }
      },
      "renounceOwnership()": {
        "details": "Leaves the contract without owner. It will not be possible to call `onlyOwner` functions anymore. Can only be called by the current owner. NOTE: Renouncing ownership will leave the contract without an owner, thereby removing any functionality that is only available to the owner."
      },
      "safeTransferFrom(address,address,uint256)": {
        "details": "See {IERC721-safeTransferFrom}."
      },
      "safeTransferFrom(address,address,uint256,bytes)": {
        "details": "See {IERC721-safeTransferFrom}."
      },
      "setApprovalForAll(address,bool)": {
        "details": "See {IERC721-setApprovalForAll}."
      },
      "settle()": {
        "details": "everyone can call the function to settle reward"
      },
      "signUp()": {
        "details": "user stake token and want to participate this campaign"
      },
      "supportsInterface(bytes4)": {
        "details": "See {IERC165-supportsInterface}."
      },
      "symbol()": {
        "details": "See {IERC721Metadata-symbol}."
      },
      "tokenURI(uint256)": {
        "details": "See {IERC721Metadata-tokenURI}."
      },
      "transferFrom(address,address,uint256)": {
        "details": "See {IERC721-transferFrom}."
      },
      "transferOwnership(address)": {
        "details": "Transfers ownership of the contract to a new account (`newOwner`). Can only be called by the current owner."
      },
      "withdraw()": {
        "details": "host withdraw host reward"
      }
    },
    "version": 1
  },
  "userdoc": {
    "kind": "user",
    "methods": {
      "performUpkeep(bytes)": {
        "notice": "method that is actually executed by the keepers, via the registry. The data returned by the checkUpkeep simulation will be passed into this method to actually be executed."
      }
    },
    "version": 1
  },
  "storageLayout": {
    "storage": [
      {
        "astId": 464,
        "contract": "contracts/Campaign.sol:Campaign",
        "label": "_initialized",
        "offset": 0,
        "slot": "0",
        "type": "t_uint8"
      },
      {
        "astId": 467,
        "contract": "contracts/Campaign.sol:Campaign",
        "label": "_initializing",
        "offset": 1,
        "slot": "0",
        "type": "t_bool"
      },
      {
        "astId": 2340,
        "contract": "contracts/Campaign.sol:Campaign",
        "label": "__gap",
        "offset": 0,
        "slot": "1",
        "type": "t_array(t_uint256)50_storage"
      },
      {
        "astId": 336,
        "contract": "contracts/Campaign.sol:Campaign",
        "label": "_owner",
        "offset": 0,
        "slot": "51",
        "type": "t_address"
      },
      {
        "astId": 456,
        "contract": "contracts/Campaign.sol:Campaign",
        "label": "__gap",
        "offset": 0,
        "slot": "52",
        "type": "t_array(t_uint256)49_storage"
      },
      {
        "astId": 2610,
        "contract": "contracts/Campaign.sol:Campaign",
        "label": "__gap",
        "offset": 0,
        "slot": "101",
        "type": "t_array(t_uint256)50_storage"
      },
      {
        "astId": 1032,
        "contract": "contracts/Campaign.sol:Campaign",
        "label": "_name",
        "offset": 0,
        "slot": "151",
        "type": "t_string_storage"
      },
      {
        "astId": 1034,
        "contract": "contracts/Campaign.sol:Campaign",
        "label": "_symbol",
        "offset": 0,
        "slot": "152",
        "type": "t_string_storage"
      },
      {
        "astId": 1038,
        "contract": "contracts/Campaign.sol:Campaign",
        "label": "_owners",
        "offset": 0,
        "slot": "153",
        "type": "t_mapping(t_uint256,t_address)"
      },
      {
        "astId": 1042,
        "contract": "contracts/Campaign.sol:Campaign",
        "label": "_balances",
        "offset": 0,
        "slot": "154",
        "type": "t_mapping(t_address,t_uint256)"
      },
      {
        "astId": 1046,
        "contract": "contracts/Campaign.sol:Campaign",
        "label": "_tokenApprovals",
        "offset": 0,
        "slot": "155",
        "type": "t_mapping(t_uint256,t_address)"
      },
      {
        "astId": 1052,
        "contract": "contracts/Campaign.sol:Campaign",
        "label": "_operatorApprovals",
        "offset": 0,
        "slot": "156",
        "type": "t_mapping(t_address,t_mapping(t_address,t_bool))"
      },
      {
        "astId": 1894,
        "contract": "contracts/Campaign.sol:Campaign",
        "label": "__gap",
        "offset": 0,
        "slot": "157",
        "type": "t_array(t_uint256)44_storage"
      },
      {
        "astId": 4003,
        "contract": "contracts/Campaign.sol:Campaign",
        "label": "targetToken",
        "offset": 0,
        "slot": "201",
        "type": "t_contract(IERC20Upgradeable)686"
      },
      {
        "astId": 4005,
        "contract": "contracts/Campaign.sol:Campaign",
        "label": "requiredAmount",
        "offset": 0,
        "slot": "202",
        "type": "t_uint256"
      },
      {
        "astId": 4009,
        "contract": "contracts/Campaign.sol:Campaign",
        "label": "status",
        "offset": 0,
        "slot": "203",
        "type": "t_enum(CampaignStatus)6644"
      },
      {
        "astId": 4011,
        "contract": "contracts/Campaign.sol:Campaign",
        "label": "campaignUri",
        "offset": 0,
        "slot": "204",
        "type": "t_string_storage"
      },
      {
        "astId": 4013,
        "contract": "contracts/Campaign.sol:Campaign",
        "label": "startTime",
        "offset": 0,
        "slot": "205",
        "type": "t_uint256"
      },
      {
        "astId": 4016,
        "contract": "contracts/Campaign.sol:Campaign",
        "label": "totalEpochsCount",
        "offset": 0,
        "slot": "206",
        "type": "t_uint256"
      },
      {
        "astId": 4019,
        "contract": "contracts/Campaign.sol:Campaign",
        "label": "period",
        "offset": 0,
        "slot": "207",
        "type": "t_uint256"
      },
      {
        "astId": 4021,
        "contract": "contracts/Campaign.sol:Campaign",
        "label": "lastEpochEndTime",
        "offset": 0,
        "slot": "208",
        "type": "t_uint256"
      },
      {
        "astId": 4024,
        "contract": "contracts/Campaign.sol:Campaign",
        "label": "currentEpoch",
        "offset": 0,
        "slot": "209",
        "type": "t_uint256"
      },
      {
        "astId": 4026,
        "contract": "contracts/Campaign.sol:Campaign",
        "label": "_idx",
        "offset": 0,
        "slot": "210",
        "type": "t_uint256"
      },
      {
        "astId": 4028,
        "contract": "contracts/Campaign.sol:Campaign",
        "label": "_challengeIdx",
        "offset": 0,
        "slot": "211",
        "type": "t_uint256"
      },
      {
        "astId": 4030,
        "contract": "contracts/Campaign.sol:Campaign",
        "label": "challengeJudgedCount",
        "offset": 0,
        "slot": "212",
        "type": "t_uint256"
      },
      {
        "astId": 4032,
        "contract": "contracts/Campaign.sol:Campaign",
        "label": "cheatCount",
        "offset": 0,
        "slot": "213",
        "type": "t_uint256"
      },
      {
        "astId": 4034,
        "contract": "contracts/Campaign.sol:Campaign",
        "label": "sharedReward",
        "offset": 0,
        "slot": "214",
        "type": "t_uint256"
      },
      {
        "astId": 4036,
        "contract": "contracts/Campaign.sol:Campaign",
        "label": "hostReward",
        "offset": 0,
        "slot": "215",
        "type": "t_uint256"
      },
      {
        "astId": 4038,
        "contract": "contracts/Campaign.sol:Campaign",
        "label": "protocolFee",
        "offset": 0,
        "slot": "216",
        "type": "t_uint256"
      },
      {
        "astId": 4040,
        "contract": "contracts/Campaign.sol:Campaign",
        "label": "successTokensCount",
        "offset": 0,
        "slot": "217",
        "type": "t_uint256"
      },
      {
        "astId": 4047,
        "contract": "contracts/Campaign.sol:Campaign",
        "label": "records",
        "offset": 0,
        "slot": "218",
        "type": "t_mapping(t_uint256,t_mapping(t_uint256,t_struct(Record)6981_storage))"
      },
      {
        "astId": 4052,
        "contract": "contracts/Campaign.sol:Campaign",
        "label": "s_properties",
        "offset": 0,
        "slot": "219",
        "type": "t_mapping(t_uint256,t_struct(TokenProperty)6970_storage)"
      },
      {
        "astId": 4059,
        "contract": "contracts/Campaign.sol:Campaign",
        "label": "voters",
        "offset": 0,
        "slot": "220",
        "type": "t_mapping(t_uint256,t_mapping(t_uint256,t_struct(Voter)6945_storage))"
      },
      {
        "astId": 4064,
        "contract": "contracts/Campaign.sol:Campaign",
        "label": "challengeRecords",
        "offset": 0,
        "slot": "221",
        "type": "t_mapping(t_uint256,t_struct(ChallengeRecord)6964_storage)"
      },
      {
        "astId": 4068,
        "contract": "contracts/Campaign.sol:Campaign",
        "label": "challengedRecords",
        "offset": 0,
        "slot": "222",
        "type": "t_mapping(t_bytes32,t_bool)"
      }
    ],
    "types": {
      "t_address": {
        "encoding": "inplace",
        "label": "address",
        "numberOfBytes": "20"
      },
      "t_array(t_uint256)44_storage": {
        "base": "t_uint256",
        "encoding": "inplace",
        "label": "uint256[44]",
        "numberOfBytes": "1408"
      },
      "t_array(t_uint256)49_storage": {
        "base": "t_uint256",
        "encoding": "inplace",
        "label": "uint256[49]",
        "numberOfBytes": "1568"
      },
      "t_array(t_uint256)50_storage": {
        "base": "t_uint256",
        "encoding": "inplace",
        "label": "uint256[50]",
        "numberOfBytes": "1600"
      },
      "t_bool": {
        "encoding": "inplace",
        "label": "bool",
        "numberOfBytes": "1"
      },
      "t_bytes32": {
        "encoding": "inplace",
        "label": "bytes32",
        "numberOfBytes": "32"
      },
      "t_contract(IERC20Upgradeable)686": {
        "encoding": "inplace",
        "label": "contract IERC20Upgradeable",
        "numberOfBytes": "20"
      },
      "t_enum(CampaignStatus)6644": {
        "encoding": "inplace",
        "label": "enum Consts.CampaignStatus",
        "numberOfBytes": "1"
      },
      "t_enum(TokenStatus)6978": {
        "encoding": "inplace",
        "label": "enum ICampaign.TokenStatus",
        "numberOfBytes": "1"
      },
      "t_mapping(t_address,t_bool)": {
        "encoding": "mapping",
        "key": "t_address",
        "label": "mapping(address => bool)",
        "numberOfBytes": "32",
        "value": "t_bool"
      },
      "t_mapping(t_address,t_mapping(t_address,t_bool))": {
        "encoding": "mapping",
        "key": "t_address",
        "label": "mapping(address => mapping(address => bool))",
        "numberOfBytes": "32",
        "value": "t_mapping(t_address,t_bool)"
      },
      "t_mapping(t_address,t_uint256)": {
        "encoding": "mapping",
        "key": "t_address",
        "label": "mapping(address => uint256)",
        "numberOfBytes": "32",
        "value": "t_uint256"
      },
      "t_mapping(t_bytes32,t_bool)": {
        "encoding": "mapping",
        "key": "t_bytes32",
        "label": "mapping(bytes32 => bool)",
        "numberOfBytes": "32",
        "value": "t_bool"
      },
      "t_mapping(t_uint256,t_address)": {
        "encoding": "mapping",
        "key": "t_uint256",
        "label": "mapping(uint256 => address)",
        "numberOfBytes": "32",
        "value": "t_address"
      },
      "t_mapping(t_uint256,t_mapping(t_uint256,t_struct(Record)6981_storage))": {
        "encoding": "mapping",
        "key": "t_uint256",
        "label": "mapping(uint256 => mapping(uint256 => struct ICampaign.Record))",
        "numberOfBytes": "32",
        "value": "t_mapping(t_uint256,t_struct(Record)6981_storage)"
      },
      "t_mapping(t_uint256,t_mapping(t_uint256,t_struct(Voter)6945_storage))": {
        "encoding": "mapping",
        "key": "t_uint256",
        "label": "mapping(uint256 => mapping(uint256 => struct ICampaign.Voter))",
        "numberOfBytes": "32",
        "value": "t_mapping(t_uint256,t_struct(Voter)6945_storage)"
      },
      "t_mapping(t_uint256,t_struct(ChallengeRecord)6964_storage)": {
        "encoding": "mapping",
        "key": "t_uint256",
        "label": "mapping(uint256 => struct ICampaign.ChallengeRecord)",
        "numberOfBytes": "32",
        "value": "t_struct(ChallengeRecord)6964_storage"
      },
      "t_mapping(t_uint256,t_struct(Record)6981_storage)": {
        "encoding": "mapping",
        "key": "t_uint256",
        "label": "mapping(uint256 => struct ICampaign.Record)",
        "numberOfBytes": "32",
        "value": "t_struct(Record)6981_storage"
      },
      "t_mapping(t_uint256,t_struct(TokenProperty)6970_storage)": {
        "encoding": "mapping",
        "key": "t_uint256",
        "label": "mapping(uint256 => struct ICampaign.TokenProperty)",
        "numberOfBytes": "32",
        "value": "t_struct(TokenProperty)6970_storage"
      },
      "t_mapping(t_uint256,t_struct(Voter)6945_storage)": {
        "encoding": "mapping",
        "key": "t_uint256",
        "label": "mapping(uint256 => struct ICampaign.Voter)",
        "numberOfBytes": "32",
        "value": "t_struct(Voter)6945_storage"
      },
      "t_string_storage": {
        "encoding": "bytes",
        "label": "string",
        "numberOfBytes": "32"
      },
      "t_struct(ChallengeRecord)6964_storage": {
        "encoding": "inplace",
        "label": "struct ICampaign.ChallengeRecord",
        "members": [
          {
            "astId": 6947,
            "contract": "contracts/Campaign.sol:Campaign",
            "label": "challengerId",
            "offset": 0,
            "slot": "0",
            "type": "t_uint256"
          },
          {
            "astId": 6949,
            "contract": "contracts/Campaign.sol:Campaign",
            "label": "cheaterId",
            "offset": 0,
            "slot": "1",
            "type": "t_uint256"
          },
          {
            "astId": 6951,
            "contract": "contracts/Campaign.sol:Campaign",
            "label": "epoch",
            "offset": 0,
            "slot": "2",
            "type": "t_uint256"
          },
          {
            "astId": 6953,
            "contract": "contracts/Campaign.sol:Campaign",
            "label": "agreeCount",
            "offset": 0,
            "slot": "3",
            "type": "t_uint256"
          },
          {
            "astId": 6955,
            "contract": "contracts/Campaign.sol:Campaign",
            "label": "disagreeCount",
            "offset": 0,
            "slot": "4",
            "type": "t_uint256"
          },
          {
            "astId": 6957,
            "contract": "contracts/Campaign.sol:Campaign",
            "label": "challengeRiseTime",
            "offset": 0,
            "slot": "5",
            "type": "t_uint256"
          },
          {
            "astId": 6959,
            "contract": "contracts/Campaign.sol:Campaign",
            "label": "result",
            "offset": 0,
            "slot": "6",
            "type": "t_bool"
          },
          {
            "astId": 6961,
            "contract": "contracts/Campaign.sol:Campaign",
            "label": "state",
            "offset": 1,
            "slot": "6",
            "type": "t_bool"
          },
          {
            "astId": 6963,
            "contract": "contracts/Campaign.sol:Campaign",
            "label": "legal",
            "offset": 2,
            "slot": "6",
            "type": "t_bool"
          }
        ],
        "numberOfBytes": "224"
      },
      "t_struct(Record)6981_storage": {
        "encoding": "inplace",
        "label": "struct ICampaign.Record",
        "members": [
          {
            "astId": 6980,
            "contract": "contracts/Campaign.sol:Campaign",
            "label": "contentUri",
            "offset": 0,
            "slot": "0",
            "type": "t_string_storage"
          }
        ],
        "numberOfBytes": "32"
      },
      "t_struct(TokenProperty)6970_storage": {
        "encoding": "inplace",
        "label": "struct ICampaign.TokenProperty",
        "members": [
          {
            "astId": 6967,
            "contract": "contracts/Campaign.sol:Campaign",
            "label": "tokenStatus",
            "offset": 0,
            "slot": "0",
            "type": "t_enum(TokenStatus)6978"
          },
          {
            "astId": 6969,
            "contract": "contracts/Campaign.sol:Campaign",
            "label": "pendingReward",
            "offset": 0,
            "slot": "1",
            "type": "t_uint256"
          }
        ],
        "numberOfBytes": "64"
      },
      "t_struct(Voter)6945_storage": {
        "encoding": "inplace",
        "label": "struct ICampaign.Voter",
        "members": [
          {
            "astId": 6942,
            "contract": "contracts/Campaign.sol:Campaign",
            "label": "voted",
            "offset": 0,
            "slot": "0",
            "type": "t_bool"
          },
          {
            "astId": 6944,
            "contract": "contracts/Campaign.sol:Campaign",
            "label": "choice",
            "offset": 1,
            "slot": "0",
            "type": "t_bool"
          }
        ],
        "numberOfBytes": "32"
      },
      "t_uint256": {
        "encoding": "inplace",
        "label": "uint256",
        "numberOfBytes": "32"
      },
      "t_uint8": {
        "encoding": "inplace",
        "label": "uint8",
        "numberOfBytes": "1"
      }
    }
  }
}