{
  "address": "0x0951546eDbB98AF007145c9837A4A3D30Fac2e91",
  "abi": [
    {
      "inputs": [
        {
          "internalType": "contract IRenderer",
          "name": "render_",
          "type": "address"
        }
      ],
      "stateMutability": "nonpayable",
      "type": "constructor"
    },
    {
      "inputs": [],
      "name": "OnlySimulatedBackend",
      "type": "error"
    },
    {
      "anonymous": false,
      "inputs": [
        {
          "indexed": true,
          "internalType": "address",
          "name": "owner",
          "type": "address"
        },
        {
          "indexed": true,
          "internalType": "address",
          "name": "approved",
          "type": "address"
        },
        {
          "indexed": true,
          "internalType": "uint256",
          "name": "tokenId",
          "type": "uint256"
        }
      ],
      "name": "Approval",
      "type": "event"
    },
    {
      "anonymous": false,
      "inputs": [
        {
          "indexed": true,
          "internalType": "address",
          "name": "owner",
          "type": "address"
        },
        {
          "indexed": true,
          "internalType": "address",
          "name": "operator",
          "type": "address"
        },
        {
          "indexed": false,
          "internalType": "bool",
          "name": "approved",
          "type": "bool"
        }
      ],
      "name": "ApprovalForAll",
      "type": "event"
    },
    {
      "anonymous": false,
      "inputs": [
        {
          "indexed": false,
          "internalType": "uint256",
          "name": "currentEpoch",
          "type": "uint256"
        }
      ],
      "name": "EpochUpdated",
      "type": "event"
    },
    {
      "anonymous": false,
      "inputs": [
        {
          "indexed": false,
          "internalType": "string",
          "name": "newUri",
          "type": "string"
        }
      ],
      "name": "EvCampaignUriSet",
      "type": "event"
    },
    {
      "anonymous": false,
      "inputs": [
        {
          "indexed": false,
          "internalType": "uint256",
          "name": "challengerId",
          "type": "uint256"
        },
        {
          "indexed": false,
          "internalType": "uint256",
          "name": "cheaterId",
          "type": "uint256"
        },
        {
          "indexed": false,
          "internalType": "uint256",
          "name": "challengeRecordId",
          "type": "uint256"
        }
      ],
      "name": "EvChallenge",
      "type": "event"
    },
    {
      "anonymous": false,
      "inputs": [
        {
          "indexed": false,
          "internalType": "uint256",
          "name": "cheaterId",
          "type": "uint256"
        }
      ],
      "name": "EvCheat",
      "type": "event"
    },
    {
      "anonymous": false,
      "inputs": [
        {
          "indexed": false,
          "internalType": "uint256",
          "name": "epoch",
          "type": "uint256"
        },
        {
          "indexed": false,
          "internalType": "uint256",
          "name": "tokenId",
          "type": "uint256"
        },
        {
          "indexed": false,
          "internalType": "string",
          "name": "contentUri",
          "type": "string"
        }
      ],
      "name": "EvCheckIn",
      "type": "event"
    },
    {
      "anonymous": false,
      "inputs": [
        {
          "indexed": false,
          "internalType": "uint256",
          "name": "tokenId",
          "type": "uint256"
        },
        {
          "indexed": false,
          "internalType": "uint256",
          "name": "amount",
          "type": "uint256"
        }
      ],
      "name": "EvClaimReward",
      "type": "event"
    },
    {
      "anonymous": false,
      "inputs": [
        {
          "indexed": false,
          "internalType": "uint256",
          "name": "tokenId",
          "type": "uint256"
        }
      ],
      "name": "EvFailure",
      "type": "event"
    },
    {
      "anonymous": false,
      "inputs": [
        {
          "indexed": false,
          "internalType": "uint256",
          "name": "challengeRecordId",
          "type": "uint256"
        }
      ],
      "name": "EvJudgement",
      "type": "event"
    },
    {
      "anonymous": false,
      "inputs": [
        {
          "indexed": false,
          "internalType": "uint256[]",
          "name": "tokenList",
          "type": "uint256[]"
        },
        {
          "indexed": false,
          "internalType": "bool[]",
          "name": "status",
          "type": "bool[]"
        }
      ],
      "name": "EvModifyRegistry",
      "type": "event"
    },
    {
      "anonymous": false,
      "inputs": [
        {
          "indexed": false,
          "internalType": "uint256",
          "name": "tokenId",
          "type": "uint256"
        }
      ],
      "name": "EvRegisterSuccessfully",
      "type": "event"
    },
    {
      "anonymous": false,
      "inputs": [
        {
          "indexed": false,
          "internalType": "address",
          "name": "user",
          "type": "address"
        }
      ],
      "name": "EvSettle",
      "type": "event"
    },
    {
      "anonymous": false,
      "inputs": [
        {
          "indexed": false,
          "internalType": "uint256",
          "name": "tokenId",
          "type": "uint256"
        }
      ],
      "name": "EvSignUp",
      "type": "event"
    },
    {
      "anonymous": false,
      "inputs": [
        {
          "indexed": false,
          "internalType": "uint256",
          "name": "tokenId",
          "type": "uint256"
        }
      ],
      "name": "EvSuccess",
      "type": "event"
    },
    {
      "anonymous": false,
      "inputs": [
        {
          "indexed": false,
          "internalType": "uint256",
          "name": "tokenId",
          "type": "uint256"
        },
        {
          "indexed": false,
          "internalType": "uint256",
          "name": "challengeRecordId",
          "type": "uint256"
        }
      ],
      "name": "EvVote",
      "type": "event"
    },
    {
      "anonymous": false,
      "inputs": [
        {
          "indexed": false,
          "internalType": "address",
          "name": "host",
          "type": "address"
        },
        {
          "indexed": false,
          "internalType": "uint256",
          "name": "hostReward",
          "type": "uint256"
        },
        {
          "indexed": false,
          "internalType": "uint256",
          "name": "protocolFee",
          "type": "uint256"
        }
      ],
      "name": "EvWithDraw",
      "type": "event"
    },
    {
      "anonymous": false,
      "inputs": [
        {
          "indexed": false,
          "internalType": "uint8",
          "name": "version",
          "type": "uint8"
        }
      ],
      "name": "Initialized",
      "type": "event"
    },
    {
      "anonymous": false,
      "inputs": [
        {
          "indexed": true,
          "internalType": "address",
          "name": "previousOwner",
          "type": "address"
        },
        {
          "indexed": true,
          "internalType": "address",
          "name": "newOwner",
          "type": "address"
        }
      ],
      "name": "OwnershipTransferred",
      "type": "event"
    },
    {
      "anonymous": false,
      "inputs": [
        {
          "indexed": true,
          "internalType": "address",
          "name": "from",
          "type": "address"
        },
        {
          "indexed": true,
          "internalType": "address",
          "name": "to",
          "type": "address"
        },
        {
          "indexed": true,
          "internalType": "uint256",
          "name": "tokenId",
          "type": "uint256"
        }
      ],
      "name": "Transfer",
      "type": "event"
    },
    {
      "inputs": [],
      "name": "_challengeIdx",
      "outputs": [
        {
          "internalType": "uint256",
          "name": "",
          "type": "uint256"
        }
      ],
      "stateMutability": "view",
      "type": "function"
    },
    {
      "inputs": [],
      "name": "_idx",
      "outputs": [
        {
          "internalType": "uint256",
          "name": "",
          "type": "uint256"
        }
      ],
      "stateMutability": "view",
      "type": "function"
    },
    {
      "inputs": [
        {
          "internalType": "uint256[]",
          "name": "allowlists",
          "type": "uint256[]"
        }
      ],
      "name": "admit",
      "outputs": [],
      "stateMutability": "nonpayable",
      "type": "function"
    },
    {
      "inputs": [
        {
          "internalType": "address",
          "name": "to",
          "type": "address"
        },
        {
          "internalType": "uint256",
          "name": "tokenId",
          "type": "uint256"
        }
      ],
      "name": "approve",
      "outputs": [],
      "stateMutability": "nonpayable",
      "type": "function"
    },
    {
      "inputs": [
        {
          "internalType": "address",
          "name": "owner",
          "type": "address"
        }
      ],
      "name": "balanceOf",
      "outputs": [
        {
          "internalType": "uint256",
          "name": "",
          "type": "uint256"
        }
      ],
      "stateMutability": "view",
      "type": "function"
    },
    {
      "inputs": [],
      "name": "campaignUri",
      "outputs": [
        {
          "internalType": "string",
          "name": "",
          "type": "string"
        }
      ],
      "stateMutability": "view",
      "type": "function"
    },
    {
      "inputs": [
        {
          "internalType": "uint256",
          "name": "challengerId",
          "type": "uint256"
        },
        {
          "internalType": "uint256",
          "name": "cheaterId",
          "type": "uint256"
        },
        {
          "internalType": "uint256",
          "name": "epoch",
          "type": "uint256"
        }
      ],
      "name": "challenge",
      "outputs": [],
      "stateMutability": "nonpayable",
      "type": "function"
    },
    {
      "inputs": [],
      "name": "challengeJudgedCount",
      "outputs": [
        {
          "internalType": "uint256",
          "name": "",
          "type": "uint256"
        }
      ],
      "stateMutability": "view",
      "type": "function"
    },
    {
      "inputs": [],
      "name": "challengeLength",
      "outputs": [
        {
          "internalType": "uint256",
          "name": "",
          "type": "uint256"
        }
      ],
      "stateMutability": "view",
      "type": "function"
    },
    {
      "inputs": [
        {
          "internalType": "uint256",
          "name": "",
          "type": "uint256"
        }
      ],
      "name": "challengeList",
      "outputs": [
        {
          "internalType": "uint256",
          "name": "",
          "type": "uint256"
        }
      ],
      "stateMutability": "view",
      "type": "function"
    },
    {
      "inputs": [
        {
          "internalType": "uint256",
          "name": "",
          "type": "uint256"
        }
      ],
      "name": "challengeRecords",
      "outputs": [
        {
          "internalType": "uint256",
          "name": "challengerId",
          "type": "uint256"
        },
        {
          "internalType": "uint256",
          "name": "cheaterId",
          "type": "uint256"
        },
        {
          "internalType": "uint256",
          "name": "epoch",
          "type": "uint256"
        },
        {
          "internalType": "uint256",
          "name": "agreeCount",
          "type": "uint256"
        },
        {
          "internalType": "uint256",
          "name": "disagreeCount",
          "type": "uint256"
        },
        {
          "internalType": "uint256",
          "name": "challengeRiseTime",
          "type": "uint256"
        },
        {
          "internalType": "enum ICampaign.ChallengeResult",
          "name": "result",
          "type": "uint8"
        },
        {
          "internalType": "bool",
          "name": "judged",
          "type": "bool"
        }
      ],
      "stateMutability": "view",
      "type": "function"
    },
    {
      "inputs": [
        {
          "internalType": "bytes32",
          "name": "",
          "type": "bytes32"
        }
      ],
      "name": "challengedRecords",
      "outputs": [
        {
          "internalType": "bool",
          "name": "",
          "type": "bool"
        }
      ],
      "stateMutability": "view",
      "type": "function"
    },
    {
      "inputs": [],
      "name": "cheatCount",
      "outputs": [
        {
          "internalType": "uint256",
          "name": "",
          "type": "uint256"
        }
      ],
      "stateMutability": "view",
      "type": "function"
    },
    {
      "inputs": [
        {
          "internalType": "string",
          "name": "contentUri",
          "type": "string"
        },
        {
          "internalType": "uint256",
          "name": "tokenId",
          "type": "uint256"
        }
      ],
      "name": "checkIn",
      "outputs": [],
      "stateMutability": "nonpayable",
      "type": "function"
    },
    {
      "inputs": [
        {
          "internalType": "bytes",
          "name": "",
          "type": "bytes"
        }
      ],
      "name": "checkUpkeep",
      "outputs": [
        {
          "internalType": "bool",
          "name": "upkeepNeeded",
          "type": "bool"
        },
        {
          "internalType": "bytes",
          "name": "performData",
          "type": "bytes"
        }
      ],
      "stateMutability": "view",
      "type": "function"
    },
    {
      "inputs": [
        {
          "internalType": "uint256",
          "name": "tokenId",
          "type": "uint256"
        }
      ],
      "name": "claim",
      "outputs": [
        {
          "internalType": "uint256",
          "name": "userBonus",
          "type": "uint256"
        },
        {
          "internalType": "uint256",
          "name": "hostBonus",
          "type": "uint256"
        }
      ],
      "stateMutability": "nonpayable",
      "type": "function"
    },
    {
      "inputs": [
        {
          "internalType": "uint256",
          "name": "tokenId",
          "type": "uint256"
        }
      ],
      "name": "claimAndWithdraw",
      "outputs": [],
      "stateMutability": "nonpayable",
      "type": "function"
    },
    {
      "inputs": [],
      "name": "currentEpoch",
      "outputs": [
        {
          "internalType": "uint256",
          "name": "",
          "type": "uint256"
        }
      ],
      "stateMutability": "view",
      "type": "function"
    },
    {
      "inputs": [],
      "name": "forceEnd",
      "outputs": [],
      "stateMutability": "nonpayable",
      "type": "function"
    },
    {
      "inputs": [
        {
          "internalType": "uint256",
          "name": "tokenId",
          "type": "uint256"
        }
      ],
      "name": "getApproved",
      "outputs": [
        {
          "internalType": "address",
          "name": "",
          "type": "address"
        }
      ],
      "stateMutability": "view",
      "type": "function"
    },
    {
      "inputs": [
        {
          "internalType": "uint256",
          "name": "tokenId",
          "type": "uint256"
        }
      ],
      "name": "getTokenProperties",
      "outputs": [
        {
          "components": [
            {
              "internalType": "enum ICampaign.TokenStatus",
              "name": "tokenStatus",
              "type": "uint8"
            },
            {
              "internalType": "uint256",
              "name": "pendingReward",
              "type": "uint256"
            }
          ],
          "internalType": "struct ICampaign.TokenProperty",
          "name": "",
          "type": "tuple"
        }
      ],
      "stateMutability": "view",
      "type": "function"
    },
    {
      "inputs": [],
      "name": "hostReward",
      "outputs": [
        {
          "internalType": "uint256",
          "name": "",
          "type": "uint256"
        }
      ],
      "stateMutability": "view",
      "type": "function"
    },
    {
      "inputs": [
        {
          "internalType": "address",
          "name": "owner",
          "type": "address"
        },
        {
          "internalType": "contract IERC20Upgradeable",
          "name": "token_",
          "type": "address"
        },
        {
          "internalType": "uint256",
          "name": "amount_",
          "type": "uint256"
        },
        {
          "internalType": "string",
          "name": "name_",
          "type": "string"
        },
        {
          "internalType": "string",
          "name": "symbol_",
          "type": "string"
        },
        {
          "internalType": "uint256",
          "name": "startTime_",
          "type": "uint256"
        },
        {
          "internalType": "uint256",
          "name": "totalPeriod_",
          "type": "uint256"
        },
        {
          "internalType": "uint256",
          "name": "periodLength_",
          "type": "uint256"
        },
        {
          "internalType": "uint256",
          "name": "challengeLength_",
          "type": "uint256"
        },
        {
          "internalType": "string",
          "name": "campaignUri_",
          "type": "string"
        }
      ],
      "name": "initialize",
      "outputs": [],
      "stateMutability": "nonpayable",
      "type": "function"
    },
    {
      "inputs": [
        {
          "internalType": "address",
          "name": "owner",
          "type": "address"
        },
        {
          "internalType": "address",
          "name": "operator",
          "type": "address"
        }
      ],
      "name": "isApprovedForAll",
      "outputs": [
        {
          "internalType": "bool",
          "name": "",
          "type": "bool"
        }
      ],
      "stateMutability": "view",
      "type": "function"
    },
    {
      "inputs": [
        {
          "internalType": "uint256",
          "name": "challengeRecordId",
          "type": "uint256"
        }
      ],
      "name": "judge",
      "outputs": [],
      "stateMutability": "nonpayable",
      "type": "function"
    },
    {
      "inputs": [],
      "name": "lastEpochEndTime",
      "outputs": [
        {
          "internalType": "uint256",
          "name": "",
          "type": "uint256"
        }
      ],
      "stateMutability": "view",
      "type": "function"
    },
    {
      "inputs": [
        {
          "internalType": "uint256[]",
          "name": "lists",
          "type": "uint256[]"
        },
        {
          "internalType": "bool[]",
          "name": "targetStatuses",
          "type": "bool[]"
        }
      ],
      "name": "modifyRegistry",
      "outputs": [],
      "stateMutability": "nonpayable",
      "type": "function"
    },
    {
      "inputs": [],
      "name": "name",
      "outputs": [
        {
          "internalType": "string",
          "name": "",
          "type": "string"
        }
      ],
      "stateMutability": "view",
      "type": "function"
    },
    {
      "inputs": [],
      "name": "owner",
      "outputs": [
        {
          "internalType": "address",
          "name": "",
          "type": "address"
        }
      ],
      "stateMutability": "view",
      "type": "function"
    },
    {
      "inputs": [
        {
          "internalType": "uint256",
          "name": "tokenId",
          "type": "uint256"
        }
      ],
      "name": "ownerOf",
      "outputs": [
        {
          "internalType": "address",
          "name": "",
          "type": "address"
        }
      ],
      "stateMutability": "view",
      "type": "function"
    },
    {
      "inputs": [
        {
          "internalType": "bytes",
          "name": "performData",
          "type": "bytes"
        }
      ],
      "name": "performUpkeep",
      "outputs": [],
      "stateMutability": "nonpayable",
      "type": "function"
    },
    {
      "inputs": [],
      "name": "period",
      "outputs": [
        {
          "internalType": "uint256",
          "name": "",
          "type": "uint256"
        }
      ],
      "stateMutability": "view",
      "type": "function"
    },
    {
      "inputs": [],
      "name": "protocolFee",
      "outputs": [
        {
          "internalType": "uint256",
          "name": "",
          "type": "uint256"
        }
      ],
      "stateMutability": "view",
      "type": "function"
    },
    {
      "inputs": [
        {
          "internalType": "uint256",
          "name": "",
          "type": "uint256"
        },
        {
          "internalType": "uint256",
          "name": "",
          "type": "uint256"
        }
      ],
      "name": "records",
      "outputs": [
        {
          "internalType": "string",
          "name": "contentUri",
          "type": "string"
        }
      ],
      "stateMutability": "view",
      "type": "function"
    },
    {
      "inputs": [],
      "name": "render",
      "outputs": [
        {
          "internalType": "contract IRenderer",
          "name": "",
          "type": "address"
        }
      ],
      "stateMutability": "view",
      "type": "function"
    },
    {
      "inputs": [],
      "name": "renounceOwnership",
      "outputs": [],
      "stateMutability": "nonpayable",
      "type": "function"
    },
    {
      "inputs": [],
      "name": "requiredAmount",
      "outputs": [
        {
          "internalType": "uint256",
          "name": "",
          "type": "uint256"
        }
      ],
      "stateMutability": "view",
      "type": "function"
    },
    {
      "inputs": [
        {
          "internalType": "address",
          "name": "from",
          "type": "address"
        },
        {
          "internalType": "address",
          "name": "to",
          "type": "address"
        },
        {
          "internalType": "uint256",
          "name": "tokenId",
          "type": "uint256"
        }
      ],
      "name": "safeTransferFrom",
      "outputs": [],
      "stateMutability": "nonpayable",
      "type": "function"
    },
    {
      "inputs": [
        {
          "internalType": "address",
          "name": "from",
          "type": "address"
        },
        {
          "internalType": "address",
          "name": "to",
          "type": "address"
        },
        {
          "internalType": "uint256",
          "name": "tokenId",
          "type": "uint256"
        },
        {
          "internalType": "bytes",
          "name": "data",
          "type": "bytes"
        }
      ],
      "name": "safeTransferFrom",
      "outputs": [],
      "stateMutability": "nonpayable",
      "type": "function"
    },
    {
      "inputs": [
        {
          "internalType": "address",
          "name": "operator",
          "type": "address"
        },
        {
          "internalType": "bool",
          "name": "approved",
          "type": "bool"
        }
      ],
      "name": "setApprovalForAll",
      "outputs": [],
      "stateMutability": "nonpayable",
      "type": "function"
    },
    {
      "inputs": [
        {
          "internalType": "string",
          "name": "newUri",
          "type": "string"
        }
      ],
      "name": "setCampaignUri",
      "outputs": [],
      "stateMutability": "nonpayable",
      "type": "function"
    },
    {
      "inputs": [],
      "name": "settle",
      "outputs": [],
      "stateMutability": "nonpayable",
      "type": "function"
    },
    {
      "inputs": [],
      "name": "sharedReward",
      "outputs": [
        {
          "internalType": "uint256",
          "name": "",
          "type": "uint256"
        }
      ],
      "stateMutability": "view",
      "type": "function"
    },
    {
      "inputs": [],
      "name": "signUp",
      "outputs": [],
      "stateMutability": "nonpayable",
      "type": "function"
    },
    {
      "inputs": [],
      "name": "startTime",
      "outputs": [
        {
          "internalType": "uint256",
          "name": "",
          "type": "uint256"
        }
      ],
      "stateMutability": "view",
      "type": "function"
    },
    {
      "inputs": [],
      "name": "status",
      "outputs": [
        {
          "internalType": "enum Consts.CampaignStatus",
          "name": "",
          "type": "uint8"
        }
      ],
      "stateMutability": "view",
      "type": "function"
    },
    {
      "inputs": [],
      "name": "successTokensCount",
      "outputs": [
        {
          "internalType": "uint256",
          "name": "",
          "type": "uint256"
        }
      ],
      "stateMutability": "view",
      "type": "function"
    },
    {
      "inputs": [
        {
          "internalType": "bytes4",
          "name": "interfaceId",
          "type": "bytes4"
        }
      ],
      "name": "supportsInterface",
      "outputs": [
        {
          "internalType": "bool",
          "name": "",
          "type": "bool"
        }
      ],
      "stateMutability": "view",
      "type": "function"
    },
    {
      "inputs": [],
      "name": "symbol",
      "outputs": [
        {
          "internalType": "string",
          "name": "",
          "type": "string"
        }
      ],
      "stateMutability": "view",
      "type": "function"
    },
    {
      "inputs": [],
      "name": "targetToken",
      "outputs": [
        {
          "internalType": "contract IERC20Upgradeable",
          "name": "",
          "type": "address"
        }
      ],
      "stateMutability": "view",
      "type": "function"
    },
    {
      "inputs": [
        {
          "internalType": "uint256",
          "name": "tokenId",
          "type": "uint256"
        }
      ],
      "name": "tokenURI",
      "outputs": [
        {
          "internalType": "string",
          "name": "",
          "type": "string"
        }
      ],
      "stateMutability": "view",
      "type": "function"
    },
    {
      "inputs": [],
      "name": "totalEpochsCount",
      "outputs": [
        {
          "internalType": "uint256",
          "name": "",
          "type": "uint256"
        }
      ],
      "stateMutability": "view",
      "type": "function"
    },
    {
      "inputs": [
        {
          "internalType": "address",
          "name": "from",
          "type": "address"
        },
        {
          "internalType": "address",
          "name": "to",
          "type": "address"
        },
        {
          "internalType": "uint256",
          "name": "tokenId",
          "type": "uint256"
        }
      ],
      "name": "transferFrom",
      "outputs": [],
      "stateMutability": "nonpayable",
      "type": "function"
    },
    {
      "inputs": [
        {
          "internalType": "address",
          "name": "newOwner",
          "type": "address"
        }
      ],
      "name": "transferOwnership",
      "outputs": [],
      "stateMutability": "nonpayable",
      "type": "function"
    },
    {
      "inputs": [
        {
          "internalType": "uint256",
          "name": "tokenId",
          "type": "uint256"
        },
        {
          "internalType": "uint256",
          "name": "challengeRecordId",
          "type": "uint256"
        },
        {
          "internalType": "bool",
          "name": "choice",
          "type": "bool"
        }
      ],
      "name": "vote",
      "outputs": [],
      "stateMutability": "nonpayable",
      "type": "function"
    },
    {
      "inputs": [
        {
          "internalType": "uint256",
          "name": "",
          "type": "uint256"
        },
        {
          "internalType": "uint256",
          "name": "",
          "type": "uint256"
        }
      ],
      "name": "voters",
      "outputs": [
        {
          "internalType": "bool",
          "name": "voted",
          "type": "bool"
        },
        {
          "internalType": "bool",
          "name": "choice",
          "type": "bool"
        }
      ],
      "stateMutability": "view",
      "type": "function"
    },
    {
      "inputs": [],
      "name": "withdraw",
      "outputs": [],
      "stateMutability": "nonpayable",
      "type": "function"
    }
  ],
  "transactionHash": "0xd831a90dcea190d19c50456fad836808c85123788afd6fa7dd49535444ef6bbe",
  "args": [
    "0xBC31bC53C3621342A8307F0F6412C7da782475E8"
  ],
  "numDeployments": 14,
  "solcInputHash": "fbbb9bde8e544ed1adecfbd9f783a810",
  "bytecode": "0x60a0346200018557601f62004f5e38819003918201601f19168301916001600160401b038311848410176200018a578084926020946040528339810103126200018557516001600160a01b0381168103620001855760805260005460ff8160081c16159081809262000177575b80156200015e575b15620001025760ff19811660011760005581620000ef575b50620000b3575b604051614dbd9081620001a18239608051818181610dfc0152610f950152f35b61ff0019600054166000557f7f26b83ff96e1f2b6a682f133852f6798a09c465da95921460cefb3847402498602060405160018152a162000093565b61ffff191661010117600055386200008c565b60405162461bcd60e51b815260206004820152602e60248201527f496e697469616c697a61626c653a20636f6e747261637420697320616c72656160448201526d191e481a5b9a5d1a585b1a5e995960921b6064820152608490fd5b50303b158015620000745750600160ff82161462000074565b50600160ff8216106200006c565b600080fd5b634e487b7160e01b600052604160045260246000fdfe608080604052600436101561001357600080fd5b60003560e01c90816301ffc9a7146130b5575080630382fd1b1461309757806306fdde0314613073578063081812fc14613055578063095ea7b314612eaf5780630c0b2bdd14612d2457806311da60b414612b2e5780631a597548146129af5780631fc6e296146126ee578063200d2ed2146126c457806323b872dd146126a05780632520b93c1461266f578063280058ee14612651578063327107f71461262a578063379607f5146125ca5780633ccfd60b1461254f57806340e8a5c2146124fe57806342842e0e146124cb5780634585e33b1461214857806348b9ef401461212a5780634edea111146120bb5780634ee0ab0d14611ed35780636352211e14611ea45780636a18ff7a14611c715780636e04ff0d14611c175780636efcaab514611b7157806370a0823114611b4657806370f42df814611b28578063715018a614611abb5780637667180814611a9d57806378e9792514611a7f57806384e3350114611a615780638da5cb5b14611a3a5780639397f8e21461181357806395d89b411461174557806396bc7434146117275780639cc8525d146116d6578063a22cb46514611605578063b0e21e8a146115e7578063b6f625e6146115c9578063b88d4fde14611548578063bf96ae6314611295578063bfa6f912146111f5578063c771766d146111d7578063c87b56dd14610f2d578063cddb8df214610e3e578063d5d2216514610e20578063d607497a14610ddc578063db49881214610bb3578063dfa447ce14610b95578063e86a530914610b77578063e985e9c514610b20578063ef78d4fd14610b02578063f2fde38b14610a5f578063f537dc171461031a578063f62b46c9146102da5763fba00cbd1461029257600080fd5b346102d5576102a0366134f4565b9060005260dd6020526040600020906000526020526040806000205460ff8251918181161515835260081c1615156020820152f35b600080fd5b346102d55760206003193601126102d55761030f6004356102f961357b565b61030281614b26565b61030a614cda565b614676565b5061031861499a565b005b346102d5576101406003193601126102d5576103346131de565b602435906001600160a01b03821682036102d55760643567ffffffffffffffff81116102d55761036890369060040161355d565b9060843567ffffffffffffffff81116102d55761038990369060040161355d565b926101243567ffffffffffffffff81116102d5576103ab90369060040161355d565b926000549260ff8460081c161593848095610a52575b8015610a3b575b156109d15784600160ff198316176000556109a2575b506001600160a01b0383161561095e576044351561091a576103ff906135d3565b60ff60005460081c16156108b05780519067ffffffffffffffff821161061f57819061042c6097546132eb565b601f8111610804575b50602090601f831160011461077d57600092610772575b50506000198260011b9260031b1c1916176097555b835167ffffffffffffffff811161061f5761047d6098546132eb565b601f81116106cf575b506020601f82116001146106405781906001600160a01b03949596600092610635575b50506000198260011b9260031b1c1916176098555b1673ffffffffffffffffffffffffffffffffffffffff1960c954161760c95560443560ca5560a4358060cd5560d15560c43560ce5560e43560cf556101043560d055815167ffffffffffffffff811161061f576105258161052060cc546132eb565b613d3d565b602092601f821160011461059d5792819293600092610592575b50506000198260011b9260031b1c19161760cc555b61055a57005b61ff0019600054166000557f7f26b83ff96e1f2b6a682f133852f6798a09c465da95921460cefb3847402498602060405160018152a1005b01519050838061053f565b601f1982169360cc6000527f47197230e1e4b29fc0bd84d7d78966c0925452aff72a2a121538b102457e9ebe9160005b86811061060757508360019596106105ee575b505050811b0160cc55610554565b015160001960f88460031b161c191690558380806105e0565b919260206001819286850151815501940192016105cd565b634e487b7160e01b600052604160045260246000fd5b0151905086806104a9565b601f1982169560986000527f2237a976fa961f5921fd19f2b03c925c725d77b20ce8f790c19709c03de4d8149660005b8181106106b75750916001600160a01b039596979184600195941061069e575b505050811b016098556104be565b015160001960f88460031b161c19169055868080610690565b83830151895560019098019760209384019301610670565b6098600052601f820160051c7f2237a976fa961f5921fd19f2b03c925c725d77b20ce8f790c19709c03de4d81401906020831061074a575b601f0160051c7f2237a976fa961f5921fd19f2b03c925c725d77b20ce8f790c19709c03de4d81401905b81811061073e5750610486565b60008155600101610731565b7f2237a976fa961f5921fd19f2b03c925c725d77b20ce8f790c19709c03de4d8149150610707565b01519050868061044c565b915060976000527f354a83ed9988f79f6038d4c7a7dadbad8af32f4ad6df893e0e5807a1b1944ff9916000601f198516905b8181106107ec57509084600195949392106107d3575b505050811b01609755610461565b015160001960f88460031b161c191690558680806107c5565b929360206001819287860151815501950193016107af565b9091506097600052601f830160051c7f354a83ed9988f79f6038d4c7a7dadbad8af32f4ad6df893e0e5807a1b1944ff90160208410610889575b90601f849392910160051c7f354a83ed9988f79f6038d4c7a7dadbad8af32f4ad6df893e0e5807a1b1944ff901905b81811061087a5750610435565b6000815584935060010161086d565b507f354a83ed9988f79f6038d4c7a7dadbad8af32f4ad6df893e0e5807a1b1944ff961083e565b608460405162461bcd60e51b815260206004820152602b60248201527f496e697469616c697a61626c653a20636f6e7472616374206973206e6f74206960448201527f6e697469616c697a696e670000000000000000000000000000000000000000006064820152fd5b606460405162461bcd60e51b815260206004820152601860248201527f43616d706169676e3a20696e76616c696420616d6f756e7400000000000000006044820152fd5b606460405162461bcd60e51b815260206004820152601760248201527f43616d706169676e3a20696e76616c696420746f6b656e0000000000000000006044820152fd5b7fffffffffffffffffffffffffffffffffffffffffffffffffffffffffffff00001661010117600055866103de565b608460405162461bcd60e51b815260206004820152602e60248201527f496e697469616c697a61626c653a20636f6e747261637420697320616c72656160448201527f647920696e697469616c697a65640000000000000000000000000000000000006064820152fd5b50303b1580156103c85750600160ff8216146103c8565b50600160ff8216106103c1565b346102d55760206003193601126102d557610a786131de565b610a8061357b565b6001600160a01b03811615610a9857610318906135d3565b608460405162461bcd60e51b815260206004820152602660248201527f4f776e61626c653a206e6577206f776e657220697320746865207a65726f206160448201527f64647265737300000000000000000000000000000000000000000000000000006064820152fd5b346102d55760006003193601126102d557602060cf54604051908152f35b346102d55760406003193601126102d557610b396131de565b610b416131f4565b906001600160a01b03809116600052609c60205260406000209116600052602052602060ff604060002054166040519015158152f35b346102d55760006003193601126102d557602060d354604051908152f35b346102d55760006003193601126102d557602060d854604051908152f35b346102d5576020806003193601126102d55767ffffffffffffffff906004358281116102d557610be79036906004016132bd565b919092610bf261357b565b821161061f5760cc91610c098161052085546132eb565b6000601f8211600114610d5b5781929394600092610d50575b50506000198260011b9260031b1c19161782555b604051918183526000918154610c4b816132eb565b9283838701526001918281169081600014610d075750600114610c91575b7f9554c0ad8824b12a4301321d81a1a6d3be9e533b040fe09a8d7dfeaccb27618186860387a1005b600090815293507f47197230e1e4b29fc0bd84d7d78966c0925452aff72a2a121538b102457e9ebe5b838510610cf357505050508101604001817f9554c0ad8824b12a4301321d81a1a6d3be9e533b040fe09a8d7dfeaccb2761818480610c69565b805486860160400152938201938101610cba565b9050869550604093507f9554c0ad8824b12a4301321d81a1a6d3be9e533b040fe09a8d7dfeaccb2761819694925060ff1991501682840152151560051b82010191928480610c69565b013590508480610c22565b601f19821694846000527f47197230e1e4b29fc0bd84d7d78966c0925452aff72a2a121538b102457e9ebe9160005b878110610dc5575083600195969710610dab575b505050811b018255610c36565b60001960f88560031b161c19910135169055848080610d9e565b909285600181928686013581550194019101610d8a565b346102d55760006003193601126102d55760206040516001600160a01b037f0000000000000000000000000000000000000000000000000000000000000000168152f35b346102d55760006003193601126102d557602060d554604051908152f35b346102d55760206003193601126102d5576004358060005260de602052610e7060056040600020015460d054906138c3565b421115610ee957610e8081614bec565b8060005260de60205260ff60066040600020015460081c16610ea55761031890613fe8565b606460405162461bcd60e51b815260206004820152601960248201527f4368616c6c656e67653a20616c7265616479206a7564676564000000000000006044820152fd5b606460405162461bcd60e51b815260206004820152601460248201527f4368616c6c656e67653a206e6f7420656e6465640000000000000000000000006044820152fd5b346102d5576020806003193601126102d557604051610f5681610f4f81613325565b03826134d1565b604051907fa2d6c6da00000000000000000000000000000000000000000000000000000000825260043560048301526000826024816001600160a01b037f0000000000000000000000000000000000000000000000000000000000000000165afa9182156111cb57600092611142575b506110d36062610fd86110d8946144d2565b926040519384917f7b226e616d65223a20220000000000000000000000000000000000000000000088840152611017815180928a602a87019101613184565b82017f222c226465736372697074696f6e223a22000000000000000000000000000000602a8201527f222c22696d616765223a22000000000000000000000000000000000000000000603b8201527f646174613a696d6167652f7376672b786d6c3b6261736536342c000000000000604682015261109e825180938a606085019101613184565b017f227d00000000000000000000000000000000000000000000000000000000000060608201520360428101845201826134d1565b6144d2565b9061112a603d60405180947f646174613a6170706c69636174696f6e2f6a736f6e3b6261736536342c0000008583015261111a81518092878686019101613184565b810103601d8101855201836134d1565b61113e6040519282849384528301906131b9565b0390f35b91503d806000843e61115481846134d1565b82019183818403126102d55780519067ffffffffffffffff82116102d557019180601f840112156102d55782519261118b8461350a565b9161119960405193846134d1565b8483528585830101116102d557610fd8826111c26110d89660629489806110d398019101613184565b94505050610fc6565b6040513d6000823e3d90fd5b346102d55760006003193601126102d557602060d154604051908152f35b346102d55760206003193601126102d55760043560005260de6020526040600020805460018201546002830154926003810154600482015490600660058401549301549560ff871694604051968752602087015260408601526060850152608084015260a0830152600481101561127f576101009260ff9160c084015260081c16151560e0820152f35b634e487b7160e01b600052602160045260246000fd5b346102d55760006003193601126102d5576112ae614c3b565b6112b73361362a565b611504576001600160a01b0360c9541660ca5490604051906020917f23b872dd0000000000000000000000000000000000000000000000000000000083820152602493338583015230604483015260648201526064815260a081019181831067ffffffffffffffff8411176114ef5761133292604052613dae565b60d35460011992838211611456576001820160d3556040519361135485613499565b6000855233156114ad5761137e8360005260996020526001600160a01b0360406000205416151590565b61146a5733600052609a8452604060002091825491821161145657507fcd169e01d559b6d336962db715a67dc5fd03521032de891b679200894ec219f39461142992600161142493019055836000526099855260406000203373ffffffffffffffffffffffffffffffffffffffff19825416179055833360007fddf252ad1be2c89b69c2b068fc378daa952ba7f163c4a11628f55a4df523b3ef81604051a48333613b2d565b6137d4565b8060005260dc82526040600020600260ff1982541617905560ca54600160406000200155604051908152a1005b634e487b7160e01b60005260116004526000fd5b606484601c846040519262461bcd60e51b845260048401528201527f4552433732313a20746f6b656e20616c7265616479206d696e746564000000006044820152fd5b606482856040519162461bcd60e51b83528160048401528201527f4552433732313a206d696e7420746f20746865207a65726f20616464726573736044820152fd5b84634e487b7160e01b60005260416004526000fd5b606460405162461bcd60e51b815260206004820152601860248201527f43616d706169676e3a20616c7265616479207369676e656400000000000000006044820152fd5b346102d55760806003193601126102d5576115616131de565b6115696131f4565b906064359060443567ffffffffffffffff83116102d557366023840112156102d557610318936115a6611424943690602481600401359101613526565b926115b96115b4843361384a565b613763565b6115c48383836138cf565b613cc3565b346102d55760006003193601126102d557602060ce54604051908152f35b346102d55760006003193601126102d557602060d954604051908152f35b346102d55760406003193601126102d55761161e6131de565b602435908115158092036102d5576001600160a01b0316908133146116925733600052609c602052604060002082600052602052604060002060ff1981541660ff83161790556040519081527f17307eab39ab6107e8899845ad3d59bd9653f200f220920489ca2b5937696c3160203392a3005b606460405162461bcd60e51b815260206004820152601960248201527f4552433732313a20617070726f766520746f2063616c6c6572000000000000006044820152fd5b346102d5576116e4366134f4565b9060005260db60205260406000209060005260205261113e610f4f6117136040600020604051928380926133ca565b6040519182916020835260208301906131b9565b346102d55760006003193601126102d557602060d754604051908152f35b346102d55760006003193601126102d5576040516000609854611767816132eb565b808452906001908181169081156117ec5750600114611791575b61113e84611713818603826134d1565b6098600090815292507f2237a976fa961f5921fd19f2b03c925c725d77b20ce8f790c19709c03de4d8145b8284106117d457505050810160200161171382611781565b805460208587018101919091529093019281016117bc565b60ff191660208087019190915292151560051b850190920192506117139150839050611781565b346102d55760406003193601126102d55767ffffffffffffffff6004358181116102d5576118459036906004016132bd565b6024359161185283614b26565b61185a614c8b565b61186383614b85565b61186b614a57565b6040516020948582018281108282111761061f5760405261188d368585613526565b825260d25460005260db8652604060002085600052865260406000209151805191821161061f576118be83546132eb565b601f81116119f4575b508690601f831160011461196057947f0de15cde05bed13731732bfe8f1ff5a69a8be94505d2e381f23997b07af8dd85979694601f199484601f95849560809a600092611955575b50506000198260011b9260031b1c19161790555b60d2549560405198899788528701526060604087015281606087015286860137600085828601015201168101030190a1005b015190508c8061190f565b90601f1983169184600052886000209260005b8181106119dd575094600185899560809a957f0de15cde05bed13731732bfe8f1ff5a69a8be94505d2e381f23997b07af8dd859d9c9a95601f99601f199b106119c4575b505050811b019055611923565b015160001960f88460031b161c191690558c80806119b7565b92938a600181928786015181550195019301611973565b8360005287600020601f840160051c810191898510611a30575b601f0160051c01905b818110611a2457506118c7565b60008155600101611a17565b9091508190611a0e565b346102d55760006003193601126102d55760206001600160a01b0360335416604051908152f35b346102d55760006003193601126102d557602060d654604051908152f35b346102d55760006003193601126102d557602060cd54604051908152f35b346102d55760006003193601126102d557602060d254604051908152f35b346102d55760006003193601126102d557611ad461357b565b600060335473ffffffffffffffffffffffffffffffffffffffff198116603355816001600160a01b0360405192167f8be0079c531659141344cd1fd0a4f28419497f9722a3daafe3b4186f6b6457e08284a3f35b346102d55760006003193601126102d557602060da54604051908152f35b346102d55760206003193601126102d5576020611b69611b646131de565b61362a565b604051908152f35b346102d55760006003193601126102d557604051600060cc54611b93816132eb565b808452906001908181169081156117ec5750600114611bbc5761113e84611713818603826134d1565b60cc600090815292507f47197230e1e4b29fc0bd84d7d78966c0925452aff72a2a121538b102457e9ebe5b828410611bff57505050810160200161171382611781565b80546020858701810191909152909301928101611be7565b346102d55760206003193601126102d55760043567ffffffffffffffff81116102d557611c489036906004016132bd565b5050611c526143a3565b9061113e604051928392151583526040602084015260408301906131b9565b346102d55760606003193601126102d55760043560243590604435908115158092036102d557611ca081614b26565b611ca8614c8b565b611cb181614b85565b611cba83614bec565b8260005260209160de8352611cda60056040600020015460d054906138c3565b421015611e60578360005260de835260406000205482141580611e4e575b15611e0a576001908460005260dd8452604060002083600052845260406000208260ff198254161790558460005260dd845260406000208360005284526040600020805461ff001961ff008460081b16911617905514600014611dbe578260005260de82526003604060002001928354926001198411611da8577fe412d87c65a2ecd9a42cbdcd9b35239448cd2ec046dbe0d6af0eee194ec6173e9460016040950190555b8351928352820152a1005b634e487b7160e01b600052601160045260246000fd5b8260005260de82526004604060002001928354926001198411611da8577fe412d87c65a2ecd9a42cbdcd9b35239448cd2ec046dbe0d6af0eee194ec6173e946001604095019055611d9d565b6064836040519062461bcd60e51b82526004820152601f60248201527f4368616c6c656e67653a20696e766f6c7665642063616e6e6f7420766f7465006044820152fd5b50600160406000200154821415611cf8565b6064836040519062461bcd60e51b82526004820152601060248201527f4368616c6c656e67653a20656e646564000000000000000000000000000000006044820152fd5b346102d55760206003193601126102d5576020611ec26004356136ff565b6001600160a01b0360405191168152f35b346102d55760006003193601126102d557611eec614d2b565b611ef4614cda565b611efc614d2b565b60d380549060da9182556000905b805482101561205f5760005b60ce548110156120545780600052602060db81526040600020846000528152610f4f611f4c6040600020604051928380926133ca565b5115611f615750611f5c90613f3a565b611f16565b919280915060005260dc808352600190611fc48260406000200154611fbf620f424080611f8d84613f59565b0490611f9c60d89283546138c3565b809255611fa884613f71565b0492611fb760d99485546138c3565b8094556138b8565b6138b8565b611fd160d79182546138c3565b90558260005283526000816040822001558454908110611da85761204e926000197f939e6ef49701507f032296ab644b4aebf199222450de6622bb5f9550c7a7820992018655604051838152a15b7f8990a2cca2ad5b32ae72395c0db570652316a7903178764820232d8fe5d2b3556020604051838152a1613f3a565b90611f0a565b509061204e9061201f565b8254156120a0575b600460ff1960cb54161760cb557f7069a5d4cbf1f64db906d1dd29276702df7e9c795ef1746d7a1ca5449c4893f16020604051338152a1005b6120ae60d75460d9546138c3565b60d955600060d755612067565b346102d55760206003193601126102d557600060206040516120dc81613461565b828152015260043560005260dc60205260406000206040516120fd81613461565b60ff82541690600782101561127f5760206001604094848452015491019081528251918252516020820152f35b346102d55760006003193601126102d557602060ca54604051908152f35b346102d5576020806003193601126102d5576004359067ffffffffffffffff82116102d55761217d60409236906004016132bd565b90809391810103126102d557818101359135806123935750905060cd546121b460ce916121ae835460cf5490613fb5565b906138c3565b42111561234f5760d380549260da9384556000915b80548310156122f15760005b84548110156122e6578060005260db83526040600020846000528352610f4f6122086040600020604051928380926133ca565b511561221c5761221790613f3a565b6121d5565b50918060005260dc908183526001916122478360406000200154611fbf620f424080611f8d84613f59565b61225460d79182546138c3565b90558160005283526000826040822001556040600020600560ff198254161790558554918210611da8576000196122e0920186557f939e6ef49701507f032296ab644b4aebf199222450de6622bb5f9550c7a7820983604051838152a15b7f8990a2cca2ad5b32ae72395c0db570652316a7903178764820232d8fe5d2b35583604051838152a1613f3a565b916121c9565b50916122e0906122b2565b509150507f7069a5d4cbf1f64db906d1dd29276702df7e9c795ef1746d7a1ca5449c4893f1915415612334575b600460ff1960cb54161760cb55604051338152a1005b61234260d75460d9546138c3565b60d955600060d75561231e565b6064826040519062461bcd60e51b82526004820152601360248201527f43616d706169676e3a206e6f7420656e646564000000000000000000000000006044820152fd5b600181036123a657505050610318614a57565b600203612487578160005260de81526123ca60056040600020015460d054906138c3565b421115612443576123da82614bec565b8160005260de815260ff60066040600020015460081c166123ff575061031890613fe8565b6064906040519062461bcd60e51b82526004820152601960248201527f4368616c6c656e67653a20616c7265616479206a7564676564000000000000006044820152fd5b6064906040519062461bcd60e51b82526004820152601460248201527f4368616c6c656e67653a206e6f7420656e6465640000000000000000000000006044820152fd5b6064906040519062461bcd60e51b82526004820152600d60248201527f4e6f7468696e6720546f20444f000000000000000000000000000000000000006044820152fd5b346102d5576103186114246124df3661323b565b90604051926124ed84613499565b600084526115b96115b4843361384a565b346102d55760206003193601126102d55760043560df548110156102d55760209060df6000527f65e3d48fa860a761b461ce1274f0d562f3db9a6a57cf04d8c90d68f5670b6aea0154604051908152f35b346102d55760006003193601126102d55761256861357b565b60ff60cb5416600581101561127f576004036125865761031861499a565b606460405162461bcd60e51b815260206004820152601560248201527f43616d706169676e3a206e6f7420736574746c656400000000000000000000006044820152fd5b346102d55760206003193601126102d55760406004356125e981614b26565b6125f1614cda565b6125fc600091614676565b906001600160a01b0360335416331461261c575b82519182526020820152f35b5061262561499a565b612610565b346102d55760006003193601126102d55760206001600160a01b0360c95416604051908152f35b346102d55760006003193601126102d557602060d454604051908152f35b346102d55760206003193601126102d55760043560005260e0602052602060ff604060002054166040519015158152f35b346102d5576103186126b13661323b565b916126bf6115b4843361384a565b6138cf565b346102d55760006003193601126102d55760ff60cb5416604051600582101561127f576020918152f35b346102d55760606003193601126102d557600435602480356044359161271384614b26565b61271b614c8b565b61272484614b85565b61272d82614b85565b61274260cd546121ae60ce5460cf5490613fb5565b7ffffffffffffffffffffffffffffffffffffffffffffffffffffffffffffeae7f81116128a95762015180014211612945578184146129015760405190602091828101908482528560408201526040815261279c8161347d565b51902060005260e0825260ff604060002054166128be5760405182810190848252856040820152604081526127d08161347d565b51902060005260e082526040600020600160ff1982541617905560d4549360011985116128a957600185810160d455600086815260de8552604090208781559081018590554260058201556002015560df549068010000000000000000821015612895577f41b86b8e6a50d1879c8fe4ff449470156b8c2b6c02117dafd10625d300e4aacd6060878787878261286c896001810160df55613270565b819291549060031b600019811b9283911b169119161790556040519384528301526040820152a1005b634e487b7160e01b60005260416004526000fd5b50634e487b7160e01b60005260116004526000fd5b90601c6064926040519262461bcd60e51b845260048401528201527f43616d706169676e3a20616c7265616479206368616c6c656e676564000000006044820152fd5b606490601f6040519162461bcd60e51b8352602060048401528201527f43616d706169676e3a2063616e6e6f74206368616c6c656e67652073656c66006044820152fd5b60849060236040519162461bcd60e51b8352602060048401528201527f4368616c6c656e67653a207374617274206368616c6c656e676520746f6f206c60448201527f61746500000000000000000000000000000000000000000000000000000000006064820152fd5b346102d5576020806003193601126102d55760043567ffffffffffffffff81116102d5576129e190369060040161320a565b6129e9614c3b565b6129f161357b565b60005b8181106129fd57005b612a08818385613f49565b358060005260dc8086526040600020604051612a2381613461565b60ff8254166007928382101561127f5760019183520154808983015260ca5403612aea57519081101561127f57600203612aa65785827f0898a2d0f11ee389113f47ac39e4c57338d20de87eab1ff9bcce61256c868c8592612aa1959460005282526040600020600360ff19825416179055604051908152a1613f3a565b6129f4565b6064866040519062461bcd60e51b82526004820152601760248201527f43616d706169676e3a206e6f74207369676e65642075700000000000000000006044820152fd5b6064886040519062461bcd60e51b82526004820152601960248201527f43616d706169676e3a207374616b65206e6f74206d61746368000000000000006044820152fd5b346102d55760006003193601126102d557612b47614cda565b60cd54612b5e60ce916121ae835460cf5490613fb5565b421115612ce05760d39081549160da9283556000905b8054821015612ca05760005b8354811015612c955780600052602060db81526040600020846000528152610f4f612bb56040600020604051928380926133ca565b5115612bca5750612bc590613f3a565b612b80565b919280915060005260dc808352600190612bf68260406000200154611fbf620f424080611f8d84613f59565b612c0360d79182546138c3565b90558260005283526000816040822001556040600020600560ff198254161790558554908110611da857612c8f926000197f939e6ef49701507f032296ab644b4aebf199222450de6622bb5f9550c7a7820992018755604051838152a17f8990a2cca2ad5b32ae72395c0db570652316a7903178764820232d8fe5d2b3556020604051838152a1613f3a565b90612b74565b5090612c8f9061201f565b8354156120a057600460ff1960cb54161760cb557f7069a5d4cbf1f64db906d1dd29276702df7e9c795ef1746d7a1ca5449c4893f16020604051338152a1005b606460405162461bcd60e51b815260206004820152601360248201527f43616d706169676e3a206e6f7420656e646564000000000000000000000000006044820152fd5b346102d55760406003193601126102d55767ffffffffffffffff6004358181116102d557612d5690369060040161320a565b90916024359081116102d557612d7090369060040161320a565b612d7b939193614c3b565b612d8361357b565b600191825b848110612e44575060405193604085528060408601527f07ffffffffffffffffffffffffffffffffffffffffffffffffffffffffffffff81116102d55760059392931b809160608601378301916080606084019382602095606088840301878901525201949260005b828110612e1f577e896c158ae8c63b50648f3ace621592a536dc686bb71ea91e8c1a75207e26fd86880387a1005b90919293958635908115158092036102d5579081528201958201939291908301612df1565b612e4f818684613f49565b3590612e5c818589613f49565b359182151583036102d557612e8d9215612e925760005260dc6020526040600020600360ff19825416179055613f3a565b612d88565b60005260dc6020526040600020600260ff19825416179055613f3a565b346102d55760406003193601126102d557612ec86131de565b6001600160a01b03906024358280612edf836136ff565b16921691808314612feb57803314908115612fc6575b5015612f5c57600092818452609b602052604084208373ffffffffffffffffffffffffffffffffffffffff19825416179055612f30826136ff565b1691604051927f8c5be1e5ebec7d5bd14f71427d1e84f3dd0314c0f7b2291e5b200ac8c7c3b9258585a4f35b608460405162461bcd60e51b815260206004820152603e60248201527f4552433732313a20617070726f76652063616c6c6572206973206e6f7420746f60448201527f6b656e206f776e6572206e6f7220617070726f76656420666f7220616c6c00006064820152fd5b9050600052609c60205260406000203360005260205260ff6040600020541684612ef5565b608460405162461bcd60e51b815260206004820152602160248201527f4552433732313a20617070726f76616c20746f2063757272656e74206f776e6560448201527f72000000000000000000000000000000000000000000000000000000000000006064820152fd5b346102d55760206003193601126102d5576020611ec2600435613721565b346102d55760006003193601126102d55761113e60405161171381610f4f81613325565b346102d55760006003193601126102d557602060d054604051908152f35b346102d55760206003193601126102d557600435907fffffffff0000000000000000000000000000000000000000000000000000000082168092036102d557817f80ac58cd000000000000000000000000000000000000000000000000000000006020931490811561315a575b8115613130575b5015158152f35b7f01ffc9a70000000000000000000000000000000000000000000000000000000091501483613129565b7f5b5e139f0000000000000000000000000000000000000000000000000000000081149150613122565b918091926000905b8282106131a457501161319d575050565b6000910152565b9150806020918301518186015201829161318c565b90601f19601f6020936131d781518092818752878088019101613184565b0116010190565b600435906001600160a01b03821682036102d557565b602435906001600160a01b03821682036102d557565b9181601f840112156102d55782359167ffffffffffffffff83116102d5576020808501948460051b0101116102d557565b60031960609101126102d5576001600160a01b039060043582811681036102d5579160243590811681036102d5579060443590565b60df548110156132a75760df6000527f65e3d48fa860a761b461ce1274f0d562f3db9a6a57cf04d8c90d68f5670b6aea0190600090565b634e487b7160e01b600052603260045260246000fd5b9181601f840112156102d55782359167ffffffffffffffff83116102d557602083818601950101116102d557565b90600182811c9216801561331b575b602083101461330557565b634e487b7160e01b600052602260045260246000fd5b91607f16916132fa565b60975460009291613335826132eb565b808252916001908181169081156133ac575060011461335357505050565b9192935060976000527f354a83ed9988f79f6038d4c7a7dadbad8af32f4ad6df893e0e5807a1b1944ff9916000925b84841061339457505060209250010190565b80546020858501810191909152909301928101613382565b9050602094955060ff1991509291921683830152151560051b010190565b90600092918054916133db836132eb565b91828252600193848116908160001461343d57506001146133fd575b50505050565b90919394506000526020928360002092846000945b8386106134295750505050010190388080806133f7565b805485870183015294019385908201613412565b915050602094955060ff199193501683830152151560051b010190388080806133f7565b6040810190811067ffffffffffffffff82111761061f57604052565b6060810190811067ffffffffffffffff82111761061f57604052565b6020810190811067ffffffffffffffff82111761061f57604052565b6080810190811067ffffffffffffffff82111761061f57604052565b90601f601f19910116810190811067ffffffffffffffff82111761061f57604052565b60031960409101126102d5576004359060243590565b67ffffffffffffffff811161061f57601f01601f191660200190565b9291926135328261350a565b9161354060405193846134d1565b8294818452818301116102d5578281602093846000960137010152565b9080601f830112156102d55781602061357893359101613526565b90565b6001600160a01b0360335416330361358f57565b606460405162461bcd60e51b815260206004820152602060248201527f4f776e61626c653a2063616c6c6572206973206e6f7420746865206f776e65726044820152fd5b603354906001600160a01b03809116918273ffffffffffffffffffffffffffffffffffffffff19821617603355167f8be0079c531659141344cd1fd0a4f28419497f9722a3daafe3b4186f6b6457e06000604051a3565b6001600160a01b0316801561364a57600052609a60205260406000205490565b608460405162461bcd60e51b815260206004820152602960248201527f4552433732313a2061646472657373207a65726f206973206e6f74206120766160448201527f6c6964206f776e657200000000000000000000000000000000000000000000006064820152fd5b156136bb57565b606460405162461bcd60e51b815260206004820152601860248201527f4552433732313a20696e76616c696420746f6b656e20494400000000000000006044820152fd5b60005260996020526001600160a01b03604060002054166135788115156136b4565b6137496137448260005260996020526001600160a01b0360406000205416151590565b6136b4565b600052609b6020526001600160a01b036040600020541690565b1561376a57565b608460405162461bcd60e51b815260206004820152602e60248201527f4552433732313a2063616c6c6572206973206e6f7420746f6b656e206f776e6560448201527f72206e6f7220617070726f7665640000000000000000000000000000000000006064820152fd5b156137db57565b60405162461bcd60e51b815260206004820152603260248201527f4552433732313a207472616e7366657220746f206e6f6e20455243373231526560448201527f63656976657220696d706c656d656e74657200000000000000000000000000006064820152608490fd5b0390fd5b906001600160a01b03808061385e846136ff565b16931691838314938415613891575b50831561387b575b50505090565b61388791929350613721565b1614388080613875565b909350600052609c60205260406000208260005260205260ff60406000205416923861386d565b818110611da8570390565b81198111611da8570190565b6138d8836136ff565b916001600160a01b0392838093169283911603613a93578216918215613a2a57816139e657600090848252609b602052604082209073ffffffffffffffffffffffffffffffffffffffff1991828154169055613933866136ff565b16908583604051937f8c5be1e5ebec7d5bd14f71427d1e84f3dd0314c0f7b2291e5b200ac8c7c3b9258286a4838352609a602052604083208054600181106139d257600019019055848352609a60205260408320805460011981116139d25760010190558583526099602052604083208054909116851790557fddf252ad1be2c89b69c2b068fc378daa952ba7f163c4a11628f55a4df523b3ef9190a4565b602485634e487b7160e01b81526011600452fd5b606460405162461bcd60e51b815260206004820152601c60248201527f43616d706169676e3a20436f756c64206e6f74207472616e73666572000000006044820152fd5b608460405162461bcd60e51b8152602060048201526024808201527f4552433732313a207472616e7366657220746f20746865207a65726f2061646460448201527f72657373000000000000000000000000000000000000000000000000000000006064820152fd5b608460405162461bcd60e51b815260206004820152602560248201527f4552433732313a207472616e736665722066726f6d20696e636f72726563742060448201527f6f776e65720000000000000000000000000000000000000000000000000000006064820152fd5b3d15613b28573d90613b0e8261350a565b91613b1c60405193846134d1565b82523d6000602084013e565b606090565b9091600091803b15613cba57613b996020916001600160a01b0393856040519586809581947f150b7a02000000000000000000000000000000000000000000000000000000009b8c845233600485015285602485015260448401526080606484015260848301906131b9565b0393165af190829082613c53575b5050613c2d57613bb5613afd565b80519081613c285760405162461bcd60e51b815260206004820152603260248201527f4552433732313a207472616e7366657220746f206e6f6e20455243373231526560448201527f63656976657220696d706c656d656e74657200000000000000000000000000006064820152608490fd5b602001fd5b7fffffffff00000000000000000000000000000000000000000000000000000000161490565b909192506020813d8211613cb2575b81613c6f602093836134d1565b81010312613cae5751907fffffffff0000000000000000000000000000000000000000000000000000000082168203613cab5750903880613ba7565b80fd5b5080fd5b3d9150613c62565b50505050600190565b91926000929190813b15613d3357602091613b9991856040519586809581947f150b7a02000000000000000000000000000000000000000000000000000000009b8c84523360048501526001600160a01b03809516602485015260448401526080606484015260848301906131b9565b5050505050600190565b601f8111613d49575050565b60009060cc82527f47197230e1e4b29fc0bd84d7d78966c0925452aff72a2a121538b102457e9ebe906020601f850160051c83019410613da4575b601f0160051c01915b828110613d9957505050565b818155600101613d8d565b9092508290613d84565b6001600160a01b031690604051613dc481613461565b6020928382527f5361666545524332303a206c6f772d6c6576656c2063616c6c206661696c656484830152803b15613eb65790613e199160008481959282888195519301915af1613e13613afd565b90613efa565b805180613e265750505050565b81849181010312613cae5782015190811591821503613cab5750613e4c578080806133f7565b6084906040519062461bcd60e51b82526004820152602a60248201527f5361666545524332303a204552433230206f7065726174696f6e20646964206e60448201527f6f742073756363656564000000000000000000000000000000000000000000006064820152fd5b6064846040519062461bcd60e51b82526004820152601d60248201527f416464726573733a2063616c6c20746f206e6f6e2d636f6e74726163740000006044820152fd5b90919015613f06575090565b815115613f165750805190602001fd5b6138469060405191829162461bcd60e51b83526020600484015260248301906131b9565b6000198114611da85760010190565b91908110156132a75760051b0190565b62030d40908060001904821181151516611da8570290565b620186a0908060001904821181151516611da8570290565b8060001904603c1181151516611da857603c0290565b8060001904601e1181151516611da857601e0290565b8060001904821181151516611da8570290565b8115613fd2570490565b634e487b7160e01b600052601260045260246000fd5b90600082815260de926020918483526040908181205460019081848420015492600385822001549861402260049a8b8885200154906138c3565b9060d35493600285106143905760011980950192600019938085046042118115151661437c57918d916042959493606496879102041015614313578a8652828c5289862060038101549083015410801561430b576002925b60068c892001908410156142f75760ff199360ff8583541691161790558b8752838d5260068b88200161010061ff00198254161790556000146141f4575087855260dc8b52888520805490911660051790558784208601805490859055918291846140e484613f89565b04908b87528c5289862054865260dc8c52614105888b8820019182546138c3565b905561411d8461411484613f9f565b0460d7546138c3565b60d75504600a11811515166141e15790600a61413d92020460d9546138c3565b60d95560d6549182116141ce57507f3caa68ace909b33d20e5ff96e9c98e4f6b20d3490307a1c09b28bea2e71893d69697509185917f7bd432623a7ded907d0b1d373f5979fadde9c0f579f29ae990736e560c2a1aaa930160d6557f939e6ef49701507f032296ab644b4aebf199222450de6622bb5f9550c7a78209828551838152a18351908152a15b51908152a1565b8060118a634e487b7160e01b6024945252fd5b60248360118d634e487b7160e01b835252fd5b929397505094928094505260dc8852818684200154808204602811811515166142e457602886910204938492888552818a5287852054855260dc8a528661423f828a88200154613f89565b04918986528a5287852054855260dc8a528785200155048215159080604b1182166142d15761427585604b86020460d7546138c3565b60d755601911166142be57507f3caa68ace909b33d20e5ff96e9c98e4f6b20d3490307a1c09b28bea2e71893d69596509060196142b692020460d9546138c3565b60d9556141c7565b80601189634e487b7160e01b6024945252fd5b60248360118c634e487b7160e01b835252fd5b60248460118d634e487b7160e01b835252fd5b8f886021602492634e487b7160e01b835252fd5b60039261407a565b5050888452895250508481206006908101805460ff19168517905585822001805461ff00191661010017905560d5549293509082116142be57507f3caa68ace909b33d20e5ff96e9c98e4f6b20d3490307a1c09b28bea2e71893d69596500160d55551908152a1565b5060248560118f634e487b7160e01b835252fd5b60248460118e634e487b7160e01b835252fd5b600090600091606060cd546143c260ce54916121ae60cf548094613fb5565b4211156143ee57505050604051918060208401526040830152604082526143e88261347d565b60019190565b6143ff9060d19592949395546138c3565b42116144b15760df5460d45491805b82811061441b5750505050565b61442481613270565b90549060031b1c84811080614494575b80614470575b61444d575061444890613f3a565b61440e565b96505050505090506040805192600260208501528184015282526143e88261347d565b5080835260de60205261448d600560408520015460d054906138c3565b421161443a565b5080835260de60205260ff600660408520015460081c1615614434565b9250905060405191600160208401526040830152604082526143e88261347d565b80511561466257604051906144e68261347d565b604082527f4142434445464748494a4b4c4d4e4f505152535455565758595a61626364656660208301527f6768696a6b6c6d6e6f707172737475767778797a303132333435363738392b2f60408301528051907ffffffffffffffffffffffffffffffffffffffffffffffffffffffffffffffffd8211611da857600390816002809401046001907f3fffffffffffffffffffffffffffffffffffffffffffffffffffffffffffffff81118216611da857841b9493906145bd6145a78761350a565b966145b560405198896134d1565b80885261350a565b601f1960208801910136823794839284518501935b8481106146115750505050505106806001146145fe576002146145f3575090565b600019603d91015390565b5060011981603d60001981940153015390565b866004919892939495980191858351603f9082828260121c16890101518453828282600c1c16890101518385015382828260061c1689010151878501531686010151888201530196939291906145d2565b5060405161466f81613499565b6000815290565b60ff60cb54166005908181101561127f576004809103614726575b50507f7cb904b3cfc4c896696085c26766cebf2de422ae3864a0112b5e2fd9ec1efaf8604060009280845260dc602052600182852001541560001461470757835b6146e9856001600160a01b0360c954163390614945565b81815260dc602052600183822001558151908152836020820152a190565b614720600183862001546121ae60d75460da5490613fc8565b936146d2565b60cd939193549261474160ce946121ae865460cf5490613fb5565b4211156149015760d39081549160da9283556000945b815486101561489b5760005b875481101561488e5780600052602060db8152604080600020896000528252610f4f614797826000208351928380926133ca565b51156147ad5750506147a890613f3a565b614763565b90915087600098939594985260dc8083526001906147dc82846000200154611fbf620f424080611f8d84613f59565b6147e960d79182546138c3565b90558460005283526000818382200155816000208b60ff198254161790558654908110614879576000190186555182815261487192917f939e6ef49701507f032296ab644b4aebf199222450de6622bb5f9550c7a7820991a17f8990a2cca2ad5b32ae72395c0db570652316a7903178764820232d8fe5d2b3556020604051838152a1613f3a565b949091614757565b601188634e487b7160e01b6000525260246000fd5b509190946148719061201f565b965050935090915054156148e6575b60ff1960cb54161760cb557f7069a5d4cbf1f64db906d1dd29276702df7e9c795ef1746d7a1ca5449c4893f16020604051338152a13880614691565b6148f460d75460d9546138c3565b60d955600060d7556148aa565b60648260206040519162461bcd60e51b8352820152601360248201527f43616d706169676e3a206e6f7420656e646564000000000000000000000000006044820152fd5b614998926001600160a01b03604051937fa9059cbb000000000000000000000000000000000000000000000000000000006020860152166024840152604483015260448252614993826134b5565b613dae565b565b60d854600060d855614a1b6001600160a01b036149bd838260c954163390614945565b60c9541660d95490604051917fa9059cbb00000000000000000000000000000000000000000000000000000000602084015273d8da6bf26964af9d7eed9e03e53415d37aa960456024840152604483015260448252614993826134b5565b7f7a1c31090abe490bfd8379cbbaeef735a3e3c87ee34925f16d0fa3ff4e061155606060d954604051903382528460208301526040820152a190565b60d15460cf5490614a6882826138c3565b4211614aed575b505060d2547fb33a1f54dde4e0082c45281b338d78b2c4b5be163b6ffffa5d0d6d1050ba5a586020604051838152a160ce541115614aa957565b606460405162461bcd60e51b815260206004820152601d60248201527f43616d706169676e3a20636865636b45706f636820746f6f206c6174650000006044820152fd5b6121ae82614b07614b1c94614b0285426138b8565b613fc8565b90614b148260d2546138c3565b60d255613fb5565b60d1553880614a6f565b614b2f906136ff565b6001600160a01b0333911603614b4157565b606460405162461bcd60e51b815260206004820152601a60248201527f43616d706169676e3a206e6f7420746f6b656e20686f6c6465720000000000006044820152fd5b60005260dc60205260ff60406000205416600781101561127f57600303614ba857565b606460405162461bcd60e51b815260206004820152601660248201527f43616d706169676e3a206e6f742061646d6974746564000000000000000000006044820152fd5b60d4541115614bf757565b606460405162461bcd60e51b815260206004820152601a60248201527f4368616c6c656e67655265636f72643a206e6f742065786973740000000000006044820152fd5b60cd54421015614c4757565b606460405162461bcd60e51b815260206004820152601960248201527f43616d706169676e3a20616c72656164792073746172746564000000000000006044820152fd5b60cd544210614c9657565b606460405162461bcd60e51b815260206004820152601360248201527f43616d706169676e3a206e6f74207374617274000000000000000000000000006044820152fd5b60d45460d55403614ce757565b606460405162461bcd60e51b815260206004820152601960248201527f4368616c6c656e67653a206e6f7420616c6c206a7564676564000000000000006044820152fd5b60d6546064614d3b60d354613f9f565b0411614d4357565b606460405162461bcd60e51b815260206004820152601c60248201527f43616d706169676e3a206e6f7420656e6f7567682063686561746572000000006044820152fdfea26469706673582212207a834fa74cca126ed432da42b2eb9b73f127723b852409b183ab8e4e01ec42c064736f6c634300080f0033",
  "devdoc": {
    "details": "for implementation of erc1167 implementation",
    "kind": "dev",
    "methods": {
      "admit(uint256[])": {
        "details": "campaign owner admit several address to participate this campaign",
        "params": {
          "allowlists": "allowed tokenId array"
        }
      },
      "approve(address,uint256)": {
        "details": "See {IERC721-approve}."
      },
      "balanceOf(address)": {
        "details": "See {IERC721-balanceOf}."
      },
      "checkIn(string,uint256)": {
        "details": "user check in",
        "params": {
          "contentUri": "string of ipfs uri or other decentralize storage"
        }
      },
      "claim(uint256)": {
        "details": "user claim reward after campaign settled"
      },
      "claimAndWithdraw(uint256)": {
        "details": "host who participate the campaign claim reward and withdraw host reward"
      },
      "getApproved(uint256)": {
        "details": "See {IERC721-getApproved}."
      },
      "getTokenProperties(uint256)": {
        "details": "read Token properties"
      },
      "isApprovedForAll(address,address)": {
        "details": "See {IERC721-isApprovedForAll}."
      },
      "modifyRegistry(uint256[],bool[])": {
        "details": "once campaign owner admit some address by mistakecan modify via this function but more gas-expensive",
        "params": {
          "lists": "modified tokenId list array",
          "targetStatuses": "corresponding status array"
        }
      },
      "name()": {
        "details": "See {IERC721Metadata-name}."
      },
      "owner()": {
        "details": "Returns the address of the current owner."
      },
      "ownerOf(uint256)": {
        "details": "See {IERC721-ownerOf}."
      },
      "performUpkeep(bytes)": {
        "details": "types task to do 0: settle the campaign 1: checkEpoch 2: judge challenge"
      },
      "renounceOwnership()": {
        "details": "Leaves the contract without owner. It will not be possible to call `onlyOwner` functions anymore. Can only be called by the current owner. NOTE: Renouncing ownership will leave the contract without an owner, thereby removing any functionality that is only available to the owner."
      },
      "safeTransferFrom(address,address,uint256)": {
        "details": "See {IERC721-safeTransferFrom}."
      },
      "safeTransferFrom(address,address,uint256,bytes)": {
        "details": "See {IERC721-safeTransferFrom}."
      },
      "setApprovalForAll(address,bool)": {
        "details": "See {IERC721-setApprovalForAll}."
      },
      "settle()": {
        "details": "everyone can call the function to settle reward"
      },
      "signUp()": {
        "details": "user stake token and want to participate this campaign"
      },
      "supportsInterface(bytes4)": {
        "details": "See {IERC165-supportsInterface}."
      },
      "symbol()": {
        "details": "See {IERC721Metadata-symbol}."
      },
      "tokenURI(uint256)": {
        "details": "See {IERC721Metadata-tokenURI}."
      },
      "transferFrom(address,address,uint256)": {
        "details": "See {IERC721-transferFrom}."
      },
      "transferOwnership(address)": {
        "details": "Transfers ownership of the contract to a new account (`newOwner`). Can only be called by the current owner."
      },
      "withdraw()": {
        "details": "host withdraw host reward"
      }
    },
    "version": 1
  },
  "userdoc": {
    "kind": "user",
    "methods": {},
    "version": 1
  },
  "storageLayout": {
    "storage": [
      {
        "astId": 464,
        "contract": "contracts/Campaign.sol:Campaign",
        "label": "_initialized",
        "offset": 0,
        "slot": "0",
        "type": "t_uint8"
      },
      {
        "astId": 467,
        "contract": "contracts/Campaign.sol:Campaign",
        "label": "_initializing",
        "offset": 1,
        "slot": "0",
        "type": "t_bool"
      },
      {
        "astId": 2340,
        "contract": "contracts/Campaign.sol:Campaign",
        "label": "__gap",
        "offset": 0,
        "slot": "1",
        "type": "t_array(t_uint256)50_storage"
      },
      {
        "astId": 336,
        "contract": "contracts/Campaign.sol:Campaign",
        "label": "_owner",
        "offset": 0,
        "slot": "51",
        "type": "t_address"
      },
      {
        "astId": 456,
        "contract": "contracts/Campaign.sol:Campaign",
        "label": "__gap",
        "offset": 0,
        "slot": "52",
        "type": "t_array(t_uint256)49_storage"
      },
      {
        "astId": 2610,
        "contract": "contracts/Campaign.sol:Campaign",
        "label": "__gap",
        "offset": 0,
        "slot": "101",
        "type": "t_array(t_uint256)50_storage"
      },
      {
        "astId": 1032,
        "contract": "contracts/Campaign.sol:Campaign",
        "label": "_name",
        "offset": 0,
        "slot": "151",
        "type": "t_string_storage"
      },
      {
        "astId": 1034,
        "contract": "contracts/Campaign.sol:Campaign",
        "label": "_symbol",
        "offset": 0,
        "slot": "152",
        "type": "t_string_storage"
      },
      {
        "astId": 1038,
        "contract": "contracts/Campaign.sol:Campaign",
        "label": "_owners",
        "offset": 0,
        "slot": "153",
        "type": "t_mapping(t_uint256,t_address)"
      },
      {
        "astId": 1042,
        "contract": "contracts/Campaign.sol:Campaign",
        "label": "_balances",
        "offset": 0,
        "slot": "154",
        "type": "t_mapping(t_address,t_uint256)"
      },
      {
        "astId": 1046,
        "contract": "contracts/Campaign.sol:Campaign",
        "label": "_tokenApprovals",
        "offset": 0,
        "slot": "155",
        "type": "t_mapping(t_uint256,t_address)"
      },
      {
        "astId": 1052,
        "contract": "contracts/Campaign.sol:Campaign",
        "label": "_operatorApprovals",
        "offset": 0,
        "slot": "156",
        "type": "t_mapping(t_address,t_mapping(t_address,t_bool))"
      },
      {
        "astId": 1894,
        "contract": "contracts/Campaign.sol:Campaign",
        "label": "__gap",
        "offset": 0,
        "slot": "157",
        "type": "t_array(t_uint256)44_storage"
      },
      {
        "astId": 4002,
        "contract": "contracts/Campaign.sol:Campaign",
        "label": "targetToken",
        "offset": 0,
        "slot": "201",
        "type": "t_contract(IERC20Upgradeable)686"
      },
      {
        "astId": 4004,
        "contract": "contracts/Campaign.sol:Campaign",
        "label": "requiredAmount",
        "offset": 0,
        "slot": "202",
        "type": "t_uint256"
      },
      {
        "astId": 4008,
        "contract": "contracts/Campaign.sol:Campaign",
        "label": "status",
        "offset": 0,
        "slot": "203",
        "type": "t_enum(CampaignStatus)6797"
      },
      {
        "astId": 4010,
        "contract": "contracts/Campaign.sol:Campaign",
        "label": "campaignUri",
        "offset": 0,
        "slot": "204",
        "type": "t_string_storage"
      },
      {
        "astId": 4012,
        "contract": "contracts/Campaign.sol:Campaign",
        "label": "startTime",
        "offset": 0,
        "slot": "205",
        "type": "t_uint256"
      },
      {
        "astId": 4015,
        "contract": "contracts/Campaign.sol:Campaign",
        "label": "totalEpochsCount",
        "offset": 0,
        "slot": "206",
        "type": "t_uint256"
      },
      {
        "astId": 4018,
        "contract": "contracts/Campaign.sol:Campaign",
        "label": "period",
        "offset": 0,
        "slot": "207",
        "type": "t_uint256"
      },
      {
        "astId": 4021,
        "contract": "contracts/Campaign.sol:Campaign",
        "label": "challengeLength",
        "offset": 0,
        "slot": "208",
        "type": "t_uint256"
      },
      {
        "astId": 4023,
        "contract": "contracts/Campaign.sol:Campaign",
        "label": "lastEpochEndTime",
        "offset": 0,
        "slot": "209",
        "type": "t_uint256"
      },
      {
        "astId": 4026,
        "contract": "contracts/Campaign.sol:Campaign",
        "label": "currentEpoch",
        "offset": 0,
        "slot": "210",
        "type": "t_uint256"
      },
      {
        "astId": 4028,
        "contract": "contracts/Campaign.sol:Campaign",
        "label": "_idx",
        "offset": 0,
        "slot": "211",
        "type": "t_uint256"
      },
      {
        "astId": 4030,
        "contract": "contracts/Campaign.sol:Campaign",
        "label": "_challengeIdx",
        "offset": 0,
        "slot": "212",
        "type": "t_uint256"
      },
      {
        "astId": 4032,
        "contract": "contracts/Campaign.sol:Campaign",
        "label": "challengeJudgedCount",
        "offset": 0,
        "slot": "213",
        "type": "t_uint256"
      },
      {
        "astId": 4034,
        "contract": "contracts/Campaign.sol:Campaign",
        "label": "cheatCount",
        "offset": 0,
        "slot": "214",
        "type": "t_uint256"
      },
      {
        "astId": 4036,
        "contract": "contracts/Campaign.sol:Campaign",
        "label": "sharedReward",
        "offset": 0,
        "slot": "215",
        "type": "t_uint256"
      },
      {
        "astId": 4038,
        "contract": "contracts/Campaign.sol:Campaign",
        "label": "hostReward",
        "offset": 0,
        "slot": "216",
        "type": "t_uint256"
      },
      {
        "astId": 4040,
        "contract": "contracts/Campaign.sol:Campaign",
        "label": "protocolFee",
        "offset": 0,
        "slot": "217",
        "type": "t_uint256"
      },
      {
        "astId": 4042,
        "contract": "contracts/Campaign.sol:Campaign",
        "label": "successTokensCount",
        "offset": 0,
        "slot": "218",
        "type": "t_uint256"
      },
      {
        "astId": 4049,
        "contract": "contracts/Campaign.sol:Campaign",
        "label": "records",
        "offset": 0,
        "slot": "219",
        "type": "t_mapping(t_uint256,t_mapping(t_uint256,t_struct(Record)7138_storage))"
      },
      {
        "astId": 4054,
        "contract": "contracts/Campaign.sol:Campaign",
        "label": "s_properties",
        "offset": 0,
        "slot": "220",
        "type": "t_mapping(t_uint256,t_struct(TokenProperty)7127_storage)"
      },
      {
        "astId": 4061,
        "contract": "contracts/Campaign.sol:Campaign",
        "label": "voters",
        "offset": 0,
        "slot": "221",
        "type": "t_mapping(t_uint256,t_mapping(t_uint256,t_struct(Voter)7098_storage))"
      },
      {
        "astId": 4066,
        "contract": "contracts/Campaign.sol:Campaign",
        "label": "challengeRecords",
        "offset": 0,
        "slot": "222",
        "type": "t_mapping(t_uint256,t_struct(ChallengeRecord)7116_storage)"
      },
      {
        "astId": 4069,
        "contract": "contracts/Campaign.sol:Campaign",
        "label": "challengeList",
        "offset": 0,
        "slot": "223",
        "type": "t_array(t_uint256)dyn_storage"
      },
      {
        "astId": 4073,
        "contract": "contracts/Campaign.sol:Campaign",
        "label": "challengedRecords",
        "offset": 0,
        "slot": "224",
        "type": "t_mapping(t_bytes32,t_bool)"
      }
    ],
    "types": {
      "t_address": {
        "encoding": "inplace",
        "label": "address",
        "numberOfBytes": "20"
      },
      "t_array(t_uint256)44_storage": {
        "base": "t_uint256",
        "encoding": "inplace",
        "label": "uint256[44]",
        "numberOfBytes": "1408"
      },
      "t_array(t_uint256)49_storage": {
        "base": "t_uint256",
        "encoding": "inplace",
        "label": "uint256[49]",
        "numberOfBytes": "1568"
      },
      "t_array(t_uint256)50_storage": {
        "base": "t_uint256",
        "encoding": "inplace",
        "label": "uint256[50]",
        "numberOfBytes": "1600"
      },
      "t_array(t_uint256)dyn_storage": {
        "base": "t_uint256",
        "encoding": "dynamic_array",
        "label": "uint256[]",
        "numberOfBytes": "32"
      },
      "t_bool": {
        "encoding": "inplace",
        "label": "bool",
        "numberOfBytes": "1"
      },
      "t_bytes32": {
        "encoding": "inplace",
        "label": "bytes32",
        "numberOfBytes": "32"
      },
      "t_contract(IERC20Upgradeable)686": {
        "encoding": "inplace",
        "label": "contract IERC20Upgradeable",
        "numberOfBytes": "20"
      },
      "t_enum(CampaignStatus)6797": {
        "encoding": "inplace",
        "label": "enum Consts.CampaignStatus",
        "numberOfBytes": "1"
      },
      "t_enum(ChallengeResult)7121": {
        "encoding": "inplace",
        "label": "enum ICampaign.ChallengeResult",
        "numberOfBytes": "1"
      },
      "t_enum(TokenStatus)7135": {
        "encoding": "inplace",
        "label": "enum ICampaign.TokenStatus",
        "numberOfBytes": "1"
      },
      "t_mapping(t_address,t_bool)": {
        "encoding": "mapping",
        "key": "t_address",
        "label": "mapping(address => bool)",
        "numberOfBytes": "32",
        "value": "t_bool"
      },
      "t_mapping(t_address,t_mapping(t_address,t_bool))": {
        "encoding": "mapping",
        "key": "t_address",
        "label": "mapping(address => mapping(address => bool))",
        "numberOfBytes": "32",
        "value": "t_mapping(t_address,t_bool)"
      },
      "t_mapping(t_address,t_uint256)": {
        "encoding": "mapping",
        "key": "t_address",
        "label": "mapping(address => uint256)",
        "numberOfBytes": "32",
        "value": "t_uint256"
      },
      "t_mapping(t_bytes32,t_bool)": {
        "encoding": "mapping",
        "key": "t_bytes32",
        "label": "mapping(bytes32 => bool)",
        "numberOfBytes": "32",
        "value": "t_bool"
      },
      "t_mapping(t_uint256,t_address)": {
        "encoding": "mapping",
        "key": "t_uint256",
        "label": "mapping(uint256 => address)",
        "numberOfBytes": "32",
        "value": "t_address"
      },
      "t_mapping(t_uint256,t_mapping(t_uint256,t_struct(Record)7138_storage))": {
        "encoding": "mapping",
        "key": "t_uint256",
        "label": "mapping(uint256 => mapping(uint256 => struct ICampaign.Record))",
        "numberOfBytes": "32",
        "value": "t_mapping(t_uint256,t_struct(Record)7138_storage)"
      },
      "t_mapping(t_uint256,t_mapping(t_uint256,t_struct(Voter)7098_storage))": {
        "encoding": "mapping",
        "key": "t_uint256",
        "label": "mapping(uint256 => mapping(uint256 => struct ICampaign.Voter))",
        "numberOfBytes": "32",
        "value": "t_mapping(t_uint256,t_struct(Voter)7098_storage)"
      },
      "t_mapping(t_uint256,t_struct(ChallengeRecord)7116_storage)": {
        "encoding": "mapping",
        "key": "t_uint256",
        "label": "mapping(uint256 => struct ICampaign.ChallengeRecord)",
        "numberOfBytes": "32",
        "value": "t_struct(ChallengeRecord)7116_storage"
      },
      "t_mapping(t_uint256,t_struct(Record)7138_storage)": {
        "encoding": "mapping",
        "key": "t_uint256",
        "label": "mapping(uint256 => struct ICampaign.Record)",
        "numberOfBytes": "32",
        "value": "t_struct(Record)7138_storage"
      },
      "t_mapping(t_uint256,t_struct(TokenProperty)7127_storage)": {
        "encoding": "mapping",
        "key": "t_uint256",
        "label": "mapping(uint256 => struct ICampaign.TokenProperty)",
        "numberOfBytes": "32",
        "value": "t_struct(TokenProperty)7127_storage"
      },
      "t_mapping(t_uint256,t_struct(Voter)7098_storage)": {
        "encoding": "mapping",
        "key": "t_uint256",
        "label": "mapping(uint256 => struct ICampaign.Voter)",
        "numberOfBytes": "32",
        "value": "t_struct(Voter)7098_storage"
      },
      "t_string_storage": {
        "encoding": "bytes",
        "label": "string",
        "numberOfBytes": "32"
      },
      "t_struct(ChallengeRecord)7116_storage": {
        "encoding": "inplace",
        "label": "struct ICampaign.ChallengeRecord",
        "members": [
          {
            "astId": 7100,
            "contract": "contracts/Campaign.sol:Campaign",
            "label": "challengerId",
            "offset": 0,
            "slot": "0",
            "type": "t_uint256"
          },
          {
            "astId": 7102,
            "contract": "contracts/Campaign.sol:Campaign",
            "label": "cheaterId",
            "offset": 0,
            "slot": "1",
            "type": "t_uint256"
          },
          {
            "astId": 7104,
            "contract": "contracts/Campaign.sol:Campaign",
            "label": "epoch",
            "offset": 0,
            "slot": "2",
            "type": "t_uint256"
          },
          {
            "astId": 7106,
            "contract": "contracts/Campaign.sol:Campaign",
            "label": "agreeCount",
            "offset": 0,
            "slot": "3",
            "type": "t_uint256"
          },
          {
            "astId": 7108,
            "contract": "contracts/Campaign.sol:Campaign",
            "label": "disagreeCount",
            "offset": 0,
            "slot": "4",
            "type": "t_uint256"
          },
          {
            "astId": 7110,
            "contract": "contracts/Campaign.sol:Campaign",
            "label": "challengeRiseTime",
            "offset": 0,
            "slot": "5",
            "type": "t_uint256"
          },
          {
            "astId": 7113,
            "contract": "contracts/Campaign.sol:Campaign",
            "label": "result",
            "offset": 0,
            "slot": "6",
            "type": "t_enum(ChallengeResult)7121"
          },
          {
            "astId": 7115,
            "contract": "contracts/Campaign.sol:Campaign",
            "label": "judged",
            "offset": 1,
            "slot": "6",
            "type": "t_bool"
          }
        ],
        "numberOfBytes": "224"
      },
      "t_struct(Record)7138_storage": {
        "encoding": "inplace",
        "label": "struct ICampaign.Record",
        "members": [
          {
            "astId": 7137,
            "contract": "contracts/Campaign.sol:Campaign",
            "label": "contentUri",
            "offset": 0,
            "slot": "0",
            "type": "t_string_storage"
          }
        ],
        "numberOfBytes": "32"
      },
      "t_struct(TokenProperty)7127_storage": {
        "encoding": "inplace",
        "label": "struct ICampaign.TokenProperty",
        "members": [
          {
            "astId": 7124,
            "contract": "contracts/Campaign.sol:Campaign",
            "label": "tokenStatus",
            "offset": 0,
            "slot": "0",
            "type": "t_enum(TokenStatus)7135"
          },
          {
            "astId": 7126,
            "contract": "contracts/Campaign.sol:Campaign",
            "label": "pendingReward",
            "offset": 0,
            "slot": "1",
            "type": "t_uint256"
          }
        ],
        "numberOfBytes": "64"
      },
      "t_struct(Voter)7098_storage": {
        "encoding": "inplace",
        "label": "struct ICampaign.Voter",
        "members": [
          {
            "astId": 7095,
            "contract": "contracts/Campaign.sol:Campaign",
            "label": "voted",
            "offset": 0,
            "slot": "0",
            "type": "t_bool"
          },
          {
            "astId": 7097,
            "contract": "contracts/Campaign.sol:Campaign",
            "label": "choice",
            "offset": 1,
            "slot": "0",
            "type": "t_bool"
          }
        ],
        "numberOfBytes": "32"
      },
      "t_uint256": {
        "encoding": "inplace",
        "label": "uint256",
        "numberOfBytes": "32"
      },
      "t_uint8": {
        "encoding": "inplace",
        "label": "uint8",
        "numberOfBytes": "1"
      }
    }
  }
}