{
  "address": "0x792370Bdc604c1e7e2673AdAA6DB580056AF0A9A",
  "abi": [
    {
      "inputs": [
        {
          "internalType": "contract IRenderer",
          "name": "render_",
          "type": "address"
        }
      ],
      "stateMutability": "nonpayable",
      "type": "constructor"
    },
    {
      "inputs": [],
      "name": "OnlySimulatedBackend",
      "type": "error"
    },
    {
      "anonymous": false,
      "inputs": [
        {
          "indexed": true,
          "internalType": "address",
          "name": "owner",
          "type": "address"
        },
        {
          "indexed": true,
          "internalType": "address",
          "name": "approved",
          "type": "address"
        },
        {
          "indexed": true,
          "internalType": "uint256",
          "name": "tokenId",
          "type": "uint256"
        }
      ],
      "name": "Approval",
      "type": "event"
    },
    {
      "anonymous": false,
      "inputs": [
        {
          "indexed": true,
          "internalType": "address",
          "name": "owner",
          "type": "address"
        },
        {
          "indexed": true,
          "internalType": "address",
          "name": "operator",
          "type": "address"
        },
        {
          "indexed": false,
          "internalType": "bool",
          "name": "approved",
          "type": "bool"
        }
      ],
      "name": "ApprovalForAll",
      "type": "event"
    },
    {
      "anonymous": false,
      "inputs": [
        {
          "indexed": false,
          "internalType": "uint256",
          "name": "currentEpoch",
          "type": "uint256"
        }
      ],
      "name": "EpochUpdated",
      "type": "event"
    },
    {
      "anonymous": false,
      "inputs": [
        {
          "indexed": false,
          "internalType": "string",
          "name": "newUri",
          "type": "string"
        }
      ],
      "name": "EvCampaignUriSet",
      "type": "event"
    },
    {
      "anonymous": false,
      "inputs": [
        {
          "indexed": false,
          "internalType": "uint256",
          "name": "challengerId",
          "type": "uint256"
        },
        {
          "indexed": false,
          "internalType": "uint256",
          "name": "cheaterId",
          "type": "uint256"
        },
        {
          "indexed": false,
          "internalType": "uint256",
          "name": "challengeRecordId",
          "type": "uint256"
        }
      ],
      "name": "EvChallenge",
      "type": "event"
    },
    {
      "anonymous": false,
      "inputs": [
        {
          "indexed": false,
          "internalType": "uint256",
          "name": "cheaterId",
          "type": "uint256"
        }
      ],
      "name": "EvCheat",
      "type": "event"
    },
    {
      "anonymous": false,
      "inputs": [
        {
          "indexed": false,
          "internalType": "uint256",
          "name": "epoch",
          "type": "uint256"
        },
        {
          "indexed": false,
          "internalType": "uint256",
          "name": "tokenId",
          "type": "uint256"
        },
        {
          "indexed": false,
          "internalType": "string",
          "name": "contentUri",
          "type": "string"
        }
      ],
      "name": "EvCheckIn",
      "type": "event"
    },
    {
      "anonymous": false,
      "inputs": [
        {
          "indexed": false,
          "internalType": "uint256",
          "name": "tokenId",
          "type": "uint256"
        },
        {
          "indexed": false,
          "internalType": "uint256",
          "name": "amount",
          "type": "uint256"
        }
      ],
      "name": "EvClaimReward",
      "type": "event"
    },
    {
      "anonymous": false,
      "inputs": [
        {
          "indexed": false,
          "internalType": "uint256",
          "name": "tokenId",
          "type": "uint256"
        }
      ],
      "name": "EvFailure",
      "type": "event"
    },
    {
      "anonymous": false,
      "inputs": [
        {
          "indexed": false,
          "internalType": "uint256",
          "name": "challengeRecordId",
          "type": "uint256"
        }
      ],
      "name": "EvJudgement",
      "type": "event"
    },
    {
      "anonymous": false,
      "inputs": [
        {
          "indexed": false,
          "internalType": "uint256[]",
          "name": "tokenList",
          "type": "uint256[]"
        },
        {
          "indexed": false,
          "internalType": "bool[]",
          "name": "status",
          "type": "bool[]"
        }
      ],
      "name": "EvModifyRegistry",
      "type": "event"
    },
    {
      "anonymous": false,
      "inputs": [
        {
          "indexed": false,
          "internalType": "uint256",
          "name": "tokenId",
          "type": "uint256"
        }
      ],
      "name": "EvRegisterSuccessfully",
      "type": "event"
    },
    {
      "anonymous": false,
      "inputs": [
        {
          "indexed": false,
          "internalType": "address",
          "name": "user",
          "type": "address"
        }
      ],
      "name": "EvSettle",
      "type": "event"
    },
    {
      "anonymous": false,
      "inputs": [
        {
          "indexed": false,
          "internalType": "uint256",
          "name": "tokenId",
          "type": "uint256"
        }
      ],
      "name": "EvSignUp",
      "type": "event"
    },
    {
      "anonymous": false,
      "inputs": [
        {
          "indexed": false,
          "internalType": "uint256",
          "name": "tokenId",
          "type": "uint256"
        }
      ],
      "name": "EvSuccess",
      "type": "event"
    },
    {
      "anonymous": false,
      "inputs": [
        {
          "indexed": false,
          "internalType": "uint256",
          "name": "tokenId",
          "type": "uint256"
        },
        {
          "indexed": false,
          "internalType": "uint256",
          "name": "challengeRecordId",
          "type": "uint256"
        }
      ],
      "name": "EvVote",
      "type": "event"
    },
    {
      "anonymous": false,
      "inputs": [
        {
          "indexed": false,
          "internalType": "address",
          "name": "host",
          "type": "address"
        },
        {
          "indexed": false,
          "internalType": "uint256",
          "name": "hostReward",
          "type": "uint256"
        },
        {
          "indexed": false,
          "internalType": "uint256",
          "name": "protocolFee",
          "type": "uint256"
        }
      ],
      "name": "EvWithDraw",
      "type": "event"
    },
    {
      "anonymous": false,
      "inputs": [
        {
          "indexed": false,
          "internalType": "uint8",
          "name": "version",
          "type": "uint8"
        }
      ],
      "name": "Initialized",
      "type": "event"
    },
    {
      "anonymous": false,
      "inputs": [
        {
          "indexed": true,
          "internalType": "address",
          "name": "previousOwner",
          "type": "address"
        },
        {
          "indexed": true,
          "internalType": "address",
          "name": "newOwner",
          "type": "address"
        }
      ],
      "name": "OwnershipTransferred",
      "type": "event"
    },
    {
      "anonymous": false,
      "inputs": [
        {
          "indexed": true,
          "internalType": "address",
          "name": "from",
          "type": "address"
        },
        {
          "indexed": true,
          "internalType": "address",
          "name": "to",
          "type": "address"
        },
        {
          "indexed": true,
          "internalType": "uint256",
          "name": "tokenId",
          "type": "uint256"
        }
      ],
      "name": "Transfer",
      "type": "event"
    },
    {
      "inputs": [],
      "name": "_challengeIdx",
      "outputs": [
        {
          "internalType": "uint256",
          "name": "",
          "type": "uint256"
        }
      ],
      "stateMutability": "view",
      "type": "function"
    },
    {
      "inputs": [],
      "name": "_idx",
      "outputs": [
        {
          "internalType": "uint256",
          "name": "",
          "type": "uint256"
        }
      ],
      "stateMutability": "view",
      "type": "function"
    },
    {
      "inputs": [
        {
          "internalType": "uint256[]",
          "name": "allowlists",
          "type": "uint256[]"
        }
      ],
      "name": "admit",
      "outputs": [],
      "stateMutability": "nonpayable",
      "type": "function"
    },
    {
      "inputs": [
        {
          "internalType": "address",
          "name": "to",
          "type": "address"
        },
        {
          "internalType": "uint256",
          "name": "tokenId",
          "type": "uint256"
        }
      ],
      "name": "approve",
      "outputs": [],
      "stateMutability": "nonpayable",
      "type": "function"
    },
    {
      "inputs": [
        {
          "internalType": "address",
          "name": "owner",
          "type": "address"
        }
      ],
      "name": "balanceOf",
      "outputs": [
        {
          "internalType": "uint256",
          "name": "",
          "type": "uint256"
        }
      ],
      "stateMutability": "view",
      "type": "function"
    },
    {
      "inputs": [],
      "name": "campaignUri",
      "outputs": [
        {
          "internalType": "string",
          "name": "",
          "type": "string"
        }
      ],
      "stateMutability": "view",
      "type": "function"
    },
    {
      "inputs": [
        {
          "internalType": "uint256",
          "name": "challengerId",
          "type": "uint256"
        },
        {
          "internalType": "uint256",
          "name": "cheaterId",
          "type": "uint256"
        }
      ],
      "name": "challenge",
      "outputs": [],
      "stateMutability": "nonpayable",
      "type": "function"
    },
    {
      "inputs": [],
      "name": "challengeJudgedCount",
      "outputs": [
        {
          "internalType": "uint256",
          "name": "",
          "type": "uint256"
        }
      ],
      "stateMutability": "view",
      "type": "function"
    },
    {
      "inputs": [
        {
          "internalType": "uint256",
          "name": "",
          "type": "uint256"
        }
      ],
      "name": "challengeRecords",
      "outputs": [
        {
          "internalType": "uint256",
          "name": "challengerId",
          "type": "uint256"
        },
        {
          "internalType": "uint256",
          "name": "cheaterId",
          "type": "uint256"
        },
        {
          "internalType": "uint256",
          "name": "agreeCount",
          "type": "uint256"
        },
        {
          "internalType": "uint256",
          "name": "disagreeCount",
          "type": "uint256"
        },
        {
          "internalType": "uint256",
          "name": "challengeRiseTime",
          "type": "uint256"
        },
        {
          "internalType": "bool",
          "name": "result",
          "type": "bool"
        },
        {
          "internalType": "bool",
          "name": "state",
          "type": "bool"
        },
        {
          "internalType": "bool",
          "name": "legal",
          "type": "bool"
        }
      ],
      "stateMutability": "view",
      "type": "function"
    },
    {
      "inputs": [],
      "name": "cheatCount",
      "outputs": [
        {
          "internalType": "uint256",
          "name": "",
          "type": "uint256"
        }
      ],
      "stateMutability": "view",
      "type": "function"
    },
    {
      "inputs": [
        {
          "internalType": "string",
          "name": "contentUri",
          "type": "string"
        },
        {
          "internalType": "uint256",
          "name": "tokenId",
          "type": "uint256"
        }
      ],
      "name": "checkIn",
      "outputs": [],
      "stateMutability": "nonpayable",
      "type": "function"
    },
    {
      "inputs": [
        {
          "internalType": "bytes",
          "name": "",
          "type": "bytes"
        }
      ],
      "name": "checkUpkeep",
      "outputs": [
        {
          "internalType": "bool",
          "name": "upkeepNeeded",
          "type": "bool"
        },
        {
          "internalType": "bytes",
          "name": "performData",
          "type": "bytes"
        }
      ],
      "stateMutability": "view",
      "type": "function"
    },
    {
      "inputs": [
        {
          "internalType": "uint256",
          "name": "tokenId",
          "type": "uint256"
        }
      ],
      "name": "claim",
      "outputs": [],
      "stateMutability": "nonpayable",
      "type": "function"
    },
    {
      "inputs": [
        {
          "internalType": "uint256",
          "name": "tokenId",
          "type": "uint256"
        }
      ],
      "name": "claimAndWithdraw",
      "outputs": [],
      "stateMutability": "nonpayable",
      "type": "function"
    },
    {
      "inputs": [],
      "name": "currentEpoch",
      "outputs": [
        {
          "internalType": "uint256",
          "name": "",
          "type": "uint256"
        }
      ],
      "stateMutability": "view",
      "type": "function"
    },
    {
      "inputs": [],
      "name": "forceEnd",
      "outputs": [],
      "stateMutability": "nonpayable",
      "type": "function"
    },
    {
      "inputs": [
        {
          "internalType": "uint256",
          "name": "tokenId",
          "type": "uint256"
        }
      ],
      "name": "getApproved",
      "outputs": [
        {
          "internalType": "address",
          "name": "",
          "type": "address"
        }
      ],
      "stateMutability": "view",
      "type": "function"
    },
    {
      "inputs": [
        {
          "internalType": "uint256",
          "name": "tokenId",
          "type": "uint256"
        }
      ],
      "name": "getTokenProperties",
      "outputs": [
        {
          "components": [
            {
              "internalType": "enum ICampaign.TokenStatus",
              "name": "tokenStatus",
              "type": "uint8"
            },
            {
              "internalType": "uint256",
              "name": "pendingReward",
              "type": "uint256"
            }
          ],
          "internalType": "struct ICampaign.TokenProperty",
          "name": "",
          "type": "tuple"
        }
      ],
      "stateMutability": "view",
      "type": "function"
    },
    {
      "inputs": [],
      "name": "hostReward",
      "outputs": [
        {
          "internalType": "uint256",
          "name": "",
          "type": "uint256"
        }
      ],
      "stateMutability": "view",
      "type": "function"
    },
    {
      "inputs": [
        {
          "internalType": "address",
          "name": "owner",
          "type": "address"
        },
        {
          "internalType": "contract IERC20Upgradeable",
          "name": "token_",
          "type": "address"
        },
        {
          "internalType": "uint256",
          "name": "amount_",
          "type": "uint256"
        },
        {
          "internalType": "string",
          "name": "name_",
          "type": "string"
        },
        {
          "internalType": "string",
          "name": "symbol_",
          "type": "string"
        },
        {
          "internalType": "uint256",
          "name": "startTime_",
          "type": "uint256"
        },
        {
          "internalType": "uint256",
          "name": "totalPeriod_",
          "type": "uint256"
        },
        {
          "internalType": "uint256",
          "name": "periodLength_",
          "type": "uint256"
        },
        {
          "internalType": "string",
          "name": "campaignUri_",
          "type": "string"
        }
      ],
      "name": "initialize",
      "outputs": [],
      "stateMutability": "nonpayable",
      "type": "function"
    },
    {
      "inputs": [
        {
          "internalType": "address",
          "name": "owner",
          "type": "address"
        },
        {
          "internalType": "address",
          "name": "operator",
          "type": "address"
        }
      ],
      "name": "isApprovedForAll",
      "outputs": [
        {
          "internalType": "bool",
          "name": "",
          "type": "bool"
        }
      ],
      "stateMutability": "view",
      "type": "function"
    },
    {
      "inputs": [
        {
          "internalType": "uint256",
          "name": "challengeRecordId",
          "type": "uint256"
        }
      ],
      "name": "judgement",
      "outputs": [],
      "stateMutability": "nonpayable",
      "type": "function"
    },
    {
      "inputs": [],
      "name": "lastEpochEndTime",
      "outputs": [
        {
          "internalType": "uint256",
          "name": "",
          "type": "uint256"
        }
      ],
      "stateMutability": "view",
      "type": "function"
    },
    {
      "inputs": [
        {
          "internalType": "uint256[]",
          "name": "lists",
          "type": "uint256[]"
        },
        {
          "internalType": "bool[]",
          "name": "targetStatuses",
          "type": "bool[]"
        }
      ],
      "name": "modifyRegistry",
      "outputs": [],
      "stateMutability": "nonpayable",
      "type": "function"
    },
    {
      "inputs": [],
      "name": "name",
      "outputs": [
        {
          "internalType": "string",
          "name": "",
          "type": "string"
        }
      ],
      "stateMutability": "view",
      "type": "function"
    },
    {
      "inputs": [],
      "name": "owner",
      "outputs": [
        {
          "internalType": "address",
          "name": "",
          "type": "address"
        }
      ],
      "stateMutability": "view",
      "type": "function"
    },
    {
      "inputs": [
        {
          "internalType": "uint256",
          "name": "tokenId",
          "type": "uint256"
        }
      ],
      "name": "ownerOf",
      "outputs": [
        {
          "internalType": "address",
          "name": "",
          "type": "address"
        }
      ],
      "stateMutability": "view",
      "type": "function"
    },
    {
      "inputs": [
        {
          "internalType": "bytes",
          "name": "performData",
          "type": "bytes"
        }
      ],
      "name": "performUpkeep",
      "outputs": [],
      "stateMutability": "nonpayable",
      "type": "function"
    },
    {
      "inputs": [],
      "name": "period",
      "outputs": [
        {
          "internalType": "uint256",
          "name": "",
          "type": "uint256"
        }
      ],
      "stateMutability": "view",
      "type": "function"
    },
    {
      "inputs": [],
      "name": "protocolFee",
      "outputs": [
        {
          "internalType": "uint256",
          "name": "",
          "type": "uint256"
        }
      ],
      "stateMutability": "view",
      "type": "function"
    },
    {
      "inputs": [
        {
          "internalType": "uint256",
          "name": "",
          "type": "uint256"
        },
        {
          "internalType": "uint256",
          "name": "",
          "type": "uint256"
        }
      ],
      "name": "records",
      "outputs": [
        {
          "internalType": "string",
          "name": "contentUri",
          "type": "string"
        }
      ],
      "stateMutability": "view",
      "type": "function"
    },
    {
      "inputs": [],
      "name": "render",
      "outputs": [
        {
          "internalType": "contract IRenderer",
          "name": "",
          "type": "address"
        }
      ],
      "stateMutability": "view",
      "type": "function"
    },
    {
      "inputs": [],
      "name": "renounceOwnership",
      "outputs": [],
      "stateMutability": "nonpayable",
      "type": "function"
    },
    {
      "inputs": [],
      "name": "requiredAmount",
      "outputs": [
        {
          "internalType": "uint256",
          "name": "",
          "type": "uint256"
        }
      ],
      "stateMutability": "view",
      "type": "function"
    },
    {
      "inputs": [
        {
          "internalType": "address",
          "name": "from",
          "type": "address"
        },
        {
          "internalType": "address",
          "name": "to",
          "type": "address"
        },
        {
          "internalType": "uint256",
          "name": "tokenId",
          "type": "uint256"
        }
      ],
      "name": "safeTransferFrom",
      "outputs": [],
      "stateMutability": "nonpayable",
      "type": "function"
    },
    {
      "inputs": [
        {
          "internalType": "address",
          "name": "from",
          "type": "address"
        },
        {
          "internalType": "address",
          "name": "to",
          "type": "address"
        },
        {
          "internalType": "uint256",
          "name": "tokenId",
          "type": "uint256"
        },
        {
          "internalType": "bytes",
          "name": "data",
          "type": "bytes"
        }
      ],
      "name": "safeTransferFrom",
      "outputs": [],
      "stateMutability": "nonpayable",
      "type": "function"
    },
    {
      "inputs": [
        {
          "internalType": "address",
          "name": "operator",
          "type": "address"
        },
        {
          "internalType": "bool",
          "name": "approved",
          "type": "bool"
        }
      ],
      "name": "setApprovalForAll",
      "outputs": [],
      "stateMutability": "nonpayable",
      "type": "function"
    },
    {
      "inputs": [
        {
          "internalType": "string",
          "name": "newUri",
          "type": "string"
        }
      ],
      "name": "setCampaignUri",
      "outputs": [],
      "stateMutability": "nonpayable",
      "type": "function"
    },
    {
      "inputs": [],
      "name": "settle",
      "outputs": [],
      "stateMutability": "nonpayable",
      "type": "function"
    },
    {
      "inputs": [],
      "name": "sharedReward",
      "outputs": [
        {
          "internalType": "uint256",
          "name": "",
          "type": "uint256"
        }
      ],
      "stateMutability": "view",
      "type": "function"
    },
    {
      "inputs": [],
      "name": "signUp",
      "outputs": [],
      "stateMutability": "nonpayable",
      "type": "function"
    },
    {
      "inputs": [],
      "name": "startTime",
      "outputs": [
        {
          "internalType": "uint256",
          "name": "",
          "type": "uint256"
        }
      ],
      "stateMutability": "view",
      "type": "function"
    },
    {
      "inputs": [],
      "name": "status",
      "outputs": [
        {
          "internalType": "enum Consts.CampaignStatus",
          "name": "",
          "type": "uint8"
        }
      ],
      "stateMutability": "view",
      "type": "function"
    },
    {
      "inputs": [],
      "name": "successTokensCount",
      "outputs": [
        {
          "internalType": "uint256",
          "name": "",
          "type": "uint256"
        }
      ],
      "stateMutability": "view",
      "type": "function"
    },
    {
      "inputs": [
        {
          "internalType": "bytes4",
          "name": "interfaceId",
          "type": "bytes4"
        }
      ],
      "name": "supportsInterface",
      "outputs": [
        {
          "internalType": "bool",
          "name": "",
          "type": "bool"
        }
      ],
      "stateMutability": "view",
      "type": "function"
    },
    {
      "inputs": [],
      "name": "symbol",
      "outputs": [
        {
          "internalType": "string",
          "name": "",
          "type": "string"
        }
      ],
      "stateMutability": "view",
      "type": "function"
    },
    {
      "inputs": [],
      "name": "targetToken",
      "outputs": [
        {
          "internalType": "contract IERC20Upgradeable",
          "name": "",
          "type": "address"
        }
      ],
      "stateMutability": "view",
      "type": "function"
    },
    {
      "inputs": [
        {
          "internalType": "uint256",
          "name": "tokenId",
          "type": "uint256"
        }
      ],
      "name": "tokenURI",
      "outputs": [
        {
          "internalType": "string",
          "name": "",
          "type": "string"
        }
      ],
      "stateMutability": "view",
      "type": "function"
    },
    {
      "inputs": [],
      "name": "totalEpochsCount",
      "outputs": [
        {
          "internalType": "uint256",
          "name": "",
          "type": "uint256"
        }
      ],
      "stateMutability": "view",
      "type": "function"
    },
    {
      "inputs": [
        {
          "internalType": "address",
          "name": "from",
          "type": "address"
        },
        {
          "internalType": "address",
          "name": "to",
          "type": "address"
        },
        {
          "internalType": "uint256",
          "name": "tokenId",
          "type": "uint256"
        }
      ],
      "name": "transferFrom",
      "outputs": [],
      "stateMutability": "nonpayable",
      "type": "function"
    },
    {
      "inputs": [
        {
          "internalType": "address",
          "name": "newOwner",
          "type": "address"
        }
      ],
      "name": "transferOwnership",
      "outputs": [],
      "stateMutability": "nonpayable",
      "type": "function"
    },
    {
      "inputs": [
        {
          "internalType": "uint256",
          "name": "tokenId",
          "type": "uint256"
        },
        {
          "internalType": "uint256",
          "name": "challengeRecordId",
          "type": "uint256"
        },
        {
          "internalType": "bool",
          "name": "choice",
          "type": "bool"
        }
      ],
      "name": "vote",
      "outputs": [],
      "stateMutability": "nonpayable",
      "type": "function"
    },
    {
      "inputs": [
        {
          "internalType": "uint256",
          "name": "",
          "type": "uint256"
        },
        {
          "internalType": "uint256",
          "name": "",
          "type": "uint256"
        }
      ],
      "name": "voters",
      "outputs": [
        {
          "internalType": "bool",
          "name": "voted",
          "type": "bool"
        },
        {
          "internalType": "bool",
          "name": "choice",
          "type": "bool"
        }
      ],
      "stateMutability": "view",
      "type": "function"
    },
    {
      "inputs": [],
      "name": "withdraw",
      "outputs": [],
      "stateMutability": "nonpayable",
      "type": "function"
    }
  ],
  "transactionHash": "0xaef615059b9c276e77b8e94bf3e06a5434e2a387146063de50ebfbe9f3f58f0d",
  "args": [
    "0x39266Dd2119BBd72984464E6D02BE7dFb4259aAc"
  ],
  "numDeployments": 7,
  "solcInputHash": "71d604f67ae9a5b9b6d08d942d7d7a4c",
  "bytecode": "0x60a0346200018657601f620049c938819003918201601f19168301916001600160401b038311848410176200018b578084926020946040528339810103126200018657516001600160a01b038116810362000186576000549060ff8260081c16159182809362000178575b80156200015f575b15620001035760ff19811660011760005582620000f0575b50608052620000b4575b6040516148279081620001a282396080518181816106b0015261075a0152f35b61ff0019600054166000557f7f26b83ff96e1f2b6a682f133852f6798a09c465da95921460cefb3847402498602060405160018152a162000094565b61ffff191661010117600055386200008a565b60405162461bcd60e51b815260206004820152602e60248201527f496e697469616c697a61626c653a20636f6e747261637420697320616c72656160448201526d191e481a5b9a5d1a585b1a5e995960921b6064820152608490fd5b50303b158015620000725750600160ff82161462000072565b50600160ff8216106200006a565b600080fd5b634e487b7160e01b600052604160045260246000fdfe608080604052600436101561001357600080fd5b60003560e01c90816301ffc9a714612fb75750806306fdde0314612f93578063081812fc14612f75578063095ea7b314612dcf5780630c0b2bdd14612c4457806311da60b414612a565780631a597548146128d7578063200d2ed2146128ad57806323b872dd1461288957806327e61c25146124af578063280058ee146124915780632e41489014612350578063327107f714612329578063379607f5146123095780633ccfd60b1461228e57806342842e0e1461225b5780634585e33b14611fc557806348b9ef4014611fa75780634edea11114611f225780634ee0ab0d14611d3a5780636352211e14611d0b5780636a18ff7a14611b465780636e04ff0d14611aec5780636efcaab514611a46578063703064d11461132357806370a08231146112f857806370f42df8146112da578063715018a61461126d578063766718081461124f57806378e979251461123157806384e33501146112135780638da5cb5b146111ec5780639397f8e214610fc557806395d89b4114610ef757806396bc743414610ed95780639cc8525d14610e88578063a22cb46514610dad578063b0e21e8a14610d8f578063b6f625e614610d71578063b88d4fde14610cf0578063bf96ae6314610a3d578063bfa6f912146109ba578063c771766d1461099c578063c87b56dd146106f2578063d5d22165146106d4578063d607497a14610690578063db4988121461044c578063dfa447ce1461042e578063e86a530914610410578063e985e9c5146103b9578063ef78d4fd1461039b578063f2fde38b146102f8578063f62b46c9146102b95763fba00cbd1461027157600080fd5b346102b45761027f36613172565b9060005260dc6020526040600020906000526020526040806000205460ff8251918181161515835260081c1615156020820152f35b600080fd5b346102b45760206003193601126102b4576102ee6004356102d8613414565b6102e181614590565b6102e9614744565b6140c2565b6102f6614406565b005b346102b45760206003193601126102b4576103116130e0565b610319613414565b6001600160a01b03811615610331576102f69061346c565b608460405162461bcd60e51b815260206004820152602660248201527f4f776e61626c653a206e6577206f776e657220697320746865207a65726f206160448201527f64647265737300000000000000000000000000000000000000000000000000006064820152fd5b346102b45760006003193601126102b457602060cf54604051908152f35b346102b45760406003193601126102b4576103d26130e0565b6103da6130f6565b906001600160a01b03809116600052609c60205260406000209116600052602052602060ff604060002054166040519015158152f35b346102b45760006003193601126102b457602060d254604051908152f35b346102b45760006003193601126102b457602060d754604051908152f35b346102b4576020806003193601126102b45767ffffffffffffffff906004358281116102b457610480903690600401613188565b91909261048b613414565b821161067a5760cc916104a7816104a285546131b6565b613bd6565b6000601f82116001146105f957819293946000926105ee575b50506000198260011b9260031b1c19161782555b6040519181835260009181546104e9816131b6565b92838387015260019182811690816000146105a5575060011461052f575b7f9554c0ad8824b12a4301321d81a1a6d3be9e533b040fe09a8d7dfeaccb27618186860387a1005b600090815293507f47197230e1e4b29fc0bd84d7d78966c0925452aff72a2a121538b102457e9ebe5b83851061059157505050508101604001817f9554c0ad8824b12a4301321d81a1a6d3be9e533b040fe09a8d7dfeaccb2761818480610507565b805486860160400152938201938101610558565b9050869550604093507f9554c0ad8824b12a4301321d81a1a6d3be9e533b040fe09a8d7dfeaccb2761819694925060ff1991501682840152151560051b82010191928480610507565b0135905084806104c0565b601f19821694846000527f47197230e1e4b29fc0bd84d7d78966c0925452aff72a2a121538b102457e9ebe9160005b878110610663575083600195969710610649575b505050811b0182556104d4565b60001960f88560031b161c1991013516905584808061063c565b909285600181928686013581550194019101610628565b634e487b7160e01b600052604160045260246000fd5b346102b45760006003193601126102b45760206040516001600160a01b037f0000000000000000000000000000000000000000000000000000000000000000168152f35b346102b45760006003193601126102b457602060d454604051908152f35b346102b4576020806003193601126102b45760405161071b81610714816131f0565b0382613380565b604051907fa2d6c6da00000000000000000000000000000000000000000000000000000000825260043560048301526000826024816001600160a01b037f0000000000000000000000000000000000000000000000000000000000000000165afa91821561099057600092610907575b50610898606261079d61089d94613f0d565b926040519384917f7b226e616d65223a202200000000000000000000000000000000000000000000888401526107dc815180928a602a87019101613086565b82017f222c226465736372697074696f6e223a22000000000000000000000000000000602a8201527f222c22696d616765223a22000000000000000000000000000000000000000000603b8201527f646174613a696d6167652f7376672b786d6c3b6261736536342c0000000000006046820152610863825180938a606085019101613086565b017f227d0000000000000000000000000000000000000000000000000000000000006060820152036042810184520182613380565b613f0d565b906108ef603d60405180947f646174613a6170706c69636174696f6e2f6a736f6e3b6261736536342c000000858301526108df81518092878686019101613086565b810103601d810185520183613380565b6109036040519282849384528301906130bb565b0390f35b91503d806000843e6109198184613380565b82019183818403126102b45780519067ffffffffffffffff82116102b457019180601f840112156102b457825192610950846133a3565b9161095e6040519384613380565b8483528585830101116102b45761079d8261098761089d96606294898061089898019101613086565b9450505061078b565b6040513d6000823e3d90fd5b346102b45760006003193601126102b457602060d054604051908152f35b346102b45760206003193601126102b45760043560005260dd602052610100604060002060ff815491600181015490600281015460038201549060056004840154930154936040519687526020870152604086015260608501526080840152818116151560a0840152818160081c16151560c084015260101c16151560e0820152f35b346102b45760006003193601126102b457610a566146a5565b610a5f336134c3565b610cac576001600160a01b0360c9541660ca5490604051906020917f23b872dd0000000000000000000000000000000000000000000000000000000083820152602493338583015230604483015260648201526064815260a081019181831067ffffffffffffffff841117610c9757610ada92604052613c47565b60d25460011992838211610bfe576001820160d25560405193610afc85613348565b600085523315610c5557610b268360005260996020526001600160a01b0360406000205416151590565b610c125733600052609a84526040600020918254918211610bfe57507fcd169e01d559b6d336962db715a67dc5fd03521032de891b679200894ec219f394610bd1926001610bcc93019055836000526099855260406000203373ffffffffffffffffffffffffffffffffffffffff19825416179055833360007fddf252ad1be2c89b69c2b068fc378daa952ba7f163c4a11628f55a4df523b3ef81604051a483336139c6565b61366d565b8060005260db82526040600020600260ff1982541617905560ca54600160406000200155604051908152a1005b634e487b7160e01b60005260116004526000fd5b606484601c846040519262461bcd60e51b845260048401528201527f4552433732313a20746f6b656e20616c7265616479206d696e746564000000006044820152fd5b606482856040519162461bcd60e51b83528160048401528201527f4552433732313a206d696e7420746f20746865207a65726f20616464726573736044820152fd5b84634e487b7160e01b60005260416004526000fd5b606460405162461bcd60e51b815260206004820152601860248201527f43616d706169676e3a20616c7265616479207369676e656400000000000000006044820152fd5b346102b45760806003193601126102b457610d096130e0565b610d116130f6565b906064359060443567ffffffffffffffff83116102b457366023840112156102b4576102f693610d4e610bcc9436906024816004013591016133bf565b92610d61610d5c84336136e3565b6135fc565b610d6c838383613768565b613b5c565b346102b45760006003193601126102b457602060ce54604051908152f35b346102b45760006003193601126102b457602060d854604051908152f35b346102b45760406003193601126102b457610dc66130e0565b60243590811515908183036102b4576001600160a01b031691823314610e4457610e169033600052609c60205260406000208460005260205260406000209060ff60ff1983541691151516179055565b6040519081527f17307eab39ab6107e8899845ad3d59bd9653f200f220920489ca2b5937696c3160203392a3005b606460405162461bcd60e51b815260206004820152601960248201527f4552433732313a20617070726f766520746f2063616c6c6572000000000000006044820152fd5b346102b457610e9636613172565b9060005260da602052604060002090600052602052610903610714610ec5604060002060405192838092613295565b6040519182916020835260208301906130bb565b346102b45760006003193601126102b457602060d654604051908152f35b346102b45760006003193601126102b4576040516000609854610f19816131b6565b80845290600190818116908115610f9e5750600114610f43575b61090384610ec581860382613380565b6098600090815292507f2237a976fa961f5921fd19f2b03c925c725d77b20ce8f790c19709c03de4d8145b828410610f86575050508101602001610ec582610f33565b80546020858701810191909152909301928101610f6e565b60ff191660208087019190915292151560051b85019092019250610ec59150839050610f33565b346102b45760406003193601126102b45767ffffffffffffffff6004358181116102b457610ff7903690600401613188565b6024359161100483614590565b61100c6146f5565b611015836145ef565b61101d6144c1565b6040516020948582018281108282111761067a5760405261103f3685856133bf565b825260d15460005260da8652604060002085600052865260406000209151805191821161067a5761107083546131b6565b601f81116111a6575b508690601f831160011461111257947f0de15cde05bed13731732bfe8f1ff5a69a8be94505d2e381f23997b07af8dd85979694601f199484601f95849560809a600092611107575b50506000198260011b9260031b1c19161790555b60d1549560405198899788528701526060604087015281606087015286860137600085828601015201168101030190a1005b015190508c806110c1565b90601f1983169184600052886000209260005b81811061118f575094600185899560809a957f0de15cde05bed13731732bfe8f1ff5a69a8be94505d2e381f23997b07af8dd859d9c9a95601f99601f199b10611176575b505050811b0190556110d5565b015160001960f88460031b161c191690558c8080611169565b92938a600181928786015181550195019301611125565b8360005287600020601f840160051c8101918985106111e2575b601f0160051c01905b8181106111d65750611079565b600081556001016111c9565b90915081906111c0565b346102b45760006003193601126102b45760206001600160a01b0360335416604051908152f35b346102b45760006003193601126102b457602060d554604051908152f35b346102b45760006003193601126102b457602060cd54604051908152f35b346102b45760006003193601126102b457602060d154604051908152f35b346102b45760006003193601126102b457611286613414565b600060335473ffffffffffffffffffffffffffffffffffffffff198116603355816001600160a01b0360405192167f8be0079c531659141344cd1fd0a4f28419497f9722a3daafe3b4186f6b6457e08284a3f35b346102b45760006003193601126102b457602060d954604051908152f35b346102b45760206003193601126102b457602061131b6113166130e0565b6134c3565b604051908152f35b346102b4576101206003193601126102b45761133d6130e0565b602435906001600160a01b03821682036102b45760643567ffffffffffffffff81116102b4576113719036906004016133f6565b9060843567ffffffffffffffff81116102b4576113929036906004016133f6565b926101043567ffffffffffffffff81116102b4576113b49036906004016133f6565b926000549260ff8460081c161593848095611a39575b8015611a22575b156119b85784600160ff19831617600055611989575b506001600160a01b038316156119455760443515611901576114089061346c565b60ff60005460081c16156118975780519067ffffffffffffffff821161067a5781906114356097546131b6565b601f81116117eb575b50602090601f831160011461176457600092611759575b50506000198260011b9260031b1c1916176097555b835167ffffffffffffffff811161067a576114866098546131b6565b601f81116116b6575b506020601f82116001146116275781906001600160a01b0394959660009261161c575b50506000198260011b9260031b1c1916176098555b1673ffffffffffffffffffffffffffffffffffffffff1960c954161760c95560443560ca5560a4358060cd5560d05560c43560ce5560e43560cf55815167ffffffffffffffff811161067a57611522816104a260cc546131b6565b602092601f821160011461159a579281929360009261158f575b50506000198260011b9260031b1c19161760cc555b61155757005b61ff0019600054166000557f7f26b83ff96e1f2b6a682f133852f6798a09c465da95921460cefb3847402498602060405160018152a1005b01519050838061153c565b601f1982169360cc6000527f47197230e1e4b29fc0bd84d7d78966c0925452aff72a2a121538b102457e9ebe9160005b86811061160457508360019596106115eb575b505050811b0160cc55611551565b015160001960f88460031b161c191690558380806115dd565b919260206001819286850151815501940192016115ca565b0151905086806114b2565b601f1982169560986000527f2237a976fa961f5921fd19f2b03c925c725d77b20ce8f790c19709c03de4d8149660005b81811061169e5750916001600160a01b0395969791846001959410611685575b505050811b016098556114c7565b015160001960f88460031b161c19169055868080611677565b83830151895560019098019760209384019301611657565b6098600052601f820160051c7f2237a976fa961f5921fd19f2b03c925c725d77b20ce8f790c19709c03de4d814019060208310611731575b601f0160051c7f2237a976fa961f5921fd19f2b03c925c725d77b20ce8f790c19709c03de4d81401905b818110611725575061148f565b60008155600101611718565b7f2237a976fa961f5921fd19f2b03c925c725d77b20ce8f790c19709c03de4d81491506116ee565b015190508680611455565b915060976000527f354a83ed9988f79f6038d4c7a7dadbad8af32f4ad6df893e0e5807a1b1944ff9916000601f198516905b8181106117d357509084600195949392106117ba575b505050811b0160975561146a565b015160001960f88460031b161c191690558680806117ac565b92936020600181928786015181550195019301611796565b9091506097600052601f830160051c7f354a83ed9988f79f6038d4c7a7dadbad8af32f4ad6df893e0e5807a1b1944ff90160208410611870575b90601f849392910160051c7f354a83ed9988f79f6038d4c7a7dadbad8af32f4ad6df893e0e5807a1b1944ff901905b818110611861575061143e565b60008155849350600101611854565b507f354a83ed9988f79f6038d4c7a7dadbad8af32f4ad6df893e0e5807a1b1944ff9611825565b608460405162461bcd60e51b815260206004820152602b60248201527f496e697469616c697a61626c653a20636f6e7472616374206973206e6f74206960448201527f6e697469616c697a696e670000000000000000000000000000000000000000006064820152fd5b606460405162461bcd60e51b815260206004820152601860248201527f43616d706169676e3a20696e76616c696420616d6f756e7400000000000000006044820152fd5b606460405162461bcd60e51b815260206004820152601760248201527f43616d706169676e3a20696e76616c696420746f6b656e0000000000000000006044820152fd5b7fffffffffffffffffffffffffffffffffffffffffffffffffffffffffffff00001661010117600055866113e7565b608460405162461bcd60e51b815260206004820152602e60248201527f496e697469616c697a61626c653a20636f6e747261637420697320616c72656160448201527f647920696e697469616c697a65640000000000000000000000000000000000006064820152fd5b50303b1580156113d15750600160ff8216146113d1565b50600160ff8216106113ca565b346102b45760006003193601126102b457604051600060cc54611a68816131b6565b80845290600190818116908115610f9e5750600114611a915761090384610ec581860382613380565b60cc600090815292507f47197230e1e4b29fc0bd84d7d78966c0925452aff72a2a121538b102457e9ebe5b828410611ad4575050508101602001610ec582610f33565b80546020858701810191909152909301928101611abc565b346102b45760206003193601126102b45760043567ffffffffffffffff81116102b457611b1d903690600401613188565b5050611b27613e97565b90610903604051928392151583526040602084015260408301906130bb565b346102b45760606003193601126102b45760043560243590604435908115158092036102b457611b7581614590565b611b7d6146f5565b611b86816145ef565b611b8f83614656565b8260005260209160dd835260046040600020015462093a80198111611c655762093a8001421015611cc7576001908460005260dc8452604060002083600052845260406000208260ff198254161790558460005260dc845260406000208360005284526040600020805461ff001961ff008460081b16911617905514600014611c7b578260005260dd82526002604060002001928354926001198411611c65577fe412d87c65a2ecd9a42cbdcd9b35239448cd2ec046dbe0d6af0eee194ec6173e9460016040950190555b8351928352820152a1005b634e487b7160e01b600052601160045260246000fd5b8260005260dd82526003604060002001928354926001198411611c65577fe412d87c65a2ecd9a42cbdcd9b35239448cd2ec046dbe0d6af0eee194ec6173e946001604095019055611c5a565b6064836040519062461bcd60e51b82526004820152601060248201527f4368616c6c656e67653a20656e646564000000000000000000000000000000006044820152fd5b346102b45760206003193601126102b4576020611d29600435613598565b6001600160a01b0360405191168152f35b346102b45760006003193601126102b457611d53614795565b611d5b614744565b611d63614795565b60d280549060d99182556000905b8054821015611ec65760005b60ce54811015611ebb5780600052602060da81526040600020846000528152610714611db3604060002060405192838092613295565b5115611dc85750611dc390613dd3565b611d7d565b919280915060005260db808352600190611e2b8260406000200154611e26620f424080611df484613e08565b0490611e0360d792835461375c565b809255611e0f84613e20565b0492611e1e60d894855461375c565b809455613751565b613751565b611e3860d691825461375c565b90558260005283526000816040822001558454908110611c6557611eb5926000197f939e6ef49701507f032296ab644b4aebf199222450de6622bb5f9550c7a7820992018655604051838152a15b7f8990a2cca2ad5b32ae72395c0db570652316a7903178764820232d8fe5d2b3556020604051838152a1613dd3565b90611d71565b5090611eb590611e86565b825415611f07575b600460ff1960cb54161760cb557f7069a5d4cbf1f64db906d1dd29276702df7e9c795ef1746d7a1ca5449c4893f16020604051338152a1005b611f1560d65460d85461375c565b60d855600060d655611ece565b346102b45760206003193601126102b45760006020604051611f438161332c565b828152015260043560005260db6020526040600020604051611f648161332c565b60ff825416906007821015611f915760206001604094848452015491019081528251918252516020820152f35b634e487b7160e01b600052602160045260246000fd5b346102b45760006003193601126102b457602060ca54604051908152f35b346102b4576020806003193601126102b45760043567ffffffffffffffff81116102b457611ff882913690600401613188565b90809291810103126102b4573580612207575060cd5461202860ce91612022835460cf5490613e64565b9061375c565b4211156121c35760d280549260d99384556000915b80548310156121655760005b845481101561215a578060005260da8352604060002084600052835261071461207c604060002060405192838092613295565b51156120905761208b90613dd3565b612049565b50918060005260db908183526001916120bb8360406000200154611e26620f424080611df484613e08565b6120c860d691825461375c565b90558160005283526000826040822001556040600020600560ff198254161790558554918210611c6557600019612154920186557f939e6ef49701507f032296ab644b4aebf199222450de6622bb5f9550c7a7820983604051838152a15b7f8990a2cca2ad5b32ae72395c0db570652316a7903178764820232d8fe5d2b35583604051838152a1613dd3565b9161203d565b509161215490612126565b509150507f7069a5d4cbf1f64db906d1dd29276702df7e9c795ef1746d7a1ca5449c4893f19154156121a8575b600460ff1960cb54161760cb55604051338152a1005b6121b660d65460d85461375c565b60d855600060d655612192565b6064826040519062461bcd60e51b82526004820152601360248201527f43616d706169676e3a206e6f7420656e646564000000000000000000000000006044820152fd5b60010361221757506102f66144c1565b6064906040519062461bcd60e51b82526004820152600d60248201527f4e6f7468696e6720546f20444f000000000000000000000000000000000000006044820152fd5b346102b4576102f6610bcc61226f3661313d565b906040519261227d84613348565b60008452610d61610d5c84336136e3565b346102b45760006003193601126102b4576122a7613414565b60ff60cb54166005811015611f91576004036122c5576102f6614406565b606460405162461bcd60e51b815260206004820152601560248201527f43616d706169676e3a206e6f7420736574746c656400000000000000000000006044820152fd5b346102b45760206003193601126102b4576102f66004356102e181614590565b346102b45760006003193601126102b45760206001600160a01b0360c95416604051908152f35b346102b45761235e36613172565b61236782614590565b61236f6146f5565b612378826145ef565b612381816145ef565b61239660cd5461202260ce5460cf5490613e64565b7ffffffffffffffffffffffffffffffffffffffffffffffffffffffffffffeae7f8111611c65576201518001421161244d5760d354916001198311611c65578260609260017f41b86b8e6a50d1879c8fe4ff449470156b8c2b6c02117dafd10625d300e4aacd950160d3558160005260dd602052826040600020558060016040600020015542600460406000200155600560406000200161010061ff001982541617905560405192835260208301526040820152a1005b606460405162461bcd60e51b815260206004820152601660248201527f4368616c6c656e67653a206e6f7420616c6c6f776564000000000000000000006044820152fd5b346102b45760006003193601126102b457602060d354604051908152f35b346102b4576020806003193601126102b457600435908160005260dd9182825260046040600020015462093a80198111611c655762093a80014210612845576124f781614656565b8060005282825260ff60056040600020015460081c1661280157806000528282526040600020546001908160406000200154946125456002604060002001546003604060002001549061375c565b9060d254906000199282840460421183151516611c6557606492604202839004116127be5760d4549360011994858111611c6557860160d45586600052818852600260406000200154600360406000200154106125b68160056040600020019060ff60ff1983541691151516179055565b6040600020600501805461ff001916610100179055156126ec5750600088815260db885260408120805460ff1916600517815586018054919055928391836125fd84613e38565b049088600052895260406000205460005260db89526126248760406000200191825461375c565b905561263c8361263384613e4e565b0460d65461375c565b60d65504600a1182151516611c6557600a61265b92020460d85461375c565b60d85560d554908111611c65577f3caa68ace909b33d20e5ff96e9c98e4f6b20d3490307a1c09b28bea2e71893d6947f7bd432623a7ded907d0b1d373f5979fadde9c0f579f29ae990736e560c2a1aaa9285920160d5557f939e6ef49701507f032296ab644b4aebf199222450de6622bb5f9550c7a7820982604051838152a1604051908152a15b604051908152a1005b91975093925060005260db8552816040600020015480820460281181151516611c65576028879102049283928560005281875260406000205460005260db87528761273d8260406000200154613e38565b049186600052875260406000205460005260db875260406000200155048115159080604b118216611c655761277986604b85020460d65461375c565b60d65560191116611c65577f3caa68ace909b33d20e5ff96e9c98e4f6b20d3490307a1c09b28bea2e71893d69360196127b692020460d85461375c565b60d8556126e3565b50856040519062461bcd60e51b82526004820152601b60248201527f4368616c6c656e67653a206e6f7420656e6f75676820766f74657200000000006044820152fd5b6064826040519062461bcd60e51b82526004820152601960248201527f4368616c6c656e67653a20616c7265616479206a7564676564000000000000006044820152fd5b6064826040519062461bcd60e51b82526004820152601460248201527f4368616c6c656e67653a206e6f7420656e6465640000000000000000000000006044820152fd5b346102b4576102f661289a3661313d565b916128a8610d5c84336136e3565b613768565b346102b45760006003193601126102b45760ff60cb54166040516005821015611f91576020918152f35b346102b4576020806003193601126102b45760043567ffffffffffffffff81116102b45761290990369060040161310c565b6129116146a5565b612919613414565b60005b81811061292557005b612930818385613de2565b358060005260db808652604060002060405161294b8161332c565b60ff82541660079283821015611f915760019183520154808983015260ca5403612a12575190811015611f91576002036129ce5785827f0898a2d0f11ee389113f47ac39e4c57338d20de87eab1ff9bcce61256c868c85926129c9959460005282526040600020600360ff19825416179055604051908152a1613dd3565b61291c565b6064866040519062461bcd60e51b82526004820152601760248201527f43616d706169676e3a206e6f74207369676e65642075700000000000000000006044820152fd5b6064886040519062461bcd60e51b82526004820152601960248201527f43616d706169676e3a207374616b65206e6f74206d61746368000000000000006044820152fd5b346102b45760006003193601126102b45760cd54612a7e60ce91612022835460cf5490613e64565b421115612c005760d29081549160d99283556000905b8054821015612bc05760005b8354811015612bb55780600052602060da81526040600020846000528152610714612ad5604060002060405192838092613295565b5115612aea5750612ae590613dd3565b612aa0565b919280915060005260db808352600190612b168260406000200154611e26620f424080611df484613e08565b612b2360d691825461375c565b90558260005283526000816040822001556040600020600560ff198254161790558554908110611c6557612baf926000197f939e6ef49701507f032296ab644b4aebf199222450de6622bb5f9550c7a7820992018755604051838152a17f8990a2cca2ad5b32ae72395c0db570652316a7903178764820232d8fe5d2b3556020604051838152a1613dd3565b90612a94565b5090612baf90611e86565b835415611f0757600460ff1960cb54161760cb557f7069a5d4cbf1f64db906d1dd29276702df7e9c795ef1746d7a1ca5449c4893f16020604051338152a1005b606460405162461bcd60e51b815260206004820152601360248201527f43616d706169676e3a206e6f7420656e646564000000000000000000000000006044820152fd5b346102b45760406003193601126102b45767ffffffffffffffff6004358181116102b457612c7690369060040161310c565b90916024359081116102b457612c9090369060040161310c565b612c9b9391936146a5565b612ca3613414565b600191825b848110612d64575060405193604085528060408601527f07ffffffffffffffffffffffffffffffffffffffffffffffffffffffffffffff81116102b45760059392931b809160608601378301916080606084019382602095606088840301878901525201949260005b828110612d3f577e896c158ae8c63b50648f3ace621592a536dc686bb71ea91e8c1a75207e26fd86880387a1005b90919293958635908115158092036102b4579081528201958201939291908301612d11565b612d6f818684613de2565b3590612d7c818589613de2565b359182151583036102b457612dad9215612db25760005260db6020526040600020600360ff19825416179055613dd3565b612ca8565b60005260db6020526040600020600260ff19825416179055613dd3565b346102b45760406003193601126102b457612de86130e0565b6001600160a01b03906024358280612dff83613598565b16921691808314612f0b57803314908115612ee6575b5015612e7c57600092818452609b602052604084208373ffffffffffffffffffffffffffffffffffffffff19825416179055612e5082613598565b1691604051927f8c5be1e5ebec7d5bd14f71427d1e84f3dd0314c0f7b2291e5b200ac8c7c3b9258585a4f35b608460405162461bcd60e51b815260206004820152603e60248201527f4552433732313a20617070726f76652063616c6c6572206973206e6f7420746f60448201527f6b656e206f776e6572206e6f7220617070726f76656420666f7220616c6c00006064820152fd5b9050600052609c60205260406000203360005260205260ff6040600020541684612e15565b608460405162461bcd60e51b815260206004820152602160248201527f4552433732313a20617070726f76616c20746f2063757272656e74206f776e6560448201527f72000000000000000000000000000000000000000000000000000000000000006064820152fd5b346102b45760206003193601126102b4576020611d296004356135ba565b346102b45760006003193601126102b457610903604051610ec581610714816131f0565b346102b45760206003193601126102b457600435907fffffffff0000000000000000000000000000000000000000000000000000000082168092036102b457817f80ac58cd000000000000000000000000000000000000000000000000000000006020931490811561305c575b8115613032575b5015158152f35b7f01ffc9a7000000000000000000000000000000000000000000000000000000009150148361302b565b7f5b5e139f0000000000000000000000000000000000000000000000000000000081149150613024565b918091926000905b8282106130a657501161309f575050565b6000910152565b9150806020918301518186015201829161308e565b90601f19601f6020936130d981518092818752878088019101613086565b0116010190565b600435906001600160a01b03821682036102b457565b602435906001600160a01b03821682036102b457565b9181601f840112156102b45782359167ffffffffffffffff83116102b4576020808501948460051b0101116102b457565b60031960609101126102b4576001600160a01b039060043582811681036102b4579160243590811681036102b4579060443590565b60031960409101126102b4576004359060243590565b9181601f840112156102b45782359167ffffffffffffffff83116102b457602083818601950101116102b457565b90600182811c921680156131e6575b60208310146131d057565b634e487b7160e01b600052602260045260246000fd5b91607f16916131c5565b60975460009291613200826131b6565b80825291600190818116908115613277575060011461321e57505050565b9192935060976000527f354a83ed9988f79f6038d4c7a7dadbad8af32f4ad6df893e0e5807a1b1944ff9916000925b84841061325f57505060209250010190565b8054602085850181019190915290930192810161324d565b9050602094955060ff1991509291921683830152151560051b010190565b90600092918054916132a6836131b6565b91828252600193848116908160001461330857506001146132c8575b50505050565b90919394506000526020928360002092846000945b8386106132f45750505050010190388080806132c2565b8054858701830152940193859082016132dd565b915050602094955060ff199193501683830152151560051b010190388080806132c2565b6040810190811067ffffffffffffffff82111761067a57604052565b6020810190811067ffffffffffffffff82111761067a57604052565b6080810190811067ffffffffffffffff82111761067a57604052565b90601f601f19910116810190811067ffffffffffffffff82111761067a57604052565b67ffffffffffffffff811161067a57601f01601f191660200190565b9291926133cb826133a3565b916133d96040519384613380565b8294818452818301116102b4578281602093846000960137010152565b9080601f830112156102b457816020613411933591016133bf565b90565b6001600160a01b0360335416330361342857565b606460405162461bcd60e51b815260206004820152602060248201527f4f776e61626c653a2063616c6c6572206973206e6f7420746865206f776e65726044820152fd5b603354906001600160a01b03809116918273ffffffffffffffffffffffffffffffffffffffff19821617603355167f8be0079c531659141344cd1fd0a4f28419497f9722a3daafe3b4186f6b6457e06000604051a3565b6001600160a01b031680156134e357600052609a60205260406000205490565b608460405162461bcd60e51b815260206004820152602960248201527f4552433732313a2061646472657373207a65726f206973206e6f74206120766160448201527f6c6964206f776e657200000000000000000000000000000000000000000000006064820152fd5b1561355457565b606460405162461bcd60e51b815260206004820152601860248201527f4552433732313a20696e76616c696420746f6b656e20494400000000000000006044820152fd5b60005260996020526001600160a01b036040600020541661341181151561354d565b6135e26135dd8260005260996020526001600160a01b0360406000205416151590565b61354d565b600052609b6020526001600160a01b036040600020541690565b1561360357565b608460405162461bcd60e51b815260206004820152602e60248201527f4552433732313a2063616c6c6572206973206e6f7420746f6b656e206f776e6560448201527f72206e6f7220617070726f7665640000000000000000000000000000000000006064820152fd5b1561367457565b60405162461bcd60e51b815260206004820152603260248201527f4552433732313a207472616e7366657220746f206e6f6e20455243373231526560448201527f63656976657220696d706c656d656e74657200000000000000000000000000006064820152608490fd5b0390fd5b906001600160a01b0380806136f784613598565b1693169183831493841561372a575b508315613714575b50505090565b613720919293506135ba565b161438808061370e565b909350600052609c60205260406000208260005260205260ff604060002054169238613706565b818110611c65570390565b81198111611c65570190565b61377183613598565b916001600160a01b039283809316928391160361392c5782169182156138c3578161387f57600090848252609b602052604082209073ffffffffffffffffffffffffffffffffffffffff19918281541690556137cc86613598565b16908583604051937f8c5be1e5ebec7d5bd14f71427d1e84f3dd0314c0f7b2291e5b200ac8c7c3b9258286a4838352609a6020526040832080546001811061386b57600019019055848352609a602052604083208054600119811161386b5760010190558583526099602052604083208054909116851790557fddf252ad1be2c89b69c2b068fc378daa952ba7f163c4a11628f55a4df523b3ef9190a4565b602485634e487b7160e01b81526011600452fd5b606460405162461bcd60e51b815260206004820152601c60248201527f43616d706169676e3a20436f756c64206e6f74207472616e73666572000000006044820152fd5b608460405162461bcd60e51b8152602060048201526024808201527f4552433732313a207472616e7366657220746f20746865207a65726f2061646460448201527f72657373000000000000000000000000000000000000000000000000000000006064820152fd5b608460405162461bcd60e51b815260206004820152602560248201527f4552433732313a207472616e736665722066726f6d20696e636f72726563742060448201527f6f776e65720000000000000000000000000000000000000000000000000000006064820152fd5b3d156139c1573d906139a7826133a3565b916139b56040519384613380565b82523d6000602084013e565b606090565b9091600091803b15613b5357613a326020916001600160a01b0393856040519586809581947f150b7a02000000000000000000000000000000000000000000000000000000009b8c845233600485015285602485015260448401526080606484015260848301906130bb565b0393165af190829082613aec575b5050613ac657613a4e613996565b80519081613ac15760405162461bcd60e51b815260206004820152603260248201527f4552433732313a207472616e7366657220746f206e6f6e20455243373231526560448201527f63656976657220696d706c656d656e74657200000000000000000000000000006064820152608490fd5b602001fd5b7fffffffff00000000000000000000000000000000000000000000000000000000161490565b909192506020813d8211613b4b575b81613b0860209383613380565b81010312613b475751907fffffffff0000000000000000000000000000000000000000000000000000000082168203613b445750903880613a40565b80fd5b5080fd5b3d9150613afb565b50505050600190565b91926000929190813b15613bcc57602091613a3291856040519586809581947f150b7a02000000000000000000000000000000000000000000000000000000009b8c84523360048501526001600160a01b03809516602485015260448401526080606484015260848301906130bb565b5050505050600190565b601f8111613be2575050565b60009060cc82527f47197230e1e4b29fc0bd84d7d78966c0925452aff72a2a121538b102457e9ebe906020601f850160051c83019410613c3d575b601f0160051c01915b828110613c3257505050565b818155600101613c26565b9092508290613c1d565b6001600160a01b031690604051613c5d8161332c565b6020928382527f5361666545524332303a206c6f772d6c6576656c2063616c6c206661696c656484830152803b15613d4f5790613cb29160008481959282888195519301915af1613cac613996565b90613d93565b805180613cbf5750505050565b81849181010312613b475782015190811591821503613b445750613ce5578080806132c2565b6084906040519062461bcd60e51b82526004820152602a60248201527f5361666545524332303a204552433230206f7065726174696f6e20646964206e60448201527f6f742073756363656564000000000000000000000000000000000000000000006064820152fd5b6064846040519062461bcd60e51b82526004820152601d60248201527f416464726573733a2063616c6c20746f206e6f6e2d636f6e74726163740000006044820152fd5b90919015613d9f575090565b815115613daf5750805190602001fd5b6136df9060405191829162461bcd60e51b83526020600484015260248301906130bb565b6000198114611c655760010190565b9190811015613df25760051b0190565b634e487b7160e01b600052603260045260246000fd5b62030d40908060001904821181151516611c65570290565b620186a0908060001904821181151516611c65570290565b8060001904603c1181151516611c6557603c0290565b8060001904601e1181151516611c6557601e0290565b8060001904821181151516611c65570290565b8115613e81570490565b634e487b7160e01b600052601260045260246000fd5b6000606060cd54613eb260ce549161202260cf548094613e64565b421115613eda57505050604051906000602083015260208252613ed48261332c565b60019190565b613eea9060d0949293945461375c565b4211613ef257565b915050604051906001602083015260208252613ed48261332c565b8051156140ae57604051906060820182811067ffffffffffffffff82111761067a57604052604082527f4142434445464748494a4b4c4d4e4f505152535455565758595a61626364656660208301527f6768696a6b6c6d6e6f707172737475767778797a303132333435363738392b2f60408301528051907ffffffffffffffffffffffffffffffffffffffffffffffffffffffffffffffffd8211611c6557600390816002809401046001907f3fffffffffffffffffffffffffffffffffffffffffffffffffffffffffffffff81118216611c6557841b949390614009613ff3876133a3565b966140016040519889613380565b8088526133a3565b601f1960208801910136823794839284518501935b84811061405d57505050505051068060011461404a5760021461403f575090565b600019603d91015390565b5060011981603d60001981940153015390565b866004919892939495980191858351603f9082828260121c16890101518453828282600c1c16890101518385015382828260061c16890101518785015316860101518882015301969392919061401e565b506040516140bb81613348565b6000815290565b60ff60cb541660059081811015611f91576004809103614170575b505060407f7cb904b3cfc4c896696085c26766cebf2de422ae3864a0112b5e2fd9ec1efaf891600081815260db602052600183822001541560001461415157805b614135826001600160a01b0360c9541633906143b1565b82815260db6020526001848220015582519182526020820152a1565b61416a6001848320015461202260d65460d95490613e77565b9061411e565b60cd939193549261418b60ce94612022865460cf5490613e64565b42111561436d5760d29081549160d99283556000945b81548610156142e55760005b87548110156142d85780600052602060da81526040806000208960005282526107146141e182600020835192838092613295565b51156141f75750506141f290613dd3565b6141ad565b90915087600098939594985260db80835260019061422682846000200154611e26620f424080611df484613e08565b61423360d691825461375c565b90558460005283526000818382200155816000208b60ff1982541617905586549081106142c357600019018655518281526142bb92917f939e6ef49701507f032296ab644b4aebf199222450de6622bb5f9550c7a7820991a17f8990a2cca2ad5b32ae72395c0db570652316a7903178764820232d8fe5d2b3556020604051838152a1613dd3565b9490916141a1565b601188634e487b7160e01b6000525260246000fd5b509190946142bb90611e86565b96505091907f7cb904b3cfc4c896696085c26766cebf2de422ae3864a0112b5e2fd9ec1efaf89450604093505415614352575b60ff1960cb54161760cb557f7069a5d4cbf1f64db906d1dd29276702df7e9c795ef1746d7a1ca5449c4893f160208351338152a1916140dd565b61436060d65460d85461375c565b60d855600060d655614318565b60648260206040519162461bcd60e51b8352820152601360248201527f43616d706169676e3a206e6f7420656e646564000000000000000000000000006044820152fd5b614404926001600160a01b03604051937fa9059cbb0000000000000000000000000000000000000000000000000000000060208601521660248401526044830152604482526143ff82613364565b613c47565b565b7f7a1c31090abe490bfd8379cbbaeef735a3e3c87ee34925f16d0fa3ff4e061155606060d754600060d7556144aa6001600160a01b0361444c838260c9541633906143b1565b60c9541660d85490604051917fa9059cbb00000000000000000000000000000000000000000000000000000000602084015273d8da6bf26964af9d7eed9e03e53415d37aa9604560248401526044830152604482526143ff82613364565b60d8546040519133835260208301526040820152a1565b60d05460cf54906144d2828261375c565b4211614557575b505060d1547fb33a1f54dde4e0082c45281b338d78b2c4b5be163b6ffffa5d0d6d1050ba5a586020604051838152a160ce54111561451357565b606460405162461bcd60e51b815260206004820152601d60248201527f43616d706169676e3a20636865636b45706f636820746f6f206c6174650000006044820152fd5b612022826145716145869461456c8542613751565b613e77565b9061457e8260d15461375c565b60d155613e64565b60d05538806144d9565b61459990613598565b6001600160a01b03339116036145ab57565b606460405162461bcd60e51b815260206004820152601a60248201527f43616d706169676e3a206e6f7420746f6b656e20686f6c6465720000000000006044820152fd5b60005260db60205260ff604060002054166007811015611f915760030361461257565b606460405162461bcd60e51b815260206004820152601660248201527f43616d706169676e3a206e6f742061646d6974746564000000000000000000006044820152fd5b60d354111561466157565b606460405162461bcd60e51b815260206004820152601a60248201527f4368616c6c656e67655265636f72643a206e6f742065786973740000000000006044820152fd5b60cd544210156146b157565b606460405162461bcd60e51b815260206004820152601960248201527f43616d706169676e3a20616c72656164792073746172746564000000000000006044820152fd5b60cd54421061470057565b606460405162461bcd60e51b815260206004820152601360248201527f43616d706169676e3a206e6f74207374617274000000000000000000000000006044820152fd5b60d35460d4540361475157565b606460405162461bcd60e51b815260206004820152601960248201527f4368616c6c656e67653a206e6f7420616c6c206a7564676564000000000000006044820152fd5b60d55460646147a560d254613e4e565b04116147ad57565b606460405162461bcd60e51b815260206004820152601c60248201527f43616d706169676e3a206e6f7420656e6f7567682063686561746572000000006044820152fdfea26469706673582212203a74a6addfc507aae91ce2013dfb3f9f579a8be70a64f22d32bb83284524d6e264736f6c634300080f0033",
  "devdoc": {
    "kind": "dev",
    "methods": {
      "admit(uint256[])": {
        "details": "campaign owner admit several address to participate this campaign",
        "params": {
          "allowlists": "allowed tokenId array"
        }
      },
      "approve(address,uint256)": {
        "details": "See {IERC721-approve}."
      },
      "balanceOf(address)": {
        "details": "See {IERC721-balanceOf}."
      },
      "checkIn(string,uint256)": {
        "details": "user check in",
        "params": {
          "contentUri": "string of ipfs uri or other decentralize storage"
        }
      },
      "claim(uint256)": {
        "details": "user claim reward after campaign settled"
      },
      "claimAndWithdraw(uint256)": {
        "details": "host who participate the campaign claim reward and withdraw host reward"
      },
      "getApproved(uint256)": {
        "details": "See {IERC721-getApproved}."
      },
      "getTokenProperties(uint256)": {
        "details": "read Token properties"
      },
      "isApprovedForAll(address,address)": {
        "details": "See {IERC721-isApprovedForAll}."
      },
      "modifyRegistry(uint256[],bool[])": {
        "details": "once campaign owner admit some address by mistakecan modify via this function but more gas-expensive",
        "params": {
          "lists": "modified tokenId list array",
          "targetStatuses": "corresponding status array"
        }
      },
      "name()": {
        "details": "See {IERC721Metadata-name}."
      },
      "owner()": {
        "details": "Returns the address of the current owner."
      },
      "ownerOf(uint256)": {
        "details": "See {IERC721-ownerOf}."
      },
      "performUpkeep(bytes)": {
        "details": "The input to this method should not be trusted, and the caller of the method should not even be restricted to any single registry. Anyone should be able call it, and the input should be validated, there is no guarantee that the data passed in is the performData returned from checkUpkeep. This could happen due to malicious keepers, racing keepers, or simply a state change while the performUpkeep transaction is waiting for confirmation. Always validate the data passed in.",
        "params": {
          "performData": "is the data which was passed back from the checkData simulation. If it is encoded, it can easily be decoded into other types by calling `abi.decode`. This data should not be trusted, and should be validated against the contract's current state."
        }
      },
      "renounceOwnership()": {
        "details": "Leaves the contract without owner. It will not be possible to call `onlyOwner` functions anymore. Can only be called by the current owner. NOTE: Renouncing ownership will leave the contract without an owner, thereby removing any functionality that is only available to the owner."
      },
      "safeTransferFrom(address,address,uint256)": {
        "details": "See {IERC721-safeTransferFrom}."
      },
      "safeTransferFrom(address,address,uint256,bytes)": {
        "details": "See {IERC721-safeTransferFrom}."
      },
      "setApprovalForAll(address,bool)": {
        "details": "See {IERC721-setApprovalForAll}."
      },
      "settle()": {
        "details": "everyone can call the function to settle reward"
      },
      "signUp()": {
        "details": "user stake token and want to participate this campaign"
      },
      "supportsInterface(bytes4)": {
        "details": "See {IERC165-supportsInterface}."
      },
      "symbol()": {
        "details": "See {IERC721Metadata-symbol}."
      },
      "tokenURI(uint256)": {
        "details": "See {IERC721Metadata-tokenURI}."
      },
      "transferFrom(address,address,uint256)": {
        "details": "See {IERC721-transferFrom}."
      },
      "transferOwnership(address)": {
        "details": "Transfers ownership of the contract to a new account (`newOwner`). Can only be called by the current owner."
      },
      "withdraw()": {
        "details": "host withdraw host reward"
      }
    },
    "version": 1
  },
  "userdoc": {
    "kind": "user",
    "methods": {
      "performUpkeep(bytes)": {
        "notice": "method that is actually executed by the keepers, via the registry. The data returned by the checkUpkeep simulation will be passed into this method to actually be executed."
      }
    },
    "version": 1
  },
  "storageLayout": {
    "storage": [
      {
        "astId": 464,
        "contract": "contracts/Campaign.sol:Campaign",
        "label": "_initialized",
        "offset": 0,
        "slot": "0",
        "type": "t_uint8"
      },
      {
        "astId": 467,
        "contract": "contracts/Campaign.sol:Campaign",
        "label": "_initializing",
        "offset": 1,
        "slot": "0",
        "type": "t_bool"
      },
      {
        "astId": 2340,
        "contract": "contracts/Campaign.sol:Campaign",
        "label": "__gap",
        "offset": 0,
        "slot": "1",
        "type": "t_array(t_uint256)50_storage"
      },
      {
        "astId": 336,
        "contract": "contracts/Campaign.sol:Campaign",
        "label": "_owner",
        "offset": 0,
        "slot": "51",
        "type": "t_address"
      },
      {
        "astId": 456,
        "contract": "contracts/Campaign.sol:Campaign",
        "label": "__gap",
        "offset": 0,
        "slot": "52",
        "type": "t_array(t_uint256)49_storage"
      },
      {
        "astId": 2610,
        "contract": "contracts/Campaign.sol:Campaign",
        "label": "__gap",
        "offset": 0,
        "slot": "101",
        "type": "t_array(t_uint256)50_storage"
      },
      {
        "astId": 1032,
        "contract": "contracts/Campaign.sol:Campaign",
        "label": "_name",
        "offset": 0,
        "slot": "151",
        "type": "t_string_storage"
      },
      {
        "astId": 1034,
        "contract": "contracts/Campaign.sol:Campaign",
        "label": "_symbol",
        "offset": 0,
        "slot": "152",
        "type": "t_string_storage"
      },
      {
        "astId": 1038,
        "contract": "contracts/Campaign.sol:Campaign",
        "label": "_owners",
        "offset": 0,
        "slot": "153",
        "type": "t_mapping(t_uint256,t_address)"
      },
      {
        "astId": 1042,
        "contract": "contracts/Campaign.sol:Campaign",
        "label": "_balances",
        "offset": 0,
        "slot": "154",
        "type": "t_mapping(t_address,t_uint256)"
      },
      {
        "astId": 1046,
        "contract": "contracts/Campaign.sol:Campaign",
        "label": "_tokenApprovals",
        "offset": 0,
        "slot": "155",
        "type": "t_mapping(t_uint256,t_address)"
      },
      {
        "astId": 1052,
        "contract": "contracts/Campaign.sol:Campaign",
        "label": "_operatorApprovals",
        "offset": 0,
        "slot": "156",
        "type": "t_mapping(t_address,t_mapping(t_address,t_bool))"
      },
      {
        "astId": 1894,
        "contract": "contracts/Campaign.sol:Campaign",
        "label": "__gap",
        "offset": 0,
        "slot": "157",
        "type": "t_array(t_uint256)44_storage"
      },
      {
        "astId": 3971,
        "contract": "contracts/Campaign.sol:Campaign",
        "label": "targetToken",
        "offset": 0,
        "slot": "201",
        "type": "t_contract(IERC20Upgradeable)686"
      },
      {
        "astId": 3973,
        "contract": "contracts/Campaign.sol:Campaign",
        "label": "requiredAmount",
        "offset": 0,
        "slot": "202",
        "type": "t_uint256"
      },
      {
        "astId": 3977,
        "contract": "contracts/Campaign.sol:Campaign",
        "label": "status",
        "offset": 0,
        "slot": "203",
        "type": "t_enum(CampaignStatus)6546"
      },
      {
        "astId": 3979,
        "contract": "contracts/Campaign.sol:Campaign",
        "label": "campaignUri",
        "offset": 0,
        "slot": "204",
        "type": "t_string_storage"
      },
      {
        "astId": 3981,
        "contract": "contracts/Campaign.sol:Campaign",
        "label": "startTime",
        "offset": 0,
        "slot": "205",
        "type": "t_uint256"
      },
      {
        "astId": 3984,
        "contract": "contracts/Campaign.sol:Campaign",
        "label": "totalEpochsCount",
        "offset": 0,
        "slot": "206",
        "type": "t_uint256"
      },
      {
        "astId": 3987,
        "contract": "contracts/Campaign.sol:Campaign",
        "label": "period",
        "offset": 0,
        "slot": "207",
        "type": "t_uint256"
      },
      {
        "astId": 3989,
        "contract": "contracts/Campaign.sol:Campaign",
        "label": "lastEpochEndTime",
        "offset": 0,
        "slot": "208",
        "type": "t_uint256"
      },
      {
        "astId": 3992,
        "contract": "contracts/Campaign.sol:Campaign",
        "label": "currentEpoch",
        "offset": 0,
        "slot": "209",
        "type": "t_uint256"
      },
      {
        "astId": 3994,
        "contract": "contracts/Campaign.sol:Campaign",
        "label": "_idx",
        "offset": 0,
        "slot": "210",
        "type": "t_uint256"
      },
      {
        "astId": 3996,
        "contract": "contracts/Campaign.sol:Campaign",
        "label": "_challengeIdx",
        "offset": 0,
        "slot": "211",
        "type": "t_uint256"
      },
      {
        "astId": 3998,
        "contract": "contracts/Campaign.sol:Campaign",
        "label": "challengeJudgedCount",
        "offset": 0,
        "slot": "212",
        "type": "t_uint256"
      },
      {
        "astId": 4000,
        "contract": "contracts/Campaign.sol:Campaign",
        "label": "cheatCount",
        "offset": 0,
        "slot": "213",
        "type": "t_uint256"
      },
      {
        "astId": 4002,
        "contract": "contracts/Campaign.sol:Campaign",
        "label": "sharedReward",
        "offset": 0,
        "slot": "214",
        "type": "t_uint256"
      },
      {
        "astId": 4004,
        "contract": "contracts/Campaign.sol:Campaign",
        "label": "hostReward",
        "offset": 0,
        "slot": "215",
        "type": "t_uint256"
      },
      {
        "astId": 4006,
        "contract": "contracts/Campaign.sol:Campaign",
        "label": "protocolFee",
        "offset": 0,
        "slot": "216",
        "type": "t_uint256"
      },
      {
        "astId": 4008,
        "contract": "contracts/Campaign.sol:Campaign",
        "label": "successTokensCount",
        "offset": 0,
        "slot": "217",
        "type": "t_uint256"
      },
      {
        "astId": 4015,
        "contract": "contracts/Campaign.sol:Campaign",
        "label": "records",
        "offset": 0,
        "slot": "218",
        "type": "t_mapping(t_uint256,t_mapping(t_uint256,t_struct(Record)6866_storage))"
      },
      {
        "astId": 4020,
        "contract": "contracts/Campaign.sol:Campaign",
        "label": "s_properties",
        "offset": 0,
        "slot": "219",
        "type": "t_mapping(t_uint256,t_struct(TokenProperty)6855_storage)"
      },
      {
        "astId": 4027,
        "contract": "contracts/Campaign.sol:Campaign",
        "label": "voters",
        "offset": 0,
        "slot": "220",
        "type": "t_mapping(t_uint256,t_mapping(t_uint256,t_struct(Voter)6832_storage))"
      },
      {
        "astId": 4032,
        "contract": "contracts/Campaign.sol:Campaign",
        "label": "challengeRecords",
        "offset": 0,
        "slot": "221",
        "type": "t_mapping(t_uint256,t_struct(ChallengeRecord)6849_storage)"
      }
    ],
    "types": {
      "t_address": {
        "encoding": "inplace",
        "label": "address",
        "numberOfBytes": "20"
      },
      "t_array(t_uint256)44_storage": {
        "base": "t_uint256",
        "encoding": "inplace",
        "label": "uint256[44]",
        "numberOfBytes": "1408"
      },
      "t_array(t_uint256)49_storage": {
        "base": "t_uint256",
        "encoding": "inplace",
        "label": "uint256[49]",
        "numberOfBytes": "1568"
      },
      "t_array(t_uint256)50_storage": {
        "base": "t_uint256",
        "encoding": "inplace",
        "label": "uint256[50]",
        "numberOfBytes": "1600"
      },
      "t_bool": {
        "encoding": "inplace",
        "label": "bool",
        "numberOfBytes": "1"
      },
      "t_contract(IERC20Upgradeable)686": {
        "encoding": "inplace",
        "label": "contract IERC20Upgradeable",
        "numberOfBytes": "20"
      },
      "t_enum(CampaignStatus)6546": {
        "encoding": "inplace",
        "label": "enum Consts.CampaignStatus",
        "numberOfBytes": "1"
      },
      "t_enum(TokenStatus)6863": {
        "encoding": "inplace",
        "label": "enum ICampaign.TokenStatus",
        "numberOfBytes": "1"
      },
      "t_mapping(t_address,t_bool)": {
        "encoding": "mapping",
        "key": "t_address",
        "label": "mapping(address => bool)",
        "numberOfBytes": "32",
        "value": "t_bool"
      },
      "t_mapping(t_address,t_mapping(t_address,t_bool))": {
        "encoding": "mapping",
        "key": "t_address",
        "label": "mapping(address => mapping(address => bool))",
        "numberOfBytes": "32",
        "value": "t_mapping(t_address,t_bool)"
      },
      "t_mapping(t_address,t_uint256)": {
        "encoding": "mapping",
        "key": "t_address",
        "label": "mapping(address => uint256)",
        "numberOfBytes": "32",
        "value": "t_uint256"
      },
      "t_mapping(t_uint256,t_address)": {
        "encoding": "mapping",
        "key": "t_uint256",
        "label": "mapping(uint256 => address)",
        "numberOfBytes": "32",
        "value": "t_address"
      },
      "t_mapping(t_uint256,t_mapping(t_uint256,t_struct(Record)6866_storage))": {
        "encoding": "mapping",
        "key": "t_uint256",
        "label": "mapping(uint256 => mapping(uint256 => struct ICampaign.Record))",
        "numberOfBytes": "32",
        "value": "t_mapping(t_uint256,t_struct(Record)6866_storage)"
      },
      "t_mapping(t_uint256,t_mapping(t_uint256,t_struct(Voter)6832_storage))": {
        "encoding": "mapping",
        "key": "t_uint256",
        "label": "mapping(uint256 => mapping(uint256 => struct ICampaign.Voter))",
        "numberOfBytes": "32",
        "value": "t_mapping(t_uint256,t_struct(Voter)6832_storage)"
      },
      "t_mapping(t_uint256,t_struct(ChallengeRecord)6849_storage)": {
        "encoding": "mapping",
        "key": "t_uint256",
        "label": "mapping(uint256 => struct ICampaign.ChallengeRecord)",
        "numberOfBytes": "32",
        "value": "t_struct(ChallengeRecord)6849_storage"
      },
      "t_mapping(t_uint256,t_struct(Record)6866_storage)": {
        "encoding": "mapping",
        "key": "t_uint256",
        "label": "mapping(uint256 => struct ICampaign.Record)",
        "numberOfBytes": "32",
        "value": "t_struct(Record)6866_storage"
      },
      "t_mapping(t_uint256,t_struct(TokenProperty)6855_storage)": {
        "encoding": "mapping",
        "key": "t_uint256",
        "label": "mapping(uint256 => struct ICampaign.TokenProperty)",
        "numberOfBytes": "32",
        "value": "t_struct(TokenProperty)6855_storage"
      },
      "t_mapping(t_uint256,t_struct(Voter)6832_storage)": {
        "encoding": "mapping",
        "key": "t_uint256",
        "label": "mapping(uint256 => struct ICampaign.Voter)",
        "numberOfBytes": "32",
        "value": "t_struct(Voter)6832_storage"
      },
      "t_string_storage": {
        "encoding": "bytes",
        "label": "string",
        "numberOfBytes": "32"
      },
      "t_struct(ChallengeRecord)6849_storage": {
        "encoding": "inplace",
        "label": "struct ICampaign.ChallengeRecord",
        "members": [
          {
            "astId": 6834,
            "contract": "contracts/Campaign.sol:Campaign",
            "label": "challengerId",
            "offset": 0,
            "slot": "0",
            "type": "t_uint256"
          },
          {
            "astId": 6836,
            "contract": "contracts/Campaign.sol:Campaign",
            "label": "cheaterId",
            "offset": 0,
            "slot": "1",
            "type": "t_uint256"
          },
          {
            "astId": 6838,
            "contract": "contracts/Campaign.sol:Campaign",
            "label": "agreeCount",
            "offset": 0,
            "slot": "2",
            "type": "t_uint256"
          },
          {
            "astId": 6840,
            "contract": "contracts/Campaign.sol:Campaign",
            "label": "disagreeCount",
            "offset": 0,
            "slot": "3",
            "type": "t_uint256"
          },
          {
            "astId": 6842,
            "contract": "contracts/Campaign.sol:Campaign",
            "label": "challengeRiseTime",
            "offset": 0,
            "slot": "4",
            "type": "t_uint256"
          },
          {
            "astId": 6844,
            "contract": "contracts/Campaign.sol:Campaign",
            "label": "result",
            "offset": 0,
            "slot": "5",
            "type": "t_bool"
          },
          {
            "astId": 6846,
            "contract": "contracts/Campaign.sol:Campaign",
            "label": "state",
            "offset": 1,
            "slot": "5",
            "type": "t_bool"
          },
          {
            "astId": 6848,
            "contract": "contracts/Campaign.sol:Campaign",
            "label": "legal",
            "offset": 2,
            "slot": "5",
            "type": "t_bool"
          }
        ],
        "numberOfBytes": "192"
      },
      "t_struct(Record)6866_storage": {
        "encoding": "inplace",
        "label": "struct ICampaign.Record",
        "members": [
          {
            "astId": 6865,
            "contract": "contracts/Campaign.sol:Campaign",
            "label": "contentUri",
            "offset": 0,
            "slot": "0",
            "type": "t_string_storage"
          }
        ],
        "numberOfBytes": "32"
      },
      "t_struct(TokenProperty)6855_storage": {
        "encoding": "inplace",
        "label": "struct ICampaign.TokenProperty",
        "members": [
          {
            "astId": 6852,
            "contract": "contracts/Campaign.sol:Campaign",
            "label": "tokenStatus",
            "offset": 0,
            "slot": "0",
            "type": "t_enum(TokenStatus)6863"
          },
          {
            "astId": 6854,
            "contract": "contracts/Campaign.sol:Campaign",
            "label": "pendingReward",
            "offset": 0,
            "slot": "1",
            "type": "t_uint256"
          }
        ],
        "numberOfBytes": "64"
      },
      "t_struct(Voter)6832_storage": {
        "encoding": "inplace",
        "label": "struct ICampaign.Voter",
        "members": [
          {
            "astId": 6829,
            "contract": "contracts/Campaign.sol:Campaign",
            "label": "voted",
            "offset": 0,
            "slot": "0",
            "type": "t_bool"
          },
          {
            "astId": 6831,
            "contract": "contracts/Campaign.sol:Campaign",
            "label": "choice",
            "offset": 1,
            "slot": "0",
            "type": "t_bool"
          }
        ],
        "numberOfBytes": "32"
      },
      "t_uint256": {
        "encoding": "inplace",
        "label": "uint256",
        "numberOfBytes": "32"
      },
      "t_uint8": {
        "encoding": "inplace",
        "label": "uint8",
        "numberOfBytes": "1"
      }
    }
  }
}