{
  "address": "0x47fC404C0036719cA3c0D9734457b8fAF1C6C714",
  "abi": [
    {
      "anonymous": false,
      "inputs": [
        {
          "indexed": false,
          "internalType": "address",
          "name": "previousAdmin",
          "type": "address"
        },
        {
          "indexed": false,
          "internalType": "address",
          "name": "newAdmin",
          "type": "address"
        }
      ],
      "name": "AdminChanged",
      "type": "event"
    },
    {
      "anonymous": false,
      "inputs": [
        {
          "indexed": true,
          "internalType": "address",
          "name": "beacon",
          "type": "address"
        }
      ],
      "name": "BeaconUpgraded",
      "type": "event"
    },
    {
      "anonymous": false,
      "inputs": [
        {
          "indexed": true,
          "internalType": "address",
          "name": "host",
          "type": "address"
        },
        {
          "indexed": true,
          "internalType": "address",
          "name": "campaignAddress",
          "type": "address"
        }
      ],
      "name": "EvCampaignCreated",
      "type": "event"
    },
    {
      "anonymous": false,
      "inputs": [
        {
          "indexed": true,
          "internalType": "contract IERC20",
          "name": "token",
          "type": "address"
        },
        {
          "indexed": false,
          "internalType": "uint256",
          "name": "maxAmount",
          "type": "uint256"
        }
      ],
      "name": "EvWhiteTokenSet",
      "type": "event"
    },
    {
      "anonymous": false,
      "inputs": [
        {
          "indexed": true,
          "internalType": "address",
          "name": "user",
          "type": "address"
        },
        {
          "indexed": false,
          "internalType": "bool",
          "name": "status",
          "type": "bool"
        }
      ],
      "name": "EvWhiteUserSet",
      "type": "event"
    },
    {
      "anonymous": false,
      "inputs": [
        {
          "indexed": false,
          "internalType": "uint8",
          "name": "version",
          "type": "uint8"
        }
      ],
      "name": "Initialized",
      "type": "event"
    },
    {
      "anonymous": false,
      "inputs": [
        {
          "indexed": true,
          "internalType": "address",
          "name": "previousOwner",
          "type": "address"
        },
        {
          "indexed": true,
          "internalType": "address",
          "name": "newOwner",
          "type": "address"
        }
      ],
      "name": "OwnershipTransferred",
      "type": "event"
    },
    {
      "anonymous": false,
      "inputs": [
        {
          "indexed": true,
          "internalType": "address",
          "name": "implementation",
          "type": "address"
        }
      ],
      "name": "Upgraded",
      "type": "event"
    },
    {
      "inputs": [],
      "name": "SALT",
      "outputs": [
        {
          "internalType": "bytes32",
          "name": "",
          "type": "bytes32"
        }
      ],
      "stateMutability": "view",
      "type": "function"
    },
    {
      "inputs": [
        {
          "internalType": "contract IERC20",
          "name": "token",
          "type": "address"
        },
        {
          "internalType": "uint256",
          "name": "amount",
          "type": "uint256"
        },
        {
          "internalType": "string",
          "name": "name",
          "type": "string"
        },
        {
          "internalType": "string",
          "name": "symbol",
          "type": "string"
        },
        {
          "internalType": "uint256",
          "name": "startTime",
          "type": "uint256"
        },
        {
          "internalType": "uint256",
          "name": "totalPeriod",
          "type": "uint256"
        },
        {
          "internalType": "uint256",
          "name": "periodLength",
          "type": "uint256"
        },
        {
          "internalType": "string",
          "name": "campaignUri",
          "type": "string"
        }
      ],
      "name": "createCampaign",
      "outputs": [],
      "stateMutability": "nonpayable",
      "type": "function"
    },
    {
      "inputs": [],
      "name": "initialize",
      "outputs": [],
      "stateMutability": "nonpayable",
      "type": "function"
    },
    {
      "inputs": [
        {
          "internalType": "contract IERC20",
          "name": "token",
          "type": "address"
        },
        {
          "internalType": "uint256",
          "name": "amount",
          "type": "uint256"
        }
      ],
      "name": "modifyWhiteToken",
      "outputs": [],
      "stateMutability": "nonpayable",
      "type": "function"
    },
    {
      "inputs": [
        {
          "internalType": "address",
          "name": "user",
          "type": "address"
        },
        {
          "internalType": "bool",
          "name": "status",
          "type": "bool"
        }
      ],
      "name": "modifyWhiteUser",
      "outputs": [],
      "stateMutability": "nonpayable",
      "type": "function"
    },
    {
      "inputs": [],
      "name": "owner",
      "outputs": [
        {
          "internalType": "address",
          "name": "",
          "type": "address"
        }
      ],
      "stateMutability": "view",
      "type": "function"
    },
    {
      "inputs": [],
      "name": "proxiableUUID",
      "outputs": [
        {
          "internalType": "bytes32",
          "name": "",
          "type": "bytes32"
        }
      ],
      "stateMutability": "view",
      "type": "function"
    },
    {
      "inputs": [],
      "name": "renounceOwnership",
      "outputs": [],
      "stateMutability": "nonpayable",
      "type": "function"
    },
    {
      "inputs": [
        {
          "internalType": "address",
          "name": "newOwner",
          "type": "address"
        }
      ],
      "name": "transferOwnership",
      "outputs": [],
      "stateMutability": "nonpayable",
      "type": "function"
    },
    {
      "inputs": [
        {
          "internalType": "address",
          "name": "newImplementation",
          "type": "address"
        }
      ],
      "name": "upgradeTo",
      "outputs": [],
      "stateMutability": "nonpayable",
      "type": "function"
    },
    {
      "inputs": [
        {
          "internalType": "address",
          "name": "newImplementation",
          "type": "address"
        },
        {
          "internalType": "bytes",
          "name": "data",
          "type": "bytes"
        }
      ],
      "name": "upgradeToAndCall",
      "outputs": [],
      "stateMutability": "payable",
      "type": "function"
    },
    {
      "inputs": [
        {
          "internalType": "contract IERC20",
          "name": "",
          "type": "address"
        }
      ],
      "name": "whiteTokens",
      "outputs": [
        {
          "internalType": "uint256",
          "name": "",
          "type": "uint256"
        }
      ],
      "stateMutability": "view",
      "type": "function"
    },
    {
      "inputs": [
        {
          "internalType": "address",
          "name": "",
          "type": "address"
        }
      ],
      "name": "whiteUsers",
      "outputs": [
        {
          "internalType": "bool",
          "name": "",
          "type": "bool"
        }
      ],
      "stateMutability": "view",
      "type": "function"
    }
  ],
  "transactionHash": "0xf20322cdfc1561ccbb7e9bbddb8b68452104b3aab270d8fbe6d822226b8d8caa",
  "args": [],
  "numDeployments": 2,
  "solcInputHash": "7983cf4427ab25fced9c9293ac916c30",
  "bytecode": "0x60a06040523060805234801561001457600080fd5b506080516152f061004c600039600081816102d7015281816103730152818161048101528181610519015261061b01526152f06000f3fe608060405260043610620000e35760003560e01c80638129fc1c1162000089578063d0208e7f1162000060578063d0208e7f1462000239578063e32e8b39146200025e578063f2fde38b1462000283578063fa3c8a1214620002a857600080fd5b80638129fc1c14620001df5780638da5cb5b14620001f7578063ba9a91a5146200022157600080fd5b80634f1ef28611620000be5780634f1ef286146200019857806352d1902d14620001af578063715018a614620001c757600080fd5b80631307502c14620000e8578063144442e714620001315780633659cfe61462000171575b600080fd5b348015620000f557600080fd5b506200011c62000107366004620012a0565b60656020526000908152604090205460ff1681565b60405190151581526020015b60405180910390f35b3480156200013e57600080fd5b506200016262000150366004620012a0565b60666020526000908152604090205481565b60405190815260200162000128565b3480156200017e57600080fd5b506200019662000190366004620012a0565b620002cd565b005b62000196620001a93660046200137e565b62000477565b348015620001bc57600080fd5b50620001626200060e565b348015620001d457600080fd5b5062000196620006d5565b348015620001ec57600080fd5b5062000196620006ed565b3480156200020457600080fd5b506033546040516001600160a01b03909116815260200162000128565b3480156200022e57600080fd5b506200016262000815565b3480156200024657600080fd5b50620001966200025836600462001458565b62000870565b3480156200026b57600080fd5b50620001966200027d3660046200152d565b62000b63565b3480156200029057600080fd5b5062000196620002a2366004620012a0565b62000bc7565b348015620002b557600080fd5b5062000196620002c73660046200155c565b62000c5a565b6001600160a01b037f0000000000000000000000000000000000000000000000000000000000000000163003620003715760405162461bcd60e51b815260206004820152602c60248201527f46756e6374696f6e206d7573742062652063616c6c6564207468726f7567682060448201527f64656c656761746563616c6c000000000000000000000000000000000000000060648201526084015b60405180910390fd5b7f00000000000000000000000000000000000000000000000000000000000000006001600160a01b0316620003cd7f360894a13ba1a3210667c828492db98dca3e2076cc3735a920a3ca505d382bbc546001600160a01b031690565b6001600160a01b0316146200044b5760405162461bcd60e51b815260206004820152602c60248201527f46756e6374696f6e206d7573742062652063616c6c6564207468726f7567682060448201527f6163746976652070726f78790000000000000000000000000000000000000000606482015260840162000368565b620004568162000cbd565b60408051600080825260208201909252620004749183919062000cc7565b50565b6001600160a01b037f0000000000000000000000000000000000000000000000000000000000000000163003620005175760405162461bcd60e51b815260206004820152602c60248201527f46756e6374696f6e206d7573742062652063616c6c6564207468726f7567682060448201527f64656c656761746563616c6c0000000000000000000000000000000000000000606482015260840162000368565b7f00000000000000000000000000000000000000000000000000000000000000006001600160a01b0316620005737f360894a13ba1a3210667c828492db98dca3e2076cc3735a920a3ca505d382bbc546001600160a01b031690565b6001600160a01b031614620005f15760405162461bcd60e51b815260206004820152602c60248201527f46756e6374696f6e206d7573742062652063616c6c6564207468726f7567682060448201527f6163746976652070726f78790000000000000000000000000000000000000000606482015260840162000368565b620005fc8262000cbd565b6200060a8282600162000cc7565b5050565b6000306001600160a01b037f00000000000000000000000000000000000000000000000000000000000000001614620006b05760405162461bcd60e51b815260206004820152603860248201527f555550535570677261646561626c653a206d757374206e6f742062652063616c60448201527f6c6564207468726f7567682064656c656761746563616c6c0000000000000000606482015260840162000368565b507f360894a13ba1a3210667c828492db98dca3e2076cc3735a920a3ca505d382bbc90565b620006df62000e78565b620006eb600062000ed4565b565b600054610100900460ff16158080156200070e5750600054600160ff909116105b806200072a5750303b1580156200072a575060005460ff166001145b6200079e5760405162461bcd60e51b815260206004820152602e60248201527f496e697469616c697a61626c653a20636f6e747261637420697320616c72656160448201527f647920696e697469616c697a6564000000000000000000000000000000000000606482015260840162000368565b6000805460ff191660011790558015620007c2576000805461ff0019166101001790555b620007cc62000f3e565b801562000474576000805461ff0019169055604051600181527f7f26b83ff96e1f2b6a682f133852f6798a09c465da95921460cefb38474024989060200160405180910390a150565b604051602001620008579060208082526011908201527f53697379706875732050726f746f636f6c000000000000000000000000000000604082015260600190565b6040516020818303038152906040528051906020012081565b3360009081526065602052604090205460ff16620008d15760405162461bcd60e51b815260206004820152601e60248201527f43616d706169676e466163746f72793a206e6f742077686974656c6973740000604482015260640162000368565b6001600160a01b03891660009081526066602052604090205489906200093a5760405162461bcd60e51b815260206004820152601e60248201527f43616d706169676e466163746f72793a206e6f742077686974656c6973740000604482015260640162000368565b6001600160a01b038a16600090815260666020526040902054891115620009a45760405162461bcd60e51b815260206004820152601c60248201527f43616d706169676e463a20616d6f756e74206578636565642063617000000000604482015260640162000368565b85620009b3426102586200159e565b1062000a025760405162461bcd60e51b815260206004820152601960248201527f43616d706169676e463a20737461727420746f6f20736f6f6e00000000000000604482015260640162000368565b600060405160200162000a469060208082526011908201527f53697379706875732050726f746f636f6c000000000000000000000000000000604082015260600190565b604051602081830303815290604052805190602001208b8b8b8b8b8b8b8b8b60405162000a73906200127c565b62000a87999897969594939291906200163b565b8190604051809103906000f590508015801562000aa8573d6000803e3d6000fd5b506040517ff2fde38b0000000000000000000000000000000000000000000000000000000081523360048201529091506001600160a01b0382169063f2fde38b90602401600060405180830381600087803b15801562000b0757600080fd5b505af115801562000b1c573d6000803e3d6000fd5b50506040516001600160a01b03841692503391507facd63640134021f2a0e3727cb386f37eff4877f03025952b4d5dd67f1d4c9ac390600090a35050505050505050505050565b62000b6d62000e78565b6001600160a01b03821660008181526066602052604090819020839055517f5f4c38db7b341414be18a675a08cd2c914f57fa3ac798db73bd0e0b5edc72c769062000bbb9084815260200190565b60405180910390a25050565b62000bd162000e78565b6001600160a01b03811662000c4f5760405162461bcd60e51b815260206004820152602660248201527f4f776e61626c653a206e6577206f776e657220697320746865207a65726f206160448201527f6464726573730000000000000000000000000000000000000000000000000000606482015260840162000368565b620004748162000ed4565b62000c6462000e78565b6001600160a01b038216600081815260656020908152604091829020805460ff191685151590811790915591519182527f117985bdf7b9932fa2ed0b5ff0e03eda789f177b0454a9625be02fac7234eddc910162000bbb565b6200047462000e78565b7f4910fdfa16fed3260ed0e7147f7cc6da11a60208b5b9406d12a635614ffd91435460ff161562000d025762000cfd8362000fc8565b505050565b826001600160a01b03166352d1902d6040518163ffffffff1660e01b8152600401602060405180830381865afa92505050801562000d5f575060408051601f3d908101601f1916820190925262000d5c91810190620016c9565b60015b62000dd35760405162461bcd60e51b815260206004820152602e60248201527f45524331393637557067726164653a206e657720696d706c656d656e7461746960448201527f6f6e206973206e6f742055555053000000000000000000000000000000000000606482015260840162000368565b7f360894a13ba1a3210667c828492db98dca3e2076cc3735a920a3ca505d382bbc811462000e6a5760405162461bcd60e51b815260206004820152602960248201527f45524331393637557067726164653a20756e737570706f727465642070726f7860448201527f6961626c65555549440000000000000000000000000000000000000000000000606482015260840162000368565b5062000cfd838383620010a0565b6033546001600160a01b03163314620006eb5760405162461bcd60e51b815260206004820181905260248201527f4f776e61626c653a2063616c6c6572206973206e6f7420746865206f776e6572604482015260640162000368565b603380546001600160a01b038381167fffffffffffffffffffffffff0000000000000000000000000000000000000000831681179093556040519116919082907f8be0079c531659141344cd1fd0a4f28419497f9722a3daafe3b4186f6b6457e090600090a35050565b600054610100900460ff1662000fbd5760405162461bcd60e51b815260206004820152602b60248201527f496e697469616c697a61626c653a20636f6e7472616374206973206e6f74206960448201527f6e697469616c697a696e67000000000000000000000000000000000000000000606482015260840162000368565b620006eb3362000ed4565b6001600160a01b0381163b620010475760405162461bcd60e51b815260206004820152602d60248201527f455243313936373a206e657720696d706c656d656e746174696f6e206973206e60448201527f6f74206120636f6e747261637400000000000000000000000000000000000000606482015260840162000368565b7f360894a13ba1a3210667c828492db98dca3e2076cc3735a920a3ca505d382bbc80547fffffffffffffffffffffffff0000000000000000000000000000000000000000166001600160a01b0392909216919091179055565b620010ab83620010d1565b600082511180620010b95750805b1562000cfd57620010cb838362001113565b50505050565b620010dc8162000fc8565b6040516001600160a01b038216907fbc7cd75a20ee27fd9adebab32041f755214dbc6bffa90cc0225b39da2e5c2d3b90600090a250565b60606200113b8383604051806060016040528060278152602001620052946027913962001142565b9392505050565b60606001600160a01b0384163b620011c35760405162461bcd60e51b815260206004820152602660248201527f416464726573733a2064656c65676174652063616c6c20746f206e6f6e2d636f60448201527f6e74726163740000000000000000000000000000000000000000000000000000606482015260840162000368565b600080856001600160a01b031685604051620011e09190620016e3565b600060405180830381855af49150503d80600081146200121d576040519150601f19603f3d011682016040523d82523d6000602084013e62001222565b606091505b5091509150620012348282866200123e565b9695505050505050565b606083156200124f5750816200113b565b825115620012605782518084602001fd5b8160405162461bcd60e51b815260040162000368919062001701565b613b7d806200171783390190565b6001600160a01b03811681146200047457600080fd5b600060208284031215620012b357600080fd5b81356200113b816200128a565b8035620012cd816200128a565b919050565b7f4e487b7100000000000000000000000000000000000000000000000000000000600052604160045260246000fd5b600067ffffffffffffffff808411156200131f576200131f620012d2565b604051601f8501601f19908116603f011681019082821181831017156200134a576200134a620012d2565b816040528093508581528686860111156200136457600080fd5b858560208301376000602087830101525050509392505050565b600080604083850312156200139257600080fd5b82356200139f816200128a565b9150602083013567ffffffffffffffff811115620013bc57600080fd5b8301601f81018513620013ce57600080fd5b620013df8582356020840162001301565b9150509250929050565b600082601f830112620013fb57600080fd5b6200113b8383356020850162001301565b60008083601f8401126200141f57600080fd5b50813567ffffffffffffffff8111156200143857600080fd5b6020830191508360208285010111156200145157600080fd5b9250929050565b60008060008060008060008060006101008a8c0312156200147857600080fd5b620014838a620012c0565b985060208a0135975060408a013567ffffffffffffffff80821115620014a857600080fd5b620014b68d838e01620013e9565b985060608c0135915080821115620014cd57600080fd5b620014db8d838e01620013e9565b975060808c0135965060a08c0135955060c08c0135945060e08c01359150808211156200150757600080fd5b50620015168c828d016200140c565b915080935050809150509295985092959850929598565b600080604083850312156200154157600080fd5b82356200154e816200128a565b946020939093013593505050565b600080604083850312156200157057600080fd5b82356200157d816200128a565b9150602083013580151581146200159357600080fd5b809150509250929050565b60008219821115620015d9577f4e487b7100000000000000000000000000000000000000000000000000000000600052601160045260246000fd5b500190565b60005b83811015620015fb578181015183820152602001620015e1565b83811115620010cb5750506000910152565b6000815180845262001627816020860160208601620015de565b601f01601f19169290920160200192915050565b60006101006001600160a01b038c1683528a6020840152806040840152620016668184018b6200160d565b905082810360608401526200167c818a6200160d565b90508760808401528660a08401528560c084015282810360e0840152838152838560208301376000602085830101526020601f19601f8601168201019150509a9950505050505050505050565b600060208284031215620016dc57600080fd5b5051919050565b60008251620016f7818460208701620015de565b9190910192915050565b6020815260006200113b60208301846200160d56fe6101206040523480156200001257600080fd5b5060405162003b7d38038062003b7d83398101604081905262000035916200028e565b8585620000423362000154565b6001620000508382620003e9565b5060026200005f8282620003e9565b5050506001600160a01b038816620000be5760405162461bcd60e51b815260206004820152601760248201527f43616d706169676e3a20696e76616c696420746f6b656e00000000000000000060448201526064015b60405180910390fd5b86600003620001105760405162461bcd60e51b815260206004820152601860248201527f43616d706169676e3a20696e76616c696420616d6f756e7400000000000000006044820152606401620000b5565b6001600160a01b03881660805260a087905260c0849052600984905560e08390526101008290526008620001458282620003e9565b505050505050505050620004b5565b600080546001600160a01b038381166001600160a01b0319831681178455604051919092169283917f8be0079c531659141344cd1fd0a4f28419497f9722a3daafe3b4186f6b6457e09190a35050565b80516001600160a01b0381168114620001bc57600080fd5b919050565b634e487b7160e01b600052604160045260246000fd5b600082601f830112620001e957600080fd5b81516001600160401b0380821115620002065762000206620001c1565b604051601f8301601f19908116603f01168101908282118183101715620002315762000231620001c1565b816040528381526020925086838588010111156200024e57600080fd5b600091505b8382101562000272578582018301518183018401529082019062000253565b83821115620002845760008385830101525b9695505050505050565b600080600080600080600080610100898b031215620002ac57600080fd5b620002b789620001a4565b60208a015160408b015191995097506001600160401b0380821115620002dc57600080fd5b620002ea8c838d01620001d7565b975060608b01519150808211156200030157600080fd5b6200030f8c838d01620001d7565b965060808b0151955060a08b0151945060c08b0151935060e08b01519150808211156200033b57600080fd5b506200034a8b828c01620001d7565b9150509295985092959890939650565b600181811c908216806200036f57607f821691505b6020821081036200039057634e487b7160e01b600052602260045260246000fd5b50919050565b601f821115620003e457600081815260208120601f850160051c81016020861015620003bf5750805b601f850160051c820191505b81811015620003e057828155600101620003cb565b5050505b505050565b81516001600160401b03811115620004055762000405620001c1565b6200041d816200041684546200035a565b8462000396565b602080601f8311600181146200045557600084156200043c5750858301515b600019600386901b1c1916600185901b178555620003e0565b600085815260208120601f198616915b82811015620004865788860151825594840194600190910190840162000465565b5085821015620004a55787850151600019600388901b60f8161c191681555b5050505050600190811b01905550565b60805160a05160c05160e051610100516135fe6200057f600039600081816105c601528181611a45015281816121240152818161215b01526121b201526000818161050701528181611a6601528181611b1a01526121f001526000818161047c0152818161090c01528181610b5a015281816112c6015281816115b50152611a900152600081816103ff01528181610c51015281816116f8015261175f0152600081816103aa01528181610eee01528181610fec0152818161102401526116d401526135fe6000f3fe608060405234801561001057600080fd5b50600436106102c85760003560e01c806378e979251161017b578063bf96ae63116100d8578063e86a53091161008c578063ef78d4fd11610071578063ef78d4fd146105c1578063f2fde38b146105e8578063f7b10808146105fb57600080fd5b8063e86a53091461057c578063e985e9c51461058557600080fd5b8063c87b56dd116100bd578063c87b56dd1461054d578063db49881214610560578063dfa447ce1461057357600080fd5b8063bf96ae631461053c578063c771766d1461054457600080fd5b80639cc8525d1161012f578063b0e21e8a11610114578063b0e21e8a146104f9578063b6f625e614610502578063b88d4fde1461052957600080fd5b80639cc8525d146104d3578063a22cb465146104e657600080fd5b80639397f8e2116101605780639397f8e2146104af57806395d89b41146104c257806396bc7434146104ca57600080fd5b806378e97925146104775780638da5cb5b1461049e57600080fd5b8063379607f5116102295780636efcaab5116101dd57806370f42df8116101c257806370f42df81461045d578063715018a614610466578063766718081461046e57600080fd5b80636efcaab51461044257806370a082311461044a57600080fd5b806342842e0e1161020e57806342842e0e146103e757806348b9ef40146103fa5780636352211e1461042f57600080fd5b8063379607f5146103cc5780633ccfd60b146103df57600080fd5b806311da60b411610280578063200d2ed211610265578063200d2ed21461037857806323b872dd14610392578063327107f7146103a557600080fd5b806311da60b41461035d5780631a5975481461036557600080fd5b8063081812fc116102b1578063081812fc1461030a578063095ea7b3146103355780630c0b2bdd1461034a57600080fd5b806301ffc9a7146102cd57806306fdde03146102f5575b600080fd5b6102e06102db366004612bd5565b610636565b60405190151581526020015b60405180910390f35b6102fd61071b565b6040516102ec9190612c4a565b61031d610318366004612c5d565b6107ad565b6040516001600160a01b0390911681526020016102ec565b610348610343366004612c92565b6107d4565b005b610348610358366004612d08565b61090a565b610348610b4e565b610348610373366004612d74565b610b58565b6007546103859060ff1681565b6040516102ec9190612dcc565b6103486103a0366004612de6565b610d86565b61031d7f000000000000000000000000000000000000000000000000000000000000000081565b6103486103da366004612c5d565b610e0d565b610348610f68565b6103486103f5366004612de6565b6110a9565b6104217f000000000000000000000000000000000000000000000000000000000000000081565b6040519081526020016102ec565b61031d61043d366004612c5d565b6110c4565b6102fd611129565b610421610458366004612e22565b6111b7565b610421600f5481565b610348611251565b610421600a5481565b6104217f000000000000000000000000000000000000000000000000000000000000000081565b6000546001600160a01b031661031d565b6103486104bd366004612e7f565b611263565b6102fd61145e565b610421600c5481565b6102fd6104e1366004612ecb565b61146d565b6103486104f4366004612efb565b611516565b610421600e5481565b6104217f000000000000000000000000000000000000000000000000000000000000000081565b610348610537366004612f48565b611525565b6103486115b3565b61042160095481565b6102fd61055b366004612c5d565b6117b1565b61034861056e366004613024565b611825565b610421600d5481565b610421600b5481565b6102e061059336600461305a565b6001600160a01b03918216600090815260066020908152604080832093909416825291909152205460ff1690565b6104217f000000000000000000000000000000000000000000000000000000000000000081565b6103486105f6366004612e22565b611877565b610628610609366004612c5d565b6011602052600090815260409020805460019091015460ff9091169082565b6040516102ec92919061308d565b60007fffffffff0000000000000000000000000000000000000000000000000000000082167f80ac58cd0000000000000000000000000000000000000000000000000000000014806106c957507fffffffff0000000000000000000000000000000000000000000000000000000082167f5b5e139f00000000000000000000000000000000000000000000000000000000145b8061071557507f01ffc9a7000000000000000000000000000000000000000000000000000000007fffffffff000000000000000000000000000000000000000000000000000000008316145b92915050565b60606001805461072a906130ab565b80601f0160208091040260200160405190810160405280929190818152602001828054610756906130ab565b80156107a35780601f10610778576101008083540402835291602001916107a3565b820191906000526020600020905b81548152906001019060200180831161078657829003601f168201915b5050505050905090565b60006107b882611907565b506000908152600560205260409020546001600160a01b031690565b60006107df826110c4565b9050806001600160a01b0316836001600160a01b03160361086d5760405162461bcd60e51b815260206004820152602160248201527f4552433732313a20617070726f76616c20746f2063757272656e74206f776e6560448201527f720000000000000000000000000000000000000000000000000000000000000060648201526084015b60405180910390fd5b336001600160a01b038216148061088957506108898133610593565b6108fb5760405162461bcd60e51b815260206004820152603e60248201527f4552433732313a20617070726f76652063616c6c6572206973206e6f7420746f60448201527f6b656e206f776e6572206e6f7220617070726f76656420666f7220616c6c00006064820152608401610864565b610905838361196b565b505050565b7f000000000000000000000000000000000000000000000000000000000000000042106109795760405162461bcd60e51b815260206004820152601960248201527f43616d706169676e3a20616c72656164792073746172746564000000000000006044820152606401610864565b6109816119e6565b60015b83811015610b0b5760008585838181106109a0576109a06130e5565b90506020020135905060008484848181106109bd576109bd6130e5565b90506020020160208101906109d291906130fb565b90508015610a6a57600260008381526011602052604090205460ff1660068111156109ff576109ff612db6565b14610a4c5760405162461bcd60e51b815260206004820152601460248201527f43616d706169676e3a206e6f74207369676e65640000000000000000000000006044820152606401610864565b6000828152601160205260409020805460ff19166003179055610af6565b600360008381526011602052604090205460ff166006811115610a8f57610a8f612db6565b14610adc5760405162461bcd60e51b815260206004820152601660248201527f43616d706169676e3a206e6f742061646d6974746564000000000000000000006044820152606401610864565b6000828152601160205260409020805460ff191660021790555b50508080610b039061312e565b915050610984565b507e896c158ae8c63b50648f3ace621592a536dc686bb71ea91e8c1a75207e26fd84848484604051610b409493929190613148565b60405180910390a150505050565b610b56611a40565b565b7f00000000000000000000000000000000000000000000000000000000000000004210610bc75760405162461bcd60e51b815260206004820152601960248201527f43616d706169676e3a20616c72656164792073746172746564000000000000006044820152606401610864565b610bcf6119e6565b60005b81811015610905576000838383818110610bee57610bee6130e5565b602090810292909201356000818152601190935260408084208151808301909252805492955090925090829060ff166006811115610c2e57610c2e612db6565b6006811115610c3f57610c3f612db6565b815260200160018201548152505090507f0000000000000000000000000000000000000000000000000000000000000000816020015114610cc25760405162461bcd60e51b815260206004820152601960248201527f43616d706169676e3a207374616b65206e6f74206d61746368000000000000006044820152606401610864565b600281516006811115610cd757610cd7612db6565b14610d245760405162461bcd60e51b815260206004820152601760248201527f43616d706169676e3a206e6f74207369676e65642075700000000000000000006044820152606401610864565b600082815260116020908152604091829020805460ff1916600317905590518381527f0898a2d0f11ee389113f47ac39e4c57338d20de87eab1ff9bcce61256c868c85910160405180910390a150508080610d7e9061312e565b915050610bd2565b610d903382611db8565b610e025760405162461bcd60e51b815260206004820152602e60248201527f4552433732313a2063616c6c6572206973206e6f7420746f6b656e206f776e6560448201527f72206e6f7220617070726f7665640000000000000000000000000000000000006064820152608401610864565b610905838383611e37565b8033610e18826110c4565b6001600160a01b031614610e6e5760405162461bcd60e51b815260206004820152601a60248201527f43616d706169676e3a206e6f7420746f6b656e20686f6c6465720000000000006044820152606401610864565b600460075460ff166004811115610e8757610e87612db6565b14610e9457610e94611a40565b60008281526011602052604081206001015415610edc57600f54600c54610ebb91906131fa565b600084815260116020526040902060010154610ed7919061320e565b610edf565b60005b9050610f156001600160a01b037f000000000000000000000000000000000000000000000000000000000000000016338361201c565b60008381526011602090815260408083206001019290925581518581529081018390527f7cb904b3cfc4c896696085c26766cebf2de422ae3864a0112b5e2fd9ec1efaf8910160405180910390a1505050565b610f706119e6565b600460075460ff166004811115610f8957610f89612db6565b14610fd65760405162461bcd60e51b815260206004820152601560248201527f43616d706169676e3a206e6f7420736574746c656400000000000000000000006044820152606401610864565b600d805460009091556110136001600160a01b037f000000000000000000000000000000000000000000000000000000000000000016338361201c565b600e54611060906001600160a01b037f0000000000000000000000000000000000000000000000000000000000000000169073d8da6bf26964af9d7eed9e03e53415d37aa960459061201c565b600e546040805133815260208101849052908101919091527f7a1c31090abe490bfd8379cbbaeef735a3e3c87ee34925f16d0fa3ff4e061155906060015b60405180910390a150565b61090583838360405180602001604052806000815250611525565b6000818152600360205260408120546001600160a01b0316806107155760405162461bcd60e51b815260206004820152601860248201527f4552433732313a20696e76616c696420746f6b656e20494400000000000000006044820152606401610864565b60088054611136906130ab565b80601f0160208091040260200160405190810160405280929190818152602001828054611162906130ab565b80156111af5780601f10611184576101008083540402835291602001916111af565b820191906000526020600020905b81548152906001019060200180831161119257829003601f168201915b505050505081565b60006001600160a01b0382166112355760405162461bcd60e51b815260206004820152602960248201527f4552433732313a2061646472657373207a65726f206973206e6f74206120766160448201527f6c6964206f776e657200000000000000000000000000000000000000000000006064820152608401610864565b506001600160a01b031660009081526004602052604090205490565b6112596119e6565b610b5660006120c5565b803361126e826110c4565b6001600160a01b0316146112c45760405162461bcd60e51b815260206004820152601a60248201527f43616d706169676e3a206e6f7420746f6b656e20686f6c6465720000000000006044820152606401610864565b7f00000000000000000000000000000000000000000000000000000000000000004210156113345760405162461bcd60e51b815260206004820152601360248201527f43616d706169676e3a206e6f74207374617274000000000000000000000000006044820152606401610864565b81600360008281526011602052604090205460ff16600681111561135a5761135a612db6565b146113a75760405162461bcd60e51b815260206004820152601660248201527f43616d706169676e3a206e6f742061646d6974746564000000000000000000006044820152606401610864565b6113af612122565b604080516020601f870181900481028201830183528101868152909182919088908890819085018382808284376000920182905250939094525050600a5481526010602090815260408083208884529091529020825190915081906114149082613274565b509050507f0de15cde05bed13731732bfe8f1ff5a69a8be94505d2e381f23997b07af8dd85600a5484878760405161144f9493929190613334565b60405180910390a15050505050565b60606002805461072a906130ab565b6010602090815260009283526040808420909152908252902080548190611493906130ab565b80601f01602080910402602001604051908101604052809291908181526020018280546114bf906130ab565b801561150c5780601f106114e15761010080835404028352916020019161150c565b820191906000526020600020905b8154815290600101906020018083116114ef57829003601f168201915b5050505050905081565b61152133838361225f565b5050565b61152f3383611db8565b6115a15760405162461bcd60e51b815260206004820152602e60248201527f4552433732313a2063616c6c6572206973206e6f7420746f6b656e206f776e6560448201527f72206e6f7220617070726f7665640000000000000000000000000000000000006064820152608401610864565b6115ad8484848461232d565b50505050565b7f000000000000000000000000000000000000000000000000000000000000000042106116225760405162461bcd60e51b815260206004820152601960248201527f43616d706169676e3a20616c72656164792073746172746564000000000000006044820152606401610864565b333b156116715760405162461bcd60e51b815260206004820152601a60248201527f43616d706169676e3a206f6e6c7920454f4120616c6c6f7765640000000000006044820152606401610864565b61167a336111b7565b156116c75760405162461bcd60e51b815260206004820152601860248201527f43616d706169676e3a20616c7265616479207369676e656400000000000000006044820152606401610864565b61171c6001600160a01b037f00000000000000000000000000000000000000000000000000000000000000001633307f00000000000000000000000000000000000000000000000000000000000000006123b6565b600b8054906001906000611730838561320e565b9091555061174090503382612407565b600081815260116020908152604091829020805460ff191660021781557f000000000000000000000000000000000000000000000000000000000000000060019091015590518281527fcd169e01d559b6d336962db715a67dc5fd03521032de891b679200894ec219f3910161109e565b60606117bc82611907565b60006117d360408051602081019091526000815290565b905060008151116117f3576040518060200160405280600081525061181e565b806117fd84612421565b60405160200161180e929190613371565b6040516020818303038152906040525b9392505050565b61182d6119e6565b600861183a8284836133a0565b507f9554c0ad8824b12a4301321d81a1a6d3be9e533b040fe09a8d7dfeaccb276181600860405161186b9190613461565b60405180910390a15050565b61187f6119e6565b6001600160a01b0381166118fb5760405162461bcd60e51b815260206004820152602660248201527f4f776e61626c653a206e6577206f776e657220697320746865207a65726f206160448201527f64647265737300000000000000000000000000000000000000000000000000006064820152608401610864565b611904816120c5565b50565b6000818152600360205260409020546001600160a01b03166119045760405162461bcd60e51b815260206004820152601860248201527f4552433732313a20696e76616c696420746f6b656e20494400000000000000006044820152606401610864565b6000818152600560205260409020805473ffffffffffffffffffffffffffffffffffffffff19166001600160a01b03841690811790915581906119ad826110c4565b6001600160a01b03167f8c5be1e5ebec7d5bd14f71427d1e84f3dd0314c0f7b2291e5b200ac8c7c3b92560405160405180910390a45050565b6000546001600160a01b03163314610b565760405162461bcd60e51b815260206004820181905260248201527f4f776e61626c653a2063616c6c6572206973206e6f7420746865206f776e65726044820152606401610864565b611a8a7f00000000000000000000000000000000000000000000000000000000000000007f00000000000000000000000000000000000000000000000000000000000000006134ec565b611ab4907f000000000000000000000000000000000000000000000000000000000000000061320e565b4211611b025760405162461bcd60e51b815260206004820152601360248201527f43616d706169676e3a206e6f7420656e646564000000000000000000000000006044820152606401610864565b600b54600f5560005b600b54811015611d4c5760005b7f0000000000000000000000000000000000000000000000000000000000000000811015611d0657600081815260106020908152604080832085845290915281208054611b64906130ab565b80601f0160208091040260200160405190810160405280929190818152602001828054611b90906130ab565b8015611bdd5780601f10611bb257610100808354040283529160200191611bdd565b820191906000526020600020905b815481529060010190602001808311611bc057829003601f168201915b505050505090508051600003611cf357600083815260116020526040902060010154620f4240611c1062030d40836134ec565b611c1a91906131fa565b600d6000828254611c2b919061320e565b90915550620f42409050611c42620186a0836134ec565b611c4c91906131fa565b600e6000828254611c5d919061320e565b9091555050600e54600d54611c72908361350b565b611c7c919061350b565b600c6000828254611c8d919061320e565b90915550506000848152601160205260408120600190810191909155600f54611cb6919061350b565b600f556040518481527f939e6ef49701507f032296ab644b4aebf199222450de6622bb5f9550c7a782099060200160405180910390a15050611d06565b5080611cfe8161312e565b915050611b18565b506040518181527f8990a2cca2ad5b32ae72395c0db570652316a7903178764820232d8fe5d2b3559060200160405180910390a180611d448161312e565b915050611b0b565b50600f54600003611d7657600c54600e6000828254611d6b919061320e565b90915550506000600c555b6007805460ff191660041790556040513381527f7069a5d4cbf1f64db906d1dd29276702df7e9c795ef1746d7a1ca5449c4893f19060200160405180910390a1565b600080611dc4836110c4565b9050806001600160a01b0316846001600160a01b03161480611e0b57506001600160a01b0380821660009081526006602090815260408083209388168352929052205460ff165b80611e2f5750836001600160a01b0316611e24846107ad565b6001600160a01b0316145b949350505050565b826001600160a01b0316611e4a826110c4565b6001600160a01b031614611ec65760405162461bcd60e51b815260206004820152602560248201527f4552433732313a207472616e736665722066726f6d20696e636f72726563742060448201527f6f776e65720000000000000000000000000000000000000000000000000000006064820152608401610864565b6001600160a01b038216611f415760405162461bcd60e51b8152602060048201526024808201527f4552433732313a207472616e7366657220746f20746865207a65726f2061646460448201527f72657373000000000000000000000000000000000000000000000000000000006064820152608401610864565b611f4c838383612556565b611f5760008261196b565b6001600160a01b0383166000908152600460205260408120805460019290611f8090849061350b565b90915550506001600160a01b0382166000908152600460205260408120805460019290611fae90849061320e565b9091555050600081815260036020526040808220805473ffffffffffffffffffffffffffffffffffffffff19166001600160a01b0386811691821790925591518493918716917fddf252ad1be2c89b69c2b068fc378daa952ba7f163c4a11628f55a4df523b3ef91a4505050565b6040516001600160a01b0383166024820152604481018290526109059084907fa9059cbb00000000000000000000000000000000000000000000000000000000906064015b60408051601f198184030181529190526020810180517bffffffffffffffffffffffffffffffffffffffffffffffffffffffff167fffffffff00000000000000000000000000000000000000000000000000000000909316929092179091526125ad565b600080546001600160a01b0383811673ffffffffffffffffffffffffffffffffffffffff19831681178455604051919092169283917f8be0079c531659141344cd1fd0a4f28419497f9722a3daafe3b4186f6b6457e09190a35050565b7f000000000000000000000000000000000000000000000000000000000000000060095442612151919061350b565b11156121ee5760007f000000000000000000000000000000000000000000000000000000000000000060095442612188919061350b565b61219291906131fa565b905080600a60008282546121a6919061320e565b909155506121d69050817f00000000000000000000000000000000000000000000000000000000000000006134ec565b600960008282546121e7919061320e565b9091555050505b7f0000000000000000000000000000000000000000000000000000000000000000600a5410610b565760405162461bcd60e51b815260206004820152601d60248201527f43616d706169676e3a20636865636b45706f636820746f6f206c6174650000006044820152606401610864565b816001600160a01b0316836001600160a01b0316036122c05760405162461bcd60e51b815260206004820152601960248201527f4552433732313a20617070726f766520746f2063616c6c6572000000000000006044820152606401610864565b6001600160a01b03838116600081815260066020908152604080832094871680845294825291829020805460ff191686151590811790915591519182527f17307eab39ab6107e8899845ad3d59bd9653f200f220920489ca2b5937696c31910160405180910390a3505050565b612338848484611e37565b61234484848484612692565b6115ad5760405162461bcd60e51b815260206004820152603260248201527f4552433732313a207472616e7366657220746f206e6f6e20455243373231526560448201527f63656976657220696d706c656d656e74657200000000000000000000000000006064820152608401610864565b6040516001600160a01b03808516602483015283166044820152606481018290526115ad9085907f23b872dd0000000000000000000000000000000000000000000000000000000090608401612061565b611521828260405180602001604052806000815250612833565b60608160000361246457505060408051808201909152600181527f3000000000000000000000000000000000000000000000000000000000000000602082015290565b8160005b811561248e57806124788161312e565b91506124879050600a836131fa565b9150612468565b60008167ffffffffffffffff8111156124a9576124a9612f32565b6040519080825280601f01601f1916602001820160405280156124d3576020820181803683370190505b5090505b8415611e2f576124e860018361350b565b91506124f5600a86613522565b61250090603061320e565b60f81b818381518110612515576125156130e5565b60200101907effffffffffffffffffffffffffffffffffffffffffffffffffffffffffffff1916908160001a90535061254f600a866131fa565b94506124d7565b6001600160a01b038316156109055760405162461bcd60e51b815260206004820152601c60248201527f43616d706169676e3a20436f756c64206e6f74207472616e73666572000000006044820152606401610864565b6000612602826040518060400160405280602081526020017f5361666545524332303a206c6f772d6c6576656c2063616c6c206661696c6564815250856001600160a01b03166128bc9092919063ffffffff16565b80519091501561090557808060200190518101906126209190613536565b6109055760405162461bcd60e51b815260206004820152602a60248201527f5361666545524332303a204552433230206f7065726174696f6e20646964206e60448201527f6f742073756363656564000000000000000000000000000000000000000000006064820152608401610864565b60006001600160a01b0384163b15612828576040517f150b7a020000000000000000000000000000000000000000000000000000000081526001600160a01b0385169063150b7a02906126ef903390899088908890600401613553565b6020604051808303816000875af192505050801561272a575060408051601f3d908101601f191682019092526127279181019061358f565b60015b6127dd573d808015612758576040519150601f19603f3d011682016040523d82523d6000602084013e61275d565b606091505b5080516000036127d55760405162461bcd60e51b815260206004820152603260248201527f4552433732313a207472616e7366657220746f206e6f6e20455243373231526560448201527f63656976657220696d706c656d656e74657200000000000000000000000000006064820152608401610864565b805181602001fd5b7fffffffff00000000000000000000000000000000000000000000000000000000167f150b7a0200000000000000000000000000000000000000000000000000000000149050611e2f565b506001949350505050565b61283d83836128cb565b61284a6000848484612692565b6109055760405162461bcd60e51b815260206004820152603260248201527f4552433732313a207472616e7366657220746f206e6f6e20455243373231526560448201527f63656976657220696d706c656d656e74657200000000000000000000000000006064820152608401610864565b6060611e2f8484600085612a26565b6001600160a01b0382166129215760405162461bcd60e51b815260206004820181905260248201527f4552433732313a206d696e7420746f20746865207a65726f20616464726573736044820152606401610864565b6000818152600360205260409020546001600160a01b0316156129865760405162461bcd60e51b815260206004820152601c60248201527f4552433732313a20746f6b656e20616c7265616479206d696e746564000000006044820152606401610864565b61299260008383612556565b6001600160a01b03821660009081526004602052604081208054600192906129bb90849061320e565b9091555050600081815260036020526040808220805473ffffffffffffffffffffffffffffffffffffffff19166001600160a01b03861690811790915590518392907fddf252ad1be2c89b69c2b068fc378daa952ba7f163c4a11628f55a4df523b3ef908290a45050565b606082471015612a9e5760405162461bcd60e51b815260206004820152602660248201527f416464726573733a20696e73756666696369656e742062616c616e636520666f60448201527f722063616c6c00000000000000000000000000000000000000000000000000006064820152608401610864565b6001600160a01b0385163b612af55760405162461bcd60e51b815260206004820152601d60248201527f416464726573733a2063616c6c20746f206e6f6e2d636f6e74726163740000006044820152606401610864565b600080866001600160a01b03168587604051612b1191906135ac565b60006040518083038185875af1925050503d8060008114612b4e576040519150601f19603f3d011682016040523d82523d6000602084013e612b53565b606091505b5091509150612b63828286612b6e565b979650505050505050565b60608315612b7d57508161181e565b825115612b8d5782518084602001fd5b8160405162461bcd60e51b81526004016108649190612c4a565b7fffffffff000000000000000000000000000000000000000000000000000000008116811461190457600080fd5b600060208284031215612be757600080fd5b813561181e81612ba7565b60005b83811015612c0d578181015183820152602001612bf5565b838111156115ad5750506000910152565b60008151808452612c36816020860160208601612bf2565b601f01601f19169290920160200192915050565b60208152600061181e6020830184612c1e565b600060208284031215612c6f57600080fd5b5035919050565b80356001600160a01b0381168114612c8d57600080fd5b919050565b60008060408385031215612ca557600080fd5b612cae83612c76565b946020939093013593505050565b60008083601f840112612cce57600080fd5b50813567ffffffffffffffff811115612ce657600080fd5b6020830191508360208260051b8501011115612d0157600080fd5b9250929050565b60008060008060408587031215612d1e57600080fd5b843567ffffffffffffffff80821115612d3657600080fd5b612d4288838901612cbc565b90965094506020870135915080821115612d5b57600080fd5b50612d6887828801612cbc565b95989497509550505050565b60008060208385031215612d8757600080fd5b823567ffffffffffffffff811115612d9e57600080fd5b612daa85828601612cbc565b90969095509350505050565b634e487b7160e01b600052602160045260246000fd5b6020810160058310612de057612de0612db6565b91905290565b600080600060608486031215612dfb57600080fd5b612e0484612c76565b9250612e1260208501612c76565b9150604084013590509250925092565b600060208284031215612e3457600080fd5b61181e82612c76565b60008083601f840112612e4f57600080fd5b50813567ffffffffffffffff811115612e6757600080fd5b602083019150836020828501011115612d0157600080fd5b600080600060408486031215612e9457600080fd5b833567ffffffffffffffff811115612eab57600080fd5b612eb786828701612e3d565b909790965060209590950135949350505050565b60008060408385031215612ede57600080fd5b50508035926020909101359150565b801515811461190457600080fd5b60008060408385031215612f0e57600080fd5b612f1783612c76565b91506020830135612f2781612eed565b809150509250929050565b634e487b7160e01b600052604160045260246000fd5b60008060008060808587031215612f5e57600080fd5b612f6785612c76565b9350612f7560208601612c76565b925060408501359150606085013567ffffffffffffffff80821115612f9957600080fd5b818701915087601f830112612fad57600080fd5b813581811115612fbf57612fbf612f32565b604051601f8201601f19908116603f01168101908382118183101715612fe757612fe7612f32565b816040528281528a602084870101111561300057600080fd5b82602086016020830137600060208483010152809550505050505092959194509250565b6000806020838503121561303757600080fd5b823567ffffffffffffffff81111561304e57600080fd5b612daa85828601612e3d565b6000806040838503121561306d57600080fd5b61307683612c76565b915061308460208401612c76565b90509250929050565b60408101600784106130a1576130a1612db6565b9281526020015290565b600181811c908216806130bf57607f821691505b6020821081036130df57634e487b7160e01b600052602260045260246000fd5b50919050565b634e487b7160e01b600052603260045260246000fd5b60006020828403121561310d57600080fd5b813561181e81612eed565b634e487b7160e01b600052601160045260246000fd5b6000600019820361314157613141613118565b5060010190565b6040815283604082015260007f07ffffffffffffffffffffffffffffffffffffffffffffffffffffffffffffff85111561318157600080fd5b8460051b808760608501376060908301838103820160208086019190915291810185905285916000916080015b868310156131d75783356131c181612eed565b15158152928101926001929092019181016131ae565b9998505050505050505050565b634e487b7160e01b600052601260045260246000fd5b600082613209576132096131e4565b500490565b6000821982111561322157613221613118565b500190565b601f82111561090557600081815260208120601f850160051c8101602086101561324d5750805b601f850160051c820191505b8181101561326c57828155600101613259565b505050505050565b815167ffffffffffffffff81111561328e5761328e612f32565b6132a28161329c84546130ab565b84613226565b602080601f8311600181146132d757600084156132bf5750858301515b600019600386901b1c1916600185901b17855561326c565b600085815260208120601f198616915b82811015613306578886015182559484019460019091019084016132e7565b50858210156133245787850151600019600388901b60f8161c191681555b5050505050600190811b01905550565b84815283602082015260606040820152816060820152818360808301376000818301608090810191909152601f909201601f191601019392505050565b60008351613383818460208801612bf2565b835190830190613397818360208801612bf2565b01949350505050565b67ffffffffffffffff8311156133b8576133b8612f32565b6133cc836133c683546130ab565b83613226565b6000601f84116001811461340057600085156133e85750838201355b600019600387901b1c1916600186901b17835561345a565b600083815260209020601f19861690835b828110156134315786850135825560209485019460019092019101613411565b508682101561344e5760001960f88860031b161c19848701351681555b505060018560011b0183555b5050505050565b6000602080835260008454613475816130ab565b8084870152604060018084166000811461349657600181146134b0576134de565b60ff198516838a01528284151560051b8a010195506134de565b896000528660002060005b858110156134d65781548b82018601529083019088016134bb565b8a0184019650505b509398975050505050505050565b600081600019048311821515161561350657613506613118565b500290565b60008282101561351d5761351d613118565b500390565b600082613531576135316131e4565b500690565b60006020828403121561354857600080fd5b815161181e81612eed565b60006001600160a01b038087168352808616602084015250836040830152608060608301526135856080830184612c1e565b9695505050505050565b6000602082840312156135a157600080fd5b815161181e81612ba7565b600082516135be818460208701612bf2565b919091019291505056fea2646970667358221220da52b366ec78521b57a30f725bde34a160f8dfedeebd4c26228b7080895aaf5b64736f6c634300080f0033416464726573733a206c6f772d6c6576656c2064656c65676174652063616c6c206661696c6564a26469706673582212205143079f246fb5e1f9adb23562019a192a5c33b1a848f78457da4842e808ee2864736f6c634300080f0033",
  "devdoc": {
    "kind": "dev",
    "methods": {
      "owner()": {
        "details": "Returns the address of the current owner."
      },
      "proxiableUUID()": {
        "details": "Implementation of the ERC1822 {proxiableUUID} function. This returns the storage slot used by the implementation. It is used to validate that the this implementation remains valid after an upgrade. IMPORTANT: A proxy pointing at a proxiable contract should not be considered proxiable itself, because this risks bricking a proxy that upgrades to it, by delegating to itself until out of gas. Thus it is critical that this function revert if invoked through a proxy. This is guaranteed by the `notDelegated` modifier."
      },
      "renounceOwnership()": {
        "details": "Leaves the contract without owner. It will not be possible to call `onlyOwner` functions anymore. Can only be called by the current owner. NOTE: Renouncing ownership will leave the contract without an owner, thereby removing any functionality that is only available to the owner."
      },
      "transferOwnership(address)": {
        "details": "Transfers ownership of the contract to a new account (`newOwner`). Can only be called by the current owner."
      },
      "upgradeTo(address)": {
        "details": "Upgrade the implementation of the proxy to `newImplementation`. Calls {_authorizeUpgrade}. Emits an {Upgraded} event."
      },
      "upgradeToAndCall(address,bytes)": {
        "details": "Upgrade the implementation of the proxy to `newImplementation`, and subsequently execute the function call encoded in `data`. Calls {_authorizeUpgrade}. Emits an {Upgraded} event."
      }
    },
    "version": 1
  },
  "userdoc": {
    "kind": "user",
    "methods": {},
    "version": 1
  },
  "storageLayout": {
    "storage": [
      {
        "astId": 138,
        "contract": "contracts/CampaignFactoryUpgradable.sol:CampaignFactoryUpgradable",
        "label": "_initialized",
        "offset": 0,
        "slot": "0",
        "type": "t_uint8"
      },
      {
        "astId": 141,
        "contract": "contracts/CampaignFactoryUpgradable.sol:CampaignFactoryUpgradable",
        "label": "_initializing",
        "offset": 1,
        "slot": "0",
        "type": "t_bool"
      },
      {
        "astId": 566,
        "contract": "contracts/CampaignFactoryUpgradable.sol:CampaignFactoryUpgradable",
        "label": "__gap",
        "offset": 0,
        "slot": "1",
        "type": "t_array(t_uint256)50_storage"
      },
      {
        "astId": 10,
        "contract": "contracts/CampaignFactoryUpgradable.sol:CampaignFactoryUpgradable",
        "label": "_owner",
        "offset": 0,
        "slot": "51",
        "type": "t_address"
      },
      {
        "astId": 130,
        "contract": "contracts/CampaignFactoryUpgradable.sol:CampaignFactoryUpgradable",
        "label": "__gap",
        "offset": 0,
        "slot": "52",
        "type": "t_array(t_uint256)49_storage"
      },
      {
        "astId": 4671,
        "contract": "contracts/CampaignFactoryUpgradable.sol:CampaignFactoryUpgradable",
        "label": "whiteUsers",
        "offset": 0,
        "slot": "101",
        "type": "t_mapping(t_address,t_bool)"
      },
      {
        "astId": 4676,
        "contract": "contracts/CampaignFactoryUpgradable.sol:CampaignFactoryUpgradable",
        "label": "whiteTokens",
        "offset": 0,
        "slot": "102",
        "type": "t_mapping(t_contract(IERC20)1798,t_uint256)"
      },
      {
        "astId": 4680,
        "contract": "contracts/CampaignFactoryUpgradable.sol:CampaignFactoryUpgradable",
        "label": "__gap",
        "offset": 0,
        "slot": "103",
        "type": "t_array(t_uint256)50_storage"
      }
    ],
    "types": {
      "t_address": {
        "encoding": "inplace",
        "label": "address",
        "numberOfBytes": "20"
      },
      "t_array(t_uint256)49_storage": {
        "base": "t_uint256",
        "encoding": "inplace",
        "label": "uint256[49]",
        "numberOfBytes": "1568"
      },
      "t_array(t_uint256)50_storage": {
        "base": "t_uint256",
        "encoding": "inplace",
        "label": "uint256[50]",
        "numberOfBytes": "1600"
      },
      "t_bool": {
        "encoding": "inplace",
        "label": "bool",
        "numberOfBytes": "1"
      },
      "t_contract(IERC20)1798": {
        "encoding": "inplace",
        "label": "contract IERC20",
        "numberOfBytes": "20"
      },
      "t_mapping(t_address,t_bool)": {
        "encoding": "mapping",
        "key": "t_address",
        "label": "mapping(address => bool)",
        "numberOfBytes": "32",
        "value": "t_bool"
      },
      "t_mapping(t_contract(IERC20)1798,t_uint256)": {
        "encoding": "mapping",
        "key": "t_contract(IERC20)1798",
        "label": "mapping(contract IERC20 => uint256)",
        "numberOfBytes": "32",
        "value": "t_uint256"
      },
      "t_uint256": {
        "encoding": "inplace",
        "label": "uint256",
        "numberOfBytes": "32"
      },
      "t_uint8": {
        "encoding": "inplace",
        "label": "uint8",
        "numberOfBytes": "1"
      }
    }
  }
}