{
  "address": "0x78FE4D416C5B39aB87092762e0365E3AE1D97a9D",
  "abi": [
    {
      "inputs": [],
      "name": "OnlySimulatedBackend",
      "type": "error"
    },
    {
      "anonymous": false,
      "inputs": [
        {
          "indexed": false,
          "internalType": "address",
          "name": "previousAdmin",
          "type": "address"
        },
        {
          "indexed": false,
          "internalType": "address",
          "name": "newAdmin",
          "type": "address"
        }
      ],
      "name": "AdminChanged",
      "type": "event"
    },
    {
      "anonymous": false,
      "inputs": [
        {
          "indexed": true,
          "internalType": "address",
          "name": "beacon",
          "type": "address"
        }
      ],
      "name": "BeaconUpgraded",
      "type": "event"
    },
    {
      "anonymous": false,
      "inputs": [
        {
          "indexed": false,
          "internalType": "address",
          "name": "campaign",
          "type": "address"
        }
      ],
      "name": "CampaignUpKeepCancelled",
      "type": "event"
    },
    {
      "anonymous": false,
      "inputs": [
        {
          "indexed": false,
          "internalType": "address",
          "name": "campaign",
          "type": "address"
        },
        {
          "indexed": false,
          "internalType": "uint256",
          "name": "upkeepID",
          "type": "uint256"
        }
      ],
      "name": "CampaignUpKeepRegistered",
      "type": "event"
    },
    {
      "anonymous": false,
      "inputs": [
        {
          "indexed": false,
          "internalType": "address",
          "name": "campaign",
          "type": "address"
        }
      ],
      "name": "CampaignUpKeepWithdrawal",
      "type": "event"
    },
    {
      "anonymous": false,
      "inputs": [
        {
          "indexed": true,
          "internalType": "address",
          "name": "host",
          "type": "address"
        },
        {
          "indexed": true,
          "internalType": "address",
          "name": "campaignAddress",
          "type": "address"
        }
      ],
      "name": "EvCampaignCreated",
      "type": "event"
    },
    {
      "anonymous": false,
      "inputs": [
        {
          "indexed": false,
          "internalType": "contract ICampaign",
          "name": "newImplementation",
          "type": "address"
        }
      ],
      "name": "EvCampaignUpdated",
      "type": "event"
    },
    {
      "anonymous": false,
      "inputs": [
        {
          "indexed": true,
          "internalType": "contract IERC20Upgradeable",
          "name": "token",
          "type": "address"
        },
        {
          "indexed": false,
          "internalType": "uint256",
          "name": "maxAmount",
          "type": "uint256"
        }
      ],
      "name": "EvWhiteTokenSet",
      "type": "event"
    },
    {
      "anonymous": false,
      "inputs": [
        {
          "indexed": true,
          "internalType": "address",
          "name": "user",
          "type": "address"
        },
        {
          "indexed": false,
          "internalType": "bool",
          "name": "status",
          "type": "bool"
        }
      ],
      "name": "EvWhiteUserSet",
      "type": "event"
    },
    {
      "anonymous": false,
      "inputs": [
        {
          "indexed": false,
          "internalType": "uint8",
          "name": "version",
          "type": "uint8"
        }
      ],
      "name": "Initialized",
      "type": "event"
    },
    {
      "anonymous": false,
      "inputs": [
        {
          "indexed": true,
          "internalType": "address",
          "name": "previousOwner",
          "type": "address"
        },
        {
          "indexed": true,
          "internalType": "address",
          "name": "newOwner",
          "type": "address"
        }
      ],
      "name": "OwnershipTransferred",
      "type": "event"
    },
    {
      "anonymous": false,
      "inputs": [
        {
          "indexed": true,
          "internalType": "address",
          "name": "implementation",
          "type": "address"
        }
      ],
      "name": "Upgraded",
      "type": "event"
    },
    {
      "inputs": [
        {
          "internalType": "uint256",
          "name": "",
          "type": "uint256"
        }
      ],
      "name": "OnGoingCampaigns",
      "outputs": [
        {
          "internalType": "address",
          "name": "",
          "type": "address"
        }
      ],
      "stateMutability": "view",
      "type": "function"
    },
    {
      "inputs": [
        {
          "internalType": "address",
          "name": "campaign",
          "type": "address"
        }
      ],
      "name": "cancelUpKeep",
      "outputs": [],
      "stateMutability": "nonpayable",
      "type": "function"
    },
    {
      "inputs": [
        {
          "internalType": "bytes",
          "name": "checkData",
          "type": "bytes"
        }
      ],
      "name": "checkUpkeep",
      "outputs": [
        {
          "internalType": "bool",
          "name": "upkeepNeeded",
          "type": "bool"
        },
        {
          "internalType": "bytes",
          "name": "performData",
          "type": "bytes"
        }
      ],
      "stateMutability": "view",
      "type": "function"
    },
    {
      "inputs": [
        {
          "internalType": "contract IERC20Upgradeable",
          "name": "token",
          "type": "address"
        },
        {
          "internalType": "uint256",
          "name": "amount",
          "type": "uint256"
        },
        {
          "internalType": "string",
          "name": "name",
          "type": "string"
        },
        {
          "internalType": "string",
          "name": "symbol",
          "type": "string"
        },
        {
          "internalType": "uint256",
          "name": "startTime",
          "type": "uint256"
        },
        {
          "internalType": "uint256",
          "name": "totalPeriod",
          "type": "uint256"
        },
        {
          "internalType": "uint256",
          "name": "periodLength",
          "type": "uint256"
        },
        {
          "internalType": "string",
          "name": "campaignUri",
          "type": "string"
        },
        {
          "internalType": "bytes",
          "name": "zero",
          "type": "bytes"
        }
      ],
      "name": "createCampaign",
      "outputs": [
        {
          "internalType": "address",
          "name": "campaign",
          "type": "address"
        }
      ],
      "stateMutability": "nonpayable",
      "type": "function"
    },
    {
      "inputs": [],
      "name": "i_campaign",
      "outputs": [
        {
          "internalType": "contract ICampaign",
          "name": "",
          "type": "address"
        }
      ],
      "stateMutability": "view",
      "type": "function"
    },
    {
      "inputs": [],
      "name": "i_link",
      "outputs": [
        {
          "internalType": "contract LinkTokenInterface",
          "name": "",
          "type": "address"
        }
      ],
      "stateMutability": "view",
      "type": "function"
    },
    {
      "inputs": [],
      "name": "i_registry",
      "outputs": [
        {
          "internalType": "contract AutomationRegistryInterface",
          "name": "",
          "type": "address"
        }
      ],
      "stateMutability": "view",
      "type": "function"
    },
    {
      "inputs": [
        {
          "internalType": "contract ICampaign",
          "name": "campaign_",
          "type": "address"
        },
        {
          "internalType": "contract LinkTokenInterface",
          "name": "link_",
          "type": "address"
        },
        {
          "internalType": "address",
          "name": "registrar_",
          "type": "address"
        },
        {
          "internalType": "contract AutomationRegistryInterface",
          "name": "registry_",
          "type": "address"
        }
      ],
      "name": "initialize",
      "outputs": [],
      "stateMutability": "nonpayable",
      "type": "function"
    },
    {
      "inputs": [
        {
          "internalType": "address",
          "name": "",
          "type": "address"
        }
      ],
      "name": "keepUpRecords",
      "outputs": [
        {
          "internalType": "uint256",
          "name": "upKeepId",
          "type": "uint256"
        },
        {
          "internalType": "bool",
          "name": "cancelled",
          "type": "bool"
        },
        {
          "internalType": "uint256",
          "name": "withdrawalBlockNumber",
          "type": "uint256"
        }
      ],
      "stateMutability": "view",
      "type": "function"
    },
    {
      "inputs": [
        {
          "internalType": "contract IERC20Upgradeable",
          "name": "token",
          "type": "address"
        },
        {
          "internalType": "uint256",
          "name": "amount",
          "type": "uint256"
        }
      ],
      "name": "modifyWhiteToken",
      "outputs": [],
      "stateMutability": "nonpayable",
      "type": "function"
    },
    {
      "inputs": [],
      "name": "owner",
      "outputs": [
        {
          "internalType": "address",
          "name": "",
          "type": "address"
        }
      ],
      "stateMutability": "view",
      "type": "function"
    },
    {
      "inputs": [
        {
          "internalType": "bytes",
          "name": "performData",
          "type": "bytes"
        }
      ],
      "name": "performUpkeep",
      "outputs": [],
      "stateMutability": "nonpayable",
      "type": "function"
    },
    {
      "inputs": [],
      "name": "proxiableUUID",
      "outputs": [
        {
          "internalType": "bytes32",
          "name": "",
          "type": "bytes32"
        }
      ],
      "stateMutability": "view",
      "type": "function"
    },
    {
      "inputs": [],
      "name": "registrar",
      "outputs": [
        {
          "internalType": "address",
          "name": "",
          "type": "address"
        }
      ],
      "stateMutability": "view",
      "type": "function"
    },
    {
      "inputs": [],
      "name": "renounceOwnership",
      "outputs": [],
      "stateMutability": "nonpayable",
      "type": "function"
    },
    {
      "inputs": [
        {
          "internalType": "address",
          "name": "newOwner",
          "type": "address"
        }
      ],
      "name": "transferOwnership",
      "outputs": [],
      "stateMutability": "nonpayable",
      "type": "function"
    },
    {
      "inputs": [
        {
          "internalType": "contract ICampaign",
          "name": "newImplementation",
          "type": "address"
        }
      ],
      "name": "updateCampaignImplementation",
      "outputs": [],
      "stateMutability": "nonpayable",
      "type": "function"
    },
    {
      "inputs": [
        {
          "internalType": "address",
          "name": "newImplementation",
          "type": "address"
        }
      ],
      "name": "upgradeTo",
      "outputs": [],
      "stateMutability": "nonpayable",
      "type": "function"
    },
    {
      "inputs": [
        {
          "internalType": "address",
          "name": "newImplementation",
          "type": "address"
        },
        {
          "internalType": "bytes",
          "name": "data",
          "type": "bytes"
        }
      ],
      "name": "upgradeToAndCall",
      "outputs": [],
      "stateMutability": "payable",
      "type": "function"
    },
    {
      "inputs": [
        {
          "internalType": "contract IERC20Upgradeable",
          "name": "",
          "type": "address"
        }
      ],
      "name": "whiteTokens",
      "outputs": [
        {
          "internalType": "uint256",
          "name": "",
          "type": "uint256"
        }
      ],
      "stateMutability": "view",
      "type": "function"
    },
    {
      "inputs": [
        {
          "internalType": "address",
          "name": "",
          "type": "address"
        }
      ],
      "name": "whiteUsers",
      "outputs": [
        {
          "internalType": "bool",
          "name": "",
          "type": "bool"
        }
      ],
      "stateMutability": "view",
      "type": "function"
    },
    {
      "inputs": [
        {
          "internalType": "address",
          "name": "campaign",
          "type": "address"
        }
      ],
      "name": "withdrawUpKeep",
      "outputs": [],
      "stateMutability": "nonpayable",
      "type": "function"
    }
  ],
  "transactionHash": "0x329471b973e7529374aba2e3f3b2e35b26e98d9fba9a66c6b95d17dbece2ede4",
  "args": [],
  "numDeployments": 5,
  "solcInputHash": "a509e8bda10771c9dd6ba1447ecb44fe",
  "bytecode": "0x60a06040523060805234801561001457600080fd5b50608051612b0c61004c6000396000818161055d015281816105f8015281816108e1015281816109770152610a720152612b0c6000f3fe6080604052600436106101755760003560e01c8063715018a6116100cb5780638da5cb5b1161007f578063e32e8b3911610059578063e32e8b3914610457578063f2fde38b14610477578063f8c8765e1461049757600080fd5b80638da5cb5b146103bf578063af221bec146103dd578063aff4e79a146103fd57600080fd5b80637d253aff116100b05780637d253aff1461035f578063801494491461037f5780638d3cb7e61461039f57600080fd5b8063715018a61461032a57806377321c581461033f57600080fd5b80633659cfe61161012d57806352d1902d1161010757806352d1902d146102c75780636e04ff0d146102dc5780636f93d6201461030a57600080fd5b80633659cfe6146102745780634585e33b146102945780634f1ef286146102b457600080fd5b80631f70aa1c1161015e5780631f70aa1c146101fa5780632a6636061461021c5780632b20e3971461025457600080fd5b80631307502c1461017a578063144442e7146101bf575b600080fd5b34801561018657600080fd5b506101aa610195366004612001565b60006020819052908152604090205460ff1681565b60405190151581526020015b60405180910390f35b3480156101cb57600080fd5b506101ec6101da366004612001565b60016020526000908152604090205481565b6040519081526020016101b6565b34801561020657600080fd5b5061021a610215366004612001565b6104b7565b005b34801561022857600080fd5b5060055461023c906001600160a01b031681565b6040516001600160a01b0390911681526020016101b6565b34801561026057600080fd5b5060045461023c906001600160a01b031681565b34801561028057600080fd5b5061021a61028f366004612001565b610553565b3480156102a057600080fd5b5061021a6102af366004612077565b6106f5565b61021a6102c23660046121a5565b6108d7565b3480156102d357600080fd5b506101ec610a65565b3480156102e857600080fd5b506102fc6102f7366004612077565b610b2a565b6040516101b6929190612261565b34801561031657600080fd5b5061023c610325366004612284565b610d2b565b34801561033657600080fd5b5061021a610d55565b34801561034b57600080fd5b5061021a61035a366004612001565b610d69565b34801561036b57600080fd5b5060035461023c906001600160a01b031681565b34801561038b57600080fd5b5061021a61039a366004612001565b610dd2565b3480156103ab57600080fd5b5061023c6103ba3660046122bd565b610e37565b3480156103cb57600080fd5b506068546001600160a01b031661023c565b3480156103e957600080fd5b5060025461023c906001600160a01b031681565b34801561040957600080fd5b5061043c610418366004612001565b600660205260009081526040902080546001820154600290920154909160ff169083565b604080519384529115156020840152908201526060016101b6565b34801561046357600080fd5b5061021a6104723660046123b7565b611177565b34801561048357600080fd5b5061021a610492366004612001565b6111d8565b3480156104a357600080fd5b5061021a6104b23660046123e3565b611265565b6104bf6113df565b6005546001600160a01b03828116600090815260066020526040908190205490517f744bfe61000000000000000000000000000000000000000000000000000000008152600481019190915233602482015291169063744bfe61906044015b600060405180830381600087803b15801561053857600080fd5b505af115801561054c573d6000803e3d6000fd5b5050505050565b6001600160a01b037f00000000000000000000000000000000000000000000000000000000000000001630036105f65760405162461bcd60e51b815260206004820152602c60248201527f46756e6374696f6e206d7573742062652063616c6c6564207468726f7567682060448201527f64656c656761746563616c6c000000000000000000000000000000000000000060648201526084015b60405180910390fd5b7f00000000000000000000000000000000000000000000000000000000000000006001600160a01b03166106517f360894a13ba1a3210667c828492db98dca3e2076cc3735a920a3ca505d382bbc546001600160a01b031690565b6001600160a01b0316146106cd5760405162461bcd60e51b815260206004820152602c60248201527f46756e6374696f6e206d7573742062652063616c6c6564207468726f7567682060448201527f6163746976652070726f7879000000000000000000000000000000000000000060648201526084016105ed565b6106d681611439565b604080516000808252602082019092526106f291839190611441565b50565b600080610704838501856123b7565b91509150806000036107fb576005546001600160a01b03838116600090815260066020526040908190205490517fc8048022000000000000000000000000000000000000000000000000000000008152600481019190915291169063c804802290602401600060405180830381600087803b15801561078257600080fd5b505af1158015610796573d6000803e3d6000fd5b505050506001600160a01b0382166000818152600660209081526040918290206001908101805460ff1916909117905590519182527faff860f486d079cb5c9e409ce38392d1b2bfbaf3feb98c17006cd1ec4e8a9691910160405180910390a16108d1565b806001036108d1576005546001600160a01b03838116600090815260066020526040908190205490517f744bfe61000000000000000000000000000000000000000000000000000000008152600481019190915230602482015291169063744bfe6190604401600060405180830381600087803b15801561087b57600080fd5b505af115801561088f573d6000803e3d6000fd5b50506040516001600160a01b03851681527f13115268ab8762c4f3ac567bf3b406763697b029819599563e47d083b3d3399e9250602001905060405180910390a15b50505050565b6001600160a01b037f00000000000000000000000000000000000000000000000000000000000000001630036109755760405162461bcd60e51b815260206004820152602c60248201527f46756e6374696f6e206d7573742062652063616c6c6564207468726f7567682060448201527f64656c656761746563616c6c000000000000000000000000000000000000000060648201526084016105ed565b7f00000000000000000000000000000000000000000000000000000000000000006001600160a01b03166109d07f360894a13ba1a3210667c828492db98dca3e2076cc3735a920a3ca505d382bbc546001600160a01b031690565b6001600160a01b031614610a4c5760405162461bcd60e51b815260206004820152602c60248201527f46756e6374696f6e206d7573742062652063616c6c6564207468726f7567682060448201527f6163746976652070726f7879000000000000000000000000000000000000000060648201526084016105ed565b610a5582611439565b610a6182826001611441565b5050565b6000306001600160a01b037f00000000000000000000000000000000000000000000000000000000000000001614610b055760405162461bcd60e51b815260206004820152603860248201527f555550535570677261646561626c653a206d757374206e6f742062652063616c60448201527f6c6564207468726f7567682064656c656761746563616c6c000000000000000060648201526084016105ed565b507f360894a13ba1a3210667c828492db98dca3e2076cc3735a920a3ca505d382bbc90565b6000606081610b3b84860186612284565b905080600003610c635760005b600754811015610c5d57600060078281548110610b6757610b6761243f565b6000918252602090912001546001600160a01b031690506004816001600160a01b031663200d2ed26040518163ffffffff1660e01b8152600401602060405180830381865afa158015610bbe573d6000803e3d6000fd5b505050506040513d601f19601f82011682018060405250810190610be2919061246b565b6004811115610bf357610bf3612455565b148015610c1c57506001600160a01b03811660009081526006602052604090206001015460ff16155b15610c4a57604080513060208201529081018490526001955060600160405160208183030381529060405293505b5080610c55816124a2565b915050610b48565b50610d23565b80600103610d235760005b600754811015610d2157600060078281548110610c8d57610c8d61243f565b60009182526020808320909101546001600160a01b0316808352600690915260409091206002015490915015801590610ce057506001600160a01b03811660009081526006602052604090206002015443115b15610d0e57604080513060208201529081018490526001955060600160405160208183030381529060405293505b5080610d19816124a2565b915050610c6e565b505b509250929050565b60078181548110610d3b57600080fd5b6000918252602090912001546001600160a01b0316905081565b610d5d6113df565b610d6760006115e6565b565b610d716113df565b6002805473ffffffffffffffffffffffffffffffffffffffff19166001600160a01b0383169081179091556040519081527f34cfd2cac352320b9ae72ade3c0ccf4835c60b5aeccc74380b9c78f0fd99ec4c9060200160405180910390a150565b610dda6113df565b6005546001600160a01b03828116600090815260066020526040908190205490517fc8048022000000000000000000000000000000000000000000000000000000008152600481019190915291169063c80480229060240161051e565b6001600160a01b038b166000908152600160205260408120548b1115610e9f5760405162461bcd60e51b815260206004820152601c60248201527f43616d706169676e463a20616d6f756e7420657863656564206361700000000060448201526064016105ed565b874210610eee5760405162461bcd60e51b815260206004820152601960248201527f43616d706169676e463a20737461727420746f6f20736f6f6e0000000000000060448201526064016105ed565b6003546040517f70a08231000000000000000000000000000000000000000000000000000000008152306004820152674563918244f40000916001600160a01b0316906370a0823190602401602060405180830381865afa158015610f57573d6000803e3d6000fd5b505050506040513d601f19601f82011682018060405250810190610f7b91906124bc565b1015610fc95760405162461bcd60e51b815260206004820152601b60248201527f43616d706169676e463a206e6f7420656e6f75676820244c696e6b000000000060448201526064016105ed565b600254604051611070916001600160a01b03169061101b9060200160208082526011908201527f53697379706875732050726f746f636f6c000000000000000000000000000000604082015260600190565b60405160208183030381529060405280519060200120338f8f8f8f8f8f8f8f8f6040516020016110559b9a999897969594939291906124d5565b60405160208183030381529060405280519060200120611645565b9050806001600160a01b031663703064d1338e8e8e8e8e8e8e8e8e6040518b63ffffffff1660e01b81526004016110b09a99989796959493929190612594565b600060405180830381600087803b1580156110ca57600080fd5b505af11580156110de573d6000803e3d6000fd5b505050506111326110f9826001600160a01b03166014611702565b6040516020016111099190612614565b604051602081830303815290604052848484624c4b40308989674563918244f400006000611932565b6040516001600160a01b0382169033907facd63640134021f2a0e3727cb386f37eff4877f03025952b4d5dd67f1d4c9ac390600090a39b9a5050505050505050505050565b61117f6113df565b6001600160a01b03821660008181526001602052604090819020839055517f5f4c38db7b341414be18a675a08cd2c914f57fa3ac798db73bd0e0b5edc72c76906111cc9084815260200190565b60405180910390a25050565b6111e06113df565b6001600160a01b03811661125c5760405162461bcd60e51b815260206004820152602660248201527f4f776e61626c653a206e6577206f776e657220697320746865207a65726f206160448201527f646472657373000000000000000000000000000000000000000000000000000060648201526084016105ed565b6106f2816115e6565b603554610100900460ff16158080156112855750603554600160ff909116105b8061129f5750303b15801561129f575060355460ff166001145b6113115760405162461bcd60e51b815260206004820152602e60248201527f496e697469616c697a61626c653a20636f6e747261637420697320616c72656160448201527f647920696e697469616c697a656400000000000000000000000000000000000060648201526084016105ed565b6035805460ff191660011790558015611334576035805461ff0019166101001790555b600280546001600160a01b0380881673ffffffffffffffffffffffffffffffffffffffff199283161790925560038054878416908316179055600480548684169083161790556005805492851692909116919091179055611393611c45565b801561054c576035805461ff0019169055604051600181527f7f26b83ff96e1f2b6a682f133852f6798a09c465da95921460cefb38474024989060200160405180910390a15050505050565b6068546001600160a01b03163314610d675760405162461bcd60e51b815260206004820181905260248201527f4f776e61626c653a2063616c6c6572206973206e6f7420746865206f776e657260448201526064016105ed565b6106f26113df565b7f4910fdfa16fed3260ed0e7147f7cc6da11a60208b5b9406d12a635614ffd91435460ff16156114795761147483611ccb565b505050565b826001600160a01b03166352d1902d6040518163ffffffff1660e01b8152600401602060405180830381865afa9250505080156114d3575060408051601f3d908101601f191682019092526114d0918101906124bc565b60015b6115455760405162461bcd60e51b815260206004820152602e60248201527f45524331393637557067726164653a206e657720696d706c656d656e7461746960448201527f6f6e206973206e6f74205555505300000000000000000000000000000000000060648201526084016105ed565b7f360894a13ba1a3210667c828492db98dca3e2076cc3735a920a3ca505d382bbc81146115da5760405162461bcd60e51b815260206004820152602960248201527f45524331393637557067726164653a20756e737570706f727465642070726f7860448201527f6961626c6555554944000000000000000000000000000000000000000000000060648201526084016105ed565b50611474838383611d96565b606880546001600160a01b0383811673ffffffffffffffffffffffffffffffffffffffff19831681179093556040519116919082907f8be0079c531659141344cd1fd0a4f28419497f9722a3daafe3b4186f6b6457e090600090a35050565b60006040517f3d602d80600a3d3981f3363d3d373d3d3d363d7300000000000000000000000081528360601b60148201527f5af43d82803e903d91602b57fd5bf300000000000000000000000000000000006028820152826037826000f59150506001600160a01b0381166116fc5760405162461bcd60e51b815260206004820152601760248201527f455243313136373a2063726561746532206661696c656400000000000000000060448201526064016105ed565b92915050565b60606000611711836002612659565b61171c906002612678565b67ffffffffffffffff811115611734576117346120b9565b6040519080825280601f01601f19166020018201604052801561175e576020820181803683370190505b5090507f3000000000000000000000000000000000000000000000000000000000000000816000815181106117955761179561243f565b60200101907effffffffffffffffffffffffffffffffffffffffffffffffffffffffffffff1916908160001a9053507f7800000000000000000000000000000000000000000000000000000000000000816001815181106117f8576117f861243f565b60200101907effffffffffffffffffffffffffffffffffffffffffffffffffffffffffffff1916908160001a9053506000611834846002612659565b61183f906001612678565b90505b60018111156118dc577f303132333435363738396162636465660000000000000000000000000000000085600f16601081106118805761188061243f565b1a60f81b8282815181106118965761189661243f565b60200101907effffffffffffffffffffffffffffffffffffffffffffffffffffffffffffff1916908160001a90535060049490941c936118d581612690565b9050611842565b50831561192b5760405162461bcd60e51b815260206004820181905260248201527f537472696e67733a20686578206c656e67746820696e73756666696369656e7460448201526064016105ed565b9392505050565b6000806000600560009054906101000a90046001600160a01b03166001600160a01b0316631865c57d6040518163ffffffff1660e01b8152600401600060405180830381865afa15801561198a573d6000803e3d6000fd5b505050506040513d6000823e601f3d908101601f191682016040526119b29190810190612790565b9250925092506000836000015163ffffffff16905060008e8e8e8e8e8e8e8e8e8e306040516020016119ee9b9a99989796959493929190612926565b60408051601f19818403018152908290526003546004549193506001600160a01b0390811692634000aea092909116908a90611a50907f3659d666000000000000000000000000000000000000000000000000000000009087906020016129c0565b6040516020818303038152906040526040518463ffffffff1660e01b8152600401611a7d93929190612a08565b6020604051808303816000875af1158015611a9c573d6000803e3d6000fd5b505050506040513d601f19601f82011682018060405250810190611ac09190612a47565b50600560009054906101000a90046001600160a01b03166001600160a01b0316631865c57d6040518163ffffffff1660e01b8152600401600060405180830381865afa158015611b14573d6000803e3d6000fd5b505050506040513d6000823e601f3d908101601f19168201604052611b3c9190810190612790565b8251929750909550935063ffffffff16611b57836001612678565b8103611beb576000611b6a600143612a69565b600554604080519240602084015260609190911b6bffffffffffffffffffffffff19169082015260e085901b7fffffffff000000000000000000000000000000000000000000000000000000001660548201526058016040516020818303038152906040528051906020012060001c9050611be58e82611dbb565b50611c33565b60405162461bcd60e51b815260206004820152601560248201527f6175746f2d617070726f76652064697361626c6564000000000000000000000060448201526064016105ed565b50505050505050505050505050505050565b603554610100900460ff16611cc25760405162461bcd60e51b815260206004820152602b60248201527f496e697469616c697a61626c653a20636f6e7472616374206973206e6f74206960448201527f6e697469616c697a696e6700000000000000000000000000000000000000000060648201526084016105ed565b610d67336115e6565b6001600160a01b0381163b611d485760405162461bcd60e51b815260206004820152602d60248201527f455243313936373a206e657720696d706c656d656e746174696f6e206973206e60448201527f6f74206120636f6e74726163740000000000000000000000000000000000000060648201526084016105ed565b7f360894a13ba1a3210667c828492db98dca3e2076cc3735a920a3ca505d382bbc805473ffffffffffffffffffffffffffffffffffffffff19166001600160a01b0392909216919091179055565b611d9f83611e5f565b600082511180611dac5750805b15611474576108d18383611e9f565b6001600160a01b03821660008181526006602090815260408083208590556007805460018101825593527fa66cc928b5edb82af9bd49922954155ab7b0942694bea4ce44661d9a8736c688909201805473ffffffffffffffffffffffffffffffffffffffff191684179055815192835282018390527ffd178b9cd7ae1f7ffcc324ed72b5af3040500c49285c4806240607e04a17dc41910160405180910390a15050565b611e6881611ccb565b6040516001600160a01b038216907fbc7cd75a20ee27fd9adebab32041f755214dbc6bffa90cc0225b39da2e5c2d3b90600090a250565b606061192b8383604051806060016040528060278152602001612ab06027913960606001600160a01b0384163b611f3e5760405162461bcd60e51b815260206004820152602660248201527f416464726573733a2064656c65676174652063616c6c20746f206e6f6e2d636f60448201527f6e7472616374000000000000000000000000000000000000000000000000000060648201526084016105ed565b600080856001600160a01b031685604051611f599190612a80565b600060405180830381855af49150503d8060008114611f94576040519150601f19603f3d011682016040523d82523d6000602084013e611f99565b606091505b5091509150611fa9828286611fb3565b9695505050505050565b60608315611fc257508161192b565b825115611fd25782518084602001fd5b8160405162461bcd60e51b81526004016105ed9190612a9c565b6001600160a01b03811681146106f257600080fd5b60006020828403121561201357600080fd5b813561192b81611fec565b803561202981611fec565b919050565b60008083601f84011261204057600080fd5b50813567ffffffffffffffff81111561205857600080fd5b60208301915083602082850101111561207057600080fd5b9250929050565b6000806020838503121561208a57600080fd5b823567ffffffffffffffff8111156120a157600080fd5b6120ad8582860161202e565b90969095509350505050565b634e487b7160e01b600052604160045260246000fd5b6040516080810167ffffffffffffffff811182821017156120f2576120f26120b9565b60405290565b604051610180810167ffffffffffffffff811182821017156120f2576120f26120b9565b604051601f8201601f1916810167ffffffffffffffff81118282101715612145576121456120b9565b604052919050565b600067ffffffffffffffff831115612167576121676120b9565b61217a6020601f19601f8601160161211c565b905082815283838301111561218e57600080fd5b828260208301376000602084830101529392505050565b600080604083850312156121b857600080fd5b82356121c381611fec565b9150602083013567ffffffffffffffff8111156121df57600080fd5b8301601f810185136121f057600080fd5b6121ff8582356020840161214d565b9150509250929050565b60005b8381101561222457818101518382015260200161220c565b838111156108d15750506000910152565b6000815180845261224d816020860160208601612209565b601f01601f19169290920160200192915050565b821515815260406020820152600061227c6040830184612235565b949350505050565b60006020828403121561229657600080fd5b5035919050565b600082601f8301126122ae57600080fd5b61192b8383356020850161214d565b60008060008060008060008060008060006101208c8e0312156122df57600080fd5b6122e88c61201e565b9a5060208c0135995067ffffffffffffffff8060408e0135111561230b57600080fd5b61231b8e60408f01358f0161229d565b99508060608e0135111561232e57600080fd5b61233e8e60608f01358f0161229d565b985060808d0135975060a08d0135965060c08d013595508060e08e0135111561236657600080fd5b6123768e60e08f01358f0161202e565b90955093506101008d013581101561238d57600080fd5b5061239f8d6101008e01358e0161202e565b81935080925050509295989b509295989b9093969950565b600080604083850312156123ca57600080fd5b82356123d581611fec565b946020939093013593505050565b600080600080608085870312156123f957600080fd5b843561240481611fec565b9350602085013561241481611fec565b9250604085013561242481611fec565b9150606085013561243481611fec565b939692955090935050565b634e487b7160e01b600052603260045260246000fd5b634e487b7160e01b600052602160045260246000fd5b60006020828403121561247d57600080fd5b81516005811061192b57600080fd5b634e487b7160e01b600052601160045260246000fd5b600060001982036124b5576124b561248c565b5060010190565b6000602082840312156124ce57600080fd5b5051919050565b8b815260006bffffffffffffffffffffffff19808d60601b166020840152808c60601b166034840152508960488301528851612518816068850160208d01612209565b88519083019061252f816068840160208d01612209565b8082019150508760688201528660888201528560a8820152838560c88301376000930160c80192835250909b9a5050505050505050505050565b818352818160208501375060006020828401015260006020601f19601f840116840101905092915050565b60006101206001600160a01b03808e168452808d166020850152508a60408401528060608401526125c78184018b612235565b905082810360808401526125db818a612235565b90508760a08401528660c08401528560e0840152828103610100840152612603818587612569565b9d9c50505050505050505050505050565b7f536973797068757320000000000000000000000000000000000000000000000081526000825161264c816009850160208701612209565b9190910160090192915050565b60008160001904831182151516156126735761267361248c565b500290565b6000821982111561268b5761268b61248c565b500190565b60008161269f5761269f61248c565b506000190190565b805163ffffffff8116811461202957600080fd5b80516bffffffffffffffffffffffff8116811461202957600080fd5b805162ffffff8116811461202957600080fd5b805161ffff8116811461202957600080fd5b805161202981611fec565b600082601f83011261271857600080fd5b8151602067ffffffffffffffff821115612734576127346120b9565b8160051b61274382820161211c565b928352848101820192828101908785111561275d57600080fd5b83870192505b8483101561278557825161277681611fec565b82529183019190830190612763565b979650505050505050565b60008060008385036102208112156127a757600080fd5b60808112156127b557600080fd5b6127bd6120cf565b6127c6866126a7565b81526127d4602087016126bb565b6020820152604086015160408201526060860151606082015280945050610180807fffffffffffffffffffffffffffffffffffffffffffffffffffffffffffffff808301121561282357600080fd5b61282b6120f8565b9150612839608087016126a7565b825261284760a087016126a7565b602083015261285860c087016126d7565b604083015261286960e087016126a7565b606083015261010061287c8188016126d7565b608084015261012061288f8189016126ea565b60a08501526101406128a2818a016126bb565b60c08601526101606128b5818b016126a7565b60e0870152848a0151848701526101a08a0151838701526128d96101c08b016126fc565b828701526128ea6101e08b016126fc565b908601525050505061020085015190925067ffffffffffffffff81111561291057600080fd5b61291c86828701612707565b9150509250925092565b600061012080835261293a8184018f612235565b9050828103602084015261294f818d8f612569565b90506001600160a01b03808c16604085015263ffffffff8b166060850152808a16608085015283820360a085015261298882898b612569565b6bffffffffffffffffffffffff9790971660c085015260ff9590951660e0840152505091166101009091015298975050505050505050565b7fffffffff0000000000000000000000000000000000000000000000000000000083168152600082516129fa816004850160208701612209565b919091016004019392505050565b6001600160a01b03841681526bffffffffffffffffffffffff83166020820152606060408201526000612a3e6060830184612235565b95945050505050565b600060208284031215612a5957600080fd5b8151801515811461192b57600080fd5b600082821015612a7b57612a7b61248c565b500390565b60008251612a92818460208701612209565b9190910192915050565b60208152600061192b602083018461223556fe416464726573733a206c6f772d6c6576656c2064656c65676174652063616c6c206661696c6564a2646970667358221220c24aebd912e1464a027a97a4a7b3b00917a11be0db2ce42f63a566784ba8baec64736f6c634300080f0033",
  "devdoc": {
    "kind": "dev",
    "methods": {
      "checkUpkeep(bytes)": {
        "details": "two kind of check 0: whether the campaign is ended and cancel the upKeep 1: whether it is the time to withdraw $link reserved"
      },
      "owner()": {
        "details": "Returns the address of the current owner."
      },
      "performUpkeep(bytes)": {
        "details": "two kind of perform 0: cancel upKeep of campaign 1: withdraw upKeep $link"
      },
      "proxiableUUID()": {
        "details": "Implementation of the ERC1822 {proxiableUUID} function. This returns the storage slot used by the implementation. It is used to validate that the this implementation remains valid after an upgrade. IMPORTANT: A proxy pointing at a proxiable contract should not be considered proxiable itself, because this risks bricking a proxy that upgrades to it, by delegating to itself until out of gas. Thus it is critical that this function revert if invoked through a proxy. This is guaranteed by the `notDelegated` modifier."
      },
      "renounceOwnership()": {
        "details": "Leaves the contract without owner. It will not be possible to call `onlyOwner` functions anymore. Can only be called by the current owner. NOTE: Renouncing ownership will leave the contract without an owner, thereby removing any functionality that is only available to the owner."
      },
      "transferOwnership(address)": {
        "details": "Transfers ownership of the contract to a new account (`newOwner`). Can only be called by the current owner."
      },
      "upgradeTo(address)": {
        "details": "Upgrade the implementation of the proxy to `newImplementation`. Calls {_authorizeUpgrade}. Emits an {Upgraded} event."
      },
      "upgradeToAndCall(address,bytes)": {
        "details": "Upgrade the implementation of the proxy to `newImplementation`, and subsequently execute the function call encoded in `data`. Calls {_authorizeUpgrade}. Emits an {Upgraded} event."
      }
    },
    "version": 1
  },
  "userdoc": {
    "kind": "user",
    "methods": {},
    "version": 1
  },
  "storageLayout": {
    "storage": [
      {
        "astId": 5382,
        "contract": "contracts/CampaignFactoryUpgradable.sol:CampaignFactoryUpgradable",
        "label": "whiteUsers",
        "offset": 0,
        "slot": "0",
        "type": "t_mapping(t_address,t_bool)"
      },
      {
        "astId": 5387,
        "contract": "contracts/CampaignFactoryUpgradable.sol:CampaignFactoryUpgradable",
        "label": "whiteTokens",
        "offset": 0,
        "slot": "1",
        "type": "t_mapping(t_contract(IERC20Upgradeable)686,t_uint256)"
      },
      {
        "astId": 5390,
        "contract": "contracts/CampaignFactoryUpgradable.sol:CampaignFactoryUpgradable",
        "label": "i_campaign",
        "offset": 0,
        "slot": "2",
        "type": "t_contract(ICampaign)6364"
      },
      {
        "astId": 5393,
        "contract": "contracts/CampaignFactoryUpgradable.sol:CampaignFactoryUpgradable",
        "label": "i_link",
        "offset": 0,
        "slot": "3",
        "type": "t_contract(LinkTokenInterface)325"
      },
      {
        "astId": 5395,
        "contract": "contracts/CampaignFactoryUpgradable.sol:CampaignFactoryUpgradable",
        "label": "registrar",
        "offset": 0,
        "slot": "4",
        "type": "t_address"
      },
      {
        "astId": 5398,
        "contract": "contracts/CampaignFactoryUpgradable.sol:CampaignFactoryUpgradable",
        "label": "i_registry",
        "offset": 0,
        "slot": "5",
        "type": "t_contract(AutomationRegistryInterface)210"
      },
      {
        "astId": 5410,
        "contract": "contracts/CampaignFactoryUpgradable.sol:CampaignFactoryUpgradable",
        "label": "keepUpRecords",
        "offset": 0,
        "slot": "6",
        "type": "t_mapping(t_address,t_struct(UpKeepInfo)5405_storage)"
      },
      {
        "astId": 5413,
        "contract": "contracts/CampaignFactoryUpgradable.sol:CampaignFactoryUpgradable",
        "label": "OnGoingCampaigns",
        "offset": 0,
        "slot": "7",
        "type": "t_array(t_address)dyn_storage"
      },
      {
        "astId": 5417,
        "contract": "contracts/CampaignFactoryUpgradable.sol:CampaignFactoryUpgradable",
        "label": "__gap",
        "offset": 0,
        "slot": "8",
        "type": "t_array(t_uint256)45_storage"
      },
      {
        "astId": 464,
        "contract": "contracts/CampaignFactoryUpgradable.sol:CampaignFactoryUpgradable",
        "label": "_initialized",
        "offset": 0,
        "slot": "53",
        "type": "t_uint8"
      },
      {
        "astId": 467,
        "contract": "contracts/CampaignFactoryUpgradable.sol:CampaignFactoryUpgradable",
        "label": "_initializing",
        "offset": 1,
        "slot": "53",
        "type": "t_bool"
      },
      {
        "astId": 2340,
        "contract": "contracts/CampaignFactoryUpgradable.sol:CampaignFactoryUpgradable",
        "label": "__gap",
        "offset": 0,
        "slot": "54",
        "type": "t_array(t_uint256)50_storage"
      },
      {
        "astId": 336,
        "contract": "contracts/CampaignFactoryUpgradable.sol:CampaignFactoryUpgradable",
        "label": "_owner",
        "offset": 0,
        "slot": "104",
        "type": "t_address"
      },
      {
        "astId": 456,
        "contract": "contracts/CampaignFactoryUpgradable.sol:CampaignFactoryUpgradable",
        "label": "__gap",
        "offset": 0,
        "slot": "105",
        "type": "t_array(t_uint256)49_storage"
      }
    ],
    "types": {
      "t_address": {
        "encoding": "inplace",
        "label": "address",
        "numberOfBytes": "20"
      },
      "t_array(t_address)dyn_storage": {
        "base": "t_address",
        "encoding": "dynamic_array",
        "label": "address[]",
        "numberOfBytes": "32"
      },
      "t_array(t_uint256)45_storage": {
        "base": "t_uint256",
        "encoding": "inplace",
        "label": "uint256[45]",
        "numberOfBytes": "1440"
      },
      "t_array(t_uint256)49_storage": {
        "base": "t_uint256",
        "encoding": "inplace",
        "label": "uint256[49]",
        "numberOfBytes": "1568"
      },
      "t_array(t_uint256)50_storage": {
        "base": "t_uint256",
        "encoding": "inplace",
        "label": "uint256[50]",
        "numberOfBytes": "1600"
      },
      "t_bool": {
        "encoding": "inplace",
        "label": "bool",
        "numberOfBytes": "1"
      },
      "t_contract(AutomationRegistryInterface)210": {
        "encoding": "inplace",
        "label": "contract AutomationRegistryInterface",
        "numberOfBytes": "20"
      },
      "t_contract(ICampaign)6364": {
        "encoding": "inplace",
        "label": "contract ICampaign",
        "numberOfBytes": "20"
      },
      "t_contract(IERC20Upgradeable)686": {
        "encoding": "inplace",
        "label": "contract IERC20Upgradeable",
        "numberOfBytes": "20"
      },
      "t_contract(LinkTokenInterface)325": {
        "encoding": "inplace",
        "label": "contract LinkTokenInterface",
        "numberOfBytes": "20"
      },
      "t_mapping(t_address,t_bool)": {
        "encoding": "mapping",
        "key": "t_address",
        "label": "mapping(address => bool)",
        "numberOfBytes": "32",
        "value": "t_bool"
      },
      "t_mapping(t_address,t_struct(UpKeepInfo)5405_storage)": {
        "encoding": "mapping",
        "key": "t_address",
        "label": "mapping(address => struct CampaignFactoryStorage.UpKeepInfo)",
        "numberOfBytes": "32",
        "value": "t_struct(UpKeepInfo)5405_storage"
      },
      "t_mapping(t_contract(IERC20Upgradeable)686,t_uint256)": {
        "encoding": "mapping",
        "key": "t_contract(IERC20Upgradeable)686",
        "label": "mapping(contract IERC20Upgradeable => uint256)",
        "numberOfBytes": "32",
        "value": "t_uint256"
      },
      "t_struct(UpKeepInfo)5405_storage": {
        "encoding": "inplace",
        "label": "struct CampaignFactoryStorage.UpKeepInfo",
        "members": [
          {
            "astId": 5400,
            "contract": "contracts/CampaignFactoryUpgradable.sol:CampaignFactoryUpgradable",
            "label": "upKeepId",
            "offset": 0,
            "slot": "0",
            "type": "t_uint256"
          },
          {
            "astId": 5402,
            "contract": "contracts/CampaignFactoryUpgradable.sol:CampaignFactoryUpgradable",
            "label": "cancelled",
            "offset": 0,
            "slot": "1",
            "type": "t_bool"
          },
          {
            "astId": 5404,
            "contract": "contracts/CampaignFactoryUpgradable.sol:CampaignFactoryUpgradable",
            "label": "withdrawalBlockNumber",
            "offset": 0,
            "slot": "2",
            "type": "t_uint256"
          }
        ],
        "numberOfBytes": "96"
      },
      "t_uint256": {
        "encoding": "inplace",
        "label": "uint256",
        "numberOfBytes": "32"
      },
      "t_uint8": {
        "encoding": "inplace",
        "label": "uint8",
        "numberOfBytes": "1"
      }
    }
  }
}