{
  "address": "0x800E663Cd1f29dbbca23F460743B6A8e4a6f4DF2",
  "abi": [
    {
      "inputs": [
        {
          "internalType": "contract IRenderer",
          "name": "render_",
          "type": "address"
        }
      ],
      "stateMutability": "nonpayable",
      "type": "constructor"
    },
    {
      "inputs": [],
      "name": "OnlySimulatedBackend",
      "type": "error"
    },
    {
      "anonymous": false,
      "inputs": [
        {
          "indexed": true,
          "internalType": "address",
          "name": "owner",
          "type": "address"
        },
        {
          "indexed": true,
          "internalType": "address",
          "name": "approved",
          "type": "address"
        },
        {
          "indexed": true,
          "internalType": "uint256",
          "name": "tokenId",
          "type": "uint256"
        }
      ],
      "name": "Approval",
      "type": "event"
    },
    {
      "anonymous": false,
      "inputs": [
        {
          "indexed": true,
          "internalType": "address",
          "name": "owner",
          "type": "address"
        },
        {
          "indexed": true,
          "internalType": "address",
          "name": "operator",
          "type": "address"
        },
        {
          "indexed": false,
          "internalType": "bool",
          "name": "approved",
          "type": "bool"
        }
      ],
      "name": "ApprovalForAll",
      "type": "event"
    },
    {
      "anonymous": false,
      "inputs": [
        {
          "indexed": false,
          "internalType": "uint256",
          "name": "currentEpoch",
          "type": "uint256"
        }
      ],
      "name": "EpochUpdated",
      "type": "event"
    },
    {
      "anonymous": false,
      "inputs": [
        {
          "indexed": false,
          "internalType": "string",
          "name": "newUri",
          "type": "string"
        }
      ],
      "name": "EvCampaignUriSet",
      "type": "event"
    },
    {
      "anonymous": false,
      "inputs": [
        {
          "indexed": false,
          "internalType": "uint256",
          "name": "challengerId",
          "type": "uint256"
        },
        {
          "indexed": false,
          "internalType": "uint256",
          "name": "cheaterId",
          "type": "uint256"
        },
        {
          "indexed": false,
          "internalType": "uint256",
          "name": "challengeRecordId",
          "type": "uint256"
        }
      ],
      "name": "EvChallenge",
      "type": "event"
    },
    {
      "anonymous": false,
      "inputs": [
        {
          "indexed": false,
          "internalType": "uint256",
          "name": "cheaterId",
          "type": "uint256"
        }
      ],
      "name": "EvCheat",
      "type": "event"
    },
    {
      "anonymous": false,
      "inputs": [
        {
          "indexed": false,
          "internalType": "uint256",
          "name": "epoch",
          "type": "uint256"
        },
        {
          "indexed": false,
          "internalType": "uint256",
          "name": "tokenId",
          "type": "uint256"
        },
        {
          "indexed": false,
          "internalType": "string",
          "name": "contentUri",
          "type": "string"
        }
      ],
      "name": "EvCheckIn",
      "type": "event"
    },
    {
      "anonymous": false,
      "inputs": [
        {
          "indexed": false,
          "internalType": "uint256",
          "name": "tokenId",
          "type": "uint256"
        },
        {
          "indexed": false,
          "internalType": "uint256",
          "name": "amount",
          "type": "uint256"
        }
      ],
      "name": "EvClaimReward",
      "type": "event"
    },
    {
      "anonymous": false,
      "inputs": [
        {
          "indexed": false,
          "internalType": "uint256",
          "name": "tokenId",
          "type": "uint256"
        }
      ],
      "name": "EvFailure",
      "type": "event"
    },
    {
      "anonymous": false,
      "inputs": [
        {
          "indexed": false,
          "internalType": "uint256",
          "name": "challengeRecordId",
          "type": "uint256"
        }
      ],
      "name": "EvJudgement",
      "type": "event"
    },
    {
      "anonymous": false,
      "inputs": [
        {
          "indexed": false,
          "internalType": "uint256[]",
          "name": "tokenList",
          "type": "uint256[]"
        },
        {
          "indexed": false,
          "internalType": "bool[]",
          "name": "status",
          "type": "bool[]"
        }
      ],
      "name": "EvModifyRegistry",
      "type": "event"
    },
    {
      "anonymous": false,
      "inputs": [
        {
          "indexed": false,
          "internalType": "uint256",
          "name": "tokenId",
          "type": "uint256"
        }
      ],
      "name": "EvRegisterSuccessfully",
      "type": "event"
    },
    {
      "anonymous": false,
      "inputs": [
        {
          "indexed": false,
          "internalType": "address",
          "name": "user",
          "type": "address"
        }
      ],
      "name": "EvSettle",
      "type": "event"
    },
    {
      "anonymous": false,
      "inputs": [
        {
          "indexed": false,
          "internalType": "uint256",
          "name": "tokenId",
          "type": "uint256"
        }
      ],
      "name": "EvSignUp",
      "type": "event"
    },
    {
      "anonymous": false,
      "inputs": [
        {
          "indexed": false,
          "internalType": "uint256",
          "name": "tokenId",
          "type": "uint256"
        }
      ],
      "name": "EvSuccess",
      "type": "event"
    },
    {
      "anonymous": false,
      "inputs": [
        {
          "indexed": false,
          "internalType": "uint256",
          "name": "tokenId",
          "type": "uint256"
        },
        {
          "indexed": false,
          "internalType": "uint256",
          "name": "challengeRecordId",
          "type": "uint256"
        }
      ],
      "name": "EvVote",
      "type": "event"
    },
    {
      "anonymous": false,
      "inputs": [
        {
          "indexed": false,
          "internalType": "address",
          "name": "host",
          "type": "address"
        },
        {
          "indexed": false,
          "internalType": "uint256",
          "name": "hostReward",
          "type": "uint256"
        },
        {
          "indexed": false,
          "internalType": "uint256",
          "name": "protocolFee",
          "type": "uint256"
        }
      ],
      "name": "EvWithDraw",
      "type": "event"
    },
    {
      "anonymous": false,
      "inputs": [
        {
          "indexed": false,
          "internalType": "uint8",
          "name": "version",
          "type": "uint8"
        }
      ],
      "name": "Initialized",
      "type": "event"
    },
    {
      "anonymous": false,
      "inputs": [
        {
          "indexed": true,
          "internalType": "address",
          "name": "previousOwner",
          "type": "address"
        },
        {
          "indexed": true,
          "internalType": "address",
          "name": "newOwner",
          "type": "address"
        }
      ],
      "name": "OwnershipTransferred",
      "type": "event"
    },
    {
      "anonymous": false,
      "inputs": [
        {
          "indexed": true,
          "internalType": "address",
          "name": "from",
          "type": "address"
        },
        {
          "indexed": true,
          "internalType": "address",
          "name": "to",
          "type": "address"
        },
        {
          "indexed": true,
          "internalType": "uint256",
          "name": "tokenId",
          "type": "uint256"
        }
      ],
      "name": "Transfer",
      "type": "event"
    },
    {
      "inputs": [],
      "name": "_challengeIdx",
      "outputs": [
        {
          "internalType": "uint256",
          "name": "",
          "type": "uint256"
        }
      ],
      "stateMutability": "view",
      "type": "function"
    },
    {
      "inputs": [],
      "name": "_idx",
      "outputs": [
        {
          "internalType": "uint256",
          "name": "",
          "type": "uint256"
        }
      ],
      "stateMutability": "view",
      "type": "function"
    },
    {
      "inputs": [
        {
          "internalType": "uint256[]",
          "name": "allowlists",
          "type": "uint256[]"
        }
      ],
      "name": "admit",
      "outputs": [],
      "stateMutability": "nonpayable",
      "type": "function"
    },
    {
      "inputs": [
        {
          "internalType": "address",
          "name": "to",
          "type": "address"
        },
        {
          "internalType": "uint256",
          "name": "tokenId",
          "type": "uint256"
        }
      ],
      "name": "approve",
      "outputs": [],
      "stateMutability": "nonpayable",
      "type": "function"
    },
    {
      "inputs": [
        {
          "internalType": "address",
          "name": "owner",
          "type": "address"
        }
      ],
      "name": "balanceOf",
      "outputs": [
        {
          "internalType": "uint256",
          "name": "",
          "type": "uint256"
        }
      ],
      "stateMutability": "view",
      "type": "function"
    },
    {
      "inputs": [],
      "name": "campaignUri",
      "outputs": [
        {
          "internalType": "string",
          "name": "",
          "type": "string"
        }
      ],
      "stateMutability": "view",
      "type": "function"
    },
    {
      "inputs": [
        {
          "internalType": "uint256",
          "name": "challengerId",
          "type": "uint256"
        },
        {
          "internalType": "uint256",
          "name": "cheaterId",
          "type": "uint256"
        },
        {
          "internalType": "uint256",
          "name": "epoch",
          "type": "uint256"
        }
      ],
      "name": "challenge",
      "outputs": [],
      "stateMutability": "nonpayable",
      "type": "function"
    },
    {
      "inputs": [],
      "name": "challengeJudgedCount",
      "outputs": [
        {
          "internalType": "uint256",
          "name": "",
          "type": "uint256"
        }
      ],
      "stateMutability": "view",
      "type": "function"
    },
    {
      "inputs": [
        {
          "internalType": "uint256",
          "name": "",
          "type": "uint256"
        }
      ],
      "name": "challengeRecords",
      "outputs": [
        {
          "internalType": "uint256",
          "name": "challengerId",
          "type": "uint256"
        },
        {
          "internalType": "uint256",
          "name": "cheaterId",
          "type": "uint256"
        },
        {
          "internalType": "uint256",
          "name": "epoch",
          "type": "uint256"
        },
        {
          "internalType": "uint256",
          "name": "agreeCount",
          "type": "uint256"
        },
        {
          "internalType": "uint256",
          "name": "disagreeCount",
          "type": "uint256"
        },
        {
          "internalType": "uint256",
          "name": "challengeRiseTime",
          "type": "uint256"
        },
        {
          "internalType": "bool",
          "name": "result",
          "type": "bool"
        },
        {
          "internalType": "bool",
          "name": "state",
          "type": "bool"
        },
        {
          "internalType": "bool",
          "name": "legal",
          "type": "bool"
        }
      ],
      "stateMutability": "view",
      "type": "function"
    },
    {
      "inputs": [],
      "name": "cheatCount",
      "outputs": [
        {
          "internalType": "uint256",
          "name": "",
          "type": "uint256"
        }
      ],
      "stateMutability": "view",
      "type": "function"
    },
    {
      "inputs": [
        {
          "internalType": "string",
          "name": "contentUri",
          "type": "string"
        },
        {
          "internalType": "uint256",
          "name": "tokenId",
          "type": "uint256"
        }
      ],
      "name": "checkIn",
      "outputs": [],
      "stateMutability": "nonpayable",
      "type": "function"
    },
    {
      "inputs": [
        {
          "internalType": "bytes",
          "name": "",
          "type": "bytes"
        }
      ],
      "name": "checkUpkeep",
      "outputs": [
        {
          "internalType": "bool",
          "name": "upkeepNeeded",
          "type": "bool"
        },
        {
          "internalType": "bytes",
          "name": "performData",
          "type": "bytes"
        }
      ],
      "stateMutability": "view",
      "type": "function"
    },
    {
      "inputs": [
        {
          "internalType": "uint256",
          "name": "tokenId",
          "type": "uint256"
        }
      ],
      "name": "claim",
      "outputs": [],
      "stateMutability": "nonpayable",
      "type": "function"
    },
    {
      "inputs": [
        {
          "internalType": "uint256",
          "name": "tokenId",
          "type": "uint256"
        }
      ],
      "name": "claimAndWithdraw",
      "outputs": [],
      "stateMutability": "nonpayable",
      "type": "function"
    },
    {
      "inputs": [],
      "name": "currentEpoch",
      "outputs": [
        {
          "internalType": "uint256",
          "name": "",
          "type": "uint256"
        }
      ],
      "stateMutability": "view",
      "type": "function"
    },
    {
      "inputs": [],
      "name": "forceEnd",
      "outputs": [],
      "stateMutability": "nonpayable",
      "type": "function"
    },
    {
      "inputs": [
        {
          "internalType": "uint256",
          "name": "tokenId",
          "type": "uint256"
        }
      ],
      "name": "getApproved",
      "outputs": [
        {
          "internalType": "address",
          "name": "",
          "type": "address"
        }
      ],
      "stateMutability": "view",
      "type": "function"
    },
    {
      "inputs": [
        {
          "internalType": "uint256",
          "name": "tokenId",
          "type": "uint256"
        }
      ],
      "name": "getTokenProperties",
      "outputs": [
        {
          "components": [
            {
              "internalType": "enum ICampaign.TokenStatus",
              "name": "tokenStatus",
              "type": "uint8"
            },
            {
              "internalType": "uint256",
              "name": "pendingReward",
              "type": "uint256"
            }
          ],
          "internalType": "struct ICampaign.TokenProperty",
          "name": "",
          "type": "tuple"
        }
      ],
      "stateMutability": "view",
      "type": "function"
    },
    {
      "inputs": [],
      "name": "hostReward",
      "outputs": [
        {
          "internalType": "uint256",
          "name": "",
          "type": "uint256"
        }
      ],
      "stateMutability": "view",
      "type": "function"
    },
    {
      "inputs": [
        {
          "internalType": "address",
          "name": "owner",
          "type": "address"
        },
        {
          "internalType": "contract IERC20Upgradeable",
          "name": "token_",
          "type": "address"
        },
        {
          "internalType": "uint256",
          "name": "amount_",
          "type": "uint256"
        },
        {
          "internalType": "string",
          "name": "name_",
          "type": "string"
        },
        {
          "internalType": "string",
          "name": "symbol_",
          "type": "string"
        },
        {
          "internalType": "uint256",
          "name": "startTime_",
          "type": "uint256"
        },
        {
          "internalType": "uint256",
          "name": "totalPeriod_",
          "type": "uint256"
        },
        {
          "internalType": "uint256",
          "name": "periodLength_",
          "type": "uint256"
        },
        {
          "internalType": "string",
          "name": "campaignUri_",
          "type": "string"
        }
      ],
      "name": "initialize",
      "outputs": [],
      "stateMutability": "nonpayable",
      "type": "function"
    },
    {
      "inputs": [
        {
          "internalType": "address",
          "name": "owner",
          "type": "address"
        },
        {
          "internalType": "address",
          "name": "operator",
          "type": "address"
        }
      ],
      "name": "isApprovedForAll",
      "outputs": [
        {
          "internalType": "bool",
          "name": "",
          "type": "bool"
        }
      ],
      "stateMutability": "view",
      "type": "function"
    },
    {
      "inputs": [
        {
          "internalType": "uint256",
          "name": "challengeRecordId",
          "type": "uint256"
        }
      ],
      "name": "judgement",
      "outputs": [],
      "stateMutability": "nonpayable",
      "type": "function"
    },
    {
      "inputs": [],
      "name": "lastEpochEndTime",
      "outputs": [
        {
          "internalType": "uint256",
          "name": "",
          "type": "uint256"
        }
      ],
      "stateMutability": "view",
      "type": "function"
    },
    {
      "inputs": [
        {
          "internalType": "uint256[]",
          "name": "lists",
          "type": "uint256[]"
        },
        {
          "internalType": "bool[]",
          "name": "targetStatuses",
          "type": "bool[]"
        }
      ],
      "name": "modifyRegistry",
      "outputs": [],
      "stateMutability": "nonpayable",
      "type": "function"
    },
    {
      "inputs": [],
      "name": "name",
      "outputs": [
        {
          "internalType": "string",
          "name": "",
          "type": "string"
        }
      ],
      "stateMutability": "view",
      "type": "function"
    },
    {
      "inputs": [],
      "name": "owner",
      "outputs": [
        {
          "internalType": "address",
          "name": "",
          "type": "address"
        }
      ],
      "stateMutability": "view",
      "type": "function"
    },
    {
      "inputs": [
        {
          "internalType": "uint256",
          "name": "tokenId",
          "type": "uint256"
        }
      ],
      "name": "ownerOf",
      "outputs": [
        {
          "internalType": "address",
          "name": "",
          "type": "address"
        }
      ],
      "stateMutability": "view",
      "type": "function"
    },
    {
      "inputs": [
        {
          "internalType": "bytes",
          "name": "performData",
          "type": "bytes"
        }
      ],
      "name": "performUpkeep",
      "outputs": [],
      "stateMutability": "nonpayable",
      "type": "function"
    },
    {
      "inputs": [],
      "name": "period",
      "outputs": [
        {
          "internalType": "uint256",
          "name": "",
          "type": "uint256"
        }
      ],
      "stateMutability": "view",
      "type": "function"
    },
    {
      "inputs": [],
      "name": "protocolFee",
      "outputs": [
        {
          "internalType": "uint256",
          "name": "",
          "type": "uint256"
        }
      ],
      "stateMutability": "view",
      "type": "function"
    },
    {
      "inputs": [
        {
          "internalType": "uint256",
          "name": "",
          "type": "uint256"
        },
        {
          "internalType": "uint256",
          "name": "",
          "type": "uint256"
        }
      ],
      "name": "records",
      "outputs": [
        {
          "internalType": "string",
          "name": "contentUri",
          "type": "string"
        }
      ],
      "stateMutability": "view",
      "type": "function"
    },
    {
      "inputs": [],
      "name": "render",
      "outputs": [
        {
          "internalType": "contract IRenderer",
          "name": "",
          "type": "address"
        }
      ],
      "stateMutability": "view",
      "type": "function"
    },
    {
      "inputs": [],
      "name": "renounceOwnership",
      "outputs": [],
      "stateMutability": "nonpayable",
      "type": "function"
    },
    {
      "inputs": [],
      "name": "requiredAmount",
      "outputs": [
        {
          "internalType": "uint256",
          "name": "",
          "type": "uint256"
        }
      ],
      "stateMutability": "view",
      "type": "function"
    },
    {
      "inputs": [
        {
          "internalType": "address",
          "name": "from",
          "type": "address"
        },
        {
          "internalType": "address",
          "name": "to",
          "type": "address"
        },
        {
          "internalType": "uint256",
          "name": "tokenId",
          "type": "uint256"
        }
      ],
      "name": "safeTransferFrom",
      "outputs": [],
      "stateMutability": "nonpayable",
      "type": "function"
    },
    {
      "inputs": [
        {
          "internalType": "address",
          "name": "from",
          "type": "address"
        },
        {
          "internalType": "address",
          "name": "to",
          "type": "address"
        },
        {
          "internalType": "uint256",
          "name": "tokenId",
          "type": "uint256"
        },
        {
          "internalType": "bytes",
          "name": "data",
          "type": "bytes"
        }
      ],
      "name": "safeTransferFrom",
      "outputs": [],
      "stateMutability": "nonpayable",
      "type": "function"
    },
    {
      "inputs": [
        {
          "internalType": "address",
          "name": "operator",
          "type": "address"
        },
        {
          "internalType": "bool",
          "name": "approved",
          "type": "bool"
        }
      ],
      "name": "setApprovalForAll",
      "outputs": [],
      "stateMutability": "nonpayable",
      "type": "function"
    },
    {
      "inputs": [
        {
          "internalType": "string",
          "name": "newUri",
          "type": "string"
        }
      ],
      "name": "setCampaignUri",
      "outputs": [],
      "stateMutability": "nonpayable",
      "type": "function"
    },
    {
      "inputs": [],
      "name": "settle",
      "outputs": [],
      "stateMutability": "nonpayable",
      "type": "function"
    },
    {
      "inputs": [],
      "name": "sharedReward",
      "outputs": [
        {
          "internalType": "uint256",
          "name": "",
          "type": "uint256"
        }
      ],
      "stateMutability": "view",
      "type": "function"
    },
    {
      "inputs": [],
      "name": "signUp",
      "outputs": [],
      "stateMutability": "nonpayable",
      "type": "function"
    },
    {
      "inputs": [],
      "name": "startTime",
      "outputs": [
        {
          "internalType": "uint256",
          "name": "",
          "type": "uint256"
        }
      ],
      "stateMutability": "view",
      "type": "function"
    },
    {
      "inputs": [],
      "name": "status",
      "outputs": [
        {
          "internalType": "enum Consts.CampaignStatus",
          "name": "",
          "type": "uint8"
        }
      ],
      "stateMutability": "view",
      "type": "function"
    },
    {
      "inputs": [],
      "name": "successTokensCount",
      "outputs": [
        {
          "internalType": "uint256",
          "name": "",
          "type": "uint256"
        }
      ],
      "stateMutability": "view",
      "type": "function"
    },
    {
      "inputs": [
        {
          "internalType": "bytes4",
          "name": "interfaceId",
          "type": "bytes4"
        }
      ],
      "name": "supportsInterface",
      "outputs": [
        {
          "internalType": "bool",
          "name": "",
          "type": "bool"
        }
      ],
      "stateMutability": "view",
      "type": "function"
    },
    {
      "inputs": [],
      "name": "symbol",
      "outputs": [
        {
          "internalType": "string",
          "name": "",
          "type": "string"
        }
      ],
      "stateMutability": "view",
      "type": "function"
    },
    {
      "inputs": [],
      "name": "targetToken",
      "outputs": [
        {
          "internalType": "contract IERC20Upgradeable",
          "name": "",
          "type": "address"
        }
      ],
      "stateMutability": "view",
      "type": "function"
    },
    {
      "inputs": [
        {
          "internalType": "uint256",
          "name": "tokenId",
          "type": "uint256"
        }
      ],
      "name": "tokenURI",
      "outputs": [
        {
          "internalType": "string",
          "name": "",
          "type": "string"
        }
      ],
      "stateMutability": "view",
      "type": "function"
    },
    {
      "inputs": [],
      "name": "totalEpochsCount",
      "outputs": [
        {
          "internalType": "uint256",
          "name": "",
          "type": "uint256"
        }
      ],
      "stateMutability": "view",
      "type": "function"
    },
    {
      "inputs": [
        {
          "internalType": "address",
          "name": "from",
          "type": "address"
        },
        {
          "internalType": "address",
          "name": "to",
          "type": "address"
        },
        {
          "internalType": "uint256",
          "name": "tokenId",
          "type": "uint256"
        }
      ],
      "name": "transferFrom",
      "outputs": [],
      "stateMutability": "nonpayable",
      "type": "function"
    },
    {
      "inputs": [
        {
          "internalType": "address",
          "name": "newOwner",
          "type": "address"
        }
      ],
      "name": "transferOwnership",
      "outputs": [],
      "stateMutability": "nonpayable",
      "type": "function"
    },
    {
      "inputs": [
        {
          "internalType": "uint256",
          "name": "tokenId",
          "type": "uint256"
        },
        {
          "internalType": "uint256",
          "name": "challengeRecordId",
          "type": "uint256"
        },
        {
          "internalType": "bool",
          "name": "choice",
          "type": "bool"
        }
      ],
      "name": "vote",
      "outputs": [],
      "stateMutability": "nonpayable",
      "type": "function"
    },
    {
      "inputs": [
        {
          "internalType": "uint256",
          "name": "",
          "type": "uint256"
        },
        {
          "internalType": "uint256",
          "name": "",
          "type": "uint256"
        }
      ],
      "name": "voters",
      "outputs": [
        {
          "internalType": "bool",
          "name": "voted",
          "type": "bool"
        },
        {
          "internalType": "bool",
          "name": "choice",
          "type": "bool"
        }
      ],
      "stateMutability": "view",
      "type": "function"
    },
    {
      "inputs": [],
      "name": "withdraw",
      "outputs": [],
      "stateMutability": "nonpayable",
      "type": "function"
    }
  ],
  "transactionHash": "0xf9dbf5aed56dfe201dfc64a0492f75418b56b4a64dd923a832ccc6abba92301d",
  "args": [
    "0x389A9a9097766E58DaAc092d0A358f8Ac3F820cB"
  ],
  "numDeployments": 9,
  "solcInputHash": "549f2d2e77c3f1a127a35f8e8eddb501",
  "bytecode": "0x60a0346200018557601f62004adc38819003918201601f19168301916001600160401b038311848410176200018a578084926020946040528339810103126200018557516001600160a01b0381168103620001855760805260005460ff8160081c16159081809262000177575b80156200015e575b15620001025760ff19811660011760005581620000ef575b50620000b3575b60405161493b9081620001a182396080518181816106b0015261075a0152f35b61ff0019600054166000557f7f26b83ff96e1f2b6a682f133852f6798a09c465da95921460cefb3847402498602060405160018152a162000093565b61ffff191661010117600055386200008c565b60405162461bcd60e51b815260206004820152602e60248201527f496e697469616c697a61626c653a20636f6e747261637420697320616c72656160448201526d191e481a5b9a5d1a585b1a5e995960921b6064820152608490fd5b50303b158015620000745750600160ff82161462000074565b50600160ff8216106200006c565b600080fd5b634e487b7160e01b600052604160045260246000fdfe608080604052600436101561001357600080fd5b60003560e01c90816301ffc9a7146130cb5750806306fdde03146130a7578063081812fc14613089578063095ea7b314612ee35780630c0b2bdd14612d5857806311da60b414612b6a5780631a597548146129eb5780631fc6e29614612839578063200d2ed21461280f57806323b872dd146127eb57806327e61c2514612405578063280058ee146123e7578063327107f7146123c0578063379607f5146123a05780633ccfd60b1461232557806342842e0e146122f25780634585e33b1461205c57806348b9ef401461203e5780634edea11114611fb95780634ee0ab0d14611dbb5780636352211e14611d8c5780636a18ff7a14611b515780636e04ff0d14611af75780636efcaab514611a51578063703064d11461132e57806370a082311461130357806370f42df8146112e5578063715018a614611278578063766718081461125a57806378e979251461123c57806384e335011461121e5780638da5cb5b146111f75780639397f8e214610fd057806395d89b4114610f0257806396bc743414610ee45780639cc8525d14610e93578063a22cb46514610db8578063b0e21e8a14610d9a578063b6f625e614610d7c578063b88d4fde14610cfb578063bf96ae6314610a48578063bfa6f912146109ba578063c771766d1461099c578063c87b56dd146106f2578063d5d22165146106d4578063d607497a14610690578063db4988121461044c578063dfa447ce1461042e578063e86a530914610410578063e985e9c5146103b9578063ef78d4fd1461039b578063f2fde38b146102f8578063f62b46c9146102b95763fba00cbd1461027157600080fd5b346102b45761027f36613512565b9060005260dc6020526040600020906000526020526040806000205460ff8251918181161515835260081c1615156020820152f35b600080fd5b346102b45760206003193601126102b4576102ee6004356102d8613528565b6102e1816146a4565b6102e9614858565b6141d6565b6102f661451a565b005b346102b45760206003193601126102b4576103116131f4565b610319613528565b6001600160a01b03811615610331576102f690613580565b608460405162461bcd60e51b815260206004820152602660248201527f4f776e61626c653a206e6577206f776e657220697320746865207a65726f206160448201527f64647265737300000000000000000000000000000000000000000000000000006064820152fd5b346102b45760006003193601126102b457602060cf54604051908152f35b346102b45760406003193601126102b4576103d26131f4565b6103da61320a565b906001600160a01b03809116600052609c60205260406000209116600052602052602060ff604060002054166040519015158152f35b346102b45760006003193601126102b457602060d254604051908152f35b346102b45760006003193601126102b457602060d754604051908152f35b346102b4576020806003193601126102b45767ffffffffffffffff906004358281116102b457610480903690600401613286565b91909261048b613528565b821161067a5760cc916104a7816104a285546132b4565b613cea565b6000601f82116001146105f957819293946000926105ee575b50506000198260011b9260031b1c19161782555b6040519181835260009181546104e9816132b4565b92838387015260019182811690816000146105a5575060011461052f575b7f9554c0ad8824b12a4301321d81a1a6d3be9e533b040fe09a8d7dfeaccb27618186860387a1005b600090815293507f47197230e1e4b29fc0bd84d7d78966c0925452aff72a2a121538b102457e9ebe5b83851061059157505050508101604001817f9554c0ad8824b12a4301321d81a1a6d3be9e533b040fe09a8d7dfeaccb2761818480610507565b805486860160400152938201938101610558565b9050869550604093507f9554c0ad8824b12a4301321d81a1a6d3be9e533b040fe09a8d7dfeaccb2761819694925060ff1991501682840152151560051b82010191928480610507565b0135905084806104c0565b601f19821694846000527f47197230e1e4b29fc0bd84d7d78966c0925452aff72a2a121538b102457e9ebe9160005b878110610663575083600195969710610649575b505050811b0182556104d4565b60001960f88560031b161c1991013516905584808061063c565b909285600181928686013581550194019101610628565b634e487b7160e01b600052604160045260246000fd5b346102b45760006003193601126102b45760206040516001600160a01b037f0000000000000000000000000000000000000000000000000000000000000000168152f35b346102b45760006003193601126102b457602060d454604051908152f35b346102b4576020806003193601126102b45760405161071b81610714816132ee565b038261347e565b604051907fa2d6c6da00000000000000000000000000000000000000000000000000000000825260043560048301526000826024816001600160a01b037f0000000000000000000000000000000000000000000000000000000000000000165afa91821561099057600092610907575b50610898606261079d61089d94614021565b926040519384917f7b226e616d65223a202200000000000000000000000000000000000000000000888401526107dc815180928a602a8701910161319a565b82017f222c226465736372697074696f6e223a22000000000000000000000000000000602a8201527f222c22696d616765223a22000000000000000000000000000000000000000000603b8201527f646174613a696d6167652f7376672b786d6c3b6261736536342c0000000000006046820152610863825180938a60608501910161319a565b017f227d000000000000000000000000000000000000000000000000000000000000606082015203604281018452018261347e565b614021565b906108ef603d60405180947f646174613a6170706c69636174696f6e2f6a736f6e3b6261736536342c000000858301526108df8151809287868601910161319a565b810103601d81018552018361347e565b6109036040519282849384528301906131cf565b0390f35b91503d806000843e610919818461347e565b82019183818403126102b45780519067ffffffffffffffff82116102b457019180601f840112156102b457825192610950846134a1565b9161095e604051938461347e565b8483528585830101116102b45761079d8261098761089d9660629489806108989801910161319a565b9450505061078b565b6040513d6000823e3d90fd5b346102b45760006003193601126102b457602060d054604051908152f35b346102b45760206003193601126102b45760043560005260dd602052610120604060002060ff815491600181015490600281015460038201546004830154916006600585015494015494604051978852602088015260408701526060860152608085015260a0840152818116151560c0840152818160081c16151560e084015260101c161515610100820152f35b346102b45760006003193601126102b457610a616147b9565b610a6a336135d7565b610cb7576001600160a01b0360c9541660ca5490604051906020917f23b872dd0000000000000000000000000000000000000000000000000000000083820152602493338583015230604483015260648201526064815260a081019181831067ffffffffffffffff841117610ca257610ae592604052613d5b565b60d25460011992838211610c09576001820160d25560405193610b0785613446565b600085523315610c6057610b318360005260996020526001600160a01b0360406000205416151590565b610c1d5733600052609a84526040600020918254918211610c0957507fcd169e01d559b6d336962db715a67dc5fd03521032de891b679200894ec219f394610bdc926001610bd793019055836000526099855260406000203373ffffffffffffffffffffffffffffffffffffffff19825416179055833360007fddf252ad1be2c89b69c2b068fc378daa952ba7f163c4a11628f55a4df523b3ef81604051a48333613ada565b613781565b8060005260db82526040600020600260ff1982541617905560ca54600160406000200155604051908152a1005b634e487b7160e01b60005260116004526000fd5b606484601c846040519262461bcd60e51b845260048401528201527f4552433732313a20746f6b656e20616c7265616479206d696e746564000000006044820152fd5b606482856040519162461bcd60e51b83528160048401528201527f4552433732313a206d696e7420746f20746865207a65726f20616464726573736044820152fd5b84634e487b7160e01b60005260416004526000fd5b606460405162461bcd60e51b815260206004820152601860248201527f43616d706169676e3a20616c7265616479207369676e656400000000000000006044820152fd5b346102b45760806003193601126102b457610d146131f4565b610d1c61320a565b906064359060443567ffffffffffffffff83116102b457366023840112156102b4576102f693610d59610bd79436906024816004013591016134bd565b92610d6c610d6784336137f7565b613710565b610d7783838361387c565b613c70565b346102b45760006003193601126102b457602060ce54604051908152f35b346102b45760006003193601126102b457602060d854604051908152f35b346102b45760406003193601126102b457610dd16131f4565b60243590811515908183036102b4576001600160a01b031691823314610e4f57610e219033600052609c60205260406000208460005260205260406000209060ff60ff1983541691151516179055565b6040519081527f17307eab39ab6107e8899845ad3d59bd9653f200f220920489ca2b5937696c3160203392a3005b606460405162461bcd60e51b815260206004820152601960248201527f4552433732313a20617070726f766520746f2063616c6c6572000000000000006044820152fd5b346102b457610ea136613512565b9060005260da602052604060002090600052602052610903610714610ed0604060002060405192838092613393565b6040519182916020835260208301906131cf565b346102b45760006003193601126102b457602060d654604051908152f35b346102b45760006003193601126102b4576040516000609854610f24816132b4565b80845290600190818116908115610fa95750600114610f4e575b61090384610ed08186038261347e565b6098600090815292507f2237a976fa961f5921fd19f2b03c925c725d77b20ce8f790c19709c03de4d8145b828410610f91575050508101602001610ed082610f3e565b80546020858701810191909152909301928101610f79565b60ff191660208087019190915292151560051b85019092019250610ed09150839050610f3e565b346102b45760406003193601126102b45767ffffffffffffffff6004358181116102b457611002903690600401613286565b6024359161100f836146a4565b611017614809565b61102083614703565b6110286145d5565b6040516020948582018281108282111761067a5760405261104a3685856134bd565b825260d15460005260da8652604060002085600052865260406000209151805191821161067a5761107b83546132b4565b601f81116111b1575b508690601f831160011461111d57947f0de15cde05bed13731732bfe8f1ff5a69a8be94505d2e381f23997b07af8dd85979694601f199484601f95849560809a600092611112575b50506000198260011b9260031b1c19161790555b60d1549560405198899788528701526060604087015281606087015286860137600085828601015201168101030190a1005b015190508c806110cc565b90601f1983169184600052886000209260005b81811061119a575094600185899560809a957f0de15cde05bed13731732bfe8f1ff5a69a8be94505d2e381f23997b07af8dd859d9c9a95601f99601f199b10611181575b505050811b0190556110e0565b015160001960f88460031b161c191690558c8080611174565b92938a600181928786015181550195019301611130565b8360005287600020601f840160051c8101918985106111ed575b601f0160051c01905b8181106111e15750611084565b600081556001016111d4565b90915081906111cb565b346102b45760006003193601126102b45760206001600160a01b0360335416604051908152f35b346102b45760006003193601126102b457602060d554604051908152f35b346102b45760006003193601126102b457602060cd54604051908152f35b346102b45760006003193601126102b457602060d154604051908152f35b346102b45760006003193601126102b457611291613528565b600060335473ffffffffffffffffffffffffffffffffffffffff198116603355816001600160a01b0360405192167f8be0079c531659141344cd1fd0a4f28419497f9722a3daafe3b4186f6b6457e08284a3f35b346102b45760006003193601126102b457602060d954604051908152f35b346102b45760206003193601126102b45760206113266113216131f4565b6135d7565b604051908152f35b346102b4576101206003193601126102b4576113486131f4565b602435906001600160a01b03821682036102b45760643567ffffffffffffffff81116102b45761137c9036906004016134f4565b9060843567ffffffffffffffff81116102b45761139d9036906004016134f4565b926101043567ffffffffffffffff81116102b4576113bf9036906004016134f4565b926000549260ff8460081c161593848095611a44575b8015611a2d575b156119c35784600160ff19831617600055611994575b506001600160a01b03831615611950576044351561190c5761141390613580565b60ff60005460081c16156118a25780519067ffffffffffffffff821161067a5781906114406097546132b4565b601f81116117f6575b50602090601f831160011461176f57600092611764575b50506000198260011b9260031b1c1916176097555b835167ffffffffffffffff811161067a576114916098546132b4565b601f81116116c1575b506020601f82116001146116325781906001600160a01b03949596600092611627575b50506000198260011b9260031b1c1916176098555b1673ffffffffffffffffffffffffffffffffffffffff1960c954161760c95560443560ca5560a4358060cd5560d05560c43560ce5560e43560cf55815167ffffffffffffffff811161067a5761152d816104a260cc546132b4565b602092601f82116001146115a5579281929360009261159a575b50506000198260011b9260031b1c19161760cc555b61156257005b61ff0019600054166000557f7f26b83ff96e1f2b6a682f133852f6798a09c465da95921460cefb3847402498602060405160018152a1005b015190508380611547565b601f1982169360cc6000527f47197230e1e4b29fc0bd84d7d78966c0925452aff72a2a121538b102457e9ebe9160005b86811061160f57508360019596106115f6575b505050811b0160cc5561155c565b015160001960f88460031b161c191690558380806115e8565b919260206001819286850151815501940192016115d5565b0151905086806114bd565b601f1982169560986000527f2237a976fa961f5921fd19f2b03c925c725d77b20ce8f790c19709c03de4d8149660005b8181106116a95750916001600160a01b0395969791846001959410611690575b505050811b016098556114d2565b015160001960f88460031b161c19169055868080611682565b83830151895560019098019760209384019301611662565b6098600052601f820160051c7f2237a976fa961f5921fd19f2b03c925c725d77b20ce8f790c19709c03de4d81401906020831061173c575b601f0160051c7f2237a976fa961f5921fd19f2b03c925c725d77b20ce8f790c19709c03de4d81401905b818110611730575061149a565b60008155600101611723565b7f2237a976fa961f5921fd19f2b03c925c725d77b20ce8f790c19709c03de4d81491506116f9565b015190508680611460565b915060976000527f354a83ed9988f79f6038d4c7a7dadbad8af32f4ad6df893e0e5807a1b1944ff9916000601f198516905b8181106117de57509084600195949392106117c5575b505050811b01609755611475565b015160001960f88460031b161c191690558680806117b7565b929360206001819287860151815501950193016117a1565b9091506097600052601f830160051c7f354a83ed9988f79f6038d4c7a7dadbad8af32f4ad6df893e0e5807a1b1944ff9016020841061187b575b90601f849392910160051c7f354a83ed9988f79f6038d4c7a7dadbad8af32f4ad6df893e0e5807a1b1944ff901905b81811061186c5750611449565b6000815584935060010161185f565b507f354a83ed9988f79f6038d4c7a7dadbad8af32f4ad6df893e0e5807a1b1944ff9611830565b608460405162461bcd60e51b815260206004820152602b60248201527f496e697469616c697a61626c653a20636f6e7472616374206973206e6f74206960448201527f6e697469616c697a696e670000000000000000000000000000000000000000006064820152fd5b606460405162461bcd60e51b815260206004820152601860248201527f43616d706169676e3a20696e76616c696420616d6f756e7400000000000000006044820152fd5b606460405162461bcd60e51b815260206004820152601760248201527f43616d706169676e3a20696e76616c696420746f6b656e0000000000000000006044820152fd5b7fffffffffffffffffffffffffffffffffffffffffffffffffffffffffffff00001661010117600055866113f2565b608460405162461bcd60e51b815260206004820152602e60248201527f496e697469616c697a61626c653a20636f6e747261637420697320616c72656160448201527f647920696e697469616c697a65640000000000000000000000000000000000006064820152fd5b50303b1580156113dc5750600160ff8216146113dc565b50600160ff8216106113d5565b346102b45760006003193601126102b457604051600060cc54611a73816132b4565b80845290600190818116908115610fa95750600114611a9c5761090384610ed08186038261347e565b60cc600090815292507f47197230e1e4b29fc0bd84d7d78966c0925452aff72a2a121538b102457e9ebe5b828410611adf575050508101602001610ed082610f3e565b80546020858701810191909152909301928101611ac7565b346102b45760206003193601126102b45760043567ffffffffffffffff81116102b457611b28903690600401613286565b5050611b32613fab565b90610903604051928392151583526040602084015260408301906131cf565b346102b45760606003193601126102b4576004356024803590604435908115158092036102b457611b81846146a4565b611b89614809565b611b9284614703565b611b9b8361476a565b8260005260209160dd835260056040600020015462093a80198111611d775762093a8001421015611d34578360005260dd835260406000205485141580611d22575b15611cdf576001908460005260dc8452604060002086600052845260406000208260ff198254161790558460005260dc845260406000208660005284526040600020805461ff001961ff008460081b16911617905514600014611c90578260005260dd82526003604060002001908154906001198211610c09575060010190557fe412d87c65a2ecd9a42cbdcd9b35239448cd2ec046dbe0d6af0eee194ec6173e9260409290915b8351928352820152a1005b8260005260dd82526004604060002001908154906001198211610c09575060010190557fe412d87c65a2ecd9a42cbdcd9b35239448cd2ec046dbe0d6af0eee194ec6173e926040929091611c85565b606483601f846040519262461bcd60e51b845260048401528201527f4368616c6c656e67653a20696e766f6c7665642063616e6e6f7420766f7465006044820152fd5b50600160406000200154851415611bdd565b6064836010846040519262461bcd60e51b845260048401528201527f4368616c6c656e67653a20656e646564000000000000000000000000000000006044820152fd5b82634e487b7160e01b60005260116004526000fd5b346102b45760206003193601126102b4576020611daa6004356136ac565b6001600160a01b0360405191168152f35b346102b45760006003193601126102b457611dd46148a9565b611ddc614858565b611de46148a9565b60d280549060d99182556000905b8054821015611f5d5760005b60ce54811015611f525780600052602060da81526040600020846000528152610714611e34604060002060405192838092613393565b5115611e495750611e4490613ee7565b611dfe565b919280915060005260db808352600190611eac8260406000200154611ea7620f424080611e7584613f1c565b0490611e8460d7928354613870565b809255611e9084613f34565b0492611e9f60d8948554613870565b809455613865565b613865565b611eb960d6918254613870565b90558260005283526000816040822001558454908110611f3c57611f36926000197f939e6ef49701507f032296ab644b4aebf199222450de6622bb5f9550c7a7820992018655604051838152a15b7f8990a2cca2ad5b32ae72395c0db570652316a7903178764820232d8fe5d2b3556020604051838152a1613ee7565b90611df2565b634e487b7160e01b600052601160045260246000fd5b5090611f3690611f07565b825415611f9e575b600460ff1960cb54161760cb557f7069a5d4cbf1f64db906d1dd29276702df7e9c795ef1746d7a1ca5449c4893f16020604051338152a1005b611fac60d65460d854613870565b60d855600060d655611f65565b346102b45760206003193601126102b45760006020604051611fda8161342a565b828152015260043560005260db6020526040600020604051611ffb8161342a565b60ff8254169060078210156120285760206001604094848452015491019081528251918252516020820152f35b634e487b7160e01b600052602160045260246000fd5b346102b45760006003193601126102b457602060ca54604051908152f35b346102b4576020806003193601126102b45760043567ffffffffffffffff81116102b45761208f82913690600401613286565b90809291810103126102b457358061229e575060cd546120bf60ce916120b9835460cf5490613f78565b90613870565b42111561225a5760d280549260d99384556000915b80548310156121fc5760005b84548110156121f1578060005260da83526040600020846000528352610714612113604060002060405192838092613393565b51156121275761212290613ee7565b6120e0565b50918060005260db908183526001916121528360406000200154611ea7620f424080611e7584613f1c565b61215f60d6918254613870565b90558160005283526000826040822001556040600020600560ff198254161790558554918210611f3c576000196121eb920186557f939e6ef49701507f032296ab644b4aebf199222450de6622bb5f9550c7a7820983604051838152a15b7f8990a2cca2ad5b32ae72395c0db570652316a7903178764820232d8fe5d2b35583604051838152a1613ee7565b916120d4565b50916121eb906121bd565b509150507f7069a5d4cbf1f64db906d1dd29276702df7e9c795ef1746d7a1ca5449c4893f191541561223f575b600460ff1960cb54161760cb55604051338152a1005b61224d60d65460d854613870565b60d855600060d655612229565b6064826040519062461bcd60e51b82526004820152601360248201527f43616d706169676e3a206e6f7420656e646564000000000000000000000000006044820152fd5b6001036122ae57506102f66145d5565b6064906040519062461bcd60e51b82526004820152600d60248201527f4e6f7468696e6720546f20444f000000000000000000000000000000000000006044820152fd5b346102b4576102f6610bd761230636613251565b906040519261231484613446565b60008452610d6c610d6784336137f7565b346102b45760006003193601126102b45761233e613528565b60ff60cb541660058110156120285760040361235c576102f661451a565b606460405162461bcd60e51b815260206004820152601560248201527f43616d706169676e3a206e6f7420736574746c656400000000000000000000006044820152fd5b346102b45760206003193601126102b4576102f66004356102e1816146a4565b346102b45760006003193601126102b45760206001600160a01b0360c95416604051908152f35b346102b45760006003193601126102b457602060d354604051908152f35b346102b4576020806003193601126102b457600435908160005260dd9182825260056040600020015462093a80198111611f3c5762093a800142106127a75761244d8161476a565b8060005282825260ff60066040600020015460081c1661276357806000528282526040600020549260019081604060002001549461249c60036040600020015460046040600020015490613870565b9060d2549260028410611f3c57600119809401916000199383850460421184151516611f3c5760649360420284900410156127205760d454858111611f3c57860160d45586600052818852600360406000200154600460406000200154106125188160066040600020019060ff60ff1983541691151516179055565b6040600020600601805461ff0019166101001790551561264e5750600088815260db885260408120805460ff19166005178155860180549190559283918361255f84613f4c565b049088600052895260406000205460005260db895261258687604060002001918254613870565b905561259e8361259584613f62565b0460d654613870565b60d65504600a1182151516611f3c57600a6125bd92020460d854613870565b60d85560d554908111611f3c577f3caa68ace909b33d20e5ff96e9c98e4f6b20d3490307a1c09b28bea2e71893d6947f7bd432623a7ded907d0b1d373f5979fadde9c0f579f29ae990736e560c2a1aaa9285920160d5557f939e6ef49701507f032296ab644b4aebf199222450de6622bb5f9550c7a7820982604051838152a1604051908152a15b604051908152a1005b91975093925060005260db8552816040600020015480820460281181151516611f3c576028879102049283928560005281875260406000205460005260db87528761269f8260406000200154613f4c565b049186600052875260406000205460005260db875260406000200155048115159080604b118216611f3c576126db86604b85020460d654613870565b60d65560191116611f3c577f3caa68ace909b33d20e5ff96e9c98e4f6b20d3490307a1c09b28bea2e71893d693601961271892020460d854613870565b60d855612645565b82886040519062461bcd60e51b82526004820152601b60248201527f4368616c6c656e67653a206e6f7420656e6f75676820766f74657200000000006044820152fd5b6064826040519062461bcd60e51b82526004820152601960248201527f4368616c6c656e67653a20616c7265616479206a7564676564000000000000006044820152fd5b6064826040519062461bcd60e51b82526004820152601460248201527f4368616c6c656e67653a206e6f7420656e6465640000000000000000000000006044820152fd5b346102b4576102f66127fc36613251565b9161280a610d6784336137f7565b61387c565b346102b45760006003193601126102b45760ff60cb54166040516005821015612028576020918152f35b346102b45760606003193601126102b457600435602435612859826146a4565b612861614809565b61286a82614703565b61287381614703565b61288860cd546120b960ce5460cf5490613f78565b7ffffffffffffffffffffffffffffffffffffffffffffffffffffffffffffeae7f8111611f3c57620151800142116129815780821461293d5760d354916001198311611f3c578260609260017f41b86b8e6a50d1879c8fe4ff449470156b8c2b6c02117dafd10625d300e4aacd950160d3558160005260dd60205282604060002055806001604060002001554260056040600020015560443560026040600020015560405192835260208301526040820152a1005b606460405162461bcd60e51b815260206004820152601f60248201527f43616d706169676e3a2063616e6e6f74206368616c6c656e67652073656c66006044820152fd5b608460405162461bcd60e51b815260206004820152602360248201527f4368616c6c656e67653a207374617274206368616c6c656e676520746f6f206c60448201527f61746500000000000000000000000000000000000000000000000000000000006064820152fd5b346102b4576020806003193601126102b45760043567ffffffffffffffff81116102b457612a1d903690600401613220565b612a256147b9565b612a2d613528565b60005b818110612a3957005b612a44818385613ef6565b358060005260db8086526040600020604051612a5f8161342a565b60ff825416600792838210156120285760019183520154808983015260ca5403612b2657519081101561202857600203612ae25785827f0898a2d0f11ee389113f47ac39e4c57338d20de87eab1ff9bcce61256c868c8592612add959460005282526040600020600360ff19825416179055604051908152a1613ee7565b612a30565b6064866040519062461bcd60e51b82526004820152601760248201527f43616d706169676e3a206e6f74207369676e65642075700000000000000000006044820152fd5b6064886040519062461bcd60e51b82526004820152601960248201527f43616d706169676e3a207374616b65206e6f74206d61746368000000000000006044820152fd5b346102b45760006003193601126102b45760cd54612b9260ce916120b9835460cf5490613f78565b421115612d145760d29081549160d99283556000905b8054821015612cd45760005b8354811015612cc95780600052602060da81526040600020846000528152610714612be9604060002060405192838092613393565b5115612bfe5750612bf990613ee7565b612bb4565b919280915060005260db808352600190612c2a8260406000200154611ea7620f424080611e7584613f1c565b612c3760d6918254613870565b90558260005283526000816040822001556040600020600560ff198254161790558554908110611f3c57612cc3926000197f939e6ef49701507f032296ab644b4aebf199222450de6622bb5f9550c7a7820992018755604051838152a17f8990a2cca2ad5b32ae72395c0db570652316a7903178764820232d8fe5d2b3556020604051838152a1613ee7565b90612ba8565b5090612cc390611f07565b835415611f9e57600460ff1960cb54161760cb557f7069a5d4cbf1f64db906d1dd29276702df7e9c795ef1746d7a1ca5449c4893f16020604051338152a1005b606460405162461bcd60e51b815260206004820152601360248201527f43616d706169676e3a206e6f7420656e646564000000000000000000000000006044820152fd5b346102b45760406003193601126102b45767ffffffffffffffff6004358181116102b457612d8a903690600401613220565b90916024359081116102b457612da4903690600401613220565b612daf9391936147b9565b612db7613528565b600191825b848110612e78575060405193604085528060408601527f07ffffffffffffffffffffffffffffffffffffffffffffffffffffffffffffff81116102b45760059392931b809160608601378301916080606084019382602095606088840301878901525201949260005b828110612e53577e896c158ae8c63b50648f3ace621592a536dc686bb71ea91e8c1a75207e26fd86880387a1005b90919293958635908115158092036102b4579081528201958201939291908301612e25565b612e83818684613ef6565b3590612e90818589613ef6565b359182151583036102b457612ec19215612ec65760005260db6020526040600020600360ff19825416179055613ee7565b612dbc565b60005260db6020526040600020600260ff19825416179055613ee7565b346102b45760406003193601126102b457612efc6131f4565b6001600160a01b03906024358280612f13836136ac565b1692169180831461301f57803314908115612ffa575b5015612f9057600092818452609b602052604084208373ffffffffffffffffffffffffffffffffffffffff19825416179055612f64826136ac565b1691604051927f8c5be1e5ebec7d5bd14f71427d1e84f3dd0314c0f7b2291e5b200ac8c7c3b9258585a4f35b608460405162461bcd60e51b815260206004820152603e60248201527f4552433732313a20617070726f76652063616c6c6572206973206e6f7420746f60448201527f6b656e206f776e6572206e6f7220617070726f76656420666f7220616c6c00006064820152fd5b9050600052609c60205260406000203360005260205260ff6040600020541684612f29565b608460405162461bcd60e51b815260206004820152602160248201527f4552433732313a20617070726f76616c20746f2063757272656e74206f776e6560448201527f72000000000000000000000000000000000000000000000000000000000000006064820152fd5b346102b45760206003193601126102b4576020611daa6004356136ce565b346102b45760006003193601126102b457610903604051610ed081610714816132ee565b346102b45760206003193601126102b457600435907fffffffff0000000000000000000000000000000000000000000000000000000082168092036102b457817f80ac58cd0000000000000000000000000000000000000000000000000000000060209314908115613170575b8115613146575b5015158152f35b7f01ffc9a7000000000000000000000000000000000000000000000000000000009150148361313f565b7f5b5e139f0000000000000000000000000000000000000000000000000000000081149150613138565b918091926000905b8282106131ba5750116131b3575050565b6000910152565b915080602091830151818601520182916131a2565b90601f19601f6020936131ed8151809281875287808801910161319a565b0116010190565b600435906001600160a01b03821682036102b457565b602435906001600160a01b03821682036102b457565b9181601f840112156102b45782359167ffffffffffffffff83116102b4576020808501948460051b0101116102b457565b60031960609101126102b4576001600160a01b039060043582811681036102b4579160243590811681036102b4579060443590565b9181601f840112156102b45782359167ffffffffffffffff83116102b457602083818601950101116102b457565b90600182811c921680156132e4575b60208310146132ce57565b634e487b7160e01b600052602260045260246000fd5b91607f16916132c3565b609754600092916132fe826132b4565b80825291600190818116908115613375575060011461331c57505050565b9192935060976000527f354a83ed9988f79f6038d4c7a7dadbad8af32f4ad6df893e0e5807a1b1944ff9916000925b84841061335d57505060209250010190565b8054602085850181019190915290930192810161334b565b9050602094955060ff1991509291921683830152151560051b010190565b90600092918054916133a4836132b4565b91828252600193848116908160001461340657506001146133c6575b50505050565b90919394506000526020928360002092846000945b8386106133f25750505050010190388080806133c0565b8054858701830152940193859082016133db565b915050602094955060ff199193501683830152151560051b010190388080806133c0565b6040810190811067ffffffffffffffff82111761067a57604052565b6020810190811067ffffffffffffffff82111761067a57604052565b6080810190811067ffffffffffffffff82111761067a57604052565b90601f601f19910116810190811067ffffffffffffffff82111761067a57604052565b67ffffffffffffffff811161067a57601f01601f191660200190565b9291926134c9826134a1565b916134d7604051938461347e565b8294818452818301116102b4578281602093846000960137010152565b9080601f830112156102b45781602061350f933591016134bd565b90565b60031960409101126102b4576004359060243590565b6001600160a01b0360335416330361353c57565b606460405162461bcd60e51b815260206004820152602060248201527f4f776e61626c653a2063616c6c6572206973206e6f7420746865206f776e65726044820152fd5b603354906001600160a01b03809116918273ffffffffffffffffffffffffffffffffffffffff19821617603355167f8be0079c531659141344cd1fd0a4f28419497f9722a3daafe3b4186f6b6457e06000604051a3565b6001600160a01b031680156135f757600052609a60205260406000205490565b608460405162461bcd60e51b815260206004820152602960248201527f4552433732313a2061646472657373207a65726f206973206e6f74206120766160448201527f6c6964206f776e657200000000000000000000000000000000000000000000006064820152fd5b1561366857565b606460405162461bcd60e51b815260206004820152601860248201527f4552433732313a20696e76616c696420746f6b656e20494400000000000000006044820152fd5b60005260996020526001600160a01b036040600020541661350f811515613661565b6136f66136f18260005260996020526001600160a01b0360406000205416151590565b613661565b600052609b6020526001600160a01b036040600020541690565b1561371757565b608460405162461bcd60e51b815260206004820152602e60248201527f4552433732313a2063616c6c6572206973206e6f7420746f6b656e206f776e6560448201527f72206e6f7220617070726f7665640000000000000000000000000000000000006064820152fd5b1561378857565b60405162461bcd60e51b815260206004820152603260248201527f4552433732313a207472616e7366657220746f206e6f6e20455243373231526560448201527f63656976657220696d706c656d656e74657200000000000000000000000000006064820152608490fd5b0390fd5b906001600160a01b03808061380b846136ac565b1693169183831493841561383e575b508315613828575b50505090565b613834919293506136ce565b1614388080613822565b909350600052609c60205260406000208260005260205260ff60406000205416923861381a565b818110611f3c570390565b81198111611f3c570190565b613885836136ac565b916001600160a01b0392838093169283911603613a405782169182156139d7578161399357600090848252609b602052604082209073ffffffffffffffffffffffffffffffffffffffff19918281541690556138e0866136ac565b16908583604051937f8c5be1e5ebec7d5bd14f71427d1e84f3dd0314c0f7b2291e5b200ac8c7c3b9258286a4838352609a6020526040832080546001811061397f57600019019055848352609a602052604083208054600119811161397f5760010190558583526099602052604083208054909116851790557fddf252ad1be2c89b69c2b068fc378daa952ba7f163c4a11628f55a4df523b3ef9190a4565b602485634e487b7160e01b81526011600452fd5b606460405162461bcd60e51b815260206004820152601c60248201527f43616d706169676e3a20436f756c64206e6f74207472616e73666572000000006044820152fd5b608460405162461bcd60e51b8152602060048201526024808201527f4552433732313a207472616e7366657220746f20746865207a65726f2061646460448201527f72657373000000000000000000000000000000000000000000000000000000006064820152fd5b608460405162461bcd60e51b815260206004820152602560248201527f4552433732313a207472616e736665722066726f6d20696e636f72726563742060448201527f6f776e65720000000000000000000000000000000000000000000000000000006064820152fd5b3d15613ad5573d90613abb826134a1565b91613ac9604051938461347e565b82523d6000602084013e565b606090565b9091600091803b15613c6757613b466020916001600160a01b0393856040519586809581947f150b7a02000000000000000000000000000000000000000000000000000000009b8c845233600485015285602485015260448401526080606484015260848301906131cf565b0393165af190829082613c00575b5050613bda57613b62613aaa565b80519081613bd55760405162461bcd60e51b815260206004820152603260248201527f4552433732313a207472616e7366657220746f206e6f6e20455243373231526560448201527f63656976657220696d706c656d656e74657200000000000000000000000000006064820152608490fd5b602001fd5b7fffffffff00000000000000000000000000000000000000000000000000000000161490565b909192506020813d8211613c5f575b81613c1c6020938361347e565b81010312613c5b5751907fffffffff0000000000000000000000000000000000000000000000000000000082168203613c585750903880613b54565b80fd5b5080fd5b3d9150613c0f565b50505050600190565b91926000929190813b15613ce057602091613b4691856040519586809581947f150b7a02000000000000000000000000000000000000000000000000000000009b8c84523360048501526001600160a01b03809516602485015260448401526080606484015260848301906131cf565b5050505050600190565b601f8111613cf6575050565b60009060cc82527f47197230e1e4b29fc0bd84d7d78966c0925452aff72a2a121538b102457e9ebe906020601f850160051c83019410613d51575b601f0160051c01915b828110613d4657505050565b818155600101613d3a565b9092508290613d31565b6001600160a01b031690604051613d718161342a565b6020928382527f5361666545524332303a206c6f772d6c6576656c2063616c6c206661696c656484830152803b15613e635790613dc69160008481959282888195519301915af1613dc0613aaa565b90613ea7565b805180613dd35750505050565b81849181010312613c5b5782015190811591821503613c585750613df9578080806133c0565b6084906040519062461bcd60e51b82526004820152602a60248201527f5361666545524332303a204552433230206f7065726174696f6e20646964206e60448201527f6f742073756363656564000000000000000000000000000000000000000000006064820152fd5b6064846040519062461bcd60e51b82526004820152601d60248201527f416464726573733a2063616c6c20746f206e6f6e2d636f6e74726163740000006044820152fd5b90919015613eb3575090565b815115613ec35750805190602001fd5b6137f39060405191829162461bcd60e51b83526020600484015260248301906131cf565b6000198114611f3c5760010190565b9190811015613f065760051b0190565b634e487b7160e01b600052603260045260246000fd5b62030d40908060001904821181151516611f3c570290565b620186a0908060001904821181151516611f3c570290565b8060001904603c1181151516611f3c57603c0290565b8060001904601e1181151516611f3c57601e0290565b8060001904821181151516611f3c570290565b8115613f95570490565b634e487b7160e01b600052601260045260246000fd5b6000606060cd54613fc660ce54916120b960cf548094613f78565b421115613fee57505050604051906000602083015260208252613fe88261342a565b60019190565b613ffe9060d09492939454613870565b421161400657565b915050604051906001602083015260208252613fe88261342a565b8051156141c257604051906060820182811067ffffffffffffffff82111761067a57604052604082527f4142434445464748494a4b4c4d4e4f505152535455565758595a61626364656660208301527f6768696a6b6c6d6e6f707172737475767778797a303132333435363738392b2f60408301528051907ffffffffffffffffffffffffffffffffffffffffffffffffffffffffffffffffd8211611f3c57600390816002809401046001907f3fffffffffffffffffffffffffffffffffffffffffffffffffffffffffffffff81118216611f3c57841b94939061411d614107876134a1565b96614115604051988961347e565b8088526134a1565b601f1960208801910136823794839284518501935b84811061417157505050505051068060011461415e57600214614153575090565b600019603d91015390565b5060011981603d60001981940153015390565b866004919892939495980191858351603f9082828260121c16890101518453828282600c1c16890101518385015382828260061c168901015187850153168601015188820153019693929190614132565b506040516141cf81613446565b6000815290565b60ff60cb541660059081811015612028576004809103614284575b505060407f7cb904b3cfc4c896696085c26766cebf2de422ae3864a0112b5e2fd9ec1efaf891600081815260db602052600183822001541560001461426557805b614249826001600160a01b0360c9541633906144c5565b82815260db6020526001848220015582519182526020820152a1565b61427e600184832001546120b960d65460d95490613f8b565b90614232565b60cd939193549261429f60ce946120b9865460cf5490613f78565b4211156144815760d29081549160d99283556000945b81548610156143f95760005b87548110156143ec5780600052602060da81526040806000208960005282526107146142f582600020835192838092613393565b511561430b57505061430690613ee7565b6142c1565b90915087600098939594985260db80835260019061433a82846000200154611ea7620f424080611e7584613f1c565b61434760d6918254613870565b90558460005283526000818382200155816000208b60ff1982541617905586549081106143d757600019018655518281526143cf92917f939e6ef49701507f032296ab644b4aebf199222450de6622bb5f9550c7a7820991a17f8990a2cca2ad5b32ae72395c0db570652316a7903178764820232d8fe5d2b3556020604051838152a1613ee7565b9490916142b5565b601188634e487b7160e01b6000525260246000fd5b509190946143cf90611f07565b96505091907f7cb904b3cfc4c896696085c26766cebf2de422ae3864a0112b5e2fd9ec1efaf89450604093505415614466575b60ff1960cb54161760cb557f7069a5d4cbf1f64db906d1dd29276702df7e9c795ef1746d7a1ca5449c4893f160208351338152a1916141f1565b61447460d65460d854613870565b60d855600060d65561442c565b60648260206040519162461bcd60e51b8352820152601360248201527f43616d706169676e3a206e6f7420656e646564000000000000000000000000006044820152fd5b614518926001600160a01b03604051937fa9059cbb00000000000000000000000000000000000000000000000000000000602086015216602484015260448301526044825261451382613462565b613d5b565b565b7f7a1c31090abe490bfd8379cbbaeef735a3e3c87ee34925f16d0fa3ff4e061155606060d754600060d7556145be6001600160a01b03614560838260c9541633906144c5565b60c9541660d85490604051917fa9059cbb00000000000000000000000000000000000000000000000000000000602084015273d8da6bf26964af9d7eed9e03e53415d37aa96045602484015260448301526044825261451382613462565b60d8546040519133835260208301526040820152a1565b60d05460cf54906145e68282613870565b421161466b575b505060d1547fb33a1f54dde4e0082c45281b338d78b2c4b5be163b6ffffa5d0d6d1050ba5a586020604051838152a160ce54111561462757565b606460405162461bcd60e51b815260206004820152601d60248201527f43616d706169676e3a20636865636b45706f636820746f6f206c6174650000006044820152fd5b6120b98261468561469a946146808542613865565b613f8b565b906146928260d154613870565b60d155613f78565b60d05538806145ed565b6146ad906136ac565b6001600160a01b03339116036146bf57565b606460405162461bcd60e51b815260206004820152601a60248201527f43616d706169676e3a206e6f7420746f6b656e20686f6c6465720000000000006044820152fd5b60005260db60205260ff6040600020541660078110156120285760030361472657565b606460405162461bcd60e51b815260206004820152601660248201527f43616d706169676e3a206e6f742061646d6974746564000000000000000000006044820152fd5b60d354111561477557565b606460405162461bcd60e51b815260206004820152601a60248201527f4368616c6c656e67655265636f72643a206e6f742065786973740000000000006044820152fd5b60cd544210156147c557565b606460405162461bcd60e51b815260206004820152601960248201527f43616d706169676e3a20616c72656164792073746172746564000000000000006044820152fd5b60cd54421061481457565b606460405162461bcd60e51b815260206004820152601360248201527f43616d706169676e3a206e6f74207374617274000000000000000000000000006044820152fd5b60d35460d4540361486557565b606460405162461bcd60e51b815260206004820152601960248201527f4368616c6c656e67653a206e6f7420616c6c206a7564676564000000000000006044820152fd5b60d55460646148b960d254613f62565b04116148c157565b606460405162461bcd60e51b815260206004820152601c60248201527f43616d706169676e3a206e6f7420656e6f7567682063686561746572000000006044820152fdfea26469706673582212204e0612d07f47b6b00ed853f7fcd27ac69c6a71b40d1d577403f9f4a38aba633864736f6c634300080f0033",
  "devdoc": {
    "details": "for implementation of erc1167 implementation",
    "kind": "dev",
    "methods": {
      "admit(uint256[])": {
        "details": "campaign owner admit several address to participate this campaign",
        "params": {
          "allowlists": "allowed tokenId array"
        }
      },
      "approve(address,uint256)": {
        "details": "See {IERC721-approve}."
      },
      "balanceOf(address)": {
        "details": "See {IERC721-balanceOf}."
      },
      "checkIn(string,uint256)": {
        "details": "user check in",
        "params": {
          "contentUri": "string of ipfs uri or other decentralize storage"
        }
      },
      "claim(uint256)": {
        "details": "user claim reward after campaign settled"
      },
      "claimAndWithdraw(uint256)": {
        "details": "host who participate the campaign claim reward and withdraw host reward"
      },
      "getApproved(uint256)": {
        "details": "See {IERC721-getApproved}."
      },
      "getTokenProperties(uint256)": {
        "details": "read Token properties"
      },
      "isApprovedForAll(address,address)": {
        "details": "See {IERC721-isApprovedForAll}."
      },
      "modifyRegistry(uint256[],bool[])": {
        "details": "once campaign owner admit some address by mistakecan modify via this function but more gas-expensive",
        "params": {
          "lists": "modified tokenId list array",
          "targetStatuses": "corresponding status array"
        }
      },
      "name()": {
        "details": "See {IERC721Metadata-name}."
      },
      "owner()": {
        "details": "Returns the address of the current owner."
      },
      "ownerOf(uint256)": {
        "details": "See {IERC721-ownerOf}."
      },
      "performUpkeep(bytes)": {
        "details": "The input to this method should not be trusted, and the caller of the method should not even be restricted to any single registry. Anyone should be able call it, and the input should be validated, there is no guarantee that the data passed in is the performData returned from checkUpkeep. This could happen due to malicious keepers, racing keepers, or simply a state change while the performUpkeep transaction is waiting for confirmation. Always validate the data passed in.",
        "params": {
          "performData": "is the data which was passed back from the checkData simulation. If it is encoded, it can easily be decoded into other types by calling `abi.decode`. This data should not be trusted, and should be validated against the contract's current state."
        }
      },
      "renounceOwnership()": {
        "details": "Leaves the contract without owner. It will not be possible to call `onlyOwner` functions anymore. Can only be called by the current owner. NOTE: Renouncing ownership will leave the contract without an owner, thereby removing any functionality that is only available to the owner."
      },
      "safeTransferFrom(address,address,uint256)": {
        "details": "See {IERC721-safeTransferFrom}."
      },
      "safeTransferFrom(address,address,uint256,bytes)": {
        "details": "See {IERC721-safeTransferFrom}."
      },
      "setApprovalForAll(address,bool)": {
        "details": "See {IERC721-setApprovalForAll}."
      },
      "settle()": {
        "details": "everyone can call the function to settle reward"
      },
      "signUp()": {
        "details": "user stake token and want to participate this campaign"
      },
      "supportsInterface(bytes4)": {
        "details": "See {IERC165-supportsInterface}."
      },
      "symbol()": {
        "details": "See {IERC721Metadata-symbol}."
      },
      "tokenURI(uint256)": {
        "details": "See {IERC721Metadata-tokenURI}."
      },
      "transferFrom(address,address,uint256)": {
        "details": "See {IERC721-transferFrom}."
      },
      "transferOwnership(address)": {
        "details": "Transfers ownership of the contract to a new account (`newOwner`). Can only be called by the current owner."
      },
      "withdraw()": {
        "details": "host withdraw host reward"
      }
    },
    "version": 1
  },
  "userdoc": {
    "kind": "user",
    "methods": {
      "performUpkeep(bytes)": {
        "notice": "method that is actually executed by the keepers, via the registry. The data returned by the checkUpkeep simulation will be passed into this method to actually be executed."
      }
    },
    "version": 1
  },
  "storageLayout": {
    "storage": [
      {
        "astId": 464,
        "contract": "contracts/Campaign.sol:Campaign",
        "label": "_initialized",
        "offset": 0,
        "slot": "0",
        "type": "t_uint8"
      },
      {
        "astId": 467,
        "contract": "contracts/Campaign.sol:Campaign",
        "label": "_initializing",
        "offset": 1,
        "slot": "0",
        "type": "t_bool"
      },
      {
        "astId": 2340,
        "contract": "contracts/Campaign.sol:Campaign",
        "label": "__gap",
        "offset": 0,
        "slot": "1",
        "type": "t_array(t_uint256)50_storage"
      },
      {
        "astId": 336,
        "contract": "contracts/Campaign.sol:Campaign",
        "label": "_owner",
        "offset": 0,
        "slot": "51",
        "type": "t_address"
      },
      {
        "astId": 456,
        "contract": "contracts/Campaign.sol:Campaign",
        "label": "__gap",
        "offset": 0,
        "slot": "52",
        "type": "t_array(t_uint256)49_storage"
      },
      {
        "astId": 2610,
        "contract": "contracts/Campaign.sol:Campaign",
        "label": "__gap",
        "offset": 0,
        "slot": "101",
        "type": "t_array(t_uint256)50_storage"
      },
      {
        "astId": 1032,
        "contract": "contracts/Campaign.sol:Campaign",
        "label": "_name",
        "offset": 0,
        "slot": "151",
        "type": "t_string_storage"
      },
      {
        "astId": 1034,
        "contract": "contracts/Campaign.sol:Campaign",
        "label": "_symbol",
        "offset": 0,
        "slot": "152",
        "type": "t_string_storage"
      },
      {
        "astId": 1038,
        "contract": "contracts/Campaign.sol:Campaign",
        "label": "_owners",
        "offset": 0,
        "slot": "153",
        "type": "t_mapping(t_uint256,t_address)"
      },
      {
        "astId": 1042,
        "contract": "contracts/Campaign.sol:Campaign",
        "label": "_balances",
        "offset": 0,
        "slot": "154",
        "type": "t_mapping(t_address,t_uint256)"
      },
      {
        "astId": 1046,
        "contract": "contracts/Campaign.sol:Campaign",
        "label": "_tokenApprovals",
        "offset": 0,
        "slot": "155",
        "type": "t_mapping(t_uint256,t_address)"
      },
      {
        "astId": 1052,
        "contract": "contracts/Campaign.sol:Campaign",
        "label": "_operatorApprovals",
        "offset": 0,
        "slot": "156",
        "type": "t_mapping(t_address,t_mapping(t_address,t_bool))"
      },
      {
        "astId": 1894,
        "contract": "contracts/Campaign.sol:Campaign",
        "label": "__gap",
        "offset": 0,
        "slot": "157",
        "type": "t_array(t_uint256)44_storage"
      },
      {
        "astId": 4003,
        "contract": "contracts/Campaign.sol:Campaign",
        "label": "targetToken",
        "offset": 0,
        "slot": "201",
        "type": "t_contract(IERC20Upgradeable)686"
      },
      {
        "astId": 4005,
        "contract": "contracts/Campaign.sol:Campaign",
        "label": "requiredAmount",
        "offset": 0,
        "slot": "202",
        "type": "t_uint256"
      },
      {
        "astId": 4009,
        "contract": "contracts/Campaign.sol:Campaign",
        "label": "status",
        "offset": 0,
        "slot": "203",
        "type": "t_enum(CampaignStatus)6614"
      },
      {
        "astId": 4011,
        "contract": "contracts/Campaign.sol:Campaign",
        "label": "campaignUri",
        "offset": 0,
        "slot": "204",
        "type": "t_string_storage"
      },
      {
        "astId": 4013,
        "contract": "contracts/Campaign.sol:Campaign",
        "label": "startTime",
        "offset": 0,
        "slot": "205",
        "type": "t_uint256"
      },
      {
        "astId": 4016,
        "contract": "contracts/Campaign.sol:Campaign",
        "label": "totalEpochsCount",
        "offset": 0,
        "slot": "206",
        "type": "t_uint256"
      },
      {
        "astId": 4019,
        "contract": "contracts/Campaign.sol:Campaign",
        "label": "period",
        "offset": 0,
        "slot": "207",
        "type": "t_uint256"
      },
      {
        "astId": 4021,
        "contract": "contracts/Campaign.sol:Campaign",
        "label": "lastEpochEndTime",
        "offset": 0,
        "slot": "208",
        "type": "t_uint256"
      },
      {
        "astId": 4024,
        "contract": "contracts/Campaign.sol:Campaign",
        "label": "currentEpoch",
        "offset": 0,
        "slot": "209",
        "type": "t_uint256"
      },
      {
        "astId": 4026,
        "contract": "contracts/Campaign.sol:Campaign",
        "label": "_idx",
        "offset": 0,
        "slot": "210",
        "type": "t_uint256"
      },
      {
        "astId": 4028,
        "contract": "contracts/Campaign.sol:Campaign",
        "label": "_challengeIdx",
        "offset": 0,
        "slot": "211",
        "type": "t_uint256"
      },
      {
        "astId": 4030,
        "contract": "contracts/Campaign.sol:Campaign",
        "label": "challengeJudgedCount",
        "offset": 0,
        "slot": "212",
        "type": "t_uint256"
      },
      {
        "astId": 4032,
        "contract": "contracts/Campaign.sol:Campaign",
        "label": "cheatCount",
        "offset": 0,
        "slot": "213",
        "type": "t_uint256"
      },
      {
        "astId": 4034,
        "contract": "contracts/Campaign.sol:Campaign",
        "label": "sharedReward",
        "offset": 0,
        "slot": "214",
        "type": "t_uint256"
      },
      {
        "astId": 4036,
        "contract": "contracts/Campaign.sol:Campaign",
        "label": "hostReward",
        "offset": 0,
        "slot": "215",
        "type": "t_uint256"
      },
      {
        "astId": 4038,
        "contract": "contracts/Campaign.sol:Campaign",
        "label": "protocolFee",
        "offset": 0,
        "slot": "216",
        "type": "t_uint256"
      },
      {
        "astId": 4040,
        "contract": "contracts/Campaign.sol:Campaign",
        "label": "successTokensCount",
        "offset": 0,
        "slot": "217",
        "type": "t_uint256"
      },
      {
        "astId": 4047,
        "contract": "contracts/Campaign.sol:Campaign",
        "label": "records",
        "offset": 0,
        "slot": "218",
        "type": "t_mapping(t_uint256,t_mapping(t_uint256,t_struct(Record)6951_storage))"
      },
      {
        "astId": 4052,
        "contract": "contracts/Campaign.sol:Campaign",
        "label": "s_properties",
        "offset": 0,
        "slot": "219",
        "type": "t_mapping(t_uint256,t_struct(TokenProperty)6940_storage)"
      },
      {
        "astId": 4059,
        "contract": "contracts/Campaign.sol:Campaign",
        "label": "voters",
        "offset": 0,
        "slot": "220",
        "type": "t_mapping(t_uint256,t_mapping(t_uint256,t_struct(Voter)6915_storage))"
      },
      {
        "astId": 4064,
        "contract": "contracts/Campaign.sol:Campaign",
        "label": "challengeRecords",
        "offset": 0,
        "slot": "221",
        "type": "t_mapping(t_uint256,t_struct(ChallengeRecord)6934_storage)"
      }
    ],
    "types": {
      "t_address": {
        "encoding": "inplace",
        "label": "address",
        "numberOfBytes": "20"
      },
      "t_array(t_uint256)44_storage": {
        "base": "t_uint256",
        "encoding": "inplace",
        "label": "uint256[44]",
        "numberOfBytes": "1408"
      },
      "t_array(t_uint256)49_storage": {
        "base": "t_uint256",
        "encoding": "inplace",
        "label": "uint256[49]",
        "numberOfBytes": "1568"
      },
      "t_array(t_uint256)50_storage": {
        "base": "t_uint256",
        "encoding": "inplace",
        "label": "uint256[50]",
        "numberOfBytes": "1600"
      },
      "t_bool": {
        "encoding": "inplace",
        "label": "bool",
        "numberOfBytes": "1"
      },
      "t_contract(IERC20Upgradeable)686": {
        "encoding": "inplace",
        "label": "contract IERC20Upgradeable",
        "numberOfBytes": "20"
      },
      "t_enum(CampaignStatus)6614": {
        "encoding": "inplace",
        "label": "enum Consts.CampaignStatus",
        "numberOfBytes": "1"
      },
      "t_enum(TokenStatus)6948": {
        "encoding": "inplace",
        "label": "enum ICampaign.TokenStatus",
        "numberOfBytes": "1"
      },
      "t_mapping(t_address,t_bool)": {
        "encoding": "mapping",
        "key": "t_address",
        "label": "mapping(address => bool)",
        "numberOfBytes": "32",
        "value": "t_bool"
      },
      "t_mapping(t_address,t_mapping(t_address,t_bool))": {
        "encoding": "mapping",
        "key": "t_address",
        "label": "mapping(address => mapping(address => bool))",
        "numberOfBytes": "32",
        "value": "t_mapping(t_address,t_bool)"
      },
      "t_mapping(t_address,t_uint256)": {
        "encoding": "mapping",
        "key": "t_address",
        "label": "mapping(address => uint256)",
        "numberOfBytes": "32",
        "value": "t_uint256"
      },
      "t_mapping(t_uint256,t_address)": {
        "encoding": "mapping",
        "key": "t_uint256",
        "label": "mapping(uint256 => address)",
        "numberOfBytes": "32",
        "value": "t_address"
      },
      "t_mapping(t_uint256,t_mapping(t_uint256,t_struct(Record)6951_storage))": {
        "encoding": "mapping",
        "key": "t_uint256",
        "label": "mapping(uint256 => mapping(uint256 => struct ICampaign.Record))",
        "numberOfBytes": "32",
        "value": "t_mapping(t_uint256,t_struct(Record)6951_storage)"
      },
      "t_mapping(t_uint256,t_mapping(t_uint256,t_struct(Voter)6915_storage))": {
        "encoding": "mapping",
        "key": "t_uint256",
        "label": "mapping(uint256 => mapping(uint256 => struct ICampaign.Voter))",
        "numberOfBytes": "32",
        "value": "t_mapping(t_uint256,t_struct(Voter)6915_storage)"
      },
      "t_mapping(t_uint256,t_struct(ChallengeRecord)6934_storage)": {
        "encoding": "mapping",
        "key": "t_uint256",
        "label": "mapping(uint256 => struct ICampaign.ChallengeRecord)",
        "numberOfBytes": "32",
        "value": "t_struct(ChallengeRecord)6934_storage"
      },
      "t_mapping(t_uint256,t_struct(Record)6951_storage)": {
        "encoding": "mapping",
        "key": "t_uint256",
        "label": "mapping(uint256 => struct ICampaign.Record)",
        "numberOfBytes": "32",
        "value": "t_struct(Record)6951_storage"
      },
      "t_mapping(t_uint256,t_struct(TokenProperty)6940_storage)": {
        "encoding": "mapping",
        "key": "t_uint256",
        "label": "mapping(uint256 => struct ICampaign.TokenProperty)",
        "numberOfBytes": "32",
        "value": "t_struct(TokenProperty)6940_storage"
      },
      "t_mapping(t_uint256,t_struct(Voter)6915_storage)": {
        "encoding": "mapping",
        "key": "t_uint256",
        "label": "mapping(uint256 => struct ICampaign.Voter)",
        "numberOfBytes": "32",
        "value": "t_struct(Voter)6915_storage"
      },
      "t_string_storage": {
        "encoding": "bytes",
        "label": "string",
        "numberOfBytes": "32"
      },
      "t_struct(ChallengeRecord)6934_storage": {
        "encoding": "inplace",
        "label": "struct ICampaign.ChallengeRecord",
        "members": [
          {
            "astId": 6917,
            "contract": "contracts/Campaign.sol:Campaign",
            "label": "challengerId",
            "offset": 0,
            "slot": "0",
            "type": "t_uint256"
          },
          {
            "astId": 6919,
            "contract": "contracts/Campaign.sol:Campaign",
            "label": "cheaterId",
            "offset": 0,
            "slot": "1",
            "type": "t_uint256"
          },
          {
            "astId": 6921,
            "contract": "contracts/Campaign.sol:Campaign",
            "label": "epoch",
            "offset": 0,
            "slot": "2",
            "type": "t_uint256"
          },
          {
            "astId": 6923,
            "contract": "contracts/Campaign.sol:Campaign",
            "label": "agreeCount",
            "offset": 0,
            "slot": "3",
            "type": "t_uint256"
          },
          {
            "astId": 6925,
            "contract": "contracts/Campaign.sol:Campaign",
            "label": "disagreeCount",
            "offset": 0,
            "slot": "4",
            "type": "t_uint256"
          },
          {
            "astId": 6927,
            "contract": "contracts/Campaign.sol:Campaign",
            "label": "challengeRiseTime",
            "offset": 0,
            "slot": "5",
            "type": "t_uint256"
          },
          {
            "astId": 6929,
            "contract": "contracts/Campaign.sol:Campaign",
            "label": "result",
            "offset": 0,
            "slot": "6",
            "type": "t_bool"
          },
          {
            "astId": 6931,
            "contract": "contracts/Campaign.sol:Campaign",
            "label": "state",
            "offset": 1,
            "slot": "6",
            "type": "t_bool"
          },
          {
            "astId": 6933,
            "contract": "contracts/Campaign.sol:Campaign",
            "label": "legal",
            "offset": 2,
            "slot": "6",
            "type": "t_bool"
          }
        ],
        "numberOfBytes": "224"
      },
      "t_struct(Record)6951_storage": {
        "encoding": "inplace",
        "label": "struct ICampaign.Record",
        "members": [
          {
            "astId": 6950,
            "contract": "contracts/Campaign.sol:Campaign",
            "label": "contentUri",
            "offset": 0,
            "slot": "0",
            "type": "t_string_storage"
          }
        ],
        "numberOfBytes": "32"
      },
      "t_struct(TokenProperty)6940_storage": {
        "encoding": "inplace",
        "label": "struct ICampaign.TokenProperty",
        "members": [
          {
            "astId": 6937,
            "contract": "contracts/Campaign.sol:Campaign",
            "label": "tokenStatus",
            "offset": 0,
            "slot": "0",
            "type": "t_enum(TokenStatus)6948"
          },
          {
            "astId": 6939,
            "contract": "contracts/Campaign.sol:Campaign",
            "label": "pendingReward",
            "offset": 0,
            "slot": "1",
            "type": "t_uint256"
          }
        ],
        "numberOfBytes": "64"
      },
      "t_struct(Voter)6915_storage": {
        "encoding": "inplace",
        "label": "struct ICampaign.Voter",
        "members": [
          {
            "astId": 6912,
            "contract": "contracts/Campaign.sol:Campaign",
            "label": "voted",
            "offset": 0,
            "slot": "0",
            "type": "t_bool"
          },
          {
            "astId": 6914,
            "contract": "contracts/Campaign.sol:Campaign",
            "label": "choice",
            "offset": 1,
            "slot": "0",
            "type": "t_bool"
          }
        ],
        "numberOfBytes": "32"
      },
      "t_uint256": {
        "encoding": "inplace",
        "label": "uint256",
        "numberOfBytes": "32"
      },
      "t_uint8": {
        "encoding": "inplace",
        "label": "uint8",
        "numberOfBytes": "1"
      }
    }
  }
}