{
  "address": "0x24D9c4C6628D0e32Ab4861A0027B7c2a606D6ee1",
  "abi": [
    {
      "inputs": [],
      "name": "OnlySimulatedBackend",
      "type": "error"
    },
    {
      "anonymous": false,
      "inputs": [
        {
          "indexed": false,
          "internalType": "address",
          "name": "previousAdmin",
          "type": "address"
        },
        {
          "indexed": false,
          "internalType": "address",
          "name": "newAdmin",
          "type": "address"
        }
      ],
      "name": "AdminChanged",
      "type": "event"
    },
    {
      "anonymous": false,
      "inputs": [
        {
          "indexed": true,
          "internalType": "address",
          "name": "beacon",
          "type": "address"
        }
      ],
      "name": "BeaconUpgraded",
      "type": "event"
    },
    {
      "anonymous": false,
      "inputs": [
        {
          "indexed": false,
          "internalType": "address",
          "name": "campaign",
          "type": "address"
        }
      ],
      "name": "CampaignUpKeepCancelled",
      "type": "event"
    },
    {
      "anonymous": false,
      "inputs": [
        {
          "indexed": false,
          "internalType": "address",
          "name": "campaign",
          "type": "address"
        },
        {
          "indexed": false,
          "internalType": "uint256",
          "name": "upkeepID",
          "type": "uint256"
        }
      ],
      "name": "CampaignUpKeepRegistered",
      "type": "event"
    },
    {
      "anonymous": false,
      "inputs": [
        {
          "indexed": false,
          "internalType": "address",
          "name": "campaign",
          "type": "address"
        }
      ],
      "name": "CampaignUpKeepWithdrawal",
      "type": "event"
    },
    {
      "anonymous": false,
      "inputs": [
        {
          "indexed": true,
          "internalType": "address",
          "name": "host",
          "type": "address"
        },
        {
          "indexed": true,
          "internalType": "address",
          "name": "campaignAddress",
          "type": "address"
        }
      ],
      "name": "EvCampaignCreated",
      "type": "event"
    },
    {
      "anonymous": false,
      "inputs": [
        {
          "indexed": false,
          "internalType": "contract ICampaign",
          "name": "newImplementation",
          "type": "address"
        }
      ],
      "name": "EvCampaignUpdated",
      "type": "event"
    },
    {
      "anonymous": false,
      "inputs": [
        {
          "indexed": true,
          "internalType": "contract IERC20Upgradeable",
          "name": "token",
          "type": "address"
        },
        {
          "indexed": false,
          "internalType": "uint256",
          "name": "maxAmount",
          "type": "uint256"
        }
      ],
      "name": "EvWhiteTokenSet",
      "type": "event"
    },
    {
      "anonymous": false,
      "inputs": [
        {
          "indexed": true,
          "internalType": "address",
          "name": "user",
          "type": "address"
        },
        {
          "indexed": false,
          "internalType": "bool",
          "name": "status",
          "type": "bool"
        }
      ],
      "name": "EvWhiteUserSet",
      "type": "event"
    },
    {
      "anonymous": false,
      "inputs": [
        {
          "indexed": false,
          "internalType": "uint8",
          "name": "version",
          "type": "uint8"
        }
      ],
      "name": "Initialized",
      "type": "event"
    },
    {
      "anonymous": false,
      "inputs": [
        {
          "indexed": true,
          "internalType": "address",
          "name": "previousOwner",
          "type": "address"
        },
        {
          "indexed": true,
          "internalType": "address",
          "name": "newOwner",
          "type": "address"
        }
      ],
      "name": "OwnershipTransferred",
      "type": "event"
    },
    {
      "anonymous": false,
      "inputs": [
        {
          "indexed": true,
          "internalType": "address",
          "name": "implementation",
          "type": "address"
        }
      ],
      "name": "Upgraded",
      "type": "event"
    },
    {
      "inputs": [
        {
          "internalType": "uint256",
          "name": "",
          "type": "uint256"
        }
      ],
      "name": "OnGoingCampaigns",
      "outputs": [
        {
          "internalType": "address",
          "name": "",
          "type": "address"
        }
      ],
      "stateMutability": "view",
      "type": "function"
    },
    {
      "inputs": [
        {
          "internalType": "address",
          "name": "campaign",
          "type": "address"
        }
      ],
      "name": "cancelUpKeep",
      "outputs": [],
      "stateMutability": "nonpayable",
      "type": "function"
    },
    {
      "inputs": [
        {
          "internalType": "bytes",
          "name": "",
          "type": "bytes"
        }
      ],
      "name": "checkUpkeep",
      "outputs": [
        {
          "internalType": "bool",
          "name": "upkeepNeeded",
          "type": "bool"
        },
        {
          "internalType": "bytes",
          "name": "performData",
          "type": "bytes"
        }
      ],
      "stateMutability": "view",
      "type": "function"
    },
    {
      "inputs": [
        {
          "internalType": "contract IERC20Upgradeable",
          "name": "token",
          "type": "address"
        },
        {
          "internalType": "uint256",
          "name": "amount",
          "type": "uint256"
        },
        {
          "internalType": "string",
          "name": "name",
          "type": "string"
        },
        {
          "internalType": "string",
          "name": "symbol",
          "type": "string"
        },
        {
          "internalType": "uint256",
          "name": "startTime",
          "type": "uint256"
        },
        {
          "internalType": "uint256",
          "name": "totalPeriod",
          "type": "uint256"
        },
        {
          "internalType": "uint256",
          "name": "periodLength",
          "type": "uint256"
        },
        {
          "internalType": "string",
          "name": "campaignUri",
          "type": "string"
        },
        {
          "internalType": "bytes",
          "name": "zero",
          "type": "bytes"
        }
      ],
      "name": "createCampaign",
      "outputs": [
        {
          "internalType": "address",
          "name": "campaign",
          "type": "address"
        }
      ],
      "stateMutability": "nonpayable",
      "type": "function"
    },
    {
      "inputs": [],
      "name": "i_campaign",
      "outputs": [
        {
          "internalType": "contract ICampaign",
          "name": "",
          "type": "address"
        }
      ],
      "stateMutability": "view",
      "type": "function"
    },
    {
      "inputs": [],
      "name": "i_link",
      "outputs": [
        {
          "internalType": "contract LinkTokenInterface",
          "name": "",
          "type": "address"
        }
      ],
      "stateMutability": "view",
      "type": "function"
    },
    {
      "inputs": [],
      "name": "i_registry",
      "outputs": [
        {
          "internalType": "contract AutomationRegistryInterface",
          "name": "",
          "type": "address"
        }
      ],
      "stateMutability": "view",
      "type": "function"
    },
    {
      "inputs": [
        {
          "internalType": "contract ICampaign",
          "name": "campaign_",
          "type": "address"
        },
        {
          "internalType": "contract LinkTokenInterface",
          "name": "link_",
          "type": "address"
        },
        {
          "internalType": "address",
          "name": "registrar_",
          "type": "address"
        },
        {
          "internalType": "contract AutomationRegistryInterface",
          "name": "registry_",
          "type": "address"
        }
      ],
      "name": "initialize",
      "outputs": [],
      "stateMutability": "nonpayable",
      "type": "function"
    },
    {
      "inputs": [
        {
          "internalType": "address",
          "name": "",
          "type": "address"
        }
      ],
      "name": "keepUpRecords",
      "outputs": [
        {
          "internalType": "uint256",
          "name": "upKeepId",
          "type": "uint256"
        }
      ],
      "stateMutability": "view",
      "type": "function"
    },
    {
      "inputs": [
        {
          "internalType": "contract IERC20Upgradeable",
          "name": "token",
          "type": "address"
        },
        {
          "internalType": "uint256",
          "name": "amount",
          "type": "uint256"
        }
      ],
      "name": "modifyWhiteToken",
      "outputs": [],
      "stateMutability": "nonpayable",
      "type": "function"
    },
    {
      "inputs": [],
      "name": "owner",
      "outputs": [
        {
          "internalType": "address",
          "name": "",
          "type": "address"
        }
      ],
      "stateMutability": "view",
      "type": "function"
    },
    {
      "inputs": [
        {
          "internalType": "bytes",
          "name": "performData",
          "type": "bytes"
        }
      ],
      "name": "performUpkeep",
      "outputs": [],
      "stateMutability": "nonpayable",
      "type": "function"
    },
    {
      "inputs": [],
      "name": "proxiableUUID",
      "outputs": [
        {
          "internalType": "bytes32",
          "name": "",
          "type": "bytes32"
        }
      ],
      "stateMutability": "view",
      "type": "function"
    },
    {
      "inputs": [],
      "name": "registrar",
      "outputs": [
        {
          "internalType": "address",
          "name": "",
          "type": "address"
        }
      ],
      "stateMutability": "view",
      "type": "function"
    },
    {
      "inputs": [],
      "name": "renounceOwnership",
      "outputs": [],
      "stateMutability": "nonpayable",
      "type": "function"
    },
    {
      "inputs": [],
      "name": "saveOwnerInAdmin",
      "outputs": [],
      "stateMutability": "nonpayable",
      "type": "function"
    },
    {
      "inputs": [
        {
          "internalType": "address",
          "name": "campaign",
          "type": "address"
        },
        {
          "components": [
            {
              "internalType": "uint256",
              "name": "upKeepId",
              "type": "uint256"
            }
          ],
          "internalType": "struct CampaignFactoryStorage.UpKeepInfo",
          "name": "upKeepInfo",
          "type": "tuple"
        }
      ],
      "name": "setKeepUpRecords",
      "outputs": [],
      "stateMutability": "nonpayable",
      "type": "function"
    },
    {
      "inputs": [
        {
          "internalType": "address",
          "name": "newOwner",
          "type": "address"
        }
      ],
      "name": "transferOwnership",
      "outputs": [],
      "stateMutability": "nonpayable",
      "type": "function"
    },
    {
      "inputs": [
        {
          "internalType": "contract ICampaign",
          "name": "newImplementation",
          "type": "address"
        }
      ],
      "name": "updateCampaignImplementation",
      "outputs": [],
      "stateMutability": "nonpayable",
      "type": "function"
    },
    {
      "inputs": [
        {
          "internalType": "address",
          "name": "newImplementation",
          "type": "address"
        }
      ],
      "name": "upgradeTo",
      "outputs": [],
      "stateMutability": "nonpayable",
      "type": "function"
    },
    {
      "inputs": [
        {
          "internalType": "address",
          "name": "newImplementation",
          "type": "address"
        },
        {
          "internalType": "bytes",
          "name": "data",
          "type": "bytes"
        }
      ],
      "name": "upgradeToAndCall",
      "outputs": [],
      "stateMutability": "payable",
      "type": "function"
    },
    {
      "inputs": [
        {
          "internalType": "contract IERC20Upgradeable",
          "name": "",
          "type": "address"
        }
      ],
      "name": "whiteTokens",
      "outputs": [
        {
          "internalType": "uint256",
          "name": "",
          "type": "uint256"
        }
      ],
      "stateMutability": "view",
      "type": "function"
    },
    {
      "inputs": [
        {
          "internalType": "address",
          "name": "",
          "type": "address"
        }
      ],
      "name": "whiteUsers",
      "outputs": [
        {
          "internalType": "bool",
          "name": "",
          "type": "bool"
        }
      ],
      "stateMutability": "view",
      "type": "function"
    },
    {
      "inputs": [
        {
          "internalType": "address",
          "name": "campaign",
          "type": "address"
        }
      ],
      "name": "withdrawUpKeep",
      "outputs": [],
      "stateMutability": "nonpayable",
      "type": "function"
    }
  ],
  "transactionHash": "0x21f413d9ab30889cbaf6b7c65104f18d34e0d41fee7d1a3aa51e7d0e09c8f32c",
  "args": [],
  "numDeployments": 13,
  "solcInputHash": "71d604f67ae9a5b9b6d08d942d7d7a4c",
  "bytecode": "0x60a08060405234610031573060805261283d908161003782396080518181816113800152818161148e01526119c70152f35b600080fdfe608080604052600436101561001357600080fd5b600090813560e01c9081631307502c14611e4357508063144442e714611e0b5780631f70aa1c14611d665780632a66360614611d3f5780632b20e39714611d185780633659cfe6146119a05780634585e33b146117e35780634f1ef2861461143a57806352d1902d146113655780636e04ff0d146113065780636f93d620146112aa578063715018a61461123e57806377321c58146111c55780637d253aff1461119e57806380149449146110ee5780638a80d397146110aa5780638d3cb7e6146105ba5780638da5cb5b14610593578063af221bec1461056c578063aff4e79a14610534578063b33f9d38146104c5578063e32e8b3914610459578063f2fde38b146103b05763f8c8765e1461012957600080fd5b346103ad5760806003193601126103ad57610142611e7c565b602435906001600160a01b03908183168093036103a957604435908282168092036103a457606435918383168093036103a05760359485549460ff8660081c161595868097610393575b801561037c575b15610312578660017fffffffffffffffffffffffffffffffffffffffffffffffffffffffffffffff0083161789556102e4575b5073ffffffffffffffffffffffffffffffffffffffff199316836002541617600255826003541617600355816004541617600455600554161760055560ff825460081c161561027a576102183361206d565b610223575b50604051f35b7fffffffffffffffffffffffffffffffffffffffffffffffffffffffffffff00ff81541690557f7f26b83ff96e1f2b6a682f133852f6798a09c465da95921460cefb3847402498602060405160018152a13861021d565b608460405162461bcd60e51b815260206004820152602b60248201527f496e697469616c697a61626c653a20636f6e7472616374206973206e6f74206960448201527f6e697469616c697a696e670000000000000000000000000000000000000000006064820152fd5b7fffffffffffffffffffffffffffffffffffffffffffffffffffffffffffff000016610101178755386101c6565b608460405162461bcd60e51b815260206004820152602e60248201527f496e697469616c697a61626c653a20636f6e747261637420697320616c72656160448201527f647920696e697469616c697a65640000000000000000000000000000000000006064820152fd5b50303b1580156101935750600160ff821614610193565b50600160ff82161061018c565b8580fd5b600080fd5b8380fd5b80fd5b50346103ad5760206003193601126103ad576103ca611e7c565b6103d2612015565b6001600160a01b038116156103ef576103ea9061206d565b604051f35b608460405162461bcd60e51b815260206004820152602660248201527f4f776e61626c653a206e6577206f776e657220697320746865207a65726f206160448201527f64647265737300000000000000000000000000000000000000000000000000006064820152fd5b50346103ad5760406003193601126103ad57610473611e7c565b7f5f4c38db7b341414be18a675a08cd2c914f57fa3ac798db73bd0e0b5edc72c7660206001600160a01b03602435936104aa612015565b169283855260018252806040862055604051908152a2604051f35b50346103ad5760406003193601126103ad576104df611e7c565b60207fffffffffffffffffffffffffffffffffffffffffffffffffffffffffffffffdc360112610530576001600160a01b039061051a612015565b1681526006602052604081206024359055604051f35b5080fd5b50346103ad5760206003193601126103ad5760406020916001600160a01b0361055b611e7c565b168152600683522054604051908152f35b50346103ad57806003193601126103ad5760206001600160a01b0360025416604051908152f35b50346103ad57806003193601126103ad5760206001600160a01b0360685416604051908152f35b50346103ad576101206003193601126103ad576105d5611e7c565b9060443567ffffffffffffffff8111610530576105f6903690600401611ff7565b9160643567ffffffffffffffff8111610dfd57610617903690600401611ff7565b9260e43567ffffffffffffffff81116103a957610638903690600401611e92565b9190926101043567ffffffffffffffff81116103a05761065c903690600401611e92565b9490936001600160a01b038316875260016020526040872054602435116110665760843542101561102257602460206001600160a01b0360035416604051928380927f70a082310000000000000000000000000000000000000000000000000000000082523060048301525afa8015611017578890610fdd575b674563918244f40000915010610f995760025460405190602080830152601160408301527f53697379706875732050726f746f636f6c00000000000000000000000000000060608301526060825281608081011067ffffffffffffffff608084011117610f835760378261080060e882888f8f908a908e6bffffffffffffffffffffffff198f60806001600160a01b039e016040528751602089012060a08901523360601b60c089015260601b1660d4870152602435878701526107a58151809260206101088a019101611f66565b85016107bc82518093602061010885019101611f66565b60843581830161010881019190915260a43561012882015260c4356101488201526101689584918701370101918201520360c8810160808501520160808301611ef0565b60a06080820151910120916bffffffffffffffffffffffff19604051917f3d602d80600a3d3981f3363d3d373d3d3d363d73000000000000000000000000835260601b1660148201527f5af43d82803e903d91602b57fd5bf3000000000000000000000000000000000060288201528af516978815610f3f57883b15610f3b576001600160a01b03928894926108fa610925936108e8604051998a9889987f703064d1000000000000000000000000000000000000000000000000000000008a523360048b015216602489015260243560448901526101206064890152610124880190611f9b565b90600319878303016084880152611f9b565b9160843560a486015260a43560c486015260c43560e4860152600319858403016101048601526122a4565b038183895af18015610dc257908491610f27575b5050604051908461094983611ed4565b602a83526040366020850137825115610f135760306020840153825160011015610f13576078602184015360295b60018111610e7f5750610e3b576109d7602960405180947f536973797068757320000000000000000000000000000000000000000000000060208301526109c78151809260208686019101611f66565b8101036009810185520183611ef0565b6004846001600160a01b0360055416604051928380927f1865c57d0000000000000000000000000000000000000000000000000000000082525afa908115610e3057610b6f93610ab8602094610b0e948a948a91610e14575b505197610a90604051958692610a538a8501976101208952610140860190611f9b565b94610a6c601f19968787820301604088015283836122a4565b926060860152624c4b4060808601523060a0860152858584030160c08601526122a4565b674563918244f4000060e08301528a6101008301523061012083015203908101845283611ef0565b610b1e60246001600160a01b0360035416936001600160a01b0360045416936040519687927f3659d666000000000000000000000000000000000000000000000000000000008a85015251809285850190611f66565b8101036004810186520184611ef0565b866040518096819582947f4000aea00000000000000000000000000000000000000000000000000000000084526004840152674563918244f400006024840152606060448401526064830190611f9b565b03925af18015610e0957610dcd575b50600554906040517f1865c57d00000000000000000000000000000000000000000000000000000000815283816004816001600160a01b0387165afa908115610dc2578491610d9e575b5063ffffffff809151169082167ffffffffffffffffffffffffffffffffffffffffffffffffffffffffffffffffe8111610d8a5760010103610d465760014310610d32577fffffffff00000000000000000000000000000000000000000000000000000000604051916bffffffffffffffffffffffff196020840194600019430140865260601b16604084015260e01b16605482015260388152610c6b81611ed4565b51902091808252600660205282604083205560075468010000000000000000811015610d1e57604060209483610cc88460017ffd178b9cd7ae1f7ffcc324ed72b5af3040500c49285c4806240607e04a17dc419601600755611fc0565b819291549060031b6001600160a01b03811b9283911b1691191617905581519084825286820152a180604051927facd63640134021f2a0e3727cb386f37eff4877f03025952b4d5dd67f1d4c9ac3339185a38152f35b602483634e487b7160e01b81526041600452fd5b602483634e487b7160e01b81526011600452fd5b606460405162461bcd60e51b815260206004820152601560248201527f6175746f2d617070726f76652064697361626c656400000000000000000000006044820152fd5b602485634e487b7160e01b81526011600452fd5b610dba91503d8086833e610db28183611ef0565b810190612313565b505038610bc8565b6040513d86823e3d90fd5b6020813d602011610e01575b81610de660209383611ef0565b81010312610dfd5751801515036105305738610b7e565b8280fd5b3d9150610dd9565b6040513d85823e3d90fd5b610e2891503d808c833e610db28183611ef0565b505038610a30565b6040513d87823e3d90fd5b606460405162461bcd60e51b815260206004820152602060248201527f537472696e67733a20686578206c656e67746820696e73756666696369656e746044820152fd5b906010600f82161015610eff578351821015610ee9577f3031323334353637383961626364656600000000000000000000000000000000600f82161a6020838601015360041c908015610ed55760001901610977565b602486634e487b7160e01b81526011600452fd5b634e487b7160e01b600052603260045260246000fd5b602486634e487b7160e01b81526032600452fd5b602485634e487b7160e01b81526032600452fd5b610f3090611ec0565b610dfd578238610939565b8780fd5b606460405162461bcd60e51b815260206004820152601760248201527f455243313136373a2063726561746532206661696c65640000000000000000006044820152fd5b634e487b7160e01b600052604160045260246000fd5b606460405162461bcd60e51b815260206004820152601b60248201527f43616d706169676e463a206e6f7420656e6f75676820244c696e6b00000000006044820152fd5b506020813d60201161100f575b81610ff760209383611ef0565b81010312610f3b57674563918244f4000090516106d6565b3d9150610fea565b6040513d8a823e3d90fd5b606460405162461bcd60e51b815260206004820152601960248201527f43616d706169676e463a20737461727420746f6f20736f6f6e000000000000006044820152fd5b606460405162461bcd60e51b815260206004820152601c60248201527f43616d706169676e463a20616d6f756e742065786365656420636170000000006044820152fd5b50346103ad57806003193601126103ad576001600160a01b03606854167fb53127684a568b3173ae13b9f8a6016e243e63b6e8ee1178d6a717850b5d610355604051f35b50346103ad5760206003193601126103ad5780611109611e7c565b611111612015565b6001600160a01b0380600554169116825260066020526040822054813b1561119a5782916024839260405194859384927fc804802200000000000000000000000000000000000000000000000000000000845260048401525af1801561118f5761117b5750604051f35b61118490611ec0565b6103ad57803861021d565b6040513d84823e3d90fd5b5050fd5b50346103ad57806003193601126103ad5760206001600160a01b0360035416604051908152f35b50346103ad5760206003193601126103ad577f34cfd2cac352320b9ae72ade3c0ccf4835c60b5aeccc74380b9c78f0fd99ec4c60206001600160a01b0361120a611e7c565b611212612015565b168073ffffffffffffffffffffffffffffffffffffffff196002541617600255604051908152a1604051f35b50346103ad57806003193601126103ad57611257612015565b60685473ffffffffffffffffffffffffffffffffffffffff19811660685560006001600160a01b0360405192167f8be0079c531659141344cd1fd0a4f28419497f9722a3daafe3b4186f6b6457e08284a3f35b50346103ad5760206003193601126103ad57600435906007548210156103ad5760206001600160a01b038360076000527fa66cc928b5edb82af9bd49922954155ab7b0942694bea4ce44661d9a8736c688015416604051908152f35b50346103ad5760206003193601126103ad5760043567ffffffffffffffff811161053057611338903690600401611e92565b50506113426124f0565b9061136160405192839215158352604060208401526040830190611f9b565b0390f35b50346103ad57806003193601126103ad576001600160a01b037f00000000000000000000000000000000000000000000000000000000000000001630036113d05760206040517f360894a13ba1a3210667c828492db98dca3e2076cc3735a920a3ca505d382bbc8152f35b608460405162461bcd60e51b815260206004820152603860248201527f555550535570677261646561626c653a206d757374206e6f742062652063616c60448201527f6c6564207468726f7567682064656c656761746563616c6c00000000000000006064820152fd5b5060406003193601126103ad5761144f611e7c565b9060243567ffffffffffffffff8111610530573660238201121561053057611481903690602481600401359101611f2f565b916001600160a01b0392837f000000000000000000000000000000000000000000000000000000000000000016936114bb853014156120c4565b6114ea7f360894a13ba1a3210667c828492db98dca3e2076cc3735a920a3ca505d382bbc958287541614612135565b6114f2612015565b7f4910fdfa16fed3260ed0e7147f7cc6da11a60208b5b9406d12a635614ffd91435460ff16156115295750506103ea9192506121a6565b821691604051947f52d1902d0000000000000000000000000000000000000000000000000000000086526020958681600481885afa600091816117b4575b506115d6576084876040519062461bcd60e51b82526004820152602e60248201527f45524331393637557067726164653a206e657720696d706c656d656e7461746960448201527f6f6e206973206e6f7420555550530000000000000000000000000000000000006064820152fd5b0361174a576115e4816121a6565b604051927fbc7cd75a20ee27fd9adebab32041f755214dbc6bffa90cc0225b39da2e5c2d3b600085a2815115801590611742575b611627575b5050509050604051f35b61163083611ed4565b602783527f416464726573733a206c6f772d6c6576656c2064656c65676174652063616c6c858401527f206661696c6564000000000000000000000000000000000000000000000000006040840152803b156116d8576000828192876116c5979895519201905af43d156116cf573d6116a881611f13565b906116b66040519283611ef0565b8152600081933d92013e612260565b508038808061161d565b60609150612260565b6084856040519062461bcd60e51b82526004820152602660248201527f416464726573733a2064656c65676174652063616c6c20746f206e6f6e2d636f60448201527f6e747261637400000000000000000000000000000000000000000000000000006064820152fd5b506001611618565b6084856040519062461bcd60e51b82526004820152602960248201527f45524331393637557067726164653a20756e737570706f727465642070726f7860448201527f6961626c655555494400000000000000000000000000000000000000000000006064820152fd5b90918882813d83116117dc575b6117cb8183611ef0565b810103126103ad5750519038611567565b503d6117c1565b50346103ad57602080600319360112610530576004359067ffffffffffffffff8211610dfd576118196040923690600401611e92565b9080939181010312610dfd57828235926001600160a01b0390818516809503610dfd57830135806118e3575060055416838252600683526040822054813b15610dfd5782916024839260405194859384927fc804802200000000000000000000000000000000000000000000000000000000845260048401525af1801561118f576118cf575b50507faff860f486d079cb5c9e409ce38392d1b2bfbaf3feb98c17006cd1ec4e8a969191604051908152a1604051f35b6118d890611ec0565b610dfd57823861189f565b6001146118f4575b50505050604051f35b6005541683825260068352604082205490803b15610dfd576040517f744bfe61000000000000000000000000000000000000000000000000000000008152600481019290925230602483015282908290604490829084905af1801561118f5761198c575b50507f13115268ab8762c4f3ac567bf3b406763697b029819599563e47d083b3d3399e91604051908152a1388082816118eb565b61199590611ec0565b610dfd578238611958565b50346103ad57602090816003193601126103ad576119bc611e7c565b6001600160a01b03807f000000000000000000000000000000000000000000000000000000000000000016906119f4823014156120c4565b611a237f360894a13ba1a3210667c828492db98dca3e2076cc3735a920a3ca505d382bbc928284541614612135565b611a2b612015565b6040518581019181831067ffffffffffffffff841117610f83578260405285825260ff7f4910fdfa16fed3260ed0e7147f7cc6da11a60208b5b9406d12a635614ffd91435416600014611a8757505050506103ea9192506121a6565b84939416936040517f52d1902d0000000000000000000000000000000000000000000000000000000081528781600481895afa60009181611ce9575b50611b32576084886040519062461bcd60e51b82526004820152602e60248201527f45524331393637557067726164653a206e657720696d706c656d656e7461746960448201527f6f6e206973206e6f7420555550530000000000000000000000000000000000006064820152fd5b03611c7f57611b40836121a6565b604051937fbc7cd75a20ee27fd9adebab32041f755214dbc6bffa90cc0225b39da2e5c2d3b600086a2805115801590611c77575b611b84575b505050509050604051f35b611b8d84611ed4565b602784527f416464726573733a206c6f772d6c6576656c2064656c65676174652063616c6c868501527f206661696c6564000000000000000000000000000000000000000000000000006040850152823b15611c0d57611c02949592600092839251915af43d156116cf573d6116a881611f13565b508038808080611b79565b6084866040519062461bcd60e51b82526004820152602660248201527f416464726573733a2064656c65676174652063616c6c20746f206e6f6e2d636f60448201527f6e747261637400000000000000000000000000000000000000000000000000006064820152fd5b506000611b74565b6084866040519062461bcd60e51b82526004820152602960248201527f45524331393637557067726164653a20756e737570706f727465642070726f7860448201527f6961626c655555494400000000000000000000000000000000000000000000006064820152fd5b90918982813d8311611d11575b611d008183611ef0565b810103126103ad5750519038611ac3565b503d611cf6565b50346103ad57806003193601126103ad5760206001600160a01b0360045416604051908152f35b50346103ad57806003193601126103ad5760206001600160a01b0360055416604051908152f35b50346103ad5760206003193601126103ad5780611d81611e7c565b611d89612015565b6001600160a01b0380600554169116825260066020526040822054813b1561119a576040517f744bfe61000000000000000000000000000000000000000000000000000000008152600481019190915233602482015291908290604490829084905af1801561118f57611dfc5750604051f35b611e0590611ec0565b3861021d565b50346103ad5760206003193601126103ad5760406020916001600160a01b03611e32611e7c565b168152600183522054604051908152f35b9050346105305760206003193601126105305760ff60406020936001600160a01b03611e6d611e7c565b16815280855220541615158152f35b600435906001600160a01b03821682036103a457565b9181601f840112156103a45782359167ffffffffffffffff83116103a457602083818601950101116103a457565b67ffffffffffffffff8111610f8357604052565b6060810190811067ffffffffffffffff821117610f8357604052565b90601f601f19910116810190811067ffffffffffffffff821117610f8357604052565b67ffffffffffffffff8111610f8357601f01601f191660200190565b929192611f3b82611f13565b91611f496040519384611ef0565b8294818452818301116103a4578281602093846000960137010152565b918091926000905b828210611f86575011611f7f575050565b6000910152565b91508060209183015181860152018291611f6e565b90601f19601f602093611fb981518092818752878088019101611f66565b0116010190565b600754811015610ee95760076000527fa66cc928b5edb82af9bd49922954155ab7b0942694bea4ce44661d9a8736c6880190600090565b9080601f830112156103a45781602061201293359101611f2f565b90565b6001600160a01b0360685416330361202957565b606460405162461bcd60e51b815260206004820152602060248201527f4f776e61626c653a2063616c6c6572206973206e6f7420746865206f776e65726044820152fd5b606854906001600160a01b03809116918273ffffffffffffffffffffffffffffffffffffffff19821617606855167f8be0079c531659141344cd1fd0a4f28419497f9722a3daafe3b4186f6b6457e06000604051a3565b156120cb57565b608460405162461bcd60e51b815260206004820152602c60248201527f46756e6374696f6e206d7573742062652063616c6c6564207468726f7567682060448201527f64656c656761746563616c6c00000000000000000000000000000000000000006064820152fd5b1561213c57565b608460405162461bcd60e51b815260206004820152602c60248201527f46756e6374696f6e206d7573742062652063616c6c6564207468726f7567682060448201527f6163746976652070726f787900000000000000000000000000000000000000006064820152fd5b803b156121f6576001600160a01b037f360894a13ba1a3210667c828492db98dca3e2076cc3735a920a3ca505d382bbc911673ffffffffffffffffffffffffffffffffffffffff19825416179055565b608460405162461bcd60e51b815260206004820152602d60248201527f455243313936373a206e657720696d706c656d656e746174696f6e206973206e60448201527f6f74206120636f6e7472616374000000000000000000000000000000000000006064820152fd5b9091901561226c575090565b81511561227c5750805190602001fd5b6122a09060405191829162461bcd60e51b8352602060048401526024830190611f9b565b0390fd5b601f8260209493601f19938186528686013760008582860101520116010190565b519063ffffffff821682036103a457565b51906bffffffffffffffffffffffff821682036103a457565b519062ffffff821682036103a457565b51906001600160a01b03821682036103a457565b90918183039261022084126103a457608084126103a4576040805167ffffffffffffffff9290916080830184811184821017610f83578152612354866122c5565b83527fffffffffffffffffffffffffffffffffffffffffffffffffffffffffffffff806020936123858589016122d6565b858201528288015183820152606088015160608201529761018091829101126103a45781519080820182811087821117610f835783526123c7608089016122c5565b82526123d560a089016122c5565b858301526123e560c089016122ef565b838301526123f560e089016122c5565b6060830152610100612408818a016122ef565b6080840152610120808a015161ffff811681036103a45760a085015261014091612433838c016122d6565b60c086015261016093612447858d016122c5565b60e08701528b0151908501526101a08a01519084015261246a6101c08a016122ff565b9083015261247b6101e089016122ff565b9082015295610200810151908582116103a4570182601f820112156103a4578051948511610f83578460051b9151946124b685840187611ef0565b855283808601928201019283116103a4578301905b8282106124d9575050505090565b8380916124e5846122ff565b8152019101906124cb565b6000906000906060809280600754926001600160a01b0360059080825416935b8681106125205750505050505050565b8161252a82611fc0565b90549060031b1c1680875260209060068252604090818920548251907fc7c3a19a00000000000000000000000000000000000000000000000000000000825260049081830152818b818c60249384915afa9182156127fd578c938d93612718575b5067ffffffffffffffff8093169286517f200d2ed2000000000000000000000000000000000000000000000000000000008152888184818a5afa90811561270c578f916126d3575b508b8110156126c157821490816126b7575b5061268b577fffffffffffffffffffffffffffffffffffffffffffffffffffffffffffffffcd831161267a57505060320143119081612662575b50612638575050506000198114610ed557600101612510565b985098995099505050505050508151938401526001908181850152835261265e83611ed4565b9190565b6bffffffffffffffffffffffff91501615153861261f565b60118d91634e487b7160e01b835252fd5b50505050979850989950995050505050508251948501528184015282526126b182611ed4565b60019190565b90508314386125e5565b838f602185634e487b7160e01b835252fd5b90508881813d8311612705575b6126ea8183611ef0565b8101031261270157518b81101561270157386125d3565b8e80fd5b503d6126e0565b8f8951903d90823e3d90fd5b935091503d808d853e61272b8185611ef0565b830192610100818503126127f957612742816122ff565b5061274e8782016122c5565b50858101519367ffffffffffffffff9485811161270157820181601f820112156127015780519161277e83611f13565b9061278b8a519283611ef0565b8382528a84840101116127f5579089806127a89493019101611f66565b6127b38b82016122d6565b906127c0608082016122ff565b506127cd60a082016122ff565b5060c081015194851685036127f15760e06127e891016122d6565b5092913861258b565b8d80fd5b8f80fd5b8c80fd5b85513d8e823e3d90fdfea264697066735822122000b768275b0d507d6dcc61de6c4961a9fc13bad251dd152d8f5baf8e9296f33c64736f6c634300080f0033",
  "devdoc": {
    "kind": "dev",
    "methods": {
      "cancelUpKeep(address)": {
        "details": "use in development"
      },
      "checkUpkeep(bytes)": {
        "details": "check Upkeep"
      },
      "owner()": {
        "details": "Returns the address of the current owner."
      },
      "performUpkeep(bytes)": {
        "details": "two kind of perform 0: cancel upKeep of campaign 1: withdraw upKeep $link"
      },
      "proxiableUUID()": {
        "details": "Implementation of the ERC1822 {proxiableUUID} function. This returns the storage slot used by the implementation. It is used to validate that the this implementation remains valid after an upgrade. IMPORTANT: A proxy pointing at a proxiable contract should not be considered proxiable itself, because this risks bricking a proxy that upgrades to it, by delegating to itself until out of gas. Thus it is critical that this function revert if invoked through a proxy. This is guaranteed by the `notDelegated` modifier."
      },
      "renounceOwnership()": {
        "details": "Leaves the contract without owner. It will not be possible to call `onlyOwner` functions anymore. Can only be called by the current owner. NOTE: Renouncing ownership will leave the contract without an owner, thereby removing any functionality that is only available to the owner."
      },
      "saveOwnerInAdmin()": {
        "details": "compatible with hardhat deploy, maybe removed later"
      },
      "setKeepUpRecords(address,(uint256))": {
        "details": "use in development, manually edit data"
      },
      "transferOwnership(address)": {
        "details": "Transfers ownership of the contract to a new account (`newOwner`). Can only be called by the current owner."
      },
      "upgradeTo(address)": {
        "details": "Upgrade the implementation of the proxy to `newImplementation`. Calls {_authorizeUpgrade}. Emits an {Upgraded} event."
      },
      "upgradeToAndCall(address,bytes)": {
        "details": "Upgrade the implementation of the proxy to `newImplementation`, and subsequently execute the function call encoded in `data`. Calls {_authorizeUpgrade}. Emits an {Upgraded} event."
      },
      "withdrawUpKeep(address)": {
        "details": "use in development"
      }
    },
    "version": 1
  },
  "userdoc": {
    "kind": "user",
    "methods": {},
    "version": 1
  },
  "storageLayout": {
    "storage": [
      {
        "astId": 5707,
        "contract": "contracts/CampaignFactoryUpgradable.sol:CampaignFactoryUpgradable",
        "label": "whiteUsers",
        "offset": 0,
        "slot": "0",
        "type": "t_mapping(t_address,t_bool)"
      },
      {
        "astId": 5712,
        "contract": "contracts/CampaignFactoryUpgradable.sol:CampaignFactoryUpgradable",
        "label": "whiteTokens",
        "offset": 0,
        "slot": "1",
        "type": "t_mapping(t_contract(IERC20Upgradeable)686,t_uint256)"
      },
      {
        "astId": 5715,
        "contract": "contracts/CampaignFactoryUpgradable.sol:CampaignFactoryUpgradable",
        "label": "i_campaign",
        "offset": 0,
        "slot": "2",
        "type": "t_contract(ICampaign)7059"
      },
      {
        "astId": 5718,
        "contract": "contracts/CampaignFactoryUpgradable.sol:CampaignFactoryUpgradable",
        "label": "i_link",
        "offset": 0,
        "slot": "3",
        "type": "t_contract(LinkTokenInterface)325"
      },
      {
        "astId": 5720,
        "contract": "contracts/CampaignFactoryUpgradable.sol:CampaignFactoryUpgradable",
        "label": "registrar",
        "offset": 0,
        "slot": "4",
        "type": "t_address"
      },
      {
        "astId": 5723,
        "contract": "contracts/CampaignFactoryUpgradable.sol:CampaignFactoryUpgradable",
        "label": "i_registry",
        "offset": 0,
        "slot": "5",
        "type": "t_contract(AutomationRegistryInterface)210"
      },
      {
        "astId": 5731,
        "contract": "contracts/CampaignFactoryUpgradable.sol:CampaignFactoryUpgradable",
        "label": "keepUpRecords",
        "offset": 0,
        "slot": "6",
        "type": "t_mapping(t_address,t_struct(UpKeepInfo)5726_storage)"
      },
      {
        "astId": 5734,
        "contract": "contracts/CampaignFactoryUpgradable.sol:CampaignFactoryUpgradable",
        "label": "OnGoingCampaigns",
        "offset": 0,
        "slot": "7",
        "type": "t_array(t_address)dyn_storage"
      },
      {
        "astId": 5738,
        "contract": "contracts/CampaignFactoryUpgradable.sol:CampaignFactoryUpgradable",
        "label": "__gap",
        "offset": 0,
        "slot": "8",
        "type": "t_array(t_uint256)45_storage"
      },
      {
        "astId": 464,
        "contract": "contracts/CampaignFactoryUpgradable.sol:CampaignFactoryUpgradable",
        "label": "_initialized",
        "offset": 0,
        "slot": "53",
        "type": "t_uint8"
      },
      {
        "astId": 467,
        "contract": "contracts/CampaignFactoryUpgradable.sol:CampaignFactoryUpgradable",
        "label": "_initializing",
        "offset": 1,
        "slot": "53",
        "type": "t_bool"
      },
      {
        "astId": 2340,
        "contract": "contracts/CampaignFactoryUpgradable.sol:CampaignFactoryUpgradable",
        "label": "__gap",
        "offset": 0,
        "slot": "54",
        "type": "t_array(t_uint256)50_storage"
      },
      {
        "astId": 336,
        "contract": "contracts/CampaignFactoryUpgradable.sol:CampaignFactoryUpgradable",
        "label": "_owner",
        "offset": 0,
        "slot": "104",
        "type": "t_address"
      },
      {
        "astId": 456,
        "contract": "contracts/CampaignFactoryUpgradable.sol:CampaignFactoryUpgradable",
        "label": "__gap",
        "offset": 0,
        "slot": "105",
        "type": "t_array(t_uint256)49_storage"
      }
    ],
    "types": {
      "t_address": {
        "encoding": "inplace",
        "label": "address",
        "numberOfBytes": "20"
      },
      "t_array(t_address)dyn_storage": {
        "base": "t_address",
        "encoding": "dynamic_array",
        "label": "address[]",
        "numberOfBytes": "32"
      },
      "t_array(t_uint256)45_storage": {
        "base": "t_uint256",
        "encoding": "inplace",
        "label": "uint256[45]",
        "numberOfBytes": "1440"
      },
      "t_array(t_uint256)49_storage": {
        "base": "t_uint256",
        "encoding": "inplace",
        "label": "uint256[49]",
        "numberOfBytes": "1568"
      },
      "t_array(t_uint256)50_storage": {
        "base": "t_uint256",
        "encoding": "inplace",
        "label": "uint256[50]",
        "numberOfBytes": "1600"
      },
      "t_bool": {
        "encoding": "inplace",
        "label": "bool",
        "numberOfBytes": "1"
      },
      "t_contract(AutomationRegistryInterface)210": {
        "encoding": "inplace",
        "label": "contract AutomationRegistryInterface",
        "numberOfBytes": "20"
      },
      "t_contract(ICampaign)7059": {
        "encoding": "inplace",
        "label": "contract ICampaign",
        "numberOfBytes": "20"
      },
      "t_contract(IERC20Upgradeable)686": {
        "encoding": "inplace",
        "label": "contract IERC20Upgradeable",
        "numberOfBytes": "20"
      },
      "t_contract(LinkTokenInterface)325": {
        "encoding": "inplace",
        "label": "contract LinkTokenInterface",
        "numberOfBytes": "20"
      },
      "t_mapping(t_address,t_bool)": {
        "encoding": "mapping",
        "key": "t_address",
        "label": "mapping(address => bool)",
        "numberOfBytes": "32",
        "value": "t_bool"
      },
      "t_mapping(t_address,t_struct(UpKeepInfo)5726_storage)": {
        "encoding": "mapping",
        "key": "t_address",
        "label": "mapping(address => struct CampaignFactoryStorage.UpKeepInfo)",
        "numberOfBytes": "32",
        "value": "t_struct(UpKeepInfo)5726_storage"
      },
      "t_mapping(t_contract(IERC20Upgradeable)686,t_uint256)": {
        "encoding": "mapping",
        "key": "t_contract(IERC20Upgradeable)686",
        "label": "mapping(contract IERC20Upgradeable => uint256)",
        "numberOfBytes": "32",
        "value": "t_uint256"
      },
      "t_struct(UpKeepInfo)5726_storage": {
        "encoding": "inplace",
        "label": "struct CampaignFactoryStorage.UpKeepInfo",
        "members": [
          {
            "astId": 5725,
            "contract": "contracts/CampaignFactoryUpgradable.sol:CampaignFactoryUpgradable",
            "label": "upKeepId",
            "offset": 0,
            "slot": "0",
            "type": "t_uint256"
          }
        ],
        "numberOfBytes": "32"
      },
      "t_uint256": {
        "encoding": "inplace",
        "label": "uint256",
        "numberOfBytes": "32"
      },
      "t_uint8": {
        "encoding": "inplace",
        "label": "uint8",
        "numberOfBytes": "1"
      }
    }
  }
}