{
  "address": "0x0C68509d5de931E2b1A4585290C8A811767C731f",
  "abi": [
    {
      "inputs": [
        {
          "internalType": "uint256",
          "name": "id",
          "type": "uint256"
        }
      ],
      "name": "renderTokenById",
      "outputs": [
        {
          "internalType": "string",
          "name": "",
          "type": "string"
        }
      ],
      "stateMutability": "view",
      "type": "function"
    }
  ],
  "transactionHash": "0x377df0a9012ba9c4eb09ba7003b2dada4f5c1268e6328d745b8586c70cf7f2d1",
  "args": [],
  "numDeployments": 2,
  "solcInputHash": "e24ac4a13ca99c1011043cdab655ee59",
  "bytecode": "0x60808060405234610016576118ba908161001c8239f35b600080fdfe608080604052600436101561001357600080fd5b60003560e01c63a2d6c6da1461002857600080fd5b346115125760207ffffffffffffffffffffffffffffffffffffffffffffffffffffffffffffffffc360112611512576004357fef78d4fd000000000000000000000000000000000000000000000000000000008252602082600481335afa9182156115175760009261168b575b506040517fb6f625e60000000000000000000000000000000000000000000000000000000092838252602082600481335afa91821561151757600092611657575b5080600019048211811515166112d6576100f69162015180910204611794565b90610155604061011281519482602087015260608601906116f4565b7f4461797300000000000000000000000000000000000000000000000000000000602086830392601f198401858901526004815201526020810185520183611735565b6040517f4edea111000000000000000000000000000000000000000000000000000000008152816004820152604081602481335afa908115611517576000916115f0575b505160078110156115da5760050361159f576040516101b781611719565b600581527f427261766f00000000000000000000000000000000000000000000000000000060208201525b604051937f76671808000000000000000000000000000000000000000000000000000000008552602085600481335afa9485156115175760009561156b575b507ffffffffffffffffffffffffffffffffffffffffffffffffffffffffffffffffe85116112d6576001850160001904606411600186011515166112d657604051908152602081600481335afa90811561151757600091611539575b50801561152357604051927f06fdde03000000000000000000000000000000000000000000000000000000008452600084600481335afa9384156115175760009461147e575b5073ffffffffffffffffffffffffffffffffffffffff1694604051956060870187811067ffffffffffffffff82111761146857604052602a87526020870160403682378751156114525760309053865160011015611452576078602188015360295b6001811161140157506113a35760405161033e81611719565b600681526020368183013760005b6006811061136057506040519661036288611719565b60048852602036818a013760265b602a81106112ec5750506064916103e860236001936040519a8161039e8d93518092602080870191016116bf565b82017f2e2e2e000000000000000000000000000000000000000000000000000000000060208201526103d982518093602087850191016116bf565b0103600381018b520189611735565b0102048060001904605211811515166112d6576112d2947f22206865696768743d22362e363535222072783d22332e333237222066696c6c610c0c937f3c2f746578743e3c672066696c7465723d2275726c28237072656669785f5f666112be96610479606460527f3c2f746578743e3c746578742064783d223535222064793d223131302220646f980204611794565b94604051998a9788927f3c7376672077696474683d2231313422206865696768743d223137352220666960208501527f6c6c3d226e6f6e652220786d6c6e733d22687474703a2f2f7777772e77332e6f60408501527f72672f323030302f737667223e3c672066696c7465723d2275726c282370726560608501527f6669785f5f66696c746572305f645f3737345f3337393029223e3c726563742060808501527f783d2232222077696474683d2231313022206865696768743d223137312e343560a08501527f39222072783d22382e373135222066696c6c3d2275726c28237072656669785f60c08501527f5f7061696e74305f6c696e6561725f3737345f3337393029222073686170652d60e08501527f72656e646572696e673d2263726973704564676573222f3e3c2f673e3c7465786101008501527f742064783d223630222064793d2231382220646f6d696e616e742d626173656c6101208501527f696e653d2263656e7472616c2220746578742d616e63686f723d226d6964646c6101408501527f6522207374796c653d226865696768743a31303070782220666f6e742d73697a6101608501527f653d2237222066696c6c3d2223303030223e000000000000000000000000000061018085015261066581518092602061019280980191016116bf565b8901928301527f6d696e616e742d626173656c696e653d2263656e7472616c2220746578742d61806101b28401527f3c2f746578743e3c746578742064783d223630222064793d223135342220646f7f6e63686f723d226d6964646c6522207374796c653d226865696768743a31303092836101d28601527f3c2f746578743e3c746578742064783d223630222064793d223134302220646f7f70782220666f6e742d73697a653d2237222066696c6c3d2223303030223e000095866101f282015282519061073e8261021095602087850191016116bf565b019182015282610230820152836102508201527f70782220666f6e742d73697a653d2236222066696c6c3d2223303030223e000061027082015285519061078f8261028e9860208a850191016116bf565b01948501526102ae8401526102ce8301526102ee8201528251906107bd8261030c95602087850191016116bf565b01918201527f696c746572315f64645f3737345f3337393029222073686170652d72656e646561032c8201527f72696e673d2263726973704564676573223e3c636972636c652063783d22313961034c8201527f2e383131222063793d2231372e34322220723d2231302e373635222066696c6c61036c8201527f3d2223443944394439222066696c6c2d6f7061636974793d222e3339222f3e3c61038c8201527f636972636c652063783d2231392e383131222063793d2231372e34322220723d6103ac8201527f2231302e33323922207374726f6b653d222330303022207374726f6b652d6f706103cc8201527f61636974793d222e3522207374726f6b652d77696474683d222e383732222f3e6103ec8201527f3c2f673e3c7265637420783d2231372e3236372220793d223131372e3433382261040c8201527f2077696474683d22383222206865696768743d22362e363535222072783d223361042c8201527f2e333237222066696c6c3d2223666666222f3e3c7265637420783d2231372e3261044c8201527f36372220793d223131372e343338222077696474683d2200000000000000000061046c8201528251906109868261048395602087850191016116bf565b01918201527f3d2223464439334646222f3e3c646566733e3c66696c7465722069643d2270726104a38201527f656669785f5f66696c746572305f645f3737345f333739302220783d222e32356104c38201527f372220793d2230222077696474683d223131332e34383622206865696768743d6104e38201527f223137342e393435222066696c746572556e6974733d227573657253706163656105038201527f4f6e5573652220636f6c6f722d696e746572706f6c6174696f6e2d66696c74656105238201527f72733d2273524742223e3c6665466c6f6f6420666c6f6f642d6f7061636974796105438201527f3d22302220726573756c743d224261636b67726f756e64496d616765466978226105638201527f2f3e3c6665436f6c6f724d617472697820696e3d22536f75726365416c7068616105838201527f222076616c7565733d22302030203020302030203020302030203020302030206105a38201527f302030203020302030203020302031323720302220726573756c743d226861726105c38201527f64416c706861222f3e3c66654f66667365742064793d22312e373433222f3e3c6105e38201527f6665476175737369616e426c757220737464446576696174696f6e3d222e38376106038201527f32222f3e3c6665436f6d706f7369746520696e323d2268617264416c706861226106238201527f206f70657261746f723d226f7574222f3e3c6665436f6c6f724d6174726978206106438201527f76616c7565733d223020302030203020302030203020302030203020302030206106638201527f302030203020302030203020302e32352030222f3e3c6665426c656e6420696e6106838201527f323d224261636b67726f756e64496d6167654669782220726573756c743d22656106a38201527f6666656374315f64726f70536861646f775f3737345f33373930222f3e3c66656106c38201527f426c656e6420696e3d22536f75726365477261706869632220696e323d2265666106e38201527f66656374315f64726f70536861646f775f3737345f333739302220726573756c6107038201527f743d227368617065222f3e3c2f66696c7465723e3c66696c7465722069643d226107238201527f7072656669785f5f66696c746572315f64645f3737345f333739302220783d226107438201527f372e3330332220793d22362e363535222077696474683d2232352e30313622206107638201527f6865696768743d2232352e303136222066696c746572556e6974733d227573656107838201527f7253706163654f6e5573652220636f6c6f722d696e746572706f6c6174696f6e6107a38201527f2d66696c746572733d2273524742223e3c6665466c6f6f6420666c6f6f642d6f6107c38201527f7061636974793d22302220726573756c743d224261636b67726f756e64496d616107e38201527f6765466978222f3e3c6665436f6c6f724d617472697820696e3d22536f7572636108038201527f65416c706861222076616c7565733d22302030203020302030203020302030206108238201527f302030203020302030203020302030203020302031323720302220726573756c6108438201527f743d2268617264416c706861222f3e3c66654f66667365742064793d22312e376108638201527f3433222f3e3c6665476175737369616e426c757220737464446576696174696f6108838201527f6e3d222e383732222f3e3c6665436f6d706f7369746520696e323d22686172646108a38201527f416c70686122206f70657261746f723d226f7574222f3e3c6665436f6c6f724d6108c38201527f61747269782076616c7565733d223020302030203020302030203020302030206108e38201527f302030203020302030203020302030203020302e32352030222f3e3c6665426c6109038201527f656e6420696e323d224261636b67726f756e64496d61676546697822207265736109238201527f756c743d22656666656374315f64726f70536861646f775f3737345f333739306109438201527f222f3e3c6665436f6c6f724d617472697820696e3d22536f75726365416c70686109638201527f61222076616c7565733d223020302030203020302030203020302030203020306109838201527f20302030203020302030203020302031323720302220726573756c743d2268616109a38201527f7264416c706861222f3e3c66654f66667365742064793d22312e373433222f3e6109c38201527f3c6665476175737369616e426c757220737464446576696174696f6e3d222e386109e38201527f3732222f3e3c6665436f6d706f7369746520696e323d2268617264416c706861610a038201527f22206f70657261746f723d226f7574222f3e3c6665436f6c6f724d6174726978610a238201527f2076616c7565733d223020302030203020302030203020302030203020302030610a438201527f20302030203020302030203020302e32352030222f3e3c6665426c656e642069610a638201527f6e323d22656666656374315f64726f70536861646f775f3737345f3337393022610a838201527f20726573756c743d22656666656374325f64726f70536861646f775f3737345f610aa38201527f33373930222f3e3c6665426c656e6420696e3d22536f75726365477261706869610ac38201527f632220696e323d22656666656374325f64726f70536861646f775f3737345f33610ae38201527f3739302220726573756c743d227368617065222f3e3c2f66696c7465723e3c6c610b038201527f696e6561724772616469656e742069643d227072656669785f5f7061696e7430610b238201527f5f6c696e6561725f3737345f33373930222078313d223537222079313d223022610b438201527f2078323d223537222079323d223137312e34353922206772616469656e74556e610b638201527f6974733d227573657253706163654f6e557365223e3c73746f702073746f702d610b838201527f636f6c6f723d2223464446424332222f3e3c73746f70206f66667365743d2231610ba38201527f222073746f702d636f6c6f723d2223434637304435222073746f702d6f706163610bc38201527f6974793d222e3237222f3e3c2f6c696e6561724772616469656e743e3c2f6465610be38201527f66733e3c2f7376673e0000000000000000000000000000000000000000000000610c0382015203610bec810184520182611735565b6040519182916020835260208301906116f4565b0390f35b634e487b7160e01b600052601160045260246000fd5b7fff000000000000000000000000000000000000000000000000000000000000006113178284611783565b511690602681106112d65761135b9160001a6113557fffffffffffffffffffffffffffffffffffffffffffffffffffffffffffffffda83018c611783565b53611774565b610370565b807fff0000000000000000000000000000000000000000000000000000000000000061138f61139e938b611783565b511660001a6113558285611783565b61034c565b60646040517f08c379a000000000000000000000000000000000000000000000000000000000815260206004820152602060248201527f537472696e67733a20686578206c656e67746820696e73756666696369656e746044820152fd5b906010600f82161015611452577f3031323334353637383961626364656600000000000000000000000000000000600f82161a61143e838a611783565b5360041c9080156112d65760001901610325565b634e487b7160e01b600052603260045260246000fd5b634e487b7160e01b600052604160045260246000fd5b9093503d806000833e6114918183611735565b8101906020818303126115125780519067ffffffffffffffff821161151257019080601f83011215611512578151916114c983611758565b916114d76040519384611735565b838352602084830101116115125773ffffffffffffffffffffffffffffffffffffffff9261150b91602080850191016116bf565b93906102c3565b600080fd5b6040513d6000823e3d90fd5b634e487b7160e01b600052601260045260246000fd5b90506020813d602011611563575b8161155460209383611735565b8101031261151257513861027d565b3d9150611547565b9094506020813d602011611597575b8161158760209383611735565b8101031261151257519338610221565b3d915061157a565b6040516115ab81611719565b600681527f4661696c6564000000000000000000000000000000000000000000000000000060208201526101e2565b634e487b7160e01b600052602160045260246000fd5b90506040813d60401161164f575b8161160b60409383611735565b8101031261151257604051906040820182811067ffffffffffffffff8211176114685760405280519060078210156115125760209183520151602082015238610199565b3d91506115fe565b9091506020813d602011611683575b8161167360209383611735565b81010312611512575190386100d6565b3d9150611666565b9091506020813d6020116116b7575b816116a760209383611735565b8101031261151257519038610095565b3d915061169a565b918091926000905b8282106116df5750116116d8575050565b6000910152565b915080602091830151818601520182916116c7565b90601f19601f602093611712815180928187528780880191016116bf565b0116010190565b6040810190811067ffffffffffffffff82111761146857604052565b90601f601f19910116810190811067ffffffffffffffff82111761146857604052565b67ffffffffffffffff811161146857601f01601f191660200190565b60001981146112d65760010190565b908151811015611452570160200190565b801561184a5780816000925b61183657506117ae82611758565b916117bc6040519384611735565b80835281601f196117cc83611758565b013660208601375b6117dd57505090565b600181106112d6576000190190600a906030828206801982116112d6570160f81b7fff000000000000000000000000000000000000000000000000000000000000001660001a61182d8486611783565b530490816117d4565b91611842600a91611774565b9204806117a0565b5060405161185781611719565b600181527f300000000000000000000000000000000000000000000000000000000000000060208201529056fea26469706673582212209902d48ab2000c3f551595d5e8cc5b27d55e8cc5ca0a3fd9c37011a46d569c4864736f6c634300080f0033",
  "devdoc": {
    "kind": "dev",
    "methods": {},
    "version": 1
  },
  "userdoc": {
    "kind": "user",
    "methods": {},
    "version": 1
  },
  "storageLayout": {
    "storage": [],
    "types": null
  }
}