{
  "address": "0xcb04D6b4CAE28b827d11Ef9375f1acaf662Ccd0F",
  "abi": [
    {
      "inputs": [
        {
          "internalType": "uint256",
          "name": "id",
          "type": "uint256"
        }
      ],
      "name": "renderTokenById",
      "outputs": [
        {
          "internalType": "string",
          "name": "",
          "type": "string"
        }
      ],
      "stateMutability": "view",
      "type": "function"
    }
  ],
  "transactionHash": "0xe2b4b970bb7412d9223e7e4f1c0d7eb26cbdc5c8afe96ec2862d28ed9a400862",
  "args": [],
  "numDeployments": 7,
  "solcInputHash": "a6f856c57a050649603159091a7a4015",
  "bytecode": "0x6080806040523461001657612a28908161001c8239f35b600080fdfe608080604052600436101561001357600080fd5b60003560e01c63a2d6c6da1461002857600080fd5b346115aa5760207ffffffffffffffffffffffffffffffffffffffffffffffffffffffffffffffffc3601126115aa57600435907fef78d4fd0000000000000000000000000000000000000000000000000000000091828252602082600481335afa9182156115af57600092612791575b506040517fb6f625e60000000000000000000000000000000000000000000000000000000092838252602082600481335afa9182156115af5760009261275b575b506100eb6100f192620151809261284f565b046128be565b9261014560256040518661010f8298518092602080860191016127c5565b81017f20446179730000000000000000000000000000000000000000000000000000006020820152036005810187520185612816565b60606000918190604051907f78e979250000000000000000000000000000000000000000000000000000000091828152602081600481335afa9081156115af57600091612729575b5042101561160c57505050505090506040516101a8816127fa565b600b81527f4e6f74205374617274656400000000000000000000000000000000000000000060208201529060006040516102a0810181811067ffffffffffffffff8211176115005760405261027d81527f3c7265637420783d2234322e3030352220793d2236332e35312220776964746860208201527f3d2233312e32303422206865696768743d22362e383332222072783d22332e3460408201527f313622207374726f6b653d222338303637433722207374726f6b652d7769647460608201527f683d2232222f3e3c636972636c652063783d2235372e363038222063793d223660808201527f362e3438352220723d2232322e30353122207374726f6b653d2223383036374360a08201527f3722207374726f6b652d77696474683d2232222f3e3c7061746820643d224d3960c08201527f342e3539352038322e313738632d2e3520312e3331322d312e39303720322e3360e08201527f31352d342e32353420322e3931332d322e33332e3539332d352e34372e3735336101008201527f2d392e3231372e3437322d372e3438372d2e35362d31372e3237382d322e38366101208201527f352d32372e3538392d362e3739342d31302e33312d332e39332d31392e3135336101408201527f2d382e3732352d32352e3131332d31332e32392d322e3938332d322e3238342d6101608201527f352e3232312d342e3439322d362e3536362d362e3438362d312e3335332d322e6101808201527f3030382d312e3733362d332e3639342d312e3233362d352e3030362e352d312e6101a08201527f33313220312e3930382d322e33313620342e3235342d322e39313320322e33336101c08201527f2d2e35393320352e34372d2e37353320392e3231372d2e34373220372e3438376101e08201527f2e35362031372e32373820322e3836352032372e353920362e3739342031302e6102008201527f333120332e39332031392e31353220382e3732352032352e3131332031332e326102208201527f3920322e39383320322e32383320352e323220342e34393220362e35363520366102408201527f2e34383620312e33353420322e30303820312e37333620332e36393420312e326102608201527f333620352e3030367a22207374726f6b653d2223464439334646222f3e000000610280820152905b604051927f6352211e0000000000000000000000000000000000000000000000000000000084526004840152602083602481335afa9283156115af576000936115bb575b50604051927f06fdde03000000000000000000000000000000000000000000000000000000008452600084600481335afa9384156115af57600094611516575b5073ffffffffffffffffffffffffffffffffffffffff1692604051936060850185811067ffffffffffffffff82111761150057604052602a85526020850160403682378551156114ea57603090538451600110156114ea576078602186015360295b6001811161149b575061143d576040516105fe816127fa565b600681526020368183013760005b600681106113fa575060405194610622866127fa565b600486526020368188013760265b602a811061138657505060236106a39160405196816106598993518092602080870191016127c5565b82017f2e2e2e0000000000000000000000000000000000000000000000000000000000602082015261069482518093602087850191016127c5565b01036003810187520185612816565b6106ac826128be565b926107006021604051866106ca8298518092602080860191016127c5565b81017f25000000000000000000000000000000000000000000000000000000000000006020820152036001810187520185612816565b8260001904605a1183151516611370577f3c7061746820643d224d39362e343636203135302e3932376c2d2e30352e30346040967f22206865696768743d22362e363039222072783d22332e333034222066696c6c611342967f3c2f746578743e3c7265637420783d2231322e3630372220793d223132302e35601f9b7f3c2f746578743e3c746578742064783d223337222064793d2231352220646f6d9a6107b16064605a6109b79c02046128be565b957f3c2f746578743e3c746578742064783d223537222064793d223131322220646f8e51809e819c7f3c7376672077696474683d2231313522206865696768743d2231373622206669602084015260407f6c6c3d226e6f6e652220786d6c6e733d22687474703a2f2f7777772e77332e6f908401527f72672f323030302f737667223e3c672066696c7465723d2275726c282370726560608401527f6669785f5f66696c746572305f645f3835355f3339343329223e3c706174682060808401527f643d224d322e36303720392e363441392e33303820392e33303820302030313160a08401527f312e3931352e333334483130332e3361392e33303720392e333037203020303160c08401527f392e33303720392e333038763135322e38343461392e33303720392e3330372060e08401527f302030312d392e33303720392e3330374831312e39313561392e33303720392e6101008401527f33303720302030312d392e3330382d392e33303756392e3634317a222066696c6101208401527f6c3d2275726c28237072656669785f5f7061696e74305f6c696e6561725f38356101408401527f355f3339343329222f3e3c2f673e3c746578742064783d223430222064793d226101608401527f3134362220646f6d696e616e742d626173656c696e653d2263656e7472616c226101808401527f20746578742d616e63686f723d226d6964646c6522207374796c653d226865696101a08401527f6768743a31303070782220666f6e742d73697a653d2238222066696c6c3d22236101c08401527f303030223e0000000000000000000000000000000000000000000000000000006101e0840152610a328151809260206101e580970191016127c5565b8d01918201527f696e616e742d626173656c696e653d2263656e7472616c2220746578742d616e6102058201527f63686f723d226d6964646c6522207374796c653d226865696768743a313030706102258201527f782220666f6e742d73697a653d2237222066696c6c3d2223303030223e000000610245820152835190610ac48261026296602088850191016127c5565b01928301527f3c2f746578743e3c746578742064783d223538222064793d223133342220646f7f6d696e616e742d626173656c696e653d2263656e7472616c2220746578742d6191826102828501527f3c2f746578743e3c746578742064783d223239222064793d223135382220646f7f6e63686f723d226d6964646c6522207374796c653d226865696768743a31303094856102a28201527f70782220666f6e742d73697a653d2239222066696c6c3d2223303030223e00006102c2820152825190610b9b826102e095602087850191016127c5565b019182015282610300820152836103208201527f70782220666f6e742d73697a653d2238222066696c6c3d2223303030223e0000610340820152845190610bec8261035e97602089850191016127c5565b019384015261037e83015261039e8201527f70782220666f6e742d73697a653d2236222066696c6c3d2223303030223e00006103be820152825190610c3b826103dc95602087850191016127c5565b01918201527f3434222077696474683d22393022206865696768743d22362e363535222072786103fc8201527f3d22332e333237222066696c6c3d2223666666222f3e3c7265637420783d223161041c8201527f322e3630372220793d223132302e3539222077696474683d220000000000000061043c820152825190610ccc8261045595602087850191016127c5565b01918201527f3d2223464439334646222f3e0000000000000000000000000000000000000000610475820152825190610d0f8261048195602087850191016127c5565b01918201527f392d2e3035332d2e303439632d322e3332342d322e3130392d332e38362d332e6104a18201527f3530342d332e38362d342e39313820302d2e3937382e3733332d312e373132206104c18201527f312e3731322d312e3731322e373533203020312e3438372e34383920312e37346104e18201527f3720312e313534682e3931632e32362d2e3636352e3939332d312e31353420316105018201527f2e3734372d312e3135342e393738203020312e3731322e37333420312e3731326105218201527f20312e373132203020312e3431342d312e35333620322e3830392d332e3836356105418201527f20342e3931387a6d322e3135332d372e36303961322e393420322e39342030206105618201527f30302d322e32303220312e30313820322e39343120322e39343120302030302d6105818201527f322e3230322d312e30313820322e36363220322e36363220302030302d322e366105a18201527f393220322e363931633020312e38343520312e36363420332e33353720342e316105c18201527f383420352e3634326c2e37312e3634362e37312d2e36343663322e35322d322e6105e18201527f32383520342e3138332d332e37393720342e3138332d352e36343261322e36366106018201527f3220322e36363220302030302d322e3639312d322e3639317a222066696c6c3d6106218201527f2223303030222f3e3c646566733e3c6c696e6561724772616469656e742069646106418201527f3d227072656669785f5f7061696e74305f6c696e6561725f3835355f333934336106618201527f222078313d2235392e303936222079313d222e333333222078323d2235392e306106818201527f3936222079323d223137312e37393222206772616469656e74556e6974733d226106a18201527f7573657253706163654f6e557365223e3c73746f702073746f702d636f6c6f726106c18201527f3d2223443745434646222f3e3c73746f70206f66667365743d2231222073746f6106e18201527f702d636f6c6f723d2223464344334646222f3e3c2f6c696e65617247726164696107018201527f656e743e3c66696c7465722069643d227072656669785f5f66696c746572305f6107218201527f645f3835355f333934332220783d222e3734362220793d222e333333222077696107418201527f6474683d223131332e37323322206865696768743d223137352e3138322220666107618201527f696c746572556e6974733d227573657253706163654f6e5573652220636f6c6f6107818201527f722d696e746572706f6c6174696f6e2d66696c746572733d2273524742223e3c6107a18201527f6665466c6f6f6420666c6f6f642d6f7061636974793d22302220726573756c746107c18201527f3d224261636b67726f756e64496d616765466978222f3e3c6665436f6c6f724d6107e18201527f617472697820696e3d22536f75726365416c706861222076616c7565733d22306108018201527f2030203020302030203020302030203020302030203020302030203020302030806108218301527f20302031323720302220726573756c743d2268617264416c706861222f3e3c666108418301527f654f66667365742064793d22312e383632222f3e3c6665476175737369616e426108618301527f6c757220737464446576696174696f6e3d222e393331222f3e3c6665436f6d706108818301527f6f7369746520696e323d2268617264416c70686122206f70657261746f723d226108a18301527f6f7574222f3e3c6665436f6c6f724d61747269782076616c7565733d223020306108c18301526108e18201527f20302e32352030222f3e3c6665426c656e6420696e323d224261636b67726f756109018201527f6e64496d6167654669782220726573756c743d22656666656374315f64726f706109218201527f536861646f775f3835355f33393433222f3e3c6665426c656e6420696e3d22536109418201527f6f75726365477261706869632220696e323d22656666656374315f64726f70536109618201527f6861646f775f3835355f333934332220726573756c743d227368617065222f3e6109818201527f3c2f66696c7465723e3c2f646566733e3c2f7376673e000000000000000000006109a182015203610997810184520182612816565b601f1982519384926020845261136781518092816020880152602088880191016127c5565b01168101030190f35b634e487b7160e01b600052601160045260246000fd5b7fff000000000000000000000000000000000000000000000000000000000000006113b182846128ad565b51169060268110611370576113f59160001a6113ef7fffffffffffffffffffffffffffffffffffffffffffffffffffffffffffffffda83018a6128ad565b5361289e565b610630565b807fff0000000000000000000000000000000000000000000000000000000000000061142961143893896128ad565b511660001a6113ef82856128ad565b61060c565b60646040517f08c379a000000000000000000000000000000000000000000000000000000000815260206004820152602060248201527f537472696e67733a20686578206c656e67746820696e73756666696369656e746044820152fd5b90600f811660108110156114ea577f3031323334353637383961626364656600000000000000000000000000000000901a6114d683886128ad565b5360041c90801561137057600019016105e5565b634e487b7160e01b600052603260045260246000fd5b634e487b7160e01b600052604160045260246000fd5b9093503d806000833e6115298183612816565b8101906020818303126115aa5780519067ffffffffffffffff82116115aa57019080601f830112156115aa5781519161156183612882565b9161156f6040519384612816565b838352602084830101116115aa5773ffffffffffffffffffffffffffffffffffffffff926115a391602080850191016127c5565b9390610583565b600080fd5b6040513d6000823e3d90fd5b9092506020813d602011611604575b816115d760209383612816565b810103126115aa575173ffffffffffffffffffffffffffffffffffffffff811681036115aa579138610543565b3d91506115ca565b604051918252602082600481335afa9182156115af576000926126f5575b50604051908152602081600481335afa9081156115af576000916126c3575b5060405190878252602082600481335afa9081156115af5760009161268d575b611673925061284f565b90811981116113705701421015611b6c57505050604051611693816127fa565b600781527f4f6e476f696e67000000000000000000000000000000000000000000000000006020820152916040517f76671808000000000000000000000000000000000000000000000000000000008152602081600481335afa9081156115af57600091611b3a575b5060011981116113705760016117129101612839565b604051918252602082600481335afa9081156115af57600091611b04575b61173a9250612862565b604051610320810181811067ffffffffffffffff821117611500576040526102f881527f3c7061746820643d224d39342e3539352038342e363137632d2e3520312e333160208201527f312d312e39303720322e3331352d342e32353420322e3931332d322e33332e3560408201527f39332d352e34372e3735332d392e3231372e3437322d372e3438372d2e35362d60608201527f31372e3237382d322e3836352d32372e3538392d362e3739342d31302e33312d60808201527f332e39332d31392e3135332d382e3732352d32352e3131332d31332e32392d3260a08201527f2e3938332d322e3238342d352e3232312d342e3439322d362e3536362d362e3460c08201527f38362d312e3335332d322e3030382d312e3733362d332e3639342d312e32333660e08201527f2d352e3030362e352d312e33313220312e3930382d322e33313620342e3235346101008201527f2d322e39313320322e33332d2e35393320352e34372d2e37353320392e3231376101208201527f2d2e34373220372e3438372e35362031372e32373820322e3836352032372e356101408201527f3920362e3739342031302e333120332e39332031392e31353220382e373235206101608201527f32352e3131332031332e323920322e39383320322e32383420352e323220342e6101808201527f34393220362e35363520362e34383620312e33353420322e30303720312e37336101a08201527f3620332e36393420312e32333620352e3030357a22207374726f6b653d2223466101c08201527f4439334646222f3e3c7061746820643d224d38312e3235362036372e393934636101e08201527f312e3333342e373720312e33333420322e363934203020332e3436344c36332e6102008201527f3030372038312e393934632d312e3333332e37372d332d2e3139322d332d312e6102208201527f3733325635392e313963302d312e353420312e3636372d322e35303220332d316102408201527f2e3733326c31382e32352031302e3533367a4d35362e3031382036372e3939346102608201527f63312e3333332e373720312e33333320322e363934203020332e3436346c2d316102808201527f382e32352031302e353336632d312e3333332e37372d332d2e3139322d332d316102a08201527f2e3733325635392e313963302d312e353420312e3636372d322e35303220332d6102c08201527f312e3733326c31382e32352031302e3533367a22207374726f6b653d222338306102e08201527f3637433722207374726f6b652d77696474683d2232222f3e0000000000000000610300820152906104ff565b90506020823d602011611b32575b81611b1f60209383612816565b810103126115aa5761173a915190611730565b3d9150611b12565b90506020813d602011611b64575b81611b5560209383612816565b810103126115aa5751386116fc565b3d9150611b48565b604051927f4edea111000000000000000000000000000000000000000000000000000000008085528560048601526024946040818781335afa9081156115af5760009161266e575b50516007811015612659576005036120b55750505050604051611bd6816127fa565b600681527f4661696c656400000000000000000000000000000000000000000000000000006020820152926040517f76671808000000000000000000000000000000000000000000000000000000008152602081600481335afa9081156115af57600091612083575b50600119811161206e576001611c559101612839565b604051918252602082600481335afa9081156115af57600091612038575b611c7d9250612862565b906040519061030082019082821067ffffffffffffffff83111761202457506040526102df81527f3c7061746820643d224d39342e3539352037392e373538632d2e3520312e333160208201527f322d312e39303820322e3331362d342e32353420322e3931332d322e33332e3560408201527f39342d352e34372e3735332d392e3231372e3437332d372e3438372d2e35362d60608201527f31372e3237382d322e3836352d32372e35392d362e3739342d31302e33312d3360808201527f2e39332d31392e3135322d382e3732352d32352e3131332d31332e32392d322e60a08201527f3938332d322e3238342d352e32322d342e3439332d362e3536352d362e34383660c08201527f2d312e3335342d322e3030382d312e3733362d332e3639342d312e3233362d3560e08201527f2e3030362e352d312e33313220312e3930372d322e33313620342e3235342d326101008201527f2e39313320322e33332d2e35393420352e34372d2e37353320392e3231372d2e6101208201527f34373320372e3438372e35362031372e32373820322e3836352032372e3538396101408201527f20362e3739342031302e333120332e39332031392e31353320382e37323520326101608201527f352e3131332031332e323920322e39383320322e32383420352e32323120342e6101808201527f34393320362e35363620362e34383620312e33353320322e30303820312e37336101a08201527f3620332e36393420312e32333620352e3030367a22207374726f6b653d2223466101c08201527f4439334646222f3e3c7061746820643d224d35302e3834342034362e3234366c6101e08201527f332e3037322032382e363634613320332030203030322e39383320322e3638686102008201527f312e313332613320332030203030322e39382d322e3635346c332e3332372d326102208201527f382e3636346133203320302030302d322e39382d332e333436682d372e3533316102408201527f6133203320302030302d322e39383320332e33327a22207374726f6b653d22236102608201527f38303637433722207374726f6b652d77696474683d223222207374726f6b652d6102808201527f6c696e656a6f696e3d22726f756e64222f3e3c636972636c652063783d2235376102a08201527f2e363037222063793d2238362e3531392220723d22352e34383522207374726f6102c08201527f6b653d222338303637433722207374726f6b652d77696474683d2232222f3e006102e0820152906104ff565b634e487b7160e01b60005260416004526000fd5b90506020823d602011612066575b8161205360209383612816565b810103126115aa57611c7d915190611c73565b3d9150612046565b82634e487b7160e01b60005260116004526000fd5b90506020813d6020116120ad575b8161209e60209383612816565b810103126115aa575138611c3f565b3d9150612091565b909295506040939193519081528460048201526040818381335afa9081156115af5760009161262a575b50516007811015612615576004146120f8575b506104ff565b93505050604051612108816127fa565b600581527f427261766f0000000000000000000000000000000000000000000000000000006020820152916064906040519061040082019082821067ffffffffffffffff83111761202457506040526103d981527f3c7061746820643d224d39362e3031382038322e3036632d2e36333420312e3360208201527f37362d322e323220322e3334372d342e37363620322e3831352d322e35332e3460408201527f36352d352e38392e3430382d392e3836322d2e31362d372e3933382d312e313360608201527f382d31382e3230342d342e332d32382e3930352d392e3232392d31302e372d3460808201527f2e3932382d31392e3737362d31302e3637352d32352e3739392d31352e39372d60a08201527f332e3031342d322e3634382d352e3234312d352e3136352d362e3533322d372e60c08201527f33392d312e332d322e3233392d312e3539312d342e3037352d2e3935372d352e60e08201527f3435312e3633332d312e33373720322e3231392d322e33343820342e3736352d6101008201527f322e38313620322e35332d2e34363520352e38392d2e34303820392e3836322e6101208201527f313620372e39333820312e3133372031382e32303420342e332032382e3930356101408201527f20392e3232392031302e3720342e3932382031392e3737362031302e363735206101608201527f32352e382031352e39363920332e30313320322e363520352e323420352e31366101808201527f3620362e35333120372e333920312e3320322e323420312e35393220342e30376101a08201527f362e39353820352e3435327a22207374726f6b653d2223464439334646222f3e6101c08201527f3c7061746820643d224d33322e3038332036312e35336c342e3030382031372e6101e08201527f383135613220322030203030312e39353120312e35366833392e3737366132206102008201527f322030203030312e3936322d312e3631356c332e3530322d31372e393035632e6102208201527f3331342d312e3630392d312e3333342d322e3839322d322e3831372d322e31396102408201527f326c2d392e30323520342e32366132203220302030312d322e3537382d2e37396102608201527f346c2d392e3133312d31352e3532346132203220302030302d332e3430342d2e6102808201527f3037334c34362e3137342036322e3735356132203220302030312d322e3534336102a08201527f2e3731376c2d382e3733322d342e313834632d312e3530372d2e3732322d332e6102c08201527f3138322e3631332d322e38313520322e3234337a22207374726f6b653d2223386102e08201527f303637433722207374726f6b652d77696474683d2232222f3e3c636972636c656103008201527f2063783d2235382e303731222063793d2234322e37372220723d22322e3722206103208201527f7374726f6b653d222338303637433722207374726f6b652d77696474683d22326103408201527f222f3e3c636972636c652063783d2238332e323739222063793d2235362e32376103608201527f322220723d22322e3722207374726f6b653d222338303637433722207374726f6103808201527f6b652d77696474683d2232222f3e3c636972636c652063783d2233322e3134346103a08201527f222063793d2235362e3237322220723d22322e3722207374726f6b653d2223386103c08201527f303637433722207374726f6b652d77696474683d2232222f3e000000000000006103e082015290386120f2565b50634e487b7160e01b60005260216004526000fd5b61264c915060403d604011612652575b6126448183612816565b8101906129ae565b386120df565b503d61263a565b85634e487b7160e01b60005260216004526000fd5b612687915060403d604011612652576126448183612816565b38611bb4565b90506020823d6020116126bb575b816126a860209383612816565b810103126115aa57611673915190611669565b3d915061269b565b90506020813d6020116126ed575b816126de60209383612816565b810103126115aa575138611649565b3d91506126d1565b9091506020813d602011612721575b8161271160209383612816565b810103126115aa5751903861162a565b3d9150612704565b90506020813d602011612753575b8161274460209383612816565b810103126115aa57513861018d565b3d9150612737565b91506020823d602011612789575b8161277660209383612816565b810103126115aa579051906100eb6100d9565b3d9150612769565b9091506020813d6020116127bd575b816127ad60209383612816565b810103126115aa57519038610098565b3d91506127a0565b918091926000905b8282106127e55750116127de575050565b6000910152565b915080602091830151818601520182916127cd565b6040810190811067ffffffffffffffff82111761150057604052565b90601f601f19910116810190811067ffffffffffffffff82111761150057604052565b8060001904606411811515166113705760640290565b8060001904821181151516611370570290565b811561286c570490565b634e487b7160e01b600052601260045260246000fd5b67ffffffffffffffff811161150057601f01601f191660200190565b60001981146113705760010190565b9081518110156114ea570160200190565b80156129745780816000925b61296057506128d882612882565b916128e66040519384612816565b80835281601f196128f683612882565b013660208601375b61290757505090565b60018110611370576000190190600a90603082820680198211611370570160f81b7fff000000000000000000000000000000000000000000000000000000000000001660001a61295784866128ad565b530490816128fe565b9161296c600a9161289e565b9204806128ca565b50604051612981816127fa565b600181527f3000000000000000000000000000000000000000000000000000000000000000602082015290565b908160409103126115aa57604051906040820182811067ffffffffffffffff8211176115005760405280519060078210156115aa576020918352015160208201529056fea2646970667358221220e76be7cb64195cd3dd06b15a894d7418d6f0c51c44adf993a7cb5901cebe5e1864736f6c634300080f0033",
  "devdoc": {
    "kind": "dev",
    "methods": {},
    "version": 1
  },
  "userdoc": {
    "kind": "user",
    "methods": {},
    "version": 1
  },
  "storageLayout": {
    "storage": [],
    "types": null
  }
}